:020000040800F2
:10000000D0FF0010391A0008890100088901000892
:10001000890100088901000889010008000000002A
:100020000017019003F8A2590000000089010008A0
:100030008901000800000000491F0008F9180008A5
:100040008901000889010008890100088901000868
:100050008901000889010008890100088901000858
:100060008901000889010008890100088901000848
:100070008901000889010008890100088901000838
:100080008901000889010008890100088901000828
:100090008901000889010008890100088901000818
:1000A0008901000889010008890100088901000808
:1000B00089010008890100088901000889010008F8
:1000C00089010008890100088901000889010008E8
:1000D00089010008890100088901000889010008D8
:1000E00089010008890100088901000889010008C8
:1000F00089010008890100088901000889010008B8
:1001000089010008890100088901000889010008A7
:100110008901000889010008890100088901000897
:100120008901000889010008890100088901000887
:100130008901000889010008890100088901000877
:100140008901000889010008890100088901000867
:100150007122000889010008DD21000889010008DA
:100160008901000889010008890100088901000847
:100170008901000889010008890100088901000837
:100180008901000889010008FEE7000010B5054C50
:10019000237833B9044B13B10448AFF30080012333
:1001A000237010BD000000200000000050940008E3
:1001B00008B5034B1BB103490348AFF3008008BDEA
:1001C0000000000004000020509400082DE9F04FCA
:1001D0009DB00A908A4603930290002189464FF011
:1001E000FF37019100230024CDE904348B460E46ED
:1001F000551C1378002B00F08E85042900F26D85C4
:10020000DFE801F00315446B8300252B00F06885BF
:10021000D34508D20D2B06D00A2B08BF0D23029A16
:100220001370531C02930BF1010B2A46E0E7203BAD
:10023000102B00F26085DFE813F01D005E055E05FF
:1002400021005E055E055E0519005E055E055E0522
:1002500015005E0511005E055E05250049F00209E6
:100260002A46C5E749F004092A46C1E749F00809CA
:100270002A46BDE749F010092A46B9E749F02009A6
:100280002A46B5E749F001092A46B1E7A3F1300053
:10029000C0B2092806D806EB8602303B03EB4206C3
:1002A0002A46A5E72A2B0AD02E2B0CBF03210421B6
:1002B0002E2B08BF2A462E2B08BF002798E7039A4B
:1002C000131D1668002E02DB03932A4690E7764240
:1002D00049F0020903932A468AE7A3F13000C0B22D
:1002E000092806D807EB8707303B03EB47072A4668
:1002F0007EE72A2B01D004217AE7039B1F6847EA97
:10030000E777043303932A4672E7A3F14C022E2ABF
:1003100043D8DFE812F03D004200420042004200B4
:1003200042004200420042004200420042004200BD
:1003300042004200420042004200420042004200AD
:1003400042004200420042004200420042003300AC
:100350004200F304420038004200420042004200E2
:100360003D00420042002F00420042004200420095
:1003700042002F002A460123019339E7019B013BEC
:1003800001932A4634E7019B013301932A462FE764
:10039000019B023301932A462AE701990229A8BF4B
:1003A00002216FF001029142B8BF11460191A3F101
:1003B0004602322A00F28084DFE812F041007E0417
:1003C0007E047E047E047E047E047E047E047E041D
:1003D000D0017E047E047E047E047E047E047E04BE
:1003E00049027E047E047E047E047E047E047E0434
:1003F0007E047E047E04CE0301027E0443007E045C
:100400007E0401027E047E047E047E0442044E02C9
:10041000D2017E047E04EA037E0446027E047E044A
:10042000330010230B93019B0233042B00F2A581B0
:10043000DFE813F015021D0225022E02370249F0F3
:10044000800949F040031193039B073323F007030E
:1004500003F1080203921A680F925B680C93D3456C
:1004600034BFAAEB0B0300230E939DF94430A3493C
:10047000A34A11EA230138BF114613910022002339
:100480000F980C999F4CA04700285BD10F980C99AE
:100490009D4B98471490C117002800F08784069060
:1004A0000891002312930024A8460A220023974DA6
:1004B000A847013450EA0103F7D14546129B002BAF
:1004C00000F07884631C0B9319F0030240F07E84E3
:1004D0000B9B9E4251DD0B9BF21A029B4FF00008D2
:1004E00020210E98404584BF1970013308F101089E
:1004F0009045F7D10B9A1092129A002A44D000220C
:100500000E99414502D92D211970013308F10108D6
:10051000012A48D00E9AA242C0F00D8123441293C2
:1005200004EB08011591002C70DD0C465B1A17973F
:10053000CDF8609017461995CDF858B0DDF84C907D
:100540009B464FE00C9B03F100430C930F98194618
:100550006D4B98471490C11720B106900891012364
:100560001293A0E706900891012312931C46A5E779
:10057000109B0B93ACE70B94ADE70B9B10930B9682
:10058000029B4FF00008B7E7002200F030BC19F0E2
:10059000100FBDD00E99414502D9202119700133A9
:1005A00008F10108B4E70B9AA242B3DD109890421B
:1005B000B0DA4244121A30210E98404584BF1970B7
:1005C000013308F101089045F7D1109A0B92A1E789
:1005D0000A220023069808994C4DA84706900891D6
:1005E000A0450DD0013CA742F2D90A22002306986B
:1005F0000899464DA84719F802300BF80430E7E790
:10060000DDF858B0179FDDF86090199D19F0020FC2
:1006100012D00B9B109883420EDD15990B441B1AC8
:1006200020220E9C12988C4284BF0270013001314E
:100630009942F8D1159112900E9B159A934204D9C4
:100640002E23129A1370531C1293159B03F1010869
:10065000002FC0F2718314982D4B984702460B4629
:100660000F980C992B4CA047CDE90601002F64DDB3
:100670000E9B434561D9B946CDF820B00B960E9735
:100680001E460C95139F129DCDF83CA00022224BD4
:10069000DDE90601214CA047CDE90601B9F1010FC2
:1006A00040D0DDE90601184B984782464FEAE07BCF
:1006B00059461B4B984702460B46DDE90601154C8F
:1006C000A047CDE906010A220023504659460F4CA7
:1006D000A047BB5C05F8013B08F1010809F1FF39AF
:1006E000B9F1000F32DD4645D0D8DDF820B00B9EC1
:1006F0000E9F0C9DDDF83CA01FE000BFB4820008F7
:100700008C820008A5790008F5790008457A000870
:10071000ED7300085171000800002440C174000806
:1007200055740008DDF820B00B9E0E9F12950C9DAD
:10073000DDF83CA013E34FF00008029B4344029312
:10074000C344DDF844902A46002151E5DDF820B08D
:100750000B9E0E9F0C9DDDF83CA0EEE749F0800952
:1007600049F02009039A136818460021CDE90401D5
:10077000131D039310230B930827D34534BFAAEB13
:100780000B0300230E934FFA89F113918B4A8C4B84
:1007900012EA210238BF1A46119219F0400F00F0F8
:1007A0009980DDE90434002B74F10003C0F28880E5
:1007B000DDE90434CDE9063400230F9390E049F0DD
:1007C0004009019B0233042B77D8DFE803F0030EC6
:1007D00019242F00039B93F90010CA17CDE90412C6
:1007E000043303930A230B93C7E7039BB3F9001069
:1007F000CA17CDE90412043303930A230B93BCE711
:10080000039A13681846D917CDE90401131D039301
:100810000A230B93B1E7039A13681846D917CDE959
:100820000401131D03930A230B93A6E7039B0733CD
:1008300023F0070303F108020392D3E90034CDE962
:1008400004340A230B9398E70A230B93EBE549F052
:10085000800910230B93E6E508230B93E3E5039B44
:1008600019780022CDE904120433039385E7039B32
:1008700019880022CDE90412043303937DE7039A1B
:10088000136818460021CDE90401131D039374E792
:10089000039A136818460021CDE90401131D039340
:1008A0006BE7039B073323F0070303F1080203926E
:1008B000D3E90034CDE904345FE70A230B935CE706
:1008C000DDE904345B4264EB4404CDE906340123E2
:1008D0000F9305E0DDE90434CDE9063400230F93DE
:1008E000DDE9060150EA01031BD0CDE90C0100242B
:1008F0000B9B1946DA17CDE90812A846DDE90C0171
:10090000DDE908232F4DA847013450EA0103F7D150
:10091000454619F020010BD00B9B082B03D03B461A
:1009200007E00024F5E7631CBB42B8BF3B4600E08C
:100930003B46A34205DCDDE90623134314BF2346EF
:10094000012319F0080F2FD00B9A102A0CBF042294
:1009500003220C925A1E0C9892FBF0F203EB020851
:100960000F9B13B919F0140F20D008F10103109355
:1009700011B10B9B102B1CD019F0030224D1109B3A
:100980009E4255DDF01A029B00244FF0200CDDF84A
:1009900038E0A64584BF83F800C0013301348442A7
:1009A000F7D11098129012E00C93D3E7CDF8408065
:1009B000DEE7109B02331093DEE700BFA082000841
:1009C00078820008457A00081296029B00240F984E
:1009D000002831D00E98A04202D92D201870013382
:1009E000013411B10B9910293CD0012A4DD00E9938
:1009F0004145C0F0A880434413934444B8F1000F2C
:100A000040F38D800F930C990B980246C317CDE9E4
:100A10000823CDF82CB014961597CDF85890DDF832
:100A200038B01795DDF83C9025460F940E4658E0F7
:100A30001296029B0024CAE719F0040F07D00E9803
:100A4000A04202D92B20187001330134C9E719F0F4
:100A5000100FC6D00E98A04202D920201870013382
:100A60000134BEE70E99A14202D930211970013339
:100A7000611C0E98884206D913990029B4BF5821E9
:100A80007821197001330234AFE7129A9045AEDA3B
:100A900010989042ABDA121A224430210E98A042EC
:100AA00084BF1970013301349442F8D1109A129224
:100AB0009DE709F1FF37013D08F1FF38AB4584BFE1
:100AC0005F2309F8013C0C9B5E1E0EE0DDE9082364
:100AD000DDE90601AC4FB847CDE90601B8F1000FDA
:100AE00015DD002EE5D0013E4F4607F1FF39013DEF
:100AF00008F1FF38AB45E9D9DDE90823DDE9060156
:100B0000A14CA047119B9B5C07F8013CDEE7DDF898
:100B10002CB0149E159FDDF85890179D0F9C19F06E
:100B2000020F11D0109A12998A420DDA21448B1AC1
:100B300020220E981399A04284BF0A70013101341B
:100B4000A342F8D100E00024029B23440293A34473
:100B50002A460021FFF74CBB039A13681CA901F831
:100B6000013D131D03930122B7F1FF3F02D0BA42AA
:100B7000A8BF3A46964202DD19F0020F1AD0002AA9
:100B800043D0584602EB000B0346081A029C30E0A3
:100B9000039B181D196849B10B784BB10A4612F82E
:100BA000013F002BFBD1521A0390DDE77749F5E7AF
:100BB0000A46F8E709F00103002B14BF3024202473
:100BC00006EB0B039B1A5846029E824584BF347085
:100BD000013601309842F8D102960AB11646D1E7A3
:100BE000164683462A460021FFF702BB01335B45C8
:100BF0000AD09A45FAD9C15C0D29F7D00A2908BF55
:100C00000D2121700134F1E70294B2427BDA19F030
:100C1000020F03D12A460021FFF7EABAB31A5B4458
:100C200020210298DA4584BF017001300BF1010BDD
:100C30009B45F7D1029016462A460021FFF7D8BA05
:100C4000019B0233042B62D8DFE803F0030D172168
:100C50002B00039A136883F800B0131D03932A46F0
:100C60000021FFF7C5BA039A1368A3F800B0131D5B
:100C700003932A460021FFF7BBBA039A1368C3F80F
:100C800000B0131D03932A460021FFF7B1BA039A5F
:100C90001368C3F800B0131D03932A460021FFF721
:100CA000A7BA039A13680021C3F800B05960131D56
:100CB00003932A46FFF79CBAD34508D20D2B06D0E2
:100CC0000A2B08BF0D23029A1370531C02930BF1D9
:100CD000010B2A460021FFF78BBA2A46FFF788BA94
:100CE0002A4601214FF000094FF0FF374E46CDF85C
:100CF0000490FFF77DBA0221FFF77ABA2A46022351
:100D00000193FFF775BA2A460021FFF771BA2A4608
:100D10000021FFF76DBAD34508D3BAF1000F07D011
:100D20000A9B5344002203F8012C01E0029A13703D
:100D300058461DB0BDE8F08F1498154B98470246F1
:100D40000B460F980C99134CA0470E9B43457FF61A
:100D5000F4AC0022104B114CA047CDE90601002253
:100D60000F4BDDE906010F4CA0470F4B98470A22B5
:100D70000023C117044CA047139B9B5C129A13706D
:100D800008F10108D9E400BF457A0008C8820008CC
:100D9000ED7300085171000800002440C174000880
:100DA0000000E03F55710008F579000806900891B1
:100DB0000124129019F0140F0FD119F0030224D05E
:100DC0000B96029B10944FF0000810E010930B96C6
:100DD000029B4FF00008FFF793BB631C109319F0C0
:100DE00003023FF4C5AB0B96029B4FF0000819F0CD
:100DF000040F3FF4CCAB0E99414502D92B21197059
:100E0000013308F10108FFF783BBA6423FF7B3ABFC
:100E10000B96029B10944FF00008E8E70428044A60
:100E200013680CBF43F0040323F0040313607047FE
:100E300010E000E0036823F0010303600023036077
:100E400043608360C3600361212343613C4B98424C
:100E50002DD03C4B98422ED03B4B984230D03B4B50
:100E6000984232D03A4B984234D03A4B984235D0DF
:100E7000394B984236D0394B984237D0384B98424C
:100E800039D0384B98423AD0374B98423CD0374B08
:100E900098423ED0364B984240D0364B984241D093
:100EA000354B984242D0354B984243D07047103B67
:100EB0003D229A607047283B4FF474629A607047F5
:100EC000403B4FF474129A607047583B4FF0746285
:100ED0009A607047703B2A4ADA607047883B294A1B
:100EE000DA607047A03B284ADA607047B83B4FF0A1
:100EF0003D52DA607047103B3D229A607047283BB4
:100F00004FF474629A607047403B4FF474129A60D9
:100F10007047583B4FF074629A607047703B184AB4
:100F2000DA607047883B174ADA607047A03B164A80
:100F3000DA607047B83B4FF03D52DA60B6E700BF69
:100F40001060024028600240406002405860024049
:100F50007060024088600240A0600240B8600240B9
:100F60001064024028640240406402405864024019
:100F70007064024088640240A0640240B864024089
:100F80003D000020400F002000003D2010B4036809
:100F9000134A1A400B68CC6823434C6923438C697D
:100FA0002343CC6923430C6A23434C6A23438C6A52
:100FB00023434C6B23438C6B2343134303604269ED
:100FC00022F00702CB6A0C6B2343134343610B6986
:100FD00043604B6883608B68C36010BC704700BF80
:100FE0003F801CF021B9036823F0010303607047C0
:100FF000036843F00103036070472AB9036823F4D0
:101000000023036001617047036843F40023036019
:10101000F8E721B9036823F480230360704703686D
:1010200043F480230360704711F0800F14D062B145
:10103000436943F080034361802905D0036801F0D0
:101040001E011943016070477047436923F0800314
:101050004361802904D17047802907D0002AEDD14F
:10106000036801F01E0123EA0101016070470000DE
:10107000054B1B69002B00DB7047034B034A5A608A
:1010800002F188325A60F7E7003C024023016745CD
:10109000024A136943F0004313617047003C024069
:1010A0000E4BDB6813F4803F12D10C4BDB6813F05E
:1010B000100F0FD1094BDB6813F0EF0F0CD1074B6A
:1010C000DB6803F00203002B14BF072008207047E1
:1010D000012070470520704706207047003C024001
:1010E00010B582B008238DF807300B4B98478DF868
:1010F00007009DF80730DBB2012B08D1064CA04752
:101100008DF807009DF80730DBB2012BF7D09DF872
:10111000070002B010BD00BFA110000870B5054661
:1011200041B101290CD002290CBF4FF400764FF4D5
:10113000407600E00026144B9847082803D070BD85
:101140004FF48076F7E7114C236923F44073236151
:1011500023691E432661236923F0F8032361206974
:1011600040F0020028432061236943F48033236167
:10117000054B9847236923F002032361236923F079
:10118000F8032361DBE700BFE1100008003C0240E8
:1011900070B505460E460D4B9847082800D070BD27
:1011A0000B4C236923F440732361236943F40073D8
:1011B0002361236943F0010323612E60034B9847A9
:1011C000236923F001032361E9E700BFE110000870
:1011D000003C02402DE9F843B2F1000923DD04464A
:1011E0000F460E1F0025DFF8488056F8041F2046E2
:1011F000C047082815D104340135A945F5D1A4EB21
:10120000850422683B689A420FD13A1D0023E41BF3
:101210000133AB4205D0A65852F8041B8E42F7D0DA
:101220000920BDE8F8830820FBE70920F9E700BFA3
:101230009111000810B40268436881680B43C168CB
:101240000B4301690B4341690B4381690B43C1693E
:101250000B43016A0B43416A0B43816A0B43C16A2A
:101260000B43016B0B434FF0204141F82230836860
:10127000082B24D0426B0168013113689469234321
:10128000546843EA0413946843EA0423D46843EAA5
:101290000443146943EA0453526943EA02634FF07A
:1012A000204242F82130C36AB3F5804F0FD0026864
:1012B000114B6FF0704143F8221010BC7047036867
:1012C0009B000B441A6842F040021A60D2E7826B1E
:1012D0000168136890690343506843EA00139068FB
:1012E00043EA0023106943EA0053526943EA026368
:1012F000014A42F82130E0E7040100A039B980003A
:1013000000F120400268064B1340036070478000E4
:1013100000F12040036843F001030360704700BF01
:10132000FEFF0F00F0B40023012503260DE0C26884
:1013300006FA07F422EA0402C260C468CA79BA4015
:101340002243C2600133102B2CD005FA03F20C6843
:10135000A243F7D104685F0006FA07F2D2431440B3
:101360000460D0F800C00C79BC4044EA0C0404606E
:101370000C79013CE4B2012CD9D884682240826007
:1013800084684A79BA4022438260426805FA03F4CD
:1013900022EA0402426044688A799A4092B2224367
:1013A0004260C4E7F0BC70470183704741837047D7
:1013B00010B401F007039B00C90800EB8100016A2B
:1013C0000F249C4021EA04010162016A9A400A4309
:1013D000026210BC7047000010B4284B9B6803F0F9
:1013E0000C03042B22D0082B23D013B1244B036011
:1013F00001E0234B0360214CA368C3F3031321498D
:10140000CB5CDAB20368D3404360A268C2F38222A5
:101410008A5CD2B223FA02F28260A268C2F342323C
:101420008A5CD2B2D340C36010BC7047164B0360D5
:10143000E1E7124B59685A6802F03F0211F4800F3D
:1014400011D05968C1F388110F4BB3FBF2F303FBC2
:1014500001F30A4A5268C2F3014201325200B3FB5F
:10146000F2F30360C7E7054B5968C1F38811044BD9
:10147000B3FBF2F303FB01F3EBE700BF00380240DC
:101480000024F4000000001000127A0029B9054A77
:10149000136B23EA000010637047024A136B184372
:1014A000106370470038024029B9054A936B23EA5C
:1014B000000090637047024A936B18439063704733
:1014C0000038024029B9054A136C23EA0000106471
:1014D0007047024A136C184310647047003802408A
:1014E00029B9054A536C23EA000050647047024A48
:1014F000536C1843506470470038024030B585B0D3
:1015000004460D46038A9BB223F44053CA88134312
:10151000038283899BB223F4B05323F00C028B889F
:1015200009890B4369890B4313438381838A9BB2E7
:1015300023F44073AA891343838268461D4B98475E
:101540001D4B9C4205D003F580639C4201D0029B59
:1015500000E0039BA28912F4004F03EB830303EB2B
:101560008303296814BF49008900B3FBF1F1134BD1
:10157000A3FB012358090501642300FB1313A2896F
:1015800012F4004F0BD11B0132330C4AA2FB032390
:10159000C3F343132B439BB2238105B030BDDA0064
:1015A0003232064BA3FB0232C2F3421242EA050377
:1015B000F1E700BFD9130008001001401F85EB516F
:1015C00031B9838923F400531B041B0C83817047BA
:1015D000838943F400538381704722B9838A23EAC5
:1015E000010181827047838A19438182704700001C
:1015F00082B0394B1A6842F001021A6000219960EA
:101600001A6822F0847222F480321A60334A5A60D7
:101610001A6822F480221A60D960009101911A6838
:1016200042F480321A601A4649F69911136803F49D
:1016300000330193009B01330093019B13B9009B7E
:101640008B42F3D1009B49F69812934294BF00233A
:101650000123234A1360204B1B6813F4003F14BF7F
:10166000012300230193019B012B01D002B070479D
:10167000194B1A6C42F080521A641A490A6842F4F3
:1016800080420A609A689A609A6842F400429A60BE
:101690009A6842F4A0529A60134A5A601A6842F05B
:1016A00080721A601A46136813F0007FFBD00F4B4C
:1016B00040F205621A60A3F580639A6822F0030283
:1016C0009A609A6842F002029A601A46936803F0A0
:1016D0000C03082BFAD1C9E700380240103000246F
:1016E0001C0000200070004008544007003C0240ED
:1016F0002DE9F84F06460F460B681B1A5D0929466F
:1017000049484A4B98471F2D40F385804FF6FE7499
:10171000AC42A8BF2C4606EB44123A60314644481E
:10172000424B98473346002D77D0002E77D0414A60
:10173000D2F800C0404AD2F800904FF6FF7547F645
:10174000FF783E4FB4F5004FB4BF224642465A8060
:1017500096B21D80194663452CBFA3EB0C05A3EB85
:101760000905C5F34F15C6F30E0058B1082815DC5E
:1017700000F1FF3A57F82A20BAB95B609B6047F83E
:101780002A302FE02E4F2F4E2F4D6420B8470023D4
:10179000412231462846254CA047F6E71F28CCBFFA
:1017A0004FF0090A4FF0080AE4E79646BEF802B087
:1017B000CBF30E0B58450AD9DEF808E07245F5D197
:1017C00050688360506858609A6053600AE0C3F8BC
:1017D00008E0DEF804005860CEF8043058688360F2
:1017E000724513D061452CBF184A194A12685B88AC
:1017F000C3F30E0301EB4311914212D2A41B0B461B
:10180000002C06DD00299DD100200BE047F82A308E
:10181000E8E7002006E00F4804E0002002E0002096
:1018200000E00020BDE8F88FD082000855250008B0
:10183000F082000828000020200000202C0000205A
:10184000851D00080C830008248300082400002064
:1018500058000020F7ADFFFF70B582B01A4B01228F
:101860001A601A4A1A4D2A601A4921F003011A4CCB
:1018700021601A481A4B18601A4B23F003031A4EC2
:101880003360009019481A4EB04729462068194B1A
:10189000984700280FDB144B1868114B1B688342D4
:1018A00002D92368984208D8094B1B680C4A136078
:1018B0000D4A1360002002B070BD09490D4B9847D6
:1018C0000028F1DB0020F6E75400002000FC0010A7
:1018D000580000205F0400102000002000FC0120C0
:1018E0002400002028D40020280000204483000881
:1018F00055250008F1160008064B1B6813F4803FBD
:1019000007D0054A136801331360044B4FF080522F
:101910005A60704710E000E05C00002000ED00E03D
:1019200000B585B068460C4B9847019B0B4AA2FB5B
:1019300003235B0A013B0A4A536000239360094B6F
:10194000E02183F82310072313606FF00400064B97
:10195000984705B05DF804FBD9130008D34D621019
:1019600010E000E000ED00E01D0E0008044B1B68D5
:101970001844034A13681B1A002BFBDB704700BF97
:101980005C0000202DE9F8434FF6FF7398420ED01B
:1019900004468946DFF89C80224F234E0CE02A46FD
:1019A00021462248224B98472846BDE8F88308255F
:1019B000FAE70825F8E70824C04702212046B8477F
:1019C0000546B047082DEAD1A145F2D0002CF2D04F
:1019D000082C13D0102C13D0182C13D0202C13D07B
:1019E000282C13D0302C13D0382C13D0402C13D0EB
:1019F000482C13D0502C13D00825D5E71024DBE752
:101A00001824D9E72024D7E72824D5E73024D3E7C2
:101A10003824D1E74024CFE74824CDE75024CBE752
:101A20005824C9E71D1100089110000878830008A8
:101A3000552500087110000808B5274B9847274A1C
:101A4000274B9A420DD2254A111D264B5B1A23F0D3
:101A500003030B44244951F8040B42F8040B9A4247
:101A6000F9D1224A224B9A420BD2204A111D214B16
:101A70005B1A23F003030B44002142F8041B9A4233
:101A8000FBD11D4A1D4B9A601D4B1A681D4B9A4293
:101A90000ED0ADF5007383F309884FF0020282F394
:101AA0001488BFF36F8F184B9847184B9847FEE781
:101AB000174B1A6803F1006303F5B7539A42E8D154
:101AC000144B1A68144B9A42E3D10C4B134A9A6098
:101AD000134B19680847DCE7F115000800000010F7
:101AE0005C0400105F040010509400080000002007
:101AF00025D4002028D400200000000800ED00E0DC
:101B0000FCFF000899887766457D00083536000897
:101B1000200001082400010803F8A2590000010870
:101B20000400010889B110B441180023084C10F8D2
:101B3000012B82EA132234F8122082EA03239BB29B
:101B40008842F4D1184610BC7047002318467047ED
:101B50009883000870B4F1B1411800240F4E10F8BA
:101B6000015B85EA142536F8155085EA0424A4B2F1
:101B70008842F4D163B11344084D12F8011B81EA85
:101B8000142135F8110080EA0424A4B29A42F4D159
:101B9000204670BC70470024ECE700BF9883000823
:101BA00008B5C36800699847F02383F31188054B93
:101BB0001A6800239361044A4FF08051516083F307
:101BC000118808BDC001002000ED00E00C4A0D4B5B
:101BD0001360116801208861116800224A615A640B
:101BE0001A67C3F89C20C3F8C820C3F8F420C3F8D0
:101BF0002021C3F84C21044BF02283F822207047A7
:101C0000C00100206000002000ED00E012F0030F92
:101C100040F0A7808446FF2B40F2A5802DE9F041DB
:101C2000F02080F311885148406C60B14F4C022085
:101C3000256F4DB101302C340828F9D1002383F3EE
:101C400011884B488BE00120484D2C2404FB00F404
:101C500005EB040E0828F1D0464E1660A3F180066D
:101C6000042E0DD9161DA3F1850727F0030702F1F5
:101C7000080847444FF0FF3846F8048BBE42FBD1BA
:101C8000CEF80420CEF808301A44131F2B514FF021
:101C9000807342F8043C2B591A1F2A51364A43F8E4
:101CA000042C2A59131F2B51002342F8043C2A59B3
:101CB000161F2E5142F8043C2A59161F2E5142F885
:101CC000043C2A59161F2E5142F8043C2A59161F6B
:101CD0002E5142F8043C2A59161F2E5142F804ECAA
:101CE0002A59161F2E516FF0020642F8046C2A5929
:101CF000161F2E5142F8043C2A59161F2E5142F845
:101D0000043C2A59161F2E5142F8043C2A59161F2A
:101D10002E5142F8043C2A59161F2E5142F8043C19
:101D20002A59161F2E5142F8043C2A59161F2E51CB
:101D300042F8043C2A59161F2E5142F8043CCEF8B2
:101D40000CC0CEF810100122CEF81820069ACEF85A
:101D50001420CEF82030CEF8243083F31188BDE86B
:101D6000F081064870470648704700BF60000020B9
:101D7000F4ADFFFF01F65AA5A11B0008F3ADFFFF6C
:101D8000F2ADFFFF08B5F02383F31188002815DBBF
:101D90000F4B1A680F4B9A4214D00D4B1B6802224E
:101DA0009A610D4B1B68002B08BF0123084A12687B
:101DB00018445062094B4FF080525A60002383F35D
:101DC000118808BD002383F31188054B9847F8E775
:101DD000C0010020600000205C00002000ED00E059
:101DE0006D190008F0B51A4B0027BC4601241948AC
:101DF00025464FF0030E19E012F0020F0FD00268D3
:101E0000002A08BF01220E6D921B002A07DB4D64D9
:101E10004D650A6CBA42C4BF1746A44602E04A6C3C
:101E2000012AF6D001342C33082C0CD019465A6CF8
:101E300012F0080FE0D09E6C3668002EDCD05D6496
:101E4000C3F854E0E5E7024B2C2000FB0C30F0BD5A
:101E5000600000205C000020F02383F311880368F9
:101E6000002B05DD013B0360002080F311887047E3
:101E700019B310B4013B03600029CCBF062404242D
:101E8000104B1A6894611B6818620F4B1B68002B7B
:101E900008BF01230B4A1068194441620B4B4FF0F5
:101EA00080515960002383F3118813689B6A022BC9
:101EB000074808BF002010BC7047002383F3118837
:101EC00003487047C00100205C00002000ED00E0E6
:101ED000F8ADFFFFF02383F311880368013303603B
:101EE000002B03DD002383F31188704770B4134B7C
:101EF00000263546012203E001322C33082A0CD09B
:101F0000596811F0040FF7D0D9688142F4D11968EB
:101F1000B142C4BF0E461546EEE7094B2C2202FB28
:101F2000053301229A6102229A62064B4FF08052D9
:101F30005A60002383F3118870BC7047A000002012
:101F40006000002000ED00E000B5FFF74BFF5DF8FA
:101F500004EB084A116888420AD01060EFF3098345
:101F600023E9F04F0B600368B3E8F04F83F309886F
:101F700070477047C0010020502383F311887047D9
:101F8000002383F3118870472DE9F84307460E4676
:101F90004FF0FF312C482D4B9847002E4FDD2C4C35
:101FA000DFF8BC904FF0000807E088F31188002D9F
:101FB00041DD2F44761B002E41DD502383F3118831
:101FC000A2886188551AB542A8BF354623880B44BC
:101FD0009A42D8BF9B1A002D0DDD7A1E02EB050C2C
:101FE00012F8010FA168C8540133A1888B42A8BF21
:101FF00000236245F4D163882B449BB26380002B9D
:10200000D3D0E388002BD0D141464846114B9847A6
:102010002288A3681344C9F80C306388A1889818F3
:102020008842C8BF8B1AC9F80430E38001214846B2
:10203000084B9847B9E70220074B9847BBE702488F
:10204000064B9847BDE8F883E40A0020591E0008B3
:10205000D4010020E50F0008851D0008D51E0008EA
:10206000B8640240F0B4344B5968C1F180011B6878
:1020700013F4002F32D0314B1B681BB1304B1C685E
:102080008C4202DB0120F0BC70472E4A90885588B4
:102090000B1B471B9F42A8BF1F4613882B44984227
:1020A000D8BF1B1A002F12DD274804F17F0202441B
:1020B0007F3020443844234C12F8016FA568EE5459
:1020C0000133A588AB42A8BF00239042F4D11D4A3A
:1020D00053883B4453801A4B1960D3E7174B186859
:1020E0000028CFD1164B1C688C42CBDA154A958854
:1020F00056880F1BAB1B9F42A8BF1F461388334453
:102100009D42D8BF5B1B002F0FDD0F4A224402EB1C
:10211000070C0C4C12F8016BA568EE540133A5882E
:10212000AB42A8BF03466245F4D1064B5A88174418
:102130005F80034B1960A5E788640240C40100205A
:10214000E0020020C8010020E001002070B5064632
:102150000C46502383F31188104B9847104B588836
:10216000A042A8BF20461B8800280EDD721E064430
:10217000013E0B4CA568ED5C02F8015F0133A588B8
:10218000AB42A8BF0023B242F4D1054A1380538862
:102190001B1A5380002383F3118870BD652000084B
:1021A000C80100202DE9F0410C1E11DD0546094E45
:1021B0004FF00208084F03E04046B847002C07DD07
:1021C00021462846B0470028F6DD0544241AF5E7E5
:1021D000BDE8F0814D210008851D000810B5204A9A
:1021E000D3885288934211DB1D4B00225A801A80FB
:1021F0001C4B4FF07462DA60194B5B88BBB900214D
:10220000174BD9801848194B984710BD002BEFD0B9
:1022100013480188194489B201808088814202D321
:10222000091A0F480180D31A0D4A5380E0E70E4C7B
:10223000002120460D4B9847094B19889A680A449B
:10224000E2605A889B8850189842C8BF5A1A0648BC
:102250004260034BDA800121044B9847D5E700BF69
:10226000D401002000640240B8640240E50F000879
:10227000F0B4384B4FF47462DA6088331B6813F49F
:10228000002F32D0344B196819B9344B18687F28A5
:1022900007DD314B01221A60304B00221A60F0BC7E
:1022A00070472F4A94885588C0F18006631B9E4270
:1022B000A8BF1E4613882B449C42D8BF1B1B002E70
:1022C0000EDD284A02449719254812F8015B8468FC
:1022D000E55401338488A342A8BF0B46BA42F4D127
:1022E0001F4B5A8816445E80D3E71B4B1B681BB1FB
:1022F0001A4B18687F2805DD0023174A1360174A18
:102300001360CCE7164A91885488C0F180030E1BF5
:102310009E42A8BF1E46138823449942D8BF5B1A29
:10232000002E12DD0F4900F17F020A447F31014483
:1023300031440B4812F8015F8468E5540133848806
:10234000A342A8BF00238A42F4D1054A53883344EC
:102350005380D1E700640240C4010020E002002065
:10236000C8010020E00100202DE9F04F91B05B4B47
:102370005B4A9A604FF4006199800024DC805C80A5
:102380001C80584A584B93609180D48054801480AC
:10239000564B1C60564B1C60564B1A60564A5A608E
:1023A000564A9A60564ADA60564A1A61564A5A6143
:1023B000564A9A61564B01221A600190ADF80840C6
:1023C000ADF80A40ADF80C40ADF810400C23ADF864
:1023D0000E3001A94F48504B984701214FF480001F
:1023E0004E4B98474FF0006BCDF804B0DFF84CA18E
:1023F000CDF808A0039440260496802705970694FC
:102400004FF480630793089409940A944FF40033BF
:102410000B930C9403230D930E940F94DFF82081FB
:1024200040463F4DA84701A94046DFF81891C847EC
:10243000012210214046DFF81081C047CDF804B0DA
:10244000CDF808A0DFF804A1CDF80CA004940597FE
:1024500006944FF480630793089409940A944FF408
:1024600000330B930C9403230D930E940F94DFF819
:10247000E0B05846A84722460AEB07015846294BC8
:10248000984701215846284B984701A95846C84704
:10249000012210215846C047244B502283F825239F
:1024A0002021596083F846239E6083F8442310223C
:1024B0009A600122394617481D4CA0470122314637
:1024C0001448A047012158461A4B9847012111484A
:1024D000194B984711B0BDE8F08F00BFD401002020
:1024E000E80A0020C8010020E4020020C401002006
:1024F000E0020020E8160020791F0008811F000874
:10250000891F00084D210008A5210008652000084A
:10251000E40A002000100140FD1400088D1400089A
:10252000350E0008FB0F00081310000800E100E062
:10253000DB150008E50F0008C11500080410014074
:10254000B86402408D0F000829100008E001002047
:10255000886402400FB42DE9F04383B00AAC54F80C
:10256000046B4FF0FF313848384B98470194384D91
:10257000234632464FF480612846364CA0472B78DC
:1025800073B115F8013F002BFBD1314BED1A002D33
:1025900052DD2F4F304CDFF8D0904FF0000809E0AB
:1025A0002B4DF2E788F31188002E41DD3744AD1B37
:1025B000002D41DD502383F31188A2886188561ACB
:1025C000AE42A8BF2E4623880B449A42D8BF9B1A1E
:1025D000002E0DDD7A1E02EB060C12F8010FA16829
:1025E000C8540133A1888B42A8BF00239445F4D17D
:1025F000638833449BB26380002BD3D0E388002BE5
:10260000D0D141464846154B98472288A3681344C9
:10261000C9F80C306388A18898188842C8BF8B1A03
:10262000C9F80430E380012148460C4B9847B9E7CC
:1026300002200B4B9847BBE703480A4B984703B06F
:10264000BDE8F04304B07047E40A0020591E0008BA
:10265000E8120020CD010008D4010020E50F000899
:10266000851D0008D51E0008B86402402DE9F04120
:102670008EB014461D46022837D0032863D10B0EB6
:1026800002F8043C0B0C02F8033C0B0A02F8023C73
:1026900002F8011C2D4B9847002850D02C4B1B688A
:1026A000002B4CD00DF117022A4B03F1200013F838
:1026B000011B02F8011F8342F9D1079B002B3ED07A
:1026C000234B9F68244BD3F80080244B98470390FA
:1026D00005AB0293CDF8048006AB009300232A1DBE
:1026E000211F38461E4CA04729E0D61F03F10A07D8
:1026F000F82302F8073CC7F3072302F8063C02F868
:10270000057C0B0E02F8043C0B0C02F8033C0B0A90
:1027100002F8023C02F8011CA91D901F114B9847BA
:1027200007357319020A72555870F319F92203F824
:10273000012C0D4BDB683946304698470026304661
:102740000EB0BDE8F0816FF00F06F8E70D710008DC
:10275000ACD30020B8D3002010000010197100087D
:1027600061510008251B0008E816002038B50F4B02
:102770001C5CE40504F0FC540B680D491D0E0D743F
:102780001D0C4D741D0A8D74CB74130E0B75130C38
:102790004B75130A8B75CA75082301F1100244F4B6
:1027A000F90141F42051034CA04738BD44170020E3
:1027B000041700206D2600082DE9F04F87B004466D
:1027C000039102924FF0000863689847A369984705
:1027D00040F2F63AD6E0A36898476FF00406304618
:1027E00007B0BDE8F08F012B40F2E780551CA942ED
:1027F000D8BF6D1A755D2D02022B40F2EA80971C3E
:10280000B942D8BF7F1AF75D3D44A5F10A07574585
:102810001AD8AB4228DB05F1FF39994509DA09EBF3
:10282000020B5945D8BFABEB010B16F80B60F92E24
:1028300024D0012B1DD9013292B2914298BF521A75
:102840000280013B43809DE0012B08D9013292B206
:10285000914298BF521A0280013B438092E0A0F857
:102860000280A0F800808DE0A36898476FF004060E
:10287000B5E7A0F80280A0F8008083E0BCF1060F65
:1028800000F3A0800CF1FF3C019B01339E4501DC6D
:10289000A3EB0E03BCF1000F0DDD04AE32468168E0
:1028A000C95C02F8011B013381888B42A8BF002359
:1028B000911B8C45F3DC9DF812309DF8132042EA01
:1028C00003229DF8143043EA02229DF8153043EAB2
:1028D0000223039A136021684E88B145D4BFA5F145
:1028E0000806073E0B8807338A889342A8BF9B1AC5
:1028F000002E0DDD029A013A16448868C05C02F889
:10290000010F013388888342A8BF00239642F4D187
:1029100022685188A94211DD002D13DDA8B2138869
:1029200003449BB213809688B34224BF9B1B138041
:10293000091A518006E04FF0060CA9E7A2F80280C0
:10294000A2F80080A36898470A3D2B46DDF808905E
:102950004A46062104A8224EB0474A46D31919F820
:1029600007205B7843EA022398427FF42DAF2E467E
:1029700035E7013292B2028091429CBF521A028026
:10298000013B4380206843889C46032B7FF723AF9D
:1029900073B10288019281888E468A422CBF551AF3
:1029A00015468668755DF82D3FF41DAF012BE0D804
:1029B000A0F80280A0F80080E4E7022B7FF64FAF7A
:1029C00000251CE7019B01339E45B4DD4FF0060C4A
:1029D00063E7A5F10A0757457FF61BAF36E700BF4F
:1029E000551B00082DE9F04F93B005468B46C04BB0
:1029F0001B5CDB0503F0FC5343F4F90343F4C053C1
:102A000006930B89C9888B4258D2C91A01231F46E5
:102A100018468B4205D000FA03F217430133102BFE
:102A2000F7D1DBF80020B34B110E1974110C597457
:102A3000110A9974DA74BBF80820110A19755A75CD
:102A400003230793DFF8ACA2DFF80C83DFF80C93C5
:102A50000597059A130E8AF81630130C8AF817306A
:102A6000130A8AF818308AF819200A23A24A06990C
:102A70002846A24CA0470028C0F29D81D8F80060EB
:102A8000002E08BF0126D8F80030002B08BF012314
:102A90009B1BB3F5FA6F80F27181D9F80040022DCB
:102AA0000ED0032D40F07D81954B984710B1954B8A
:102AB0001B686BB90120944B9847E4E70027B0E707
:102AC0004FF48C73224611A99048914CA04731E0F5
:102AD0008C4B9F688F4B9847039008AB02938E4BAB
:102AE000019309AB009300234FF48E72211F3846E7
:102AF0008A4FB8470028DDDD894A09AB11AF13F8CA
:102B0000011B02F8011FBB42F9D10428D2DD0028C5
:102B1000C0F2B68014F8043C14F8032C42EA0322F5
:102B200014F8023C43EA022214F8013C43EA02236F
:102B30001193043810F1050FBCD00028C0F2A78013
:102B4000119BC3F3C5523E2A9DD1C3F30723A02B8B
:102B500099D1B0F5847F96D1D8F80060002E08BFD7
:102B60000126D9F800000178437843EA01238178EF
:102B700041EA0323C17841EA0321DBF800308B42AC
:102B800040F087800379417941EA0321BBF80820AE
:102B90008A4200F2828002F1100399427DDA8F1A94
:102BA0000124BC40059B23427BD000F108035D4A11
:102BB00002EB072200F5847013F8011B02F8011FD5
:102BC0009842F9D1059BA34305937FF45CAFBBF812
:102BD0000830DBF80C7007EB032707F17843B3F5F7
:102BE000804F62D3A3F58043B3F5804F7BD307F1C9
:102BF0007843A3F50043B3F5804F76D307F17843CC
:102C0000A3F54043B3F5804FC0F0AA8007F17743A6
:102C100003F57F03B3F5803FC0F0A48007F177434D
:102C200003F57E03B3F5003FC0F09E8007F17743C4
:102C300003F57C03B3F5003FC0F0988007F17743BC
:102C400003F57A03B3F5003FC0F0928007F17743B4
:102C500003F57803B3F5003FC0F08C8007F17743AC
:102C600003F57603B3F5003FC0F0868007F17745A2
:102C700005F574052C4B9D4294BF5025582515E051
:102C800001462A482A4B98476FF010048BE004460F
:102C900089E02848264B9847F5E62748244B984773
:102CA000F1E62648224B9847EDE60025244B98474D
:102CB0004FF4806223493846234B98470646234BFE
:102CC00098473446082E6AD033463A46294620486B
:102CD000174EB047BBF80830002B68D1294628466C
:102CE0001C4B984763E00825E0E71025DEE700BFAE
:102CF0004417002004170020141700206D26000838
:102D00000D710008ACD30020851D0008E8160020D6
:102D1000B92700081971000810000010ED510008D3
:102D2000B7D3002053170020FFFF0100C48700081D
:102D300055250008148800083C8800086C880008A5
:102D40007110000854170020D511000891100008D8
:102D500084880008851900085C00002050170020B6
:102D60001825A3E72025A1E728259FE730259DE723
:102D700038259BE7402599E7482597E7079B013BC6
:102D8000079306D0059ABBF808100C480C4B9847DF
:102D90005FE60C480A4B98476FF0780407E0002480
:102DA00005E06FF00F0421460748054B9847204681
:102DB00013B0BDE8F08F0446F9E700BFA88800080B
:102DC00055250008C4880008E8870008014B1860F2
:102DD000704700BF5017002072B6BFF34F8F0549F0
:102DE000CA6802F4E062044B1343CB60BFF34F8F19
:102DF000FEE700BF00ED00E00400FA052DE9F04712
:102E000005460C4616469A46C96801F17843B3F563
:102E1000804F4DD3A3F58043B3F5804FC0F095802C
:102E200001F17843A3F50043B3F5804FC0F09080E3
:102E300001F17843A3F54043B3F5804FC0F08B8098
:102E400001F1774303F57F03B3F5803FC0F086803F
:102E500001F1774303F57E03B3F5003FC0F08180B5
:102E600001F1774303F57C03B3F5003F7CD301F117
:102E7000774303F57A03B3F5003F78D301F1774345
:102E800003F57803B3F5003F74D301F1774303F5FD
:102E90007603B3F5003F70D301F1774808F5740865
:102EA000A54B984594BF4FF050084FF0580801E0EB
:102EB0004FF00008E38801EB032303F17842043A62
:102EC000B2F5804F5CD39D4A1A44B2F5804FC0F0F2
:102ED000E8809B4A1A44B2F5804FC0F0E580994AD9
:102EE0001A44B2F5804FC0F0E280974A1A44B2F516
:102EF000803FC0F0DF80954A1A44B2F5003FC0F031
:102F0000DC8003F17842A2F10412B2F5003FC0F078
:102F1000D7808F4A1A44B2F5003FC0F0D4808D4A62
:102F20001A44B2F5003FC0F0D1808B4A1A44B2F582
:102F3000003FC0F0CE80894A1A447F4B9A4294BF2A
:102F40004FF050094FF058091CE04FF00808B1E766
:102F50004FF01008AEE74FF01808ABE74FF020082D
:102F6000A8E74FF02808A5E74FF03008A2E74FF098
:102F700038089FE74FF040089CE74FF0480899E772
:102F80004FF000094B4642467548764FB8474946D0
:102F90004046754B98470746082840F09D80734B84
:102FA000002103F5805203F8011B9342FBD110234B
:102FB0002381E388102B0ED96D4F324621462846D7
:102FC000B847021EC0F29080238910339BB2238140
:102FD000E2889A42F1D800232381324621462846CE
:102FE000634B9847021EC0F2848062485D4B98474D
:102FF000A688E1880902E0685F4B9847864200F0A6
:10300000C1805E48574B9847E36803F17842B2F5B8
:10301000804F73D3A2F58042B2F5804F7AD303F18B
:103020007842A2F50042B2F5804F75D303F17842A1
:10303000A2F54042B2F5804F70D303F1774202F51A
:103040007F02B2F5803F6BD303F1774202F57E0237
:10305000B2F5003F66D303F1774202F57C02B2F588
:10306000003F61D303F1774202F57A02B2F5003FE7
:103070005CD303F1774202F57802B2F5003F57D3F3
:1030800003F1774202F57602B2F5003F52D303F125
:10309000774303F574032848834294BF5020582097
:1030A0002DE04FF008096DE74FF010096AE74FF087
:1030B000180967E74FF0200964E74FF0280961E736
:1030C0004FF030095EE74FF038095BE74FF04009F9
:1030D00058E74FF0480955E76FF066022146284649
:1030E000274B9847A7B980E721462846244B9847A5
:1030F0000EE021462846224B984709E00020014671
:10310000194B98476FF07702214628461C4B984789
:10311000BDE8F0870820F2E71020F0E71820EEE77E
:103120002020ECE72820EAE73020E8E73820E6E72F
:103130004020E4E74820E2E7FFFF0100FCBFFFF783
:10314000FC7FFFF7FC3FFFF7FCFFFEF7FCFFFDF7FE
:10315000FCFFF9F7FCFFF7F7FCFFF5F7FCFFF3F7CF
:1031600024870008552500088519000854170020F9
:10317000E529000860870008251B000878870008FB
:103180006D270008BAF1000F58D0E36853F8042CFB
:103190003C498A4252D0B2F1FF3F41D003F178421C
:1031A000043AB2F5804F58D3374A1A44B2F5804FEB
:1031B00055D3364A1A44B2F5804F52D3344A1A4492
:1031C000B2F5804F4FD3334A1A44B2F5803F4CD307
:1031D000314A1A44B2F5003F49D303F17842A2F1D3
:1031E0000412B2F5003F44D32C4A1A44B2F5003F12
:1031F00041D32B4A1A44B2F5003F3ED3294A1A4420
:10320000B2F5003F3BD328481844284B984294BF5E
:10321000502058200146264B98472648264B984771
:10322000264B9847E06817490438254B98470646CF
:10323000244B9847314624481F4B984723481E4B40
:1032400098470A20224EB047002221462846214BAB
:1032500098476420B047204B98470020DAE70820C1
:10326000D8E71020D6E71820D4E72020D2E728207E
:10327000D0E73020CEE73820CCE74020CAE748200E
:10328000C8E700BF99887766FCBFFFF7FC7FFFF7B0
:10329000FC3FFFF7FCFFFEF7FCFFFDF7FCFFF9F733
:1032A000FCFFF7F7FCFFF5F7FCFFF3F7FFFF01006A
:1032B000851900088487000855250008711000084A
:1032C000911100089110000898870008AC87000849
:1032D000851D00086D270008D92D000870B584B041
:1032E0001D46C1F3072313F007012FD106461446EC
:1032F00003F0F803B02B54D02DDDC82B5BD0F82B96
:1033000027D190231370012262701723A37000232A
:10331000E3702271342262716522A2719F22E271F0
:10332000237220236372484B195CC90501F0FC51DC
:103330000A23224641F4F90141F40061434CA047BD
:10334000011E06DA4248434B984702E04248414B8F
:10335000984704B070BD902BFBD140483D4B984737
:10336000082D63D12178637843EA0123A17841EAEB
:103370000323E17841EA032100912279637943EA4A
:103380000223ADF80630A279E37943EA0223ADF8CF
:103390000430334B99424ED01A4632482D4B984751
:1033A000D7E731482B4B984772B6582108462F4B28
:1033B00098472F4B98472F48264B98470C2D29D1DB
:1033C0002378617841EA0323A17841EA0321E37875
:1033D00043EA012100912279637943EA0223ADF89F
:1033E0000630A279E37943EA0223ADF80430237A68
:1033F000627A42EA0322A37A43EA0222E37A43EAA8
:1034000002230393164B994209D01A461A48114BCE
:1034100098479EE7294619480E4B984799E700239D
:10342000012269463046164CA04792E729461548C6
:10343000084B98478DE7144B0393012300226946FC
:1034400030460F4CA04784E7441700206D26000843
:10345000E085000855250008C08500088086000822
:1034600000170110B08600080086000885190008C2
:10347000D92D000814860008508600082C86000804
:10348000FD2D000894860008000001082DE9F04198
:1034900082B007460E46104C104DDFF84C804FF4BA
:1034A0000073226801A93046A847031E07DB019973
:1034B00011F4004FF3D022683846C047EFE713F10C
:1034C000050F02D102B0BDE8F0811A463946044822
:1034D000044B9847F6E700BF50170020B9270008B3
:1034E0009885000855250008DD3200082DE9F043D5
:1034F0008FB004462A4902202A4B984714F0040F43
:103500003ED0294FDFF8C09046E0D9F80840274B5D
:103510009847039005AB0293254B019306AB0093AC
:1035200000234FF48E72311F2046224CA047031E09
:1035300026DD214C06AA12F8015B04F8015F0EA9F2
:103540008A42F8D1042B1BDD002B1CDB16F8041C6F
:1035500016F8032C42EA012216F8021C41EA022264
:1035600016F8011C41EA0221043B09D411F4004F72
:103570000ED13E68C04718B1D9F80030002BC4D135
:103580000FB0BDE8F08319460C480D4B9847F7E79C
:103590003A6803200B4CA047DFF83080E9E700BF12
:1035A000E81600208D34000850170020197100081B
:1035B00010000010ED510008B7D30020C4870008A8
:1035C00055250008DD320008ACD300200D7100083D
:1035D00070B500210F48104DA84700200F4B9847A9
:1035E0000F4B9847044601460E48A8473CB10326B6
:1035F0000D4D0E4C3046A8470220A047FAE70120A7
:103600000B4B98470426084D084C3046A84702202B
:10361000A047FAE7DC86000855250008353D00087C
:10362000591800080C870008ED340008851D0008B3
:10363000AD6F000810B582B00C4B98470C490D488F
:103640000D4CA0470D4B596F0D48A04766230093C2
:103650004FF480530B4A00210B480C4CA047011E2D
:1036600000DBFEE70A48044B9847FAE7F13600080A
:10367000E4880008F8880008552500080038024052
:103680000489000854270020D13500080D1C0008CB
:103690001489000830B583B001214FF40010104B9D
:1036A000984702238DF8043001228DF806208DF80A
:1036B00007208DF8053002A94FF4407341F8083D0A
:1036C000084C2046084B9847042208212046074D05
:1036D000A847042209212046A84703B030BD00BFF7
:1036E000C51400080004024025130008B1130008A7
:1036F0002DE9F04FA3B072B601217F20B44B98475B
:1037000000248DF8114001268DF810608DF81340CB
:103710004FF48079CDF80C908DF8124003A9AD4894
:10372000AD4FB8474946AB48DFF8D882C0478DF85F
:1037300010608DF8134003968DF8124003A9A74836
:10374000B8473146A548DFF8C0A2D0478DF81060D1
:103750008DF81340042303938DF8124003A9A04869
:10376000B84704219E48D0478DF810608DF813406B
:103770004FF4806303938DF8124003A99948B8472A
:103780004FF480619748D0478DF810608DF8134052
:10379000082303938DF8124003A99148B8470821E4
:1037A0008F48D0478DF810408DF813404FF40063D8
:1037B000039303A98748B8478DF810608DF813402C
:1037C0004FF0020BCDF80CB08DF8124003A98648DB
:1037D000B84759468448D04731461020834B984714
:1037E0008DF850B08DF852408DF853608DF85140EF
:1037F00022A94FF4C06341F83C3D01917748B84796
:103800000722092175487A4DA84707220A217348E3
:10381000A84731464FF48020764B98478DF850B03A
:103820008DF852408DF853608DF851404FF440733D
:10383000139301996A48B847072208216848A847A6
:10384000072209216648A8478DF850608DF853403B
:103850004FF4806013908DF8524001996048B8474A
:103860004FF480615E48C047314620205F4A904750
:103870008DF850B08DF852408DF853608DF851405E
:10388000C022139201995C48B847082206215A4881
:10389000A847082207215848A8478DF850608DF89E
:1038A0005340CDF84C908DF8524001995248B8479A
:1038B00049465148C04731464FF400204D4B984788
:1038C0008DF850B08DF852408DF853608DF851400E
:1038D0004FF440631393DDF8049049464648B847D7
:1038E00008220A214448A84708220B214248A84739
:1038F0008DF850608DF85340042213928DF8524099
:1039000049463948B84704213748C0473B4B984798
:10391000314630463A4B98470C2221463048A8475A
:103920000C2231462E48A8470C2204212C48A847D7
:103930000C2205212A48A8470C2207212848A8471D
:103940000C220E212648A8470C220F212448A84704
:103950000C2221462448A8470C2207212248A847C8
:103960000C2208212048A8470C2209211E48A847FC
:103970000C220A211C48A8470C2221461948A847B6
:103980000C2231461748A8470C2259461548A8472B
:103990000C2203211348A8470C2204211148A847F0
:1039A0000C2205210F48A8470C2211460D48A847B4
:1039B0000C220D210B48A8470C220E210948A847CC
:1039C0000C220F210748A8470C2221461EE000BF09
:1039D0008D14000800180240251300080000024062
:1039E000000C02400014024000100240E1140008E4
:1039F000B1130008C51400080008024095360008FD
:103A0000A9140008A9130008AD130008AD48A84781
:103A10000C223146AB48A8470C225946A948A84772
:103A20000C220321A748A8470C220421A548A84737
:103A30000C220521A348A8478DF850B08DF851B04D
:103A40008DF852408DF853404CF2B303139349461E
:103A50009D48B84740F28173139349469B48B84745
:103A60004FF23F031393CDF8049049469848B84766
:103A70004FF03F09CDF84C9001999248B8470F227A
:103A8000059206964F230793089409940A944FF0E1
:103A900040530B930C920D96CDF838900F941094E0
:103AA0001194129313941494082215921694179457
:103AB00018944FF4007319931A944FF400621B92F8
:103AC0004FF480521C921D944FF480421E921F941A
:103AD0000DF11409CDF880900CAB219301987D4A2B
:103AE0009047314620467C4A90470421059106962E
:103AF000079108940994CDF828B00B9406211391EE
:103B00001494042115911023169317941894199462
:103B10001A941B944FF480511C911D941E941F9471
:103B2000CDF88090CDF88490DDF804904846694A3D
:103B3000904731460620684A904731464FF400408E
:103B4000664B98478DF850B08DF852408DF8536011
:103B50008DF851401823139349466148B8474FF4F4
:103B60008052139249465F48B847062203215C48B9
:103B7000A847062204215A48A84706220C21594882
:103B8000A8478DF850608DF853404FF400421392CF
:103B90008DF8524049465448B84749464948B847C5
:103BA0004FF480421392CDF8049049464548B847F7
:103BB0004FF40059CDF84C9001994A48B8474FF45A
:103BC00000414948C0474FF400413E48D0478DF876
:103BD00050608DF853404FF4405313938DF852408A
:103BE00001993848B8474FF480513648C047494694
:103BF0003448D04731464FF48040384B98478DF8D1
:103C000050B08DF852408DF853608DF851400C2320
:103C10001393DDF804A051463248B8474FF4806250
:103C2000139251462E48B847052259462D48A847B9
:103C3000052203212B48A84705220A212848A84726
:103C40008DF850608DF853404BF6780313938DF840
:103C5000524051461D48B8474FF4605313935146A4
:103C60001948B847C022139251461648B847202138
:103C70001648C04720211548C04720211348C04797
:103C800040211248C04740211048C0474FF400610E
:103C90000D48C0474FF480510B48C04749460A4879
:103CA000C04731464FF000700C4B984731464FF0FB
:103CB00080600A4B98478DF850B08DF852408DF8CF
:103CC000534013E000180240000C02400010024074
:103CD0000014024035120008FD120008C514000847
:103CE0000004024000080240000002408DF85160CC
:103CF0006023139351460B48B8470922062109480F
:103D0000A847092205210748A847074B9847074BB2
:103D100098474FF4E130064B984762B6204623B0EF
:103D2000BDE8F08F00040240CD1B000821190008F7
:103D30006923000810B5044C21460448044B9847F9
:103D40002046044B984710BD643700203089000896
:103D500055250008CD2D0008884219D210B400F175
:103D60008044013C02EB8404043A02EB8101002010
:103D700054F8043F13F003021DBF04339A1A00EBFA
:103D8000920000EB930080B28C42F1D110BC7047DE
:103D900000207047023815280ED8DFE800F00F0D1C
:103DA0000D0D0D0D0D0D0D0D0D0D0D0F0B0D0D0D43
:103DB0000D0D0B0F00207047FF207047012070474A
:103DC00030B4334D43F6787404FB00F42B19002211
:103DD00083F8E422C3F8702BC3F8742BC3F86C2B60
:103DE000C3F8682B83F80821295583F8E92083F864
:103DF000FC2083F8FD20274CC3F85C4BC3F8602BF4
:103E0000C3F8642BC3F82C2BC3F8302BC3F8342B26
:103E1000C3F8382BC3F84C2BC3F8502BC3F8542BE2
:103E2000C3F8582BC3F83C2BC3F8402BC3F8442BE2
:103E3000C3F8482B032903D8DFE801F0051726262D
:103E40004FF4C87021E0124B43F6787202FB003346
:103E5000002083F8E8004FF0C042C3F8DC200832AD
:103E6000C3F8E020C3F8E4000FE0094B43F6787292
:103E700002FB0033002083F8E800C3F8DC00C3F83D
:103E8000E000C3F8E40000E0002030BC704700BF51
:103E900080390020A144000838B543F6787303FB4D
:103EA00000F3234AD35C032B3DD8044640F6DE756D
:103EB00005FB00F543F6787303FB0023002083F82D
:103EC000EC0021461B4B9847034670BB184A43F64B
:103ED000787303FB0423012183F8E91005F13C000A
:103EE00002EB8000144B98470346F0B9104A43F6A2
:103EF000787303FB0423002283F8ED202146012080
:103F00000C4B9847034680B9094843F6787303FB86
:103F10000404012384F8E9303D3500EB8500064BAD
:103F20009847034601E04FF41673184638BD00BFAA
:103F300080390020894500082762000838B5224AE8
:103F40000023FF2103E001330332042B09D0DDB24B
:103F500012F8014C002CF6D01478844208BF294690
:103F6000F1E7FF292DD004460D4601EB4102174B26
:103F700013449B78C3B105EB4505144B1D44012345
:103F8000AB70134A43F6787303FB042393F8FC30B9
:103F900083B10F4843F6787303FB0400012380F8D4
:103FA000FC300023184638BD0A4B984703460028CA
:103FB000F8D1E0E72046084B984703460028F1D1A6
:103FC000E7E74FF41673EDE715000010140000103A
:103FD00080390020C13D0008993E000830B40F4AE6
:103FE0000023FF2103E001330332042B09D0DDB2AB
:103FF00012F8014C002CF6D01478844208BF2946F0
:10400000F1E7FF2907D001EB4101054B19440020DE
:10401000887030BC70474FF41670FAE71500001036
:10402000140000102DE9F04F8BB00C4698465B68E9
:104030001B681D781746F2B1D378F3B196780596D0
:10404000A04A00EBC00143F6787303FB06F303EBD1
:10405000C1031344DB6903933C3040F6DE7303FB7A
:10406000060002EB80030493974B1A78CAB1002331
:104070001946954809E00026E1E70026DFE701330D
:10408000DBB2194610F833205AB19442F7D100EB55
:10409000C1025278AA42F2D18B4B03EBC1014B68AB
:1040A00003930498894B9847029018B102980BB07B
:1040B000BDE8F08F864B98478146824A43F6787375
:1040C000059903FB0123D3F8683B1BB1324629460F
:1040D0002046984747B3FB78002B00F0608197F8A3
:1040E00002B05EE138467B4B9847002800F05D81C6
:1040F0003846794B9847FF238DF824308DF82500FA
:1041000000238DF826308DF827302046734B9847D2
:10411000CDF804B0CDF80090039B09AA0421DFF884
:10412000C481C047029052E0D8F80820D8F80010A7
:1041300001206B4B98474FF0000B41E1D8F8043059
:104140001B681B7843F080033EE100230993D8F8F5
:104150000030012B3BD94FF0010A079623464C460D
:10416000A9465D469B4605E00AF1010AD8F80030F1
:10417000534525D9D8F8043053F82A20D8F8083008
:1041800053F82A1001950094039B0698554EB047AA
:104190000290C8B9D8F8083053F82A1011F003017A
:1041A000E2D001950094039B09AAC1F1040106988D
:1041B000B0470028D8D0079E4D465C46029006E0E6
:1041C000079E4D465C4602E0079E4D465C46029BBC
:1041D000002B40F014813B4A43F67873059903FBAA
:1041E0000123D3F86C3B1BB1324629462046984741
:1041F000002F00F02A81FB78002B00F0238197F834
:1042000002B02046354B98475B4609AA0421DFF8E7
:10421000D880C0470290002840F0F8809DF82480A4
:104220009DF825A09DF8273002939DF826907B7875
:1042300013B9444540F0E780B8F1FE0F28D0B8F13B
:10424000FF0F53D017B17B78002B6CD11D4A43F67A
:10425000787303FB0B23D3F8703B1BB15A465146CE
:1042600020469847029B49EA0329149B1F689A68D5
:10427000394600201A4B9847484558D0B9F1000FED
:1042800040F233290CBF4FF414734B460293BDE048
:10429000BAF1010F00F0BE80BAF1020F00F0BE804B
:1042A000BAF1030F00F0BE80BAF1040F00F0BE8037
:1042B000BAF1050F40F231290CBF4FF4D2734B46CF
:1042C0000293A3E080390020743900203162000895
:1042D00055620008A95D0008DF5D0008953D0008F3
:1042E000593D0008DD4C00084D4D0008002F00F03E
:1042F000A1807B78002B00F0A180514638465F4BAF
:1043000098475F4A43F67873059903FB0123D3F876
:10431000743B1BB132462946204698470498594BB6
:1043200098470290C2E63846574B98478EE70023DD
:1043300009934FB34046554B984781460027DFF815
:1043400058A104E00137149B1B68BB421CD9149B85
:104350005A6899685B4652F8272051F8271048465A
:10436000D0470290B8B9149B9B6853F8271011F0FE
:104370000301E7D05B4609AAC1F104014846D047D2
:1043800002900028DED006E04046404B9847594650
:104390003F4B98470290029B002BB2D036E04FF083
:1043A000000B7B78002B7FF49DAED8F80820D8F85E
:1043B00000100120374B98477B78002B7FF4BEAE6E
:1043C000D8F804301B681B788DF824408DF8253010
:1043D0008DF8260000128DF8270020462B4B9847B9
:1043E0000690CDF804B0CDF80090039B09AA0421F3
:1043F000DFF8A8A0D047029000283FF4A6AE0498AA
:10440000204B984752E64FF40C73029304981D4BCF
:1044100098474BE640F297130293F7E74FF4117376
:104420000293F3E74FF4CA730293EFE740F2452398
:104430000293EBE740F232230293E7E740F23223A4
:104440000293E3E74FF0000BDBE620460F4B984763
:10445000002309AA0421DFF84080C0470290002809
:10446000D4D19DF824809DF825A09DF82730029393
:104470009DF826904FF0000BDBE600BFE35D0008DF
:104480008039002045620008D95D0008953D00088C
:10449000C54D0008593D00084D4D0008DD4C000891
:1044A0002DE9F04F87B080460D4603921F46304BF2
:1044B0009847022843D80446002D4BD0EB78002BB8
:1044C00046D0A9780E46A1462A4A43F6787303FBE4
:1044D0000123234493F8EC30012B36D06B781BB9C1
:1044E0002046254B9847A8B90097039B2A4641468A
:1044F0002046224CA047054640F252239D4220D13F
:104500001C4A43F6787303FB06239944012389F878
:10451000EC3016E004A81A4B9847DFF860A0DFF8EB
:1045200064B00097039B04AA41462046D047054645
:104530000028E1D104A8D8470028F2D101E04FF4C7
:10454000C975284607B0BDE8F08F40F25325F8E75B
:104550000021B7E78146074B034493F8EC30012B69
:1045600002D140F25325ECE700210E46B8E700BF28
:10457000953D000880390020A54D00082540000821
:10458000BF5D0008A95D00082DE9F84F80460C4684
:104590008946B44A43F6787303FB012393F8FD3050
:1045A0005BB943F6787002F5807300FB0130AE4BC7
:1045B00098470646002840F0848343F6787707FB47
:1045C00004F7AA4D3D442846A94B984706460028C3
:1045D00040F07783A34A43F6787303FB042393F8F0
:1045E000FD303BB308EBC80343F6787202FB04F2DC
:1045F00002EBC3039B4A13441B7A002B40F05B83FE
:1046000008EBC80343F6787101FB04F101EBC30327
:104610001344012018720A4492F8E830002B00F08D
:104620002583012B40F0478321464046914B984714
:1046300001462AE31146D25D0F44002319468948FA
:1046400043F6787C0CFB0909DFF82CE24FF0010CF3
:104650004FF47A7A65E0032A6AD8DFE802F0020CA8
:104660000F12C9F804C03972032A00F20182DFE890
:1046700002F04799A8B7C9F804C0F4E7C9F804C024
:10468000F1E7C9F804C0EEE7032A51D8DFE802F0E9
:10469000020E1114C9F84CC03972032A00F2F881D5
:1046A000DFE812F0B300C200D100EC00C9F84CC042
:1046B000F2E7C9F84CC0EFE7C9F84CC0ECE7032AB1
:1046C00036D8DFE802F0020E1114C9F894C039722E
:1046D000032A00F2ED81DFE812F0E7003201650104
:1046E0009801C9F894C0F2E7C9F894C0EFE7C9F897
:1046F00094C0ECE7032A23D8DFE802F00254637287
:1047000041F27070C9F80C00C9F810A0C9F814C0C3
:1047100089F82810C9F81CE0C9F820E0B961013314
:1047200048371846012BAFD0002B94D0022BC6D0AF
:104730003972012B63D0002BDCD0022B00F0AD804E
:10474000012B00F0A581002B00F09281022B00F0DC
:10475000AF81012B00F0CC81002B00F0B981022B3E
:1047600000F0D681012B00F0F381002B00F0E081F6
:10477000022B00F0FD81012B00F01A82002B00F0CB
:104780000782022B00F02482012B00F03F82002BD5
:1047900000F02E82022B00F04B82B961581C0228D7
:1047A000BDDDBFE040F6B830C9F80C00C9F810A074
:1047B000C9F814C089F82810C9F81CE0C9F820E02D
:1047C000ACE740F6B830C9F80C00C9F810A0C9F839
:1047D00014C089F82810C9F81CE0C9F820E09DE74A
:1047E00040F6B830C9F80C00C9F810A0C9F814C0D8
:1047F00089F82810C9F81CE0C9F820E08EE7032AE0
:104800009ED8DFE802F00211203B40F6B830C9F82C
:104810005400C9F858A0C9F85CC089F87010C9F8EC
:1048200064E0C9F868E079E740F6B830C9F85400A8
:10483000C9F858A0C9F85CC089F87010C9F864E0DC
:10484000C9F868E06AE740F6B830C9F85400C9F81A
:1048500058A0C9F85CC089F87010C9F864E0C9F8BC
:1048600068E05BE78039002027620008803A00207A
:1048700031620008954E000880C3C90140F6B83087
:10488000C9F85400C9F858A0C9F85CC089F870107C
:10489000C9F864E0C9F868E040E7032A3FF650AF82
:1048A000DFE802F0024D80B3DF4A43F6787303FB82
:1048B000042340F6B832C3F89C20DB4A43F67873F1
:1048C00003FB04234FF47A72C3F8A020D64A43F6C0
:1048D000787303FB04230122C3F8A420D24A43F6D1
:1048E000787303FB0423002283F8B820CE4A43F6F2
:1048F000787303FB0423CD4AC3F8AC20CA4A43F6BD
:10490000787303FB0423C94AC3F8B02000EBC0004E
:1049100043F6787303FB04F303EBC000C24B184467
:1049200000238361C04A43F6787303FB042393F8A2
:10493000E830012B40F28C814FF4C871A6E1BA4AED
:1049400043F6787303FB042340F6B832C3F89C2087
:10495000B54A43F6787303FB04234FF47A72C3F825
:10496000A020B14A43F6787303FB04230122C3F865
:10497000A420AD4A43F6787303FB0423002283F896
:10498000B820A94A43F6787303FB0423A74AC3F867
:10499000AC20A54A43F6787303FB0423A34AC3F86B
:1049A000B020B3E7A04A43F6787303FB042340F634
:1049B000B832C3F89C209C4A43F6787303FB042367
:1049C0004FF47A72C3F8A020974A43F6787303FB3A
:1049D00004230122C3F8A420934A43F6787303FB0F
:1049E0000423002283F8B8208F4A43F6787303FB30
:1049F00004238E4AC3F8AC208B4A43F6787303FB3A
:104A000004238A4AC3F8B02080E7874A43F67873C4
:104A100003FB042340F6B832C3F89C20824A43F6D5
:104A2000787303FB04234FF47A72C3F8A0207E4A04
:104A300043F6787303FB04230122C3F8A4207A4AC7
:104A400043F6787303FB0423002283F8B820764AE8
:104A500043F6787303FB0423744AC3F8AC20724A0C
:104A600043F6787303FB0423704AC3F8B0204DE784
:104A7000032A3FF66EAE0FF2080B5BF822F000BF80
:104A800009470008AD470008CB470008E947000880
:104A9000032A3FF65EAE0FF2080B5BF822F000BF70
:104AA00013480008314800084F48000885480008AE
:104AB000032A3FF64EAE0FF2080B5BF822F000BF60
:104AC000BB48000851490008B74900081D4A0008C2
:104AD000032A3FF647AE0FF2080B5BF822F000BF47
:104AE0000D470008B1470008CF470008ED47000810
:104AF000032A3FF637AE0FF2080B5BF822F000BF37
:104B0000174800083548000853480008894800083D
:104B1000032A3FF627AE0FF2080B5BF822F000BF26
:104B2000CD48000863490008C94900082F4A000819
:104B3000032A3FF620AE0FF2080B5BF822F000BF0D
:104B400011470008B5470008D3470008F14700089F
:104B5000032A3FF610AE0FF2080B5BF822F000BFFD
:104B60001B48000839480008574800088D480008CD
:104B7000032A3FF600AE0FF2080B5BF822F000BFED
:104B8000DD48000873490008D94900083F4A000879
:104B9000032A3FF6F9AD0FF2080B5BF822F000BFD5
:104BA00015470008B9470008D7470008F54700082F
:104BB000032A3FF6E9AD0FF2080B5BF822F000BFC5
:104BC0001F4800083D4800085B480008914800085D
:104BD000032A3FF6D9AD0FF2080B5BF822F000BFB5
:104BE000ED48000883490008E94900084F4A0008D9
:104BF000032A3FF6D2AD01A050F822F01947000871
:104C0000BD470008DB470008F9470008032A3FF6C4
:104C1000C4AD01A050F822F0234800084148000824
:104C20005F480008954800088039002080C3C9010A
:104C3000032A3FF6B2AD0FF2080B5BF822F000BF7B
:104C4000FD48000893490008F94900085F4A000838
:104C500020461E4B98470146C0B91D4A43F678735B
:104C600003FB0423012283F8FD20BBE421464046D8
:104C7000184B98470146164A43F6787303FB042302
:104C800093F8E830012B3FF4CFACE9B1104A43F67A
:104C9000787303FB042393F8E830032B02D0B8F1B8
:104CA000020F08D00A4A43F6787303FB042400235A
:104CB00084F8FD300E462846074B9847002818BF59
:104CC00006463046BDE8F88F0E46F4E7054F00086B
:104CD00080390020954E000845620008F0B583B089
:104CE000044616469DF82450019143F6787101FB65
:104CF00005F0021D04EBC40102EBC10211490A4494
:104D0000D361089B1362014491F8E83063B140F22B
:104D100021200C4A43F6787303FB052393F8E8300F
:104D2000012B08D003B0F0BD2B46324601A9204626
:104D3000054FB847EDE72B46324601A92046024C05
:104D4000A047EFE7803900201D4E0008F0B583B082
:104D5000054616461C460191104A43F6787303FB3C
:104D6000042393F8E83063B140F221200B4A43F664
:104D7000787303FB042393F8E830012B07D003B0CA
:104D8000F0BD2346324601A9054FB847EEE723465A
:104D9000324601A92846024CA047F0E7803900209E
:104DA000594E000800EBC00043F6787303FB01F195
:104DB00001EBC000024B184490F82800704700BF78
:104DC0008039002038B505460C46124A43F6787300
:104DD00003FB012393F8E830022B07D0032B01D10A
:104DE00000200DE06BB90C4B984700E00020094A09
:104DF00043F6787303FB042393F8E830012B03D0C8
:104E000038BD40F22120F2E721462846024B984760
:104E1000F6E700BF803900209D4F000838B500EB51
:104E2000C00543F6787404FB03F404EBC504074D96
:104E30002C44646824B1012C05D1054CA04738BD31
:104E4000044CA047FBE74FF40870F8E780390020D6
:104E5000195700089953000838B500EBC00543F610
:104E6000787404FB03F404EBC504074D2C44646818
:104E700024B1012C05D1054CA04738BD044CA047F6
:104E8000FBE74FF40870F8E7803900200D56000862
:104E9000A952000838B504460D4600EBC00243F69F
:104EA000787303FB01F303EBC203134A13445B68FB
:104EB000012B17D0104A43F6787303FB052393F8B0
:104EC000E830ABB943F6787000FB05F5043504EB28
:104ED000C40405EBC40410462044084B984703461D
:104EE000184638BD064B984703460028E2D0F7E73E
:104EF00040F22123F4E700BF8039002091610008CF
:104F0000B1550008194A43F6787303FB002393F860
:104F1000E8302BBB10B584B004460246032101A83B
:104F2000134B984743F6787303FB04F3114A134479
:104F3000002201AC06E054F82210D9620132483355
:104F4000032A10D019680129F5D029B10229F5D119
:104F500054F82210D962F1E754F82210D962EDE733
:104F600040F22120704704B010BD00BF80390020FE
:104F70003D6100088439002008B5064A43F678737D
:104F800003FB012191F8E8300BB1002008BD024B72
:104F90009847FBE7803900202161000808B500EB45
:104FA000C00243F6787303FB01F303EBC203054A27
:104FB00013445B68012B02D04FF4087008BD024B0C
:104FC0009847FBE7803900202955000830B589B0A3
:104FD000054600230793224B06930C4681B188783F
:104FE000204B98470790079B7BB105B12B60002CA5
:104FF00033D020461C4B98474FF0FF3009B030BDEE
:105000000020184B98470790EDE77F230593049500
:105010001723039307AA0292019306AB0093282358
:10502000224602210846114CA04720B105B1286054
:105030004FF0FF30E2E707980028DFD1069B1A0CFB
:1050400002D09BB2042B06DC15B140F24F232B603B
:105050004FF0FF3307930798D0E74FF0FF30CDE7CD
:10506000050001003D3F0008D95D0008895D00088A
:1050700030B591B00D900C910B921C4610AB0022F4
:1050800043F8042D7F220992089417220792069371
:1050900005920BAB0493052303930CAA0292019390
:1050A0000DAA0092149A03210220054DA84720B1B1
:1050B00004B120604FF0FF330F930F9811B030BD53
:1050C000895D000830B591B00D901C4600230F9308
:1050D0001E230E937F230A930994172308930FAA84
:1050E000079206930EAB05938B1C04930123039345
:1050F0000291042301930DAB00930523149A06211A
:105100000220054DA84720B104B120604FF0FF33C5
:105110000F930F9811B030BD895D000830B58BB08A
:1051200007900C460AAB002143F8041D7F2105912E
:105130000494172103910293019107AB0093052377
:1051400007210220054DA84720B104B120604FF08F
:10515000FF33099309980BB030BD00BF895D00088B
:1051600030B597B01390129211931C9C1E23159387
:1051700000231493B2F5803F08DD002C30D04FF4AB
:10518000A67323604FF0FF3017B030BD7F230F931D
:105190000E9417230D9314AA0C920B9315AB0A933C
:1051A0001A9B02330993012208921A9B0793042346
:1051B000069311AB05930523049312A80390029163
:1051C000019213AA00921D9A0C210220064DA847B5
:1051D00020B104B120604FF0FF3314931498D3E74B
:1051E0004FF0FF30D0E700BF895D000830B599B0BF
:1051F0001390129211931E9C00231793B2F5803FD7
:1052000007DD002C39D04FF4A67323604FF0FF3038
:1052100031E01C9B002B33D01E2315931C9B981C44
:105220007F220F920E9417220D9217AD0C950B92C0
:1052300015AA0A920990142208920793162306933E
:1052400011AB05930523049312A8039002910192D8
:1052500013AA00921F9A0E2102200C4DA84720B1DC
:1052600004B120604FF0FF3317931D9B13B120232F
:105270001D9A1360179819B030BD4FF0FF30FAE750
:10528000002015900DF15A03CAE700BF895D0008A0
:1052900082B0C0F307238DF806308DF80700BDF803
:1052A000060002B0704700002DE9F04F87B00C688F
:1052B000002C5FD00293324D43F6787404FB035404
:1052C00094F8E8400CB1002055E01F46009303928B
:1052D0000C4605460190064605A82A4B984705EB63
:1052E000C50243F6787303FB07F303EBC203264AB8
:1052F0001344DF6ADFF89CB0A2F1040943F6787822
:10530000029B08FB03F809EB080A0099781DD847AF
:1053100000F00105DAF8343B13B1009900209847FA
:105320006DB906EBC60308EBC3034B44D96805A867
:10533000164B98470028E8D140F291101BE0DDF8A9
:105340000C904D46124E0E4B43F67878029A08FBAD
:105350000238A5EB090322689A420FD93846B047B4
:1053600005F8010BD8F8303B002BF2D000990198DA
:105370009847EEE7002007B0BDE8F08F0020FAE77D
:10538000803900202162000884390020236200084F
:1053900021610008794F00082DE9F04F87B0029392
:1053A000314D43F6787404FB035494F8E8401CB183
:1053B000002007B0BDE8F08F1C460093039288469A
:1053C0000190054600EBC00243F6787303FB04F33B
:1053D00003EBC203254A1344DE6A05A8244B984711
:1053E000DFF898B0DFF8809043F67877029B07FBF0
:1053F00003F709EB070A0099701DD84700F0400435
:10540000DAF8343B13B10099002098476CB905EBEA
:10541000C50307EBC3034B44196905A8154B98470F
:105420000028E8D140F29110C3E7DDF80C904C461B
:10543000114D0D4B43F67877029A07FB0237A4EB28
:105440000903D8F800209A420BD914F8011B304602
:10545000A847D7F82C3B002BF1D00099019898472A
:10546000EDE70020A5E700BF803900208439002047
:10547000216200082362000809610008794F0008D2
:10548000F8B50D461446114603300F4B98470646B3
:1054900007460E4A43F6787303FB0423D3F8443BD4
:1054A00013B1214628469847FF2E01D03846F8BD53
:1054B00005EBC50543F6787303FB04F404EBC5055F
:1054C000034C2544AF6AF1E7794F0008803900208A
:1054D00084390020F8B50D461446114602300F4BB2
:1054E0009847064607460E4A43F6787303FB0423A3
:1054F000D3F8443B13B1214628469847FF2E01D0EC
:105500003846F8BD05EBC50543F6787303FB04F494
:1055100004EBC505034C2544AF6AF1E7794F000859
:105520008039002084390020F8B506460D4600EB8E
:10553000C003DB00043343F6787404FB01341A4BD8
:105540001C44E76A781D194B984700F0C2004028B8
:1055500022D1154A43F6787303FB0523D3F8443B65
:1055600013B12946304698472946F81D0F4B9847F6
:10557000A26A78B1C001824211D10B4A43F6787316
:1055800003FB0523D3F8443B63B1294630469847D3
:10559000002003E00120EEE740F25120F8BD40F288
:1055A0005120FBE70020F9E780390020794F0008FF
:1055B00038B50D4600EBC00043F6787303FB01F3EA
:1055C00003EBC0000F4B1844C46A601D0E4B984794
:1055D00000F0E200602802D040F20B2038BD2946DE
:1055E000A01C094B984748B92946E01C064B984730
:1055F000FF2840F20B2008BF0020EFE740F20B200D
:10560000ECE700BF84390020794F00082DE9F04F06
:1056100083B006460F461446194600931D4600EB1C
:10562000C003DB00043343F6787909FB0133354AC4
:1056300003EB0209D9F82C0001903B6804EB030B43
:105640000A463146304B98473B68984206D2D9F813
:1056500010301BB9D9F8283098422AD35C452BD298
:10566000DFF8A4A0DFF8AC80264B43F6787707FB81
:10567000053727E000993046244B98470346002819
:1056800036D197F8E830002B36D02C4625E05D4522
:1056900028BF5D46AC4220D20198C04704F8010BF8
:1056A000D7F8403B13B1009930469847AC42F3D14C
:1056B00013E040F21D231BE0002319E0002317E054
:1056C000A345FBD9009A31460198D0472518A54239
:1056D000D0D097F8E830002BD9D00D4B9847D9F8A7
:1056E0002030C01AD9F81C309842E9DD40F252232C
:1056F000184603B0BDE8F08F5D46A34528BF254698
:10570000C8E700BF80390020D5540008295500089B
:1057100055620008216100082DE9F04F83B006466C
:105720001446184600931D4606EBC603DB000433FF
:1057300043F6787909FB0033314A03EB0209D9F8C3
:105740002C3001930F680146581D2E4B984700F0EE
:10575000DC0040282CD104EB070B5C452BD2DFF892
:10576000B0A0DFF8B080264B43F6787707FB05370B
:1057700027E000993046244B98470346002836D14D
:1057800097F8E830002B36D02C4625E05D4528BF41
:105790005D46AC4220D214F8011B0198C047D7F8EF
:1057A0003C3B13B1009930469847AC42F3D113E02B
:1057B0004FF4C9731BE0002319E0002317E0A34551
:1057C000FBD9009A31460198D0472518A542D0D080
:1057D00097F8E830002BD9D00C4B9847D9F82030F7
:1057E000C01AD9F81C309842E9DD40F2522318461D
:1057F00003B0BDE8F08F5D46A34528BF2546C8E746
:1058000080390020794F00082955000855620008AA
:1058100081540008096100082DE9F04FADF5317D94
:105820000546039002921E468DF817101046D74B7E
:1058300098470190D64A43F6787303FB002393F808
:10584000FC30012B40F05A8243F6787303FB0023AF
:10585000D3F8603B23B102469DF8171028469847BD
:1058600000258DF8BC528DF8BD528DF8BE520DF159
:105870001703249301240E942F460DF1900B0DF184
:1058800038090DF5CC7807AB04931EE0631C152B8B
:1058900000F23E8271684BF823100C36002977D055
:1058A0009268116898F82421501C88F8240108EBAC
:1058B000820048F8221049F823104BF824000423F2
:1058C00049F824300234E4B201375FFA87FA3246ED
:1058D00033687F2B00F0D681013B292B00F2158223
:1058E00001A151F823F000BF8D580008A55A000807
:1058F000335A00084B5A0008795A0008A559000885
:105900000B5D00080B5D00080B5D00080B5D0008D7
:105910000B5D00080B5D00080B5D00080B5D0008C7
:105920000B5D00080B5D00080B5D00080B5D0008B7
:105930000B5D0008075C0008F75A0008135B0008BD
:105940002F5B00080B5D00080B5D00080B5D000875
:105950000B5D00080B5D00080B5D00080B5D000887
:105960000B5D00080B5D00080B5D00080B5D000877
:105970000B5D00080B5D00080B5D00080B5D000867
:105980000B5D00084B5B0008995B0008DB5B0008BF
:10599000002249F823204FF0FF33079307AB4BF861
:1059A00024308CE704F1010CBCF1150F00F2B38137
:1059B00073680C369068042249F8242063B949F8CA
:1059C0002C304FF0FF33079304984BF82400042346
:1059D00049F82430023477E7016898F826215FFA05
:1059E00081FA0AEB020EBEF1270F00F3978102F154
:1059F000160E08EB8E0E524488F8262100290ADD87
:105A0000043BAEF1040203EB810A53F8041F42F891
:105A1000041F5345F9D10268002A03DD0023013336
:105A20009A42FCD14BF82CE003689B0049F82C30DB
:105A3000CBE7152C00F27581083653684BF82430FB
:105A4000012349F824301C443EE7152C00F26C81F8
:105A5000083653681A8898F82531591C88F825119A
:105A60007C3328F8132008EB43034BF8243002233F
:105A700049F82430013427E7152C00F25881083604
:105A800053681A6898F82431591C88F8241148F88A
:105A90002320042249F8242008EB83034BF8243008
:105AA000013411E704F1010ABAF1150F00F2428145
:105AB000083650684BF82A00A8B1364B9847013099
:105AC00098F824315A1C88F8242108EB830248F8FE
:105AD000230049F82A004BF82420042349F82430F5
