:020000040801F1
:10000000D07F0010D1090108890101088901010888
:100010008901010889010108890101080000000027
:100020000017011003F8A25900000000890101081F
:1000300089010108000000001D0F010805090108E1
:100040008901010889010108890101088901010864
:100050008901010889010108890101088901010854
:100060008901010889010108890101088901010844
:100070003D51010805570108A15001086D560108BE
:100080008901010889010108890101081D7401081D
:100090004977010835780108017B010889010108C9
:1000A0008901010889010108890101088901010804
:1000B00069690108A5690108E16901089161010800
:1000C00015610108996701081D6701088901010888
:1000D00089010108890101088901010889010108D4
:1000E00089010108890101088901010889010108C4
:1000F00089010108890101088901010889010108B4
:1001000089010108890101081D6A010889010108A6
:100110008901010889010108596A0108890101085A
:100120008901010889010108D15C010889010108E0
:1001300089010108890101088901010895750108F3
:1001400021790108117A0108117B01088901010850
:1001500045120108355C0108B11101088901010847
:100160008901010889010108890101088901010843
:100170008901010889010108890101088901010833
:100180008901010889010108FEE7000010B5054C4E
:10019000237833B9044B13B10448AFF30080012333
:1001A000237010BD0000002000000000981A020813
:1001B00008B5034B1BB103490348AFF3008008BDEA
:1001C0000000000004000020981A020870477047E1
:1001D00008B5034BD868034B984780B208BD00BFF1
:1001E0001C0000207902020808B5034B9869034BF4
:1001F000984780B208BD00BF1C00002079020208A9
:1002000008B5034BD869034B984780B208BD00BFBF
:100210001C0000207902020870477047704743882D
:100220008B4203D983888B4298BF0180002070479E
:1002300070B50E460E4C014620460E4DA84731467D
:10024000A01DA84720880C4B1B88834204D10B4B70
:100250001A88E3889A4209D0074B1880044BD98842
:10026000064B198000231A46054CA04770BD00BFFD
:10027000580000201F0201085400002056000020F2
:10028000D11E0108704770477047704738B5084B5A
:100290001C780CB9204638BD064D4FF0FF3128467A
:1002A000054B9847024B1C782846044B9847F1E7CA
:1002B000D4020020D00200202D0E0108A90E010852
:1002C00038B56C4B1A686C4B1B68002B08BF0123B8
:1002D0009B1AC72B0FDD0446674B1B68002B08BF1A
:1002E0000123644A1360654B9847042806D0002018
:1002F000634B187001E0624B187838BD4FF0FF3146
:100300006048614B9847614B1B681A0642EA1362CA
:10031000190A01F47F410A431B0203F47F031343CC
:100320005B4A13605B4B1868002810DD5A4A584B33
:10033000184413F8011B02F8011B8342F9D15749F5
:10034000534A12F8010B01F8010B9A42F9D1544BB0
:100350001A68494B1B68002B08BF01239B1AB3F591
:10036000FA6F10DD012C10D04E4B1A68424B1B68FF
:10037000002B08BF01239B1AB3F5FA6F36DD022C60
:1003800036D0002511E0022CEED0474B186800282B
:1003900008DD464A464B184413F8011B02F8011BBE
:1003A0008342F9D10125364B1D70424B1A68324BFE
:1003B0001B68002B08BF01239B1AB3F5FA6F2BDDD6
:1003C000012C2BD03C4B1A682B4B1B68002B08BF11
:1003D00001239B1AB3F5FA6F38DD022C38D0294877
:1003E000364B9847264B00221A702CE0012C11D076
:1003F0002D4B1868002808DD2C4A314B184413F89F
:10040000011B02F8011B8342F9D11D4B02221A7015
:100410000125CAE70025C8E7022CD3D0294B18686C
:10042000002808DD284A294B184413F8011B02F85C
:10043000011B8342F9D1124B01221A7011481F4B44
:100440009847002DCED00E4B187856E7012CC6D019
:100450001C4B1868002808DD1B4A1D4B184413F874
:10046000011B02F8011B8342F9D1054B02221A70CD
:10047000E4E700BFD8020020C80500208D02010873
:10048000D5020020D00200202D0E01083C010020E2
:10049000B803002008000010080200206C020020B1
:1004A0002C0100203001002000000010DC020020A0
:1004B000400100203401002038010020A90E01086D
:1004C000A40100200400001040030020640000206C
:1004D000C8000020002070470048704744040020F6
:1004E000064A0023136093801361054A13609380CA
:1004F0001361044A1360938013617047A4040020C1
:10050000780400204C0400209F2805D10B78002B94
:10051000024808BF002070470020704730000906DD
:100520000023136041F21703984245D011D9B0F56A
:10053000C05F4BD02BD8B0F5A05F43D0B0F5B05F13
:1005400042D041F2180398423AD0264B0B6000206B
:10055000704741F20503984226D00AD941F20703B9
:1005600098423DD024D341F216039842EDD10522A2
:1005700007E0B0F5805F31D041F201039842E4D149
:10058000012200230B60184800EBC2007047B0F551
:10059000005F1FD0B0F5085F1ED0B0F5D05FD4D19A
:1005A000124B13600B22ECE7114B13600222E8E7B9
:1005B000104B13600322E4E70F4B13600622E0E7C1
:1005C0000722DEE70822DCE70922DAE70B4B13609B
:1005D0000A22D6E70C22D4E70D22D2E70022D0E788
:1005E0000422CEE700000206B80902080405002034
:1005F000DC040020E0040020E4040020E8040020E3
:100600007047000070B51C4C20461C4DA84706469C
:10061000A01CA84701463046194B9847194B9847EC
:1006200024F8020C184B9847A080184B984720815B
:100630001748184B984780B96E3CA18D0B0243EACE
:100640001123A4F874301448124B984758B1134B37
:100650004FF69C72A3F8782070BD104B4FF69C7239
:10066000A3F87420EFE70D4AB2F862100B0243EAD8
:100670001123A2F87830EFE7B2050020CD0601087B
:1006800031020108D1010108E90101080102010854
:10069000C0050020D5060108C4050020440500203F
:1006A00008B50548054B9847054B1B68054B98470F
:1006B000054B984708BD00BF440A020829150108E8
:1006C000C805002005060108D1060108008870470A
:1006D000704700000368064A1068002808BF012020
:1006E000C01A47F230539842D4BF0020012070470F
:1006F000C8050020F0B40023012503260DE0C268E0
:1007000006FA07F422EA0402C260C468CA79BA4051
:100710002243C2600133102B2CD005FA03F20C687F
:10072000A243F7D104685F0006FA07F2D2431440EF
:100730000460D0F800C00C79BC4044EA0C040460AA
:100740000C79013CE4B2012CD9D884682240826043
:1007500084684A79BA4022438260426805FA03F409
:1007600022EA0402426044688A799A4092B22243A3
:100770004260C4E7F0BC7047018370474183704713
:1007800010B401F007039B00C90800EB8100016A67
:100790000F249C4021EA04010162016A9A400A4345
:1007A000026210BC7047000010B4284B9B6803F035
:1007B0000C03042B22D0082B23D013B1244B03604D
:1007C00001E0234B0360214CA368C3F303132149C9
:1007D000CB5CDAB20368D3404360A268C2F38222E2
:1007E0008A5CD2B223FA02F28260A268C2F3423279
:1007F0008A5CD2B2D340C36010BC7047164B036012
:10080000E1E7124B59685A6802F03F0211F4800F79
:1008100011D05968C1F388110F4BB3FBF2F303FBFE
:1008200001F30A4A5268C2F3014201325200B3FB9B
:10083000F2F30360C7E7054B5968C1F38811044B15
:10084000B3FBF2F303FB01F3EBE700BF0038024018
:100850000024F4001805001000127A0029B9054A96
:10086000136B23EA000010637047024A136B1843AE
:10087000106370470038024029B9054A936B23EA98
:10088000000090637047024A936B1843906370476F
:100890000038024029B9054A136C23EA00001064AD
:1008A0007047024A136C18431064704700380240C6
:1008B00029B9054A536C23EA000050647047024A84
:1008C000536C1843506470470038024029B9054AF8
:1008D000136A23EA000010627047024A136A184341
:1008E000106270470038024029B9054A536A23EA6A
:1008F000000050627047024A536A184350627047C2
:1009000000380240084B1B6813F4803F0BD0074AA5
:10091000136801331360064B4AF6AA221A60054B8E
:100920004FF080525A60704710E000E0C805002088
:100930000030004000ED00E000B585B06846144B83
:100940009847019B134AA2FB03235B0A013B124A0F
:10095000536000239360114BE02183F82310072399
:1009600013606FF004000E4B984745F255500D4B45
:10097000984703200C4B98474FF4FA600B4B98476D
:100980000B4B98470B4B984705B05DF804FB00BF35
:10099000A9070108D34D621010E000E000ED00E06F
:1009A00085430108214B01082D4B0108394B0108F3
:1009B000454B0108554B0108044B1B681844034A7A
:1009C00013681B1A002BFBDB704700BFC805002013
:1009D00008B51B4B98471B4A1B4B9A420DD2194A2C
:1009E000111D1A4B5B1A23F003030B44184951F8ED
:1009F000040B42F8040B9A42F9D1164A164B9A425C
:100A00000BD2144A111D154B5B1A23F003030B4440
:100A1000002142F8041B9A42FBD1114A114B9A6003
:100A2000ADF5007383F309884FF0020282F3148856
:100A3000BFF36F8F0C4B98470C4B9847FEE700BFF6
:100A4000594C010800000010F4090010F7090010CB
:100A5000981A02080000002061330120643301204D
:100A60000000010800ED00E0B9050208E9160108E0
:100A700008B5C36800699847F02383F31188054BD4
:100A80001A6800239361044A4FF08051516083F348
:100A9000118808BD2C07002000ED00E00C4A0D4B2A
:100AA0001360116801208861116800224A615A644C
:100AB0001A67C3F89C20C3F8C820C3F8F420C3F811
:100AC0002021C3F84C21044BF02283F822207047E8
:100AD0002C070020CC05002000ED00E02DE9F843B4
:100AE00080461C4C01251C4EDFF878901B4F06E019
:100AF00029461B48B84701352C34082D26D0636C95
:100B0000002BF8D0236B1968B142F1D1616B8039A9
:100B10008908012916D95A68B2F1FF3F14D1083368
:100B2000012201328A4204D053F8040BB0F1FF3F96
:100B3000F7D0B8F1000FDED0013A920029464846BE
:100B4000B847D8E70122F4E70122F2E70020BDE828
:100B5000F88300BFCC05002001F65AA5291501082D
:100B6000580A0208740A02082DE9F8430746894624
:100B7000154698460020574B984715F0030F40F054
:100B8000A580B8F1FF0F40F2A380F02383F3118812
:100B9000514B5B6C63B1504B02201A6F4AB101306C
:100BA0002C330828F9D1002383F311884B488BE0BC
:100BB0000120494C2C2101FB00F104EB010C082819
:100BC000F1D0474B2B60A8F18003042B0DD92B1DCE
:100BD000A8F1850222F0030205F1080E72444FF0DD
:100BE000FF3643F8046B9342FBD1CCF80450CCF8A9
:100BF000088045442B1F63504FF0807345F8043C38
:100C000063581A1F6250374A43F8042C6258131F66
:100C10006350002342F8043C6258151F655042F8A7
:100C2000043C6258151F655042F8043C6258151F79
:100C3000655042F8043C6258151F655042F8043C68
:100C40006258151F655042F804CC6258151F655054
:100C50006FF0020542F8045C6258151F655042F8B7
:100C6000043C6258151F655042F8043C6258151F39
:100C7000655042F8043C6258151F655042F8043C28
:100C80006258151F655042F8043C6258151F6550A4
:100C900042F8043C6258151F655042F8043C625803
:100CA000151F655042F8043CCCF80C70CCF810903D
:100CB0000122CCF81820089ACCF81420CCF8203067
:100CC000CCF8243083F31188BDE8F8830648FBE7AD
:100CD0000648F9E751F10108CC050020F4ADFFFF0B
:100CE00001F65AA5710A0108F3ADFFFFF2ADFFFF4F
:100CF00008B5F02383F31188002815DB0F4B1A6821
:100D00000F4B9A4214D00D4B1B6802229A610D4B77
:100D10001B68002B08BF0123084A12681844506260
:100D2000094B4FF080525A60002383F3118808BDAD
:100D3000002383F31188054B9847F8E72C07002020
:100D4000CC050020C805002000ED00E0B90901082D
:100D5000F0B51A4B0027BC460124194825464FF030
:100D6000030E19E012F0020F0FD00268002A08BF2C
:100D700001220E6D921B002A07DB4D644D650A6C43
:100D8000BA42C4BF1746A44602E04A6C012AF6D014
:100D900001342C33082C0CD019465A6C12F0080F71
:100DA000E0D09E6C3668002EDCD05D64C3F854E061
:100DB000E5E7024B2C2000FB0C30F0BDCC050020F9
:100DC000C805002003682BBB31B310B4F02383F3B4
:100DD00011880029CCBF0A240824104B1A6894619A
:100DE0001B68D8610E4B1B68002B08BF01230B4A00
:100DF0001068194441620B4B4FF080515960002339
:100E000083F3118813689B6A032B074808BF0020EF
:100E100010BC704700207047034870472C07002023
:100E2000C805002000ED00E0F8ADFFFFF02383F3DC
:100E300011880368002B05DD013B0360002080F36F
:100E40001188704719B310B4013B03600029CCBF6F
:100E500006240424104B1A6894611B6818620F4B17
:100E60001B68002B08BF01230B4A1068194441621C
:100E70000B4B4FF080515960002383F311881368A6
:100E80009B6A022B074808BF002010BC7047002354
:100E900083F31188034870472C070020C805002001
:100EA00000ED00E0F8ADFFFFF02383F31188036845
:100EB00001330360002B03DD002383F311887047A7
:100EC00070B4134B00263546012203E001322C3367
:100ED000082A0CD0596811F0040FF7D0D968814264
:100EE000F4D11968B142C4BF0E461546EEE7094B6E
:100EF0002C2202FB053301229A6102229A62064BE0
:100F00004FF080525A60002383F3118870BC704701
:100F10000C060020CC05002000ED00E000B5FFF736
:100F200017FF5DF804EB084A116888420AD0106088
:100F3000EFF3098323E9F04F0B600368B3E8F04F48
:100F400083F30988704770472C070020502383F3F0
:100F500011887047002383F3118870472DE9F84307
:100F600007460E464FF0FF312C482D4B9847002E78
:100F70004FDD2C4CDFF8BC904FF0000807E088F301
:100F80001188002D41DD2F44761B002E41DD5023BA
:100F900083F31188A2886188551AB542A8BF3546E7
:100FA00023880B449A42D8BF9B1A002D0DDD7A1E70
:100FB00002EB050C12F8010FA168C8540133A18897
:100FC0008B42A8BF00236245F4D163882B449BB2B7
:100FD0006380002BD3D0E388002BD0D14146484614
:100FE000114B98472288A3681344C9F80C306388D2
:100FF000A18898188842C8BF8B1AC9F80430E380CA
:1010000001214846084B9847B9E70220074B98470B
:10101000BBE70248064B9847BDE8F8835010002014
:101020002D0E010840070020A5490108F10C010818
:10103000A90E0108B8640240F0B4344B5968C1F1FC
:1010400080011B6813F4002F32D0314B1B681BB199
:10105000304B1C688C4202DB0120F0BC70472E4AEA
:10106000908855880B1B471B9F42A8BF1F461388BB
:101070002B449842D8BF1B1A002F12DD274804F1D9
:101080007F0202447F3020443844234C12F8016F21
:10109000A568EE540133A588AB42A8BF0023904257
:1010A000F4D11D4A53883B4453801A4B1960D3E74F
:1010B000174B18680028CFD1164B1C688C42CBDA2E
:1010C000154A958856880F1BAB1B9F42A8BF1F4629
:1010D000138833449D42D8BF5B1B002F0FDD0F4A9E
:1010E000224402EB070C0C4C12F8016BA568EE547D
:1010F0000133A588AB42A8BF03466245F4D1064B35
:101100005A8817445F80034B1960A5E78864024042
:10111000300700204C080020340700204C07002036
:1011200070B506460C46502383F31188104B984740
:10113000104B5888A042A8BF20461B8800280EDD0F
:10114000721E0644013E0B4CA568ED5C02F8015F7F
:101150000133A588AB42A8BF0023B242F4D1054AAF
:10116000138053881B1A5380002383F3118870BDAA
:1011700039100108340700202DE9F0410C1E11DD63
:101180000546094E4FF00208084F03E04046B847B5
:10119000002C07DD21462846B0470028F6DD05442F
:1011A000241AF5E7BDE8F08121110108F10C0108CE
:1011B00010B5204AD3885288934211DB1D4B002280
:1011C0005A801A801C4B4FF07462DA60194B5B88AE
:1011D000BBB90021174BD9801848194B984710BD4F
:1011E000002BEFD013480188194489B20180808810
:1011F000814202D3091A0F480180D31A0D4A538045
:10120000E0E70E4C002120460D4B9847094B19880A
:101210009A680A44E2605A889B8850189842C8BF6E
:101220005A1A06484260034BDA800121044B984762
:10123000D5E700BF4007002000640240B8640240C8
:10124000A5490108F0B4384B4FF47462DA60883372
:101250001B6813F4002F32D0344B196819B9344B82
:1012600018687F2807DD314B01221A60304B0022BD
:101270001A60F0BC70472F4A94885588C0F18006E8
:10128000631B9E42A8BF1E4613882B449C42D8BFB6
:101290001B1B002E0EDD284A02449719254812F820
:1012A000015B8468E55401338488A342A8BF0B46E0
:1012B000BA42F4D11F4B5A8816445E80D3E71B4BC9
:1012C0001B681BB11A4B18687F2805DD0023174ADD
:1012D0001360174A1360CCE7164A91885488C0F10E
:1012E00080030E1B9E42A8BF1E46138823449942CA
:1012F000D8BF5B1A002E12DD0F4900F17F020A44AD
:101300007F31014431440B4812F8015F8468E55491
:1013100001338488A342A8BF00238A42F4D1054A3E
:10132000538833445380D1E70064024030070020E3
:101330004C080020340700204C0700202DE9F04F16
:1013400091B05B4B5B4A9A604FF400619980002436
:10135000DC805C801C80584A584B93609180D4801C
:1013600054801480564B1C60564B1C60564B1A60C0
:10137000564A5A60564A9A60564ADA60564A1A6184
:10138000564A5A61564A9A61564B01221A60019098
:10139000ADF80840ADF80A40ADF80C40ADF810408B
:1013A0000C23ADF80E3001A94F48504B984701214E
:1013B0004FF480004E4B98474FF0006BCDF804B0CF
:1013C000DFF84CA1CDF808A00394402604968027AE
:1013D000059706944FF480630793089409940A9440
:1013E0004FF400330B930C9403230D930E940F943E
:1013F000DFF8208140463F4DA84701A94046DFF86D
:101400001891C847012210214046DFF81081C047DB
:10141000CDF804B0CDF808A0DFF804A1CDF80CA0F9
:101420000494059706944FF48063079308940994F5
:101430000A944FF400330B930C9403230D930E94F2
:101440000F94DFF8E0B05846A84722460AEB0701A0
:101450005846294B984701215846284B984701A9DF
:101460005846C847012210215846C047244B5022F5
:1014700083F825232021596083F846239E6083F852
:10148000442310229A600122394617481D4CA04778
:10149000012231461448A047012158461A4B98476B
:1014A00001211148194B984711B0BDE8F08F00BFDA
:1014B000400700205410002034070020500800206E
:1014C000300700204C080020541C00204D0F01085C
:1014D000550F01085D0F010821110108791101085C
:1014E000391001085010002000100140654B010820
:1014F0005D080108F5470108BB490108D349010807
:1015000000E100E0434C0108A5490108294C01080D
:1015100004100140B86402404D490108E94901083E
:101520004C070020886402400FB42DE9F04383B0DB
:101530000AAC54F8046B4FF0FF313848384B9847E9
:101540000194384D234632464FF480612846364C8C
:10155000A0472B7873B115F8013F002BFBD1314B1D
:10156000ED1A002D52DD2F4F304CDFF8D0904FF0A8
:10157000000809E02B4DF2E788F31188002E41DDC9
:101580003744AD1B002D41DD502383F31188A28821
:101590006188561AAE42A8BF2E4623880B449A4251
:1015A000D8BF9B1A002E0DDD7A1E02EB060C12F836
:1015B000010FA168C8540133A1888B42A8BF002342
:1015C0009445F4D1638833449BB26380002BD3D01D
:1015D000E388002BD0D141464846154B98472288D6
:1015E000A3681344C9F80C306388A188981888420E
:1015F000C8BF8B1AC9F80430E380012148460C4B60
:101600009847B9E702200B4B9847BBE703480A4BC2
:10161000984703B0BDE8F04304B070475010002075
:101620002D0E01085418002035370108400700200E
:10163000A5490108F10C0108A90E0108B86402408F
:10164000084B5B8898420ADA064A13881844938844
:101650009842A8BFC01A034B9B68185C70470020D3
:10166000704700BF3407002070B4104B5B888418AB
:101670009C42C8BF1A1A0D4C23880344A088834299
:10168000A8BF1B1A002A0DDD01398E18074CA5686A
:10169000ED5C01F8015F0133A588AB42A8BF0023D0
:1016A000B142F4D1104670BC704700BF340700202F
:1016B0000C4B5A88904211DA00280EDD80B209499D
:1016C0000B8803449BB20B8089888B4202D35B1A40
:1016D00004490B80101A034B5880704700225A802F
:1016E0001A8070473407002010B582B0144B984719
:1016F00014491548154CA047154B596F1548A0477C
:10170000662300934FF48053134A00211348144C6E
:10171000A047011E0BDB642300934FF48053114A52
:10172000002111480E4CA047011E04DBFEE70F48C4
:10173000064B9847EFE70E48044B9847F6E700BF83
:10174000D11701089C0A0208AC0A020829150108F1
:1017500000380240B80A0208701C0020ED89010818
:10176000690B0108702C0020958D0108C80A020839
:10177000E40A020830B583B001214FF40010104B89
:10178000984702238DF8043001228DF806208DF849
:1017900007208DF8053002A94FF4407341F8083D49
:1017A000084C2046084B9847042208212046074D44
:1017B000A847042209212046A84703B030BD00BF36
:1017C0009508010800040240F50601088107010898
:1017D0002DE9F04FA3B072B601217F20B34B98479B
:1017E00000248DF8114001268DF810608DF813400B
:1017F0004FF4807303938DF8124003A9AC48AD4FAA
:10180000B8474FF48071AA48DFF8C8A2D0478DF8D6
:1018100010608DF8134003968DF8124003A9A64876
:10182000B8473146A448A54DA8478DF810608DF8FB
:101830001340C02303938DF81240DFF89C8203A964
:101840004046B84740214046D0478DF810608DF89B
:101850001340042303938DF8124003A99848B84716
:1018600004219748A8478DF810608DF813404FF475
:10187000806303938DF8124003A94046B8474FF4A4
:1018800080614046A8478DF810608DF8134008230A
:1018900003938DF8124003A98948B8470821884866
:1018A000A8478DF810408DF813404FF40063039360
:1018B00003A97F48B8478DF810608DF813404FF0AA
:1018C000020BCDF80CB08DF8124003A97D48B84743
:1018D00059467C48A847314630467B4B98470C22F6
:1018E00021467748794DA8470C2231467448A847CD
:1018F0000C2204217248A8470C2205217048A847F1
:101900000C2207216E48A8470C220E216C48A847DC
:101910000C220F216A48A8470C2221466948A84793
:101920000C2207216748A8470C2208216548A847D0
:101930000C2209216348A8470C220A216148A847C4
:101940000C2221464046A8470C2231464046A84773
:101950000C2259464046A8470C2203214046A8477E
:101960000C2204214046A8470C2205214046A847E6
:101970000C2211464046A8470C220D214046A8479C
:101980000C220E214046A8470C220F214046A847B2
:101990000C2221464648A8470C2231464448A84715
:1019A0000C2259464248A8470C2203214048A84728
:1019B0000C2204213E48A8470C2205213C48A84798
:1019C0008DF850B08DF851B08DF852408DF85340DD
:1019D00022AA4CF2B30342F83C3D914611463848E6
:1019E000B84740F28173139349463648B8474FF2DF
:1019F0003F03139349464046B8474FF03F08CDF8A0
:101A00004C8049462A48B8470F22059206964F2334
:101A10000793089409940A944FF040530B930C9247
:101A20000D96CDF838800F9410941194129313945E
:101A30001494082115911694179418944FF4007378
:101A400019931A944FF400611B914FF480511C912B
:101A50001D944FF480411E911F940DF11408CDF890
:101A600080800CAB2193CDF804904846184A9047EB
:101A700031462046DFF86490C84704210591069658
:101A8000079108940994CDF828B00B94062113917E
:101A900014940421159110211691179418941994F7
:101AA0001A941B944FF480511AE000BF5D0801089E
:101AB00000180240F5060108000002407D070108F9
:101AC000000C02400010024079080108810701085B
:101AD000314A01087907010800140240F94A010857
:101AE0001C911D941E941F94CDF88080CDF88480A5
:101AF0000198B84A904731460620C8473146102021
:101B0000DFF8F482C0478DF850B08DF852408DF860
:101B100053608DF851404FF4C06313930199AE4860
:101B2000B84707220921AC48A84707220A21AA483A
:101B3000A84731464FF48020DFF8C092C8478DF89F
:101B400050B08DF852408DF853608DF851404FF4ED
:101B5000407313930199A148B847072208219F4871
:101B6000A847072209219D48A8478DF850608DF8A5
:101B700053404FF4806213928DF852400199974878
:101B8000B8474FF480619548D04731462020C04780
:101B90008DF850B08DF852408DF853608DF851405B
:101BA000C0221392DFF8588201994046B8470822B4
:101BB00006214046A847082207214046A8478DF83D
:101BC00050608DF853404FF4807213928DF852405C
:101BD00001994046B8474FF480714046D04731469E
:101BE0004FF40020C8478DF850B08DF852408DF862
:101BF00053608DF851404FF4406313930199404670
:101C0000B84708220A214046A84708220B2140462F
:101C1000A8478DF850608DF85340042213928DF838
:101C2000524001996E48B84704216D48D0476D4B2A
:101C3000984731464FF40040C8478DF850B08DF8B2
:101C400052408DF853608DF8514018231393019939
:101C50006548B8474FF48052139201994046B847FF
:101C6000062203216048A847062204215E48A847AF
:101C700006220C214046A8478DF850608DF853404D
:101C80004FF4004213928DF8524001995248B847E0
:101C900001995648B8474FF480421392019953482E
:101CA000B8474FF40052139201994046B8474FF499
:101CB00000414948D0474FF400414C484C4B9847AD
:101CC0008DF850608DF853404FF4405313938DF8C6
:101CD000524001994548B8474FF480514348D04796
:101CE0004FF400514148424B984731464FF48040F1
:101CF000C8478DF850B08DF852408DF853608DF87C
:101D000051400C23139301994046B8474FF4806328
:101D1000139301993448B847052259464046A847CD
:101D2000052203214046A84705220A212E48A8473C
:101D30008DF850608DF853404BF6780313938DF86F
:101D40005240019D29462648B8474FF460531393EB
:101D500029462248B847C023139329462348B84749
:101D600020211F48D04720211D48D04720211C4852
:101D7000D04740211A48D04740211948D0474FF456
:101D800000611648D0474FF480511448D0474FF4B3
:101D900000511248D04731464FF00070C8473146D5
:101DA0004FF08060C8478DF850B08DF852408DF8E4
:101DB00053408DF851606023139329460A48B84771
:101DC0000922062108480B4CA04709220521064894
:101DD000A04717E0314A010800000240000C024011
:101DE000001002407517010800040240001802406C
:101DF0007D07010881070108B1080108950801085D
:101E0000000802400F4B98470F4B98474FF4E130C2
:101E10000E4B98474FF496400D4B98474FF4964021
:101E20000C4B98474FF496400B4B98470B4C204671
:101E30000B4B984720460B4B984762B6002023B0C7
:101E4000BDE8F08F9D0A0108390901083D1301081A
:101E500035520108C95D0108FD570108801A0600C6
:101E6000B5630108CD68010820B10078B0FA80F0B0
:101E7000400970470020704700230370704708B185
:101E8000807870470020704710B582B063F07F0300
:101E900043EA420343EA810343EAC00302AA02F889
:101EA000013D0123FF216020064CA047021E02DBFA
:101EB000012002B010BD60210348044B9847002068
:101EC000F7E700BFA1940108300B020829150108AB
:101ED000F0B585B050248DF8044000EB800044003C
:101EE000404D85FB0404A40804EB840464033E48CD
:101EF00080FB04763719E617C6EB273605363B4CD0
:101F000084FB06C7F617C6EBA706C6F303278DF8B2
:101F100005708DF8066001EB8101490085FB0161C8
:101F2000890801EB8101490380FB01760E44C91742
:101F3000C1EB2631053184FB0176C917C1EBA6013F
:101F4000C1F303268DF807608DF8081002EB8202BA
:101F5000520085FB0212920802EB8202520380FBC0
:101F600002611144D217C2EB2132053284FB0261B7
:101F7000D217C2EBA102C2F303218DF809108DF82C
:101F80000A2003EB8303590085FB0131890801EB2B
:101F900081035B0380FB03201844DB17C3EB203372
:101FA000053384FB0324DA17C2EBA402C2F3032334
:101FB0008DF80B308DF80C2092B20D480D4B9847E0
:101FC000092301AAFF2160200B4CA047021E02DB5F
:101FD000012005B0F0BD60210848064B984700205D
:101FE000F7E700BF310CC33001D5ECD167666666F8
:101FF000500B020829150108A1940108080B0208DA
:10200000D0F808321B786BB990F8052252B1002144
:10201000D0F80C2242F823100133DBB290F80522ED
:102020009A42F5D80020704738B50446054B002287
:1020300041F20301044DA847D4F8083200221A7077
:1020400038BD00BF012001080D2901087047CB7879
:10205000082B0CD170B54E790A790D78D0F838423A
:102060008B7942EA062205F07F01A04770BD7047D8
:10207000704738B5D0F89C3053F82130D0F8A040E4
:102080004FF6FF7524F81150C3F30741431801249C
:1020900083F8B040D0F8AC30984738BD10B584B064
:1020A0000446D0F8A4301B883BB9B0F9A8000E4B09
:1020B0009847A4F8A80004B010BD03681B7803F586
:1020C000E063ADF8043001238DF8073000238DF86C
:1020D000063090F878308DF8083001A9D0F8E0018A
:1020E000024B9847E7E700BF79A201087124010875
:1020F0002DE9F0478046D0F838311B885BB300F1FA
:10210000B0050024DFF864904FF0010A10E0394672
:102110004046984786F800A096F89030013B86F834
:10212000903039464046C84701340135802C18D0DC
:10213000E7B22E462B780F2BF6D0D8F800301B785C
:10214000BB42F1D095F89030002BE5D1D8F834316E
:10215000002BDCD1DEE7B0F93001034B9847A8F83B
:102160003001BDE8F08700BF79A20108CD26010843
:102170002DE9F04F87B005460E7806F07F068B7884
:10218000012B2ED00C7904F07F04D0F83C311A7862
:10219000831983F8402193F8B030A34207D0D0F8D8
:1021A000D831224631469847AB1983F8B040AB1975
:1021B00093F8B03023B9D5F8D43131462846984742
:1021C000AB1993F8B0300F2B0FD0D5F898301B789F
:1021D0005BB10024DFF8A0A0DFF8A090DFF8A080BA
:1021E0002FE003681B78B34202D007B0BDE8F08F40
:1021F00003F5E063ADF80C3001238DF80F300023B8
:102200008DF80E3090F878308DF8103090F8DC2191
:1022100062B163F07F038DF81030002380F8DC3169
:1022200003A9D5F8E001134B9847DEE7012380F8B6
:10223000DC31F5E70134E4B2D5F898301B78A342DD
:10224000D3D9D5F89C3053F82470C7F307439E4286
:10225000F0D1D5F8A03033F91400D047D5F8A0B0AC
:1022600000230093BBB24A4621462846C0472BF8BC
:102270001400DFE77124010879A201087320010826
:10228000C1A101082DE9F04383B005461C4B002293
:1022900041F217011B4CA047002385F8DC31D5F82B
:1022A00098301B78E3B10024DFF864802746164E8F
:1022B00006E00134E4B2D5F898301B78A3420FD978
:1022C000D5F89C3033F82430002BF2D0D5F8A0900C
:1022D0000097424621462846B04729F81400E8E70F
:1022E000D5F8A4301B8813B903B0BDE8F083009380
:1022F000064A00212846044CA047A5F8A800F3E7A9
:10230000D52301080D290108C1A101089D2001085C
:102310007320010870B582B004461A4E334600227D
:1023200041F20C01184DA8473346002241F20D013D
:102330002046A847D4F838311B881BB1D4F83C217B
:1023400012780AB902B070BD0093104A00212046ED
:102350000F4DA847A4F8300104F1AF02002303E0B9
:102360000133DBB2802BEDD0013211780F29F7D089
:10237000216809789942F3D0D4F83C11097882F8A1
:102380009010EDE7092401080D290108F12001084A
:10239000C1A10108F8B50646D0F898301B787BB18A
:1023A00000240B4FD6F8A05035F91400B84725F893
:1023B00014000134E4B2D6F898301B78A342F1D867
:1023C000B6F9A800024B9847A6F8A800F8BD00BFD0
:1023D00079A2010810B50446034B98472046034BE9
:1023E0009847002010BD00BF9523010885220108F1
:1023F00010B50446B0F93001024B9847A4F83001FB
:1024000010BD00BF79A2010810B50446034B9847E0
:102410002046034B9847002010BD00BFF123010860
:102420001523010810B50446024B98472046024B7D
:10243000984710BD852201081523010810B50446F0
:10244000024B98472046024B984710BD9523010840
:10245000F123010808B5014B984708BD5126010832
:1024600008B5014B984708BD7526010870477047AD
:10247000F0B587B005460B880193002302938A7854
:102480008DF80D208DF80C30C8788DF80E0048B10D
:1024900004310DF10F03084411F8012B03F8012F4B
:1024A0008142F9D101A92846094B984707464FF6C2
:1024B000FF74084E39462846B047012803D0013C36
:1024C000A4B2002CF6D1201C18BF012007B0F0BD2B
:1024D000A54501084D4601080023024A1360024A3F
:1024E000136070476CBB002068BB0020024A136871
:1024F00018441060704700BF68BB0020044B1B6885
:10250000044A1068984234BF181AC01A704700BFB6
:102510006CBB002094BC002008B5074A1368013347
:102520001360064A1268934200D008BD044A136043
:10253000044B9847F9E700BF6CBB002068BB002044
:1025400094BC0020ADA2010870B5104B9847104C08
:10255000104B5C60104BC4F8E031092120460F4B52
:102560009847052120460E4B984723681E78812204
:10257000162120460B4DA847012216212046A847C8
:1025800031460948094B984770BD00BFD92401085E
:102590000C00001060BB0020006800408934010876
:1025A000893301089D260108A80B02082915010896
:1025B00010B584B004A9002341F8043D08231D4A46
:1025C00001201D4CA047041E32DB1C4B1A681C4B1B
:1025D0001B68002B08BF01239B1AB3F57A7F0ADB27
:1025E000174B1B68002B08BF0123144A13602146B8
:1025F0001048144B9847002301930293039BADF8B6
:1026000000301B0C8DF802308DF8034014F0FF02EF
:1026100009D00DF10301074B1A4413F8010B01F81F
:10262000010F9A42F9D16946074B5868074B984702
:1026300004B010BD70BB0020217B010890BC0020BD
:10264000C8050020E94D010860BB0020A931010840
:1026500008B50448044B9847012216210348044B4F
:10266000984708BDC80B0208291501080C00001086
:102670009D26010810B50C460448054B98470122D9
:1026800021460448044B984710BD00BF640B020864
:10269000291501080C0000109D26010800B585B021
:1026A0000023ADF804308DF8063002238DF8073092
:1026B0008DF808208DF8091001A9D0F8E001024B2F
:1026C000984705B05DF804FB7124010800B585B09A
:1026D00041F4E061ADF8041001238DF806300023C9
:1026E0008DF8073001A9D0F8E001024B984705B0FA
:1026F0005DF804FB71240108F0B583B00D46144663
:102700001E469DF82870D0F8E4316A4601A9284693
:102710009847019D002D4DD10379A34249D93FB17E
:10272000036804EB440213F8223013F0010F44D184
:10273000002E44D004EB4404A400036823445A68E8
:10274000089909688A4224D85A78099B1A70036844
:102750001C446768092A20D1A068089B19680029D1
:1027600008BF394642180378FBB190421FD2421C81
:102770003144144606F8013B12F8013B0BB18E427E
:10278000F7D1201A089B1860B84213D20023237097
:1027900010E0089B1A600B4D0CE03A46A1683046E9
:1027A000094B9847089B1F6004E00446E9E704468C
:1027B000E7E7064D284603B0F0BD054DFAE74FF0B8
:1027C0000065F7E705000405650602081100090623
:1027D000010001062DE9F04F85B0064688461546F2
:1027E00001939DF83C90D0F8E43102AA03A9404639
:1027F0009847039C0CBB07460379AB425CD9B9F1FF
:10280000000F06D0036805EB450213F82230022BB7
:1028100054D005EB45094FEA89093B684B4493F8CE
:1028200001A0D3F804B00E9B1B6853B9736A0199D9
:10283000504698470390A0B10446204605B0BDE835
:10284000F08F5B45F2D0BAF1090F30D15B452ED243
:10285000736A0199092098470390002832D00446F2
:10286000EBE73B684B440E9A1268019998681E4B3F
:102870009847BAF1090F2DD00E9BC3F800B0029B08
:1028800043B153F825302BB12A4639463046984794
:102890000390A8B93B6813F8093013F0040FCCD0AB
:1028A000D6F8E8312A46414630469847C5E70E9BA0
:1028B000C3F800B00D4CC0E70D4CBEE70D4CBCE7B3
:1028C0000446BAE73B684B440E9A1268019998682F
:1028D000054B98470E9B1B685B45CDD23A684A442E
:1028E00092680021D154C7E7650602081000070668
:1028F000110009060200010638B50D461146D0F850
:10290000E4411A462846A04738BD000070B582B0A1
:1029100015461E466B4601AA064CA047019B33B9DB
:10292000009B23B10279AA4288BF43F82560019831
:1029300002B070BDF92801087047000070B58368C7
:1029400001EBC10103EB4101166855689468C1F8B9
:102950000660C1F80A50C1F80E401146D0F8E001F7
:10296000014B984770BD00BF712401082DE9F04765
:10297000089F9DF8244000284CD00646002B14BF29
:102980004FF0FF394FF001099DF82830002B14BF9C
:102990004FF0FF384FF001084FF0FF0C4FF0000EE2
:1029A0002DE00D78404245FA00F0C5B2C2F10800B2
:1029B000C0B2B04228BF304603190CFA03F3C4F189
:1029C000080A4CFA0AFA43EA0A035BB297F800A035
:1029D0000AEA030A25EA03034AEA03033B700244B6
:1029E000D2B2072A84BF494472460444E4B2072C99
:1029F00084BF47447446361A16F0FF060AD0A01A60
:102A000040B20028CDDD0D788540EDB2C4F108005C
:102A1000C0B2CEE7BDE8F0872DE9F04F8BB005904E
:102A200093464268406943890B4402EBC30952F85C
:102A30003330D3F808A00389194452F831305B6968
:102A40001B68C3F30A03ABF8003000248BF8024084
:102A50002646049407E0FF2046E00134E4B29AF8E9
:102A60000030A34239D908960996631CD9F8002092
:102A700003EB430302EB83039A68156815F0FF0329
:102A8000EBD0049901EB0308B8F1400FE5D8013B06
:102A9000DB080133079352780123039302960DF16B
:102AA0001B03019307AB009308AB290C0598104F4B
:102AB000B8470028CFD10296049A02F00703019389
:102AC0000BEBD207043700973346324608A9E8B229
:102AD000084DA847CDF81080BFE7049F013FFF08CD
:102AE00001378BF8037000200BB0BDE8F08F00BFFA
:102AF000F92601086D2901082DE9F04387B090F906
:102B00007E30002B76D001EBC1077F008368DC5D4F
:102B100014F0010401D000246DE00E46054643691F
:102B2000B3F80880002303930493059303AA344B5E
:102B30009847814600285ED1AC683C44E288BDF8E5
:102B40000C309A4218D0B0441FFA88F86B6853F8DA
:102B500038305A6CB2F80090DB6AB3F80080B9F1F3
:102B6000000F18D1B8F1000F26D103AA314628462C
:102B7000244B984701243EE0627A9DF80F309A4238
:102B8000E1D1082204A904F10A001F4B984700284C
:102B9000D9D14C462FE0B4F902001C4B9847AC68E1
:102BA0003C44002300934B46194A31462846DFF83F
:102BB0006C90C8476080D5E7AB683B44B3F904002C
:102BC000124B9847AC683C44642303FB08F8114B54
:102BD000A3FB0823002200929B090F4A3146284696
:102BE000DFF83880C047A080AA68D35D43F00103B6
:102BF000D355BAE70024204607B0BDE8F08300BFF4
:102C0000192A01083D2901080106020879A20108D4
:102C1000212C0108D34D6210452F0108C1A10108E4
:102C200038B501EBC1035B0082681A444FF6FF75AB
:102C30005580826813440022DA80C9B2014B98475C
:102C400038BD00BFF92A01082DE9F04F8FB080464A
:102C50008B468F78002F40F0B08040698188002932
:102C600000F0AE80D8F818309E8800254FF0020C96
:102C70004FF0040E4A1992B263469642C0F0A0800B
:102C8000022B20D0042BFBD1C3880793EAB2099210
:102C90001344DA000492D8F8042052F833108868FC
:102CA0000178002969D000210B910C9152F8333042
:102CB0005E69002E7FD0BA463C4689460897CDF81B
:102CC00014B0834623E07346D8F8044054F83240E9
:102CD0006469B4F80090BBF80040A145CDD001353F
:102CE000C8E70134E4B29BF80030A34244D9CDF8E0
:102CF0002C90CDF83090D8F80420631C04995258D9
:102D000003EB430302EB83039E68002E53D0356828
:102D100015F0FF07E5D0EBB206935344059AD2783D
:102D2000B3EBC20FDDDC059B03EBEA01CDF80890A5
:102D3000CDF804900BAB00934B460AF00702043128
:102D400038465E4DA847069B5D1EED1001350EAB63
:102D500043F8105D316801220292CDF8049000938F
:102D60000BABC1F30722090C4046554DA84710BBD9
:102D7000BA445FFA8AFAB4E7089FD8F80C30FBB17E
:102D8000D8F80420079952F83120526C1488BCB14D
:102D9000099E33F916004B4B9847D8F80C50002386
:102DA00000932346D8F8102031464046464CA047B1
:102DB00025F8160004E0FF2702E0012F04D00027C9
:102DC00038460FB0BDE8F08F43691B89002B70D0E7
:102DD0008269128900240525042693426BD8042FAA
:102DE00016D0052F56D0012FF9D1D8F8041051F87C
:102DF000331049690888BBF80010884204D00134B8
:102E0000E4B201339BB2E8E73746E6E72F46E4E752
:102E1000D8F8041051F83310096A0978FD29F5D063
:102E2000FC2913D104EBC400D8F8087007EB40016B
:102E300017F8100010F0010F01D12F46CDE7063131
:102E4000D8F8E001214B98470027B9E78B1CDBB28B
:102E5000012B01D9FF27B3E7122505FB04F5D8F8AC
:102E600008602E44B6F90200164FB8477080D8F8B3
:102E700008602E44B6F90400B847B080D8F808209E
:102E8000535D23F00103535521464046104B9847AC
:102E9000002795E70BAA214640460E4B9847074668
:102EA00008B1FF278CE70BA9D8F8E001074B98473A
:102EB00086E7002784E7002782E700BF6D29010825
:102EC000D527010879A20108C1A1010871240108D0
:102ED000212C0108192A010890F97E302BB1022A11
:102EE00003D3032A03D9052A01D0002070472DE916
:102EF000F041044643691B89456805EBC3054D1B3A
:102F0000C5F3C70505EBC506760087683744B7F9F2
:102F10000200DFF82C80C0477880A7683744B7F9F3
:102F20000400C047B880A36800229A55294620466D
:102F3000024B98470020BDE8F08100BF212C01081A
:102F400079A2010838B501EBC1035B0082681A441D
:102F50004FF6FF7595808468E25C22F00102E2542E
:102F6000C9B2014B984738BDF92A010870470000E3
:102F700090F97E30002B00F098802DE9F04F87B05B
:102F800043691D891DB9002007B0BDE8F08F836932
:102F9000B3F808800023039304930593454500F29A
:102FA00082800E46044603230027DFF81091DFF8E5
:102FB00010A1DFF810B168E00B2364E00B2362E09E
:102FC000636853F835305A691268002AF4DB1A6ACC
:102FD000002E6CD01378013BDBB2EF2B0BD807EB44
:102FE000C701A06810F811300133DBB200F81130CE
:102FF0001078984206D01378FC2B13D0002B38D0D1
:103000000B2340E0A268002302F8113003930493DD
:10301000059303AA39462046D847002814BF0B233E
:10302000052330E007EBC701A368019103EB4103DF
:103030009A1D39462046D84748B1A268019912F82E
:10304000113023F0010302F811300B231BE0A268BA
:10305000019912F8113043F0010302F811300B23EB
:1030600011E0A36807EBC70213F8123013F0010F49
:10307000A4D139462046D0470B2304E003AA3946A1
:103080002046C8470B2345450DD8052BF6D00B2B02
:1030900003D0032B94D0FF2076E70137FFB2013530
:1030A000ADB20323EFE700206EE7002070471378EE
:1030B0000233DBB2012BD4D90B23E4E73D2901080D
:1030C000F92A0108192A01082DE9F04383B00646C0
:1030D00043691C8914B383691F89BC421ED84FF40D
:1030E000C055DFF84C90DFF84C8005E00135ADB2FB
:1030F0000134A4B2A74211D301AB6A462946304637
:10310000C847009B002BF1D1019B002BEED0C3F8E8
:103110000880C3F80C80C3F81480E7E7002130462C
:10312000024B984703B0BDE8F08300BF712F010840
:10313000F9280108D92E01082DE9F04F83B0436921
:10314000B3F808B0BBF1000F28D083691B89019345
:103150009B4523D805460027DFF848A0B946FCB2B6
:1031600004EBC4044FEA4408AE684644B6F90200D2
:10317000D0477080AE684644B6F90400D047B080AE
:10318000AB6803F81490AB684344A3F8069001378A
:103190000BEB07039BB2019A9A42E0D203B0BDE861
:1031A000F08F00BF79A2010808B50A88D3110E2B51
:1031B0001AD8DFE803F02B0819161616161616167D
:1031C000161D1D192400802A05D090F97B305BB1B3
:1031D000124B984708E090F97C302BB1104B984780
:1031E00002E090F97E3003B908BD0E4B9847FBE72B
:1031F00090F97A30002BF7D00B4B9847F4E790F911
:103200007D30002BF0D0094B9847EDE7036A1B781F
:10321000002BE9D0064B9847E6E700BF4F20010896
:10322000D9360108492C010859A901087121010862
:1032300095A3010838B504460D4691F9013033B124
:1032400090F97A303BB9012380F87A3003E090F9A5
:103250007A30012B2AD095F90330002B33D094F922
:103260007C304BB395F90430002B3ED094F97D307F
:10327000002B33D095F90230002B48D094F97B30E5
:10328000002B3DD095F90530002B52D094F97E30BB
:10329000002B47D095F90030002B55D094F97930A8
:1032A000002B55D1012384F8793051E0002380F8B8
:1032B0007A302B4B9847CEE7012384F87C302046A8
:1032C000284B9847CEE794F97C30012BCAD10023D4
:1032D00084F87C302046244B9847C3E7012384F8C8
:1032E0007D302046214B9847C4E794F97D30012B6F
:1032F000C0D1002384F87D3020461D4B9847B9E7A4
:10330000012384F87B3020461A4B9847BAE794F99A
:103310007B30012BB6D1002384F87B302046164B3E
:103320009847AFE7012384F87E302046134B984737
:10333000B0E794F97E30012BACD1002384F87E30C5
:1033400020460F4B9847A5E794F97930012B00D020
:1033500038BD002384F8793020460A4B9847F7E7B8
:10336000C5A6010821360108ED350108252401080C
:103370003D240108292001084D200108C930010819
:103380003931010849A4010810B582B0044690F80B
:1033900078308B421AD004294ED01BD9052935D05C
:1033A0007F295FD1324B93E803000090ADF8041001
:1033B000090C8DF806107F2384F878306946204682
:1033C0002C4B9847D4F884302046984794F87800DE
:1033D00002B010BD002945D101238DF80030002333
:1033E0008DF801308DF802308DF803308DF80430FF
:1033F0008DF805308DF8063080F8783069461D4B21
:103400009847D4F8803020469847CBE763B31A4BEF
:1034100093E803000090ADF80410090C8DF8061035
:10342000052384F8783069462046124B9847D4F833
:10343000883020469847C9E7C3B1104B93E8030092
:103440000090ADF80410090C8DF80610042384F8E0
:10345000783069462046074B9847D4F88C30204690
:103460009847B3E7FF20B3E7FF20B1E7FF20AFE7BE
:10347000080C020835320108100C0208180C02086A
:1034800003681878704700004BB2002B40F3988017
:103490002DE9F04184B004460E4643691B8833B3DE
:1034A000426852F8330041692268127802F5C0651B
:1034B0000F68AF4208D0FF2A06D0036A02F5B06257
:1034C0001968914213D10FE006F5C0620A60626884
:1034D00052F833301B6A2268127802F5B06118681E
:1034E000884201D0FF2A02D106F5B0621A606369F2
:1034F0009D88A3699F88334B0FCB0DF1100C0CE90D
:103500000F00FDB1BD421DD8EC4605F104081FFABD
:1035100088F807E033440B600135ADB2AF4211D3F8
:1035200045450FD0636853F8353059695CF8043B62
:103530002268127802EB030E08687045EAD0FF2A71
:10354000EAD1E7E763691D89A3691F891E4B0FCB89
:103550000DF1100C0CE90F00FDB1BD421DD8EC4679
:1035600005F104081FFA88F807E033440B600135C1
:10357000ADB2AF4211D345450FD0636853F8353033
:1035800059695CF8043B2268127802EB030E086864
:103590007045EAD0FF2AEAD1E7E7D4F8142223687D
:1035A0001B7803F180011068884201D0FF2B02D103
:1035B00006F18003136023681E7004B0BDE8F0813B
:1035C000704700BF200C0208300C02087047000052
:1035D00008B5036A1B7803B108BD81220021014BA5
:1035E0009847F9E79D2601087047704738B50446AB
:1035F00000231A4641F20501074DA84700231A4649
:1036000041F206012046A847B4F9C001034B984790
:10361000A4F8C00138BD00BF0D29010879A2010836
:1036200070B582B00446B0F9C031B3F1FF3F19D193
:10363000144E3346002241F205012046124DA847A0
:103640003346002241F206012046A847D4F8C4318F
:103650001B6813F0804F03D0D4F8C8311B6823B91E
:1036600002B070BD094B9847E2E7094AA2FB032369
:103670009B090093074A00212046074DA847A4F85C
:10368000C001EDE79D3601080D290108ED3501085F
:10369000D34D621025370108C1A1010808B5024BBE
:1036A0009847002008BD00BF2136010800B585B04D
:1036B000D0F8C4311B68ADF8043000238DF8063013
:1036C0008DF8073001A9D0F8E001024B984705B00A
:1036D0005DF804FB7124010838B50446D0F8CC31FC
:1036E000984794F97E3013B90025284638BD01214A
:1036F0002046044B98470546D4F8D03120469847D9
:10370000F3E700BF712F010838B50546034B984712
:1037100004462846024B9847204638BDAD3601087E
:10372000D936010808B5014B984708BD093701088B
:10373000704770472DE9F04F9DB00A908A46039379
:103740000290002189464FF0FF37019100230024A9
:10375000CDE904348B460E46551C1378002B00F03F
:103760008E85042900F26D85DFE801F00315446BB6
:103770008300252B00F06885D34508D20D2B06D099
:103780000A2B08BF0D23029A1370531C02930BF1EE
:10379000010B2A46E0E7203B102B00F26085DFE8B2
:1037A00013F01D005E055E0521005E055E055E05E9
:1037B00019005E055E055E0515005E0511005E05DB
:1037C0005E05250049F002092A46C5E749F00409CB
:1037D0002A46C1E749F008092A46BDE749F0100921
:1037E0002A46B9E749F020092A46B5E749F0010918
:1037F0002A46B1E7A3F13000C0B2092806D806EB8B
:103800008602303B03EB42062A46A5E72A2B0AD064
:103810002E2B0CBF032104212E2B08BF2A462E2B52
:1038200008BF002798E7039A131D1668002E02DBD5
:1038300003932A4690E7764249F0020903932A4609
:103840008AE7A3F13000C0B2092806D807EB870742
:10385000303B03EB47072A467EE72A2B01D00421A1
:103860007AE7039B1F6847EAE777043303932A4606
:1038700072E7A3F14C022E2A43D8DFE812F03D0094
:103880004200420042004200420042004200420028
:103890004200420042004200420042004200420018
:1038A0004200420042004200420042004200420008
:1038B00042004200420033004200F304420038005C
:1038C00042004200420042003D00420042002F0000
:1038D000420042004200420042002F002A460123DB
:1038E000019339E7019B013B01932A4634E7019B91
:1038F000013301932A462FE7019B023301932A46A5
:103900002AE701990229A8BF02216FF00102914222
:10391000B8BF11460191A3F14602322A00F2808419
:10392000DFE812F041007E047E047E047E047E0403
:103930007E047E047E047E04D0017E047E047E0428
:103940007E047E047E047E0449027E047E047E049E
:103950007E047E047E047E047E047E047E04CE0308
:1039600001027E0443007E047E0401027E047E0484
:103970007E047E0442044E02D2017E047E04EA03E9
:103980007E0446027E047E04330010230B93019BC9
:103990000233042B00F2A581DFE813F015021D02AB
:1039A00025022E02370249F0800949F040031193A5
:1039B000039B073323F0070303F1080203921A68FD
:1039C0000F925B680C93D34534BFAAEB0B03002323
:1039D0000E939DF94430A349A34A11EA230138BF4D
:1039E00011461391002200230F980C999F4CA04779
:1039F00000285BD10F980C999D4B98471490C117E4
:103A0000002800F087840690089100231293002478
:103A1000A8460A220023974DA847013450EA010323
:103A2000F7D14546129B002B00F07884631C0B9362
:103A300019F0030240F07E840B9B9E4251DD0B9BEC
:103A4000F21A029B4FF0000820210E98404584BFD7
:103A50001970013308F101089045F7D10B9A1092C3
:103A6000129A002A44D000220E99414502D92D21F4
:103A70001970013308F10108012A48D00E9AA242B8
:103A8000C0F00D812344129304EB08011591002C22
:103A900070DD0C465B1A1797CDF8609017461995A4
:103AA000CDF858B0DDF84C909B464FE00C9B03F1ED
:103AB00000430C930F9819466D4B98471490C1170B
:103AC00020B10690089101231293A0E70690089177
:103AD000012312931C46A5E7109B0B93ACE70B94B4
:103AE000ADE70B9B10930B96029B4FF00008B7E7D6
:103AF000002200F030BC19F0100FBDD00E994145E6
:103B000002D920211970013308F10108B4E70B9A9A
:103B1000A242B3DD10989042B0DA4244121A30212A
:103B20000E98404584BF1970013308F10108904593
:103B3000F7D1109A0B92A1E70A2200230698089960
:103B40004C4DA84706900891A0450DD0013CA742D6
:103B5000F2D90A22002306980899464DA84719F879
:103B600002300BF80430E7E7DDF858B0179FDDF8B6
:103B70006090199D19F0020F12D00B9B1098834290
:103B80000EDD15990B441B1A20220E9C12988C42B4
:103B900084BF0270013001319942F8D11591129021
:103BA0000E9B159A934204D92E23129A1370531C1C
:103BB0001293159B03F10108002FC0F27183149832
:103BC0002D4B984702460B460F980C992B4CA0475B
:103BD000CDE90601002F64DD0E9B434561D9B9464E
:103BE000CDF820B00B960E971E460C95139F129D94
:103BF000CDF83CA00022224BDDE90601214CA04774
:103C0000CDE90601B9F1010F40D0DDE90601184BFD
:103C1000984782464FEAE07B59461B4B984702463D
:103C20000B46DDE90601154CA047CDE906010A2245
:103C30000023504659460F4CA047BB5C05F8013B9A
:103C400008F1010809F1FF39B9F1000F32DD4645ED
:103C5000D0D8DDF820B00B9E0E9F0C9DDDF83CA067
:103C60001FE000BF7C0C0208540C0208D1FC0108C4
:103C700021FD0108B902020819F701087DF40108C5
:103C800000002440EDF7010881F70108DDF820B0BD
:103C90000B9E0E9F12950C9DDDF83CA013E34FF098
:103CA0000008029B43440293C344DDF844902A4633
:103CB000002151E5DDF820B00B9E0E9F0C9DDDF834
:103CC0003CA0EEE749F0800949F02009039A136807
:103CD00018460021CDE90401131D039310230B9313
:103CE0000827D34534BFAAEB0B0300230E934FFAEA
:103CF00089F113918B4A8C4B12EA210238BF1A4684
:103D0000119219F0400F00F09980DDE90434002B86
:103D100074F10003C0F28880DDE90434CDE9063493
:103D200000230F9390E049F04009019B0233042BDC
:103D300077D8DFE803F0030E19242F00039B93F9D3
:103D40000010CA17CDE90412043303930A230B931E
:103D5000C7E7039BB3F90010CA17CDE90412043377
:103D600003930A230B93BCE7039A13681846D917E9
:103D7000CDE90401131D03930A230B93B1E7039AC2
:103D800013681846D917CDE90401131D03930A23BC
:103D90000B93A6E7039B073323F0070303F1080205
:103DA0000392D3E90034CDE904340A230B9398E756
:103DB0000A230B93EBE549F0800910230B93E6E50A
:103DC00008230B93E3E5039B19780022CDE9041245
:103DD0000433039385E7039B19880022CDE904127D
:103DE000043303937DE7039A136818460021CDE955
:103DF0000401131D039374E7039A13681846002106
:103E0000CDE90401131D03936BE7039B073323F0F4
:103E1000070303F108020392D3E90034CDE9043427
:103E20005FE70A230B935CE7DDE904345B4264EB54
:103E30004404CDE9063401230F9305E0DDE90434A1
:103E4000CDE9063400230F93DDE9060150EA0103B2
:103E50001BD0CDE90C0100240B9B1946DA17CDE9E4
:103E60000812A846DDE90C01DDE908232F4DA8471B
:103E7000013450EA0103F7D1454619F020010BD077
:103E80000B9B082B03D03B4607E00024F5E7631C9F
:103E9000BB42B8BF3B4600E03B46A34205DCDDE940
:103EA0000623134314BF2346012319F0080F2FD014
:103EB0000B9A102A0CBF042203220C925A1E0C9853
:103EC00092FBF0F203EB02080F9B13B919F0140FE9
:103ED00020D008F10103109311B10B9B102B1CD0C3
:103EE00019F0030224D1109B9E4255DDF01A029B6B
:103EF00000244FF0200CDDF838E0A64584BF83F89D
:103F000000C0013301348442F7D11098129012E0BE
:103F10000C93D3E7CDF84080DEE7109B023310937B
:103F2000DEE700BF680C0208400C0208B902020874
:103F30001296029B00240F98002831D00E98A042C0
:103F400002D92D2018700133013411B10B991029B9
:103F50003CD0012A4DD00E994145C0F0A880434481
:103F600013934444B8F1000F40F38D800F930C99E4
:103F70000B980246C317CDE90823CDF82CB0149650
:103F80001597CDF85890DDF838B01795DDF83C90CE
:103F900025460F940E4658E01296029B0024CAE76D
:103FA00019F0040F07D00E98A04202D92B201870E8
:103FB00001330134C9E719F0100FC6D00E98A042A2
:103FC00002D92020187001330134BEE70E99A142B6
:103FD00002D9302119700133611C0E98884206D92C
:103FE00013990029B4BF5821782119700133023484
:103FF000AFE7129A9045AEDA10989042ABDA121AF7
:10400000224430210E98A04284BF1970013301343C
:104010009442F8D1109A12929DE709F1FF37013DC1
:1040200008F1FF38AB4584BF5F2309F8013C0C9BC6
:104030005E1E0EE0DDE90823DDE90601AC4FB8475E
:10404000CDE90601B8F1000F15DD002EE5D0013EE7
:104050004F4607F1FF39013D08F1FF38AB45E9D97B
:10406000DDE90823DDE90601A14CA047119B9B5C1B
:1040700007F8013CDEE7DDF82CB0149E159FDDF853
:104080005890179D0F9C19F0020F11D0109A129999
:104090008A420DDA21448B1A20220E981399A042ED
:1040A00084BF0A7001310134A342F8D100E000243A
:1040B000029B23440293A3442A460021FFF74CBBF2
:1040C000039A13681CA901F8013D131D03930122F3
:1040D000B7F1FF3F02D0BA42A8BF3A46964202DD8E
:1040E00019F0020F1AD0002A43D0584602EB000BF9
:1040F0000346081A029C30E0039B181D196849B159
:104100000B784BB10A4612F8013F002BFBD1521A33
:104110000390DDE77749F5E70A46F8E709F0010380
:10412000002B14BF3024202406EB0B039B1A5846A7
:10413000029E824584BF3470013601309842F8D126
:1041400002960AB11646D1E7164683462A46002152
:10415000FFF702BB01335B450AD09A45FAD9C15C2F
:104160000D29F7D00A2908BF0D2121700134F1E78C
:104170000294B2427BDA19F0020F03D12A460021E1
:10418000FFF7EABAB31A5B4420210298DA4584BFEC
:10419000017001300BF1010B9B45F7D102901646DF
:1041A0002A460021FFF7D8BA019B0233042B62D8BC
:1041B000DFE803F0030D17212B00039A136883F83F
:1041C00000B0131D03932A460021FFF7C5BA039AD6
:1041D0001368A3F800B0131D03932A460021FFF7CC
:1041E000BBBA039A1368C3F800B0131D03932A46A1
:1041F0000021FFF7B1BA039A1368C3F800B0131D8A
:1042000003932A460021FFF7A7BA039A13680021F7
:10421000C3F800B05960131D03932A46FFF79CBAF8
:10422000D34508D20D2B06D00A2B08BF0D23029AC6
:104230001370531C02930BF1010B2A460021FFF768
:104240008BBA2A46FFF788BA2A4601214FF00009A7
:104250004FF0FF374E46CDF80490FFF77DBA0221AC
:10426000FFF77ABA2A4602230193FFF775BA2A4666
:104270000021FFF771BA2A460021FFF76DBAD34536
:1042800008D3BAF1000F07D00A9B5344002203F869
:10429000012C01E0029A137058461DB0BDE8F08F62
:1042A0001498154B984702460B460F980C99134CDF
:1042B000A0470E9B43457FF6F4AC0022104B114CF7
:1042C000A047CDE9060100220F4BDDE906010F4CA6
:1042D000A0470F4B98470A220023C117044CA04760
:1042E000139B9B5C129A137008F10108D9E400BF7C
:1042F000B9020208900C020819F701087DF40108C0
:1043000000002440EDF701080000E03F81F40108BF
:1043100021FD0108069008910124129019F0140F54
:104320000FD119F0030224D00B96029B10944FF08A
:10433000000810E010930B96029B4FF00008FFF767
:1043400093BB631C109319F003023FF4C5AB0B96AB
:10435000029B4FF0000819F0040F3FF4CCAB0E990C
:10436000414502D92B211970013308F10108FFF7EB
:1043700083BBA6423FF7B3AB0B96029B10944FF062
:104380000008E8E70428044A13680CBF43F004035C
:1043900023F004031360704710E000E0036823F08B
:1043A00002030360036843F001030360436813F0F2
:1043B000010F07D14FF6FF73426812F0010F01D1D0
:1043C000013BF9D1436813F0010F5AD08B79012BCF
:1043D00003680CBF43F0800323F080030360CB79B4
:1043E000012B03680CBF43F0400323F0400303603C
:1043F0000B7A012B03680CBF43F0200323F020034A
:1044000003604B7A012B03680CBF43F0100323F0C9
:10441000100303608B7A012B03680CBF43F0080381
:1044200023F008030360CB7A012B03680CBF43F031
:10443000040323F0040303608A78CB781B0643EA65
:1044400082730A7943EA02434A7943EA02530A88AB
:10445000013A1343C361036823F001030360436817
:1044600013F0010F07D04FF6FF73426812F0010FEF
:1044700001D0013BF9D1406880F0010000F001005B
:10448000704700207047000070B4837A012202FA5E
:1044900003F33B4AD2F8001241F00101C2F80012C6
:1044A000D2F81C42D9430C40C2F81C42027BB2B97C
:1044B000334AD2F80C420C40C2F80C42847AC688C7
:1044C000458845EA0645483442F83450857A86885E
:1044D000048844EA0644483502EBC5025460027B76
:1044E000012A1FD0C27A002A34D1254CD4F80422E4
:1044F0000A40C4F8042202892AB9214AD2F8144297
:104500002140C2F814120289012A2AD0427B012AD2
:104510002ED01B4AD2F8003223F00103C2F8003239
:1045200070BC7047164AD2F80C421C43C2F80C42C9
:10453000847A0688458845EA0645483442F834506E
:10454000857A8688C48844EA0644483502EBC50269
:104550005460C7E70A4CD4F804221A43C4F8042272
:10456000C9E70749D1F814221A43C1F81422CDE74C
:104570000349D1F81C221343C1F81C32C9E700BF1C
:104580000064004000238371C3710372437283721D
:10459000C3728370C3700323037102234371012329
:1045A000038070470246836813F0806F09D18368E7
:1045B00013F0006F3BD1836813F0805F44D002207A
:1045C00000E00020F0B4054602EB0013D3F8804170
:1045D00004F00104C3F880410C7A54BBD3F8806125
:1045E0000F684C7A44EA47543443C3F880418C7ACC
:1045F00004F00F048C72D3F8844124F00F04C3F844
:104600008441D3F884618C7A3443C3F88441CC6804
:1046100002EB0512C2F888410969C2F88C11D3F87F
:10462000802142F00102C3F88021F0BC70470120D4
:10463000C8E7D3F880614F6844EAC7044F7A3C4327
:104640003443C3F88041D2E704207047012919D0D0
:1046500019B102291AD002207047836823F07B43E6
:1046600023F47F0323F47F4323F0FC03104A934297
:1046700019D013D90F4A934217D00F4A934210D141
:104680000120704782680B4B1340EFE7836823F0EB
:104690006F4323F47C031B0C1B04E7E70BB90220D8
:1046A000704700207047012070470120704700BF0D
:1046B00003000004000300080000031010B400EB26
:1046C0000113D3F8B04104F00404147204BBD3F80E
:1046D000B041640D1460D3F8B04104F00204547288
:1046E000D3F8B44104F00F049472D3F8B4311B0A28
:1046F000D37200EB0113D3F8B841D460D3F8BC31C6
:10470000136151B1036943F02003036110BC70478A
:10471000D3F8B041E4085460DDE7C36843F02003F8
:10472000C360F3E721B1036943F0200303617047DD
:10473000C36843F02003C360704731B1012906BF4D
:10474000006900F0030000207047C06800F003001B
:1047500070470000B1F5807F3ED011D9B1F5006FF0
:1047600040D020D9B1F5803F30D0B1F5003F30D0F6
:10477000B1F5004F03D100238361042343607047E8
:1047800008291DD007D8012917D0042902D10823F0
:10479000C36070477047202915D0402902D11023EB
:1047A000036170477047B1F5007F18D0B1F5806F95
:1047B00002D104234360704770470D4B83607047FC
:1047C0001023C360704708230361704708234360C8
:1047D00070471023436070470423436070470423ED
:1047E000436070470023836104234360704700BF28
:1047F00001010100036823F001030360002303604B
:1048000043608360C3600361212343613C4B984252
:104810002DD03C4B98422ED03B4B984230D03B4B56
:10482000984232D03A4B984234D03A4B984235D0E5
:10483000394B984236D0394B984237D0384B984252
:1048400039D0384B98423AD0374B98423CD0374B0E
:1048500098423ED0364B984240D0364B984241D099
:10486000354B984242D0354B984243D07047103B6D
:104870003D229A607047283B4FF474629A607047FB
:10488000403B4FF474129A607047583B4FF074628B
:104890009A607047703B2A4ADA607047883B294A21
:1048A000DA607047A03B284ADA607047B83B4FF0A7
:1048B0003D52DA607047103B3D229A607047283BBA
:1048C0004FF474629A607047403B4FF474129A60E0
:1048D0007047583B4FF074629A607047703B184ABB
:1048E000DA607047883B174ADA607047A03B164A87
:1048F000DA607047B83B4FF03D52DA60B6E700BF70
:10490000106002402860024040600240586002404F
:104910007060024088600240A0600240B8600240BF
:10492000106402402864024040640240586402401F
:104930007064024088640240A0640240B86402408F
:104940003D000020400F002000003D2010B403680F
:10495000134A1A400B68CC6823434C6923438C6983
:104960002343CC6923430C6A23434C6A23438C6A58
:1049700023434C6B23438C6B2343134303604269F3
:1049800022F00702CB6A0C6B2343134343610B698C
:1049900043604B6883608B68C36010BC704700BF86
:1049A0003F801CF021B9036823F0010303607047C6
:1049B000036843F00103036070472AB9036823F4D6
:1049C0000023036001617047036843F40023036020
:1049D000F8E721B9036823F4802303607047036874
:1049E00043F480230360704711F0800F14D062B14C
:1049F000436943F080034361802905D0036801F0D7
:104A00001E011943016070477047436923F080031A
:104A10004361802904D17047802907D0002AEDD155
:104A2000036801F01E0123EA0101016070470000E4
:104A300010B40268436881680B43C1680B43016985
:104A40000B4341690B4381690B43C1690B43016A05
:104A50000B43416A0B43816A0B43C16A0B43016BF1
:104A60000B434FF0204141F822308368082B24D0BB
:104A7000426B01680131136894692343546843EA27
:104A80000413946843EA0423D46843EA0443146992
:104A900043EA0453526943EA02634FF0204242F86A
:104AA0002130C36AB3F5804F0FD00268114B6FF00D
:104AB000704143F8221010BC704703689B000B4400
:104AC0001A6842F040021A60D2E7826B01681368EC
:104AD00090690343506843EA0013906843EA002357
:104AE000106943EA0053526943EA0263014A42F8FB
:104AF0002130E0E7040100A039B9800000F1204036
:104B00000268064B134003607047800000F12040AC
:104B1000036843F001030360704700BFFEFF0F000E
:104B2000014B1860704700BF00300040014B5860D7
:104B3000704700BF00300040014B9860704700BFD5
:104B400000300040024B4AF6AA221A60704700BFAC
:104B500000300040024B4CF6CC421A60704700BF58
:104B60000030004030B585B004460D46038A9BB244
:104B700023F44053CA881343038283899BB223F4EE
:104B8000B05323F00C028B8809890B4369890B43CE
:104B900013438381838A9BB223F44073AA8913430E
:104BA000838268461D4B98471D4B9C4205D003F5F8
:104BB00080639C4201D0029B00E0039BA28912F417
:104BC000004F03EB830303EB8303296814BF490001
:104BD0008900B3FBF1F1134BA3FB01235809050135
:104BE000642300FB1313A28912F4004F0BD11B01A5
:104BF00032330C4AA2FB0323C3F343132B439BB270
:104C0000238105B030BDDA003232064BA3FB0232FD
:104C1000C2F3421242EA0503F1E700BFA907010807
:104C2000001001401F85EB5131B9838923F40053F3
:104C30001B041B0C83817047838943F400538381D9
:104C4000704722B9838A23EA010181827047838AEF
:104C5000194381827047000082B0394B1A6842F0D4
:104C600001021A60002199601A6822F0847222F40D
:104C700080321A60334A5A601A6822F480221A601D
:104C8000D960009101911A6842F480321A601A4684
:104C900049F69911136803F400330193009B013323
:104CA0000093019B13B9009B8B42F3D1009B49F603
:104CB0009812934294BF00230123234A1360204B90
:104CC0001B6813F4003F14BF012300230193019BD1
:104CD000012B01D002B07047194B1A6C42F0805280
:104CE0001A641A490A6842F480420A609A689A6013
:104CF0009A6842F400429A609A6842F4A0529A601C
:104D0000134A5A601A6842F080721A601A46136891
:104D100013F0007FFBD00F4B40F205621A60A3F541
:104D200080639A6822F003029A609A6842F0020255
:104D30009A601A46936803F00C03082BFAD1C9E76E
:104D4000003802401030002498BC00200070004061
:104D500008544007003C024089B110B441180023B8
:104D6000084C10F8012B82EA132234F8122082EA50
:104D700003239BB28842F4D1184610BC704700232D
:104D800018467047980C020870B4F1B1411800241D
:104D90000F4E10F8015B85EA142536F8155085EAA8
:104DA0000424A4B28842F4D163B11344084D12F82C
:104DB000011B81EA142135F8110080EA0424A4B211
:104DC0009A42F4D1204670BC70470024ECE700BF43
:104DD000980C0208031103EB830300F00F0000EBB3
:104DE0004300C0B2704700002DE9F84305460E4667
:104DF0001348144B9847002E1CDD29781248114B9C
:104E000098470024DFF840800E4FDFF840900134CF
:104E1000A6420FD015F8011F4046B847624204F081
:104E20000F0302F00F0258BF53420F2BEFD1484639
:104E3000B847ECE70548034B9847BDE8F88300BF47
:104E4000980E020829150108C00E02084C14020829
:104E5000502383F311887047002383F31188704730
:104E60002DE9F8430E1E52DD0746DFF8B480294CC9
:104E7000DFF8B09008E0002383F311889D4242DD03
:104E80002F44761B002E42DDC047502383F3118848
:104E9000A2886188551AB542A8BF354623880B44BD
:104EA0009A42D8BF9B1A002D0DDD7A1E02EB050C2D
:104EB00012F8010FA168C8540133A1888B42A8BF22
:104EC00000239445F4D163882B449BB26380002B6C
:104ED000D1D0E388002BCED1002148460E4B984715
:104EE0002288A3681344C9F80C306388A1889818F5
:104EF0008842C8BF8B1AC9F80430E38001214846B4
:104F0000054B9847B7E70220044B9847BAE7BDE83E
:104F1000F88300BFACBC0020A5490108F10C0108D2
:104F20005989010858600240F0B4344B5968C1F106
:104F300080011B6813F4002F32D0314B1B681BB16A
:104F4000304B1C688C4202DB0120F0BC70472E4ABB
:104F5000908855880B1B471B9F42A8BF1F4613888C
:104F60002B449842D8BF1B1A002F12DD274804F1AA
:104F70007F0202447F3020443844234C12F8016FF2
:104F8000A568EE540133A588AB42A8BF0023904228
:104F9000F4D11D4A53883B4453801A4B1960D3E720
:104FA000174B18680028CFD1164B1C688C42CBDAFF
:104FB000154A958856880F1BAB1B9F42A8BF1F46FA
:104FC000138833449D42D8BF5B1B002F0FDD0F4A6F
:104FD000224402EB070C0C4C12F8016BA568EE544E
:104FE0000133A588AB42A8BF03466245F4D1064B06
:104FF0005A8817445F80034B1960A5E72860024078
:105000009CBC0020B8BD0020A0BC0020B8BC002083
:1050100070B506460C46502383F31188104B984711
:10502000104B5888A042A8BF20461B8800280EDDE0
:10503000721E0644013E0B4CA568ED5C02F8015F50
:105040000133A588AB42A8BF0023B242F4D1054A80
:10505000138053881B1A5380002383F3118870BD7B
:10506000294F0108A0BC00202DE9F0410C1E11DDE4
:105070000546094E4FF00208084F03E04046B84786
:10508000002C07DD21462846B0470028F6DD054400
:10509000241AF5E7BDE8F08111500108F10C010870
:1050A00010B5214AD3885288934213DB1E4B00224D
:1050B0005A801A801D4B4FF074629A601A4B5B88BD
:1050C000CBB90021184BD98019481A4B98471A4B75
:1050D000984710BD002BEDD013480188194489B2C0
:1050E00001808088814202D3091A0F480180D31AB7
:1050F0000D4A5380DEE70E4C002120460D4B9847A9
:10510000094B19889A680A44E2605A889B885018AB
:105110009842C8BF5A1A06484260034BDA80012100
:10512000044B9847D5E700BFACBC002000600240AC
:1051300058600240A549010831890108F0B4384B94
:105140004FF474629A6028331B6813F4002F32D036
:10515000344B196819B9344B18687F2807DD314B77
:1051600001221A60304B00221A60F0BC70472F4AAF
:1051700094885588C0F18006631B9E42A8BF1E46D6
:1051800013882B449C42D8BF1B1B002E0EDD284ADF
:1051900002449719254812F8015B8468E5540133ED
:1051A0008488A342A8BF0B46BA42F4D11F4B5A8849
:1051B00016445E80D3E71B4B1B681BB11A4B186863
:1051C0007F2805DD0023174A1360174A1360CCE7D8
:1051D000164A91885488C0F180030E1B9E42A8BFD6
:1051E0001E46138823449942D8BF5B1A002E12DD55
:1051F0000F4900F17F020A447F31014431440B48DA
:1052000012F8015F8468E55401338488A342A8BF83
:1052100000238A42F4D1054A538833445380D1E7AE
:10522000006002409CBC0020B8BD0020A0BC002053
:10523000B8BC00202DE9F04F91B00546594B5A4AB1
:105240009A604FF4007199800024DC805C801C809F
:10525000564A574B93609180D48054801480554BAC
:105260001C60554B1C60554B1A60554A5A60554A94
:105270009A60554ADA60554A1A61554A5A61554A48
:105280009A6105210220544B98470195ADF80840DA
:10529000ADF80A40ADF80C40ADF810400C23ADF865
:1052A0000E3001A94D484E4B984701214FF4001094
:1052B0004C4B98474FF0006BCDF804B0DFF84CA191
:1052C000CDF808A003944023049380250595069407
:1052D0004FF480630793089409940A944FF40033C1
:1052E0000B930C9403270D970E940F943E4E30466B
:1052F000DFF81C91C84701A93046DFF81881C04784
:10530000012210213046394EB047CDF804B0CDF817
:1053100008A0DFF804A1CDF80CA00494059506942C
:105320004FF480630793089409940A944FF4003370
:105330000B930C940D970E940F942D4F3846C8473D
:1053400022460AEB050138462A4B98470121384688
:10535000294B984701A93846C047012210213846F9
:10536000B047264B502283F80E234FF4804119603A
:1053700083F80C234FF480521A6001222946174803
:105380001F4CA047012240211448A0470121384664
:105390001C4B9847012111481B4B984711B0BDE8A1
:1053A000F08F00BFACBC0020BCBF0020A0BC002020
:1053B000BCBD00209CBC0020B8BD0020BCC10020AA
:1053C000514E0108594E0108614E01081150010863
:1053D00069500108294F0108956A010800480040FA
:1053E000654B01085D08010858600240E949010861
:1053F00028600240BB490108D349010800E100E0F0
:10540000434C0108A5490108294C01080448004003
:10541000F54701084D490108B8BC0020502383F32B
:1054200011887047002383F3118870472DE9F843F2
:105430000E1E52DD0746DFF8B480294CDFF8B0902D
:1054400008E0002383F311889D4242DD2F44761B40
:10545000002E42DDC047502383F31188A288618863
:10546000551AB542A8BF354623880B449A42D8BF87
:105470009B1A002D0DDD7A1E02EB050C12F8010FB0
:10548000A168C8540133A1888B42A8BF002394456A
:10549000F4D163882B449BB26380002BD1D0E38886
:1054A000002BCED1002148460E4B98472288A36896
:1054B0001344C9F80C306388A18898188842C8BF83
:1054C0008B1AC9F80430E38001214846054B984700
:1054D000B7E70120044B9847BAE7BDE8F88300BF5F
:1054E000E8C10020A5490108F10C0108D98901088B
:1054F00070600240F0B4344B5968C1F180011B6800
:1055000013F4002F32D0314B1B681BB1304B1C6899
:105510008C4202DB0120F0BC70472E4A90885588EF
:105520000B1B471B9F42A8BF1F4613882B44984262
:10553000D8BF1B1A002F12DD274804F17F02024456
:105540007F3020443844234C12F8016FA568EE5494
:105550000133A588AB42A8BF00239042F4D11D4A75
:1055600053883B4453801A4B1960D3E7174B186894
:105570000028CFD1164B1C688C42CBDA154A95888F
:1055800056880F1BAB1B9F42A8BF1F46138833448E
:105590009D42D8BF5B1B002F0FDD0F4A224402EB58
:1055A000070C0C4C12F8016BA568EE540133A5886A
:1055B000AB42A8BF03466245F4D1064B5A88174454
:1055C0005F80034B1960A5E740600240D8C100200E
:1055D000F4C20020DCC10020F4C1002070B50646F2
:1055E0000C46502383F31188104B9847104B588872
:1055F000A042A8BF20461B8800280EDD721E06446C
:10560000013E0B4CA568ED5C02F8015F0133A588F3
:10561000AB42A8BF0023B242F4D1054A138053889D
:105620001B1A5380002383F3118870BDF5540108C1
:10563000DCC100202DE9F0410C1E11DD0546094EAC
:105640004FF00208084F03E04046B847002C07DD42
:1056500021462846B0470028F6DD0544241AF5E720
:10566000BDE8F081DD550108F10C010810B5204AB4
:10567000D3885288934212DB1D4B00225A801A8035
:105680001C4B3D22DA601A4B5B88CBB90021184BCA
:10569000D9801948194B9847194B984710BD002BD2
:1056A000EED013480188194489B201808088814274
:1056B00002D3091A0E480180D31A0D4A5380DFE73E
:1056C0000D4C002120460D4B9847094B19889A68CC
:1056D0000A44E2605A889B8850189842C8BF5A1AF8
:1056E00005484260024BDA800121044B9847D5E718
:1056F000E8C100200060024070600240A549010836
:10570000B1890108F0B4384B4FF474129A604033F9
:105710001B6813F4002F32D0344B196819B9344B7D
:1057200018687F2807DD314B01221A60304B0022B8
:105730001A60F0BC70472F4A94885588C0F18006E3
:10574000631B9E42A8BF1E4613882B449C42D8BFB1
:105750001B1B002E0EDD284A02449719254812F81B
:10576000015B8468E55401338488A342A8BF0B46DB
:10577000BA42F4D11F4B5A8816445E80D3E71B4BC4
:105780001B681BB11A4B18687F2805DD0023174AD8
:105790001360174A1360CCE7164A91885488C0F109
:1057A00080030E1B9E42A8BF1E46138823449942C5
:1057B000D8BF5B1A002E12DD0F4900F17F020A44A8
:1057C0007F31014431440B4812F8015F8468E5548D
:1057D00001338488A342A8BF00238A42F4D1054A3A
:1057E000538833445380D1E700600240D8C1002081
:1057F000F4C20020DCC10020F4C100202DE9F04FEC
:1058000091B00546594B5A4A9A604FF400719980FD
:105810000024DC805C801C80564A574B936091804A
:10582000D48054801480554B1C60554B1C60554BE4
:105830001A60554A5A60554A9A60554ADA60554A84
:105840001A61554A5A61554A9A6105210846544BD6
:1058500098470195ADF80840ADF80A40ADF80C4006
:10586000ADF810400C23ADF80E3001A94D484E4B59
:10587000984701214FF400104C4B98474FF0006BB4
:10588000CDF804B0DFF84CA1CDF808A00394402374
:1058900004938025059506944FF48063079308943C
:1058A00009940A944FF400330B930C9403270D973B
:1058B0000E940F943E4E3046DFF81C91C84701A964
:1058C0003046DFF81881C047012210213046394E9A
:1058D000B047CDF804B0CDF808A0DFF804A1CDF8AA
:1058E0000CA00494059506944FF4806307930894E4
:1058F00009940A944FF400330B930C940D970E9473
:105900000F942D4F3846C84722460AEB050138460A
:105910002A4B984701213846294B984701A9384618
:10592000C047012210213846B047264B502283F849
:105930000F234FF40041196083F80D234FF40052F8
:105940001A600122294617481F4CA0470122402116
:105950001448A047012138461C4B984701211148A3
:105960001B4B984711B0BDE8F08F00BFE8C1002085
:10597000F8C40020DCC10020F8C20020D8C10020FB
:10598000F4C20020F8C600201D5401082554010867
:105990002D540108DD55010835560108F55401085C
:1059A000956A0108004C0040654B01085D0801083C
:1059B00070600240E949010840600240BB490108AB
:1059C000D349010800E100E0434C0108A549010862
:1059D000294C0108044C0040F54701084D490108D5
:1059E000F4C10020502383F311887047002383F310
:1059F000118870472DE9F8430E1E52DD0746DFF887
:105A0000B480294CDFF8B09008E0002383F31188BC
:105A10009D4242DD2F44761B002E42DDC0475023BD
:105A200083F31188A2886188551AB542A8BF35460C
:105A300023880B449A42D8BF9B1A002D0DDD7A1E95
:105A400002EB050C12F8010FA168C8540133A188BC
:105A50008B42A8BF00239445F4D163882B449BB2AA
:105A60006380002BD1D0E388002BCED100214846A3
:105A70000E4B98472288A3681344C9F80C306388FA
:105A8000A18898188842C8BF8B1AC9F80430E380EF
:105A900001214846054B9847B7E70220044B984739
:105AA000BAE7BDE8F88300BF24C70020A549010874
:105AB000F10C010899890108A0640240F0B4344B4C
:105AC0005968C1F180011B6813F4002F32D0314BAB
:105AD0001B681BB1304B1C688C4202DB0120F0BC00
