:020000040801F1
:10000000D07F0010DD6A010889010108890101081B
:100010008901010889010108890101080000000027
:100020000017011003F8A25900000000890101081F
:10003000890101080000000021710108116A01080E
:100040008901010889010108890101088901010864
:100050008901010889010108890101088901010854
:100060008901010889010108890101088901010844
:10007000F9140208D57B01085D1402083D7B0108D4
:100080008901010889010108890101087D28020808
:10009000A92B0208952C0208612F0208890101088A
:1000A0008901010889010108890101088901010804
:1000B0004985010885850108C185010899800108E5
:1000C0001D800108F91E02087D1E02088901010831
:1000D00089010108890101088901010889010108D4
:1000E00089010108890101088901010889010108C4
:1000F00089010108890101088901010889010108B4
:100100008901010889010108FD85010889010108AB
:10011000890101088901010839860108890101085E
:100120008901010889010108C51A0208890101082D
:10013000890101088901010889010108F5290208DE
:10014000812D0208712E0208712F02088901010811
:1001500049740108291A0208B573010889010108C8
:100160008901010889010108890101088901010843
:100170008901010889010108890101088901010833
:100180008901010889010108FEE7000010B5054C4E
:10019000237833B9044B13B10448AFF30080012333
:1001A000237010BD0000002000000000B40D030803
:1001B00008B5034B1BB103490348AFF3008008BDEA
:1001C0000000000004000020B40D030870B584B0E6
:1001D00005460E4604AB002443F8044D0092FF226E
:1001E000084CA047044638B1039A29460648074BF5
:1001F0009847204604B070BD324629460448034B58
:100200009847F6E74DC60108F89402082D770108D3
:10021000E894020830B585B0054604AB002243F8E7
:10022000042D0091FF220C490C4CA04740B9044614
:100230000B4909480B4B984740B1204605B030BDEB
:1002400029460948094B98470024F6E729460848FB
:10025000064B98470124F0E7E01400204DC6010842
:1002600098930208898A02085C9502082D77010894
:100270007495020870B582B005460E4602AC0023A4
:1002800044F8043D13462246094CA047044640B1B9
:10029000019B324629460748074DA847204602B031
:1002A00070BD324629460548034B9847F6E700BF24
:1002B0009DC60108309502082D7701082095020897
:1002C000F8B507460D4616461C461A460B490C4B18
:1002D0009847034628B9094928460A4B98470346D8
:1002E00008B91846F8BD224629463846064B9847B5
:1002F0000346326801323260F3E700BFE0140020A9
:10030000CD010108898A0208750201082DE9F0472C
:1003100084B081460E469046002303930146274849
:10032000274B984727494846274B984700282DD008
:1003300026494846244B984700282DD14246244957
:100340002448254B984706EB860676000024DFF804
:10035000B4A0224D224F0120D0470134CDF80080B7
:1003600003ABFF2229464846B847D0B91D49284665
:10037000154B9847E8B129461B48114B9847A642B0
:10038000E9DA494619480E4B98470FE042461049B2
:100390001748114B9847D6E749461648084B9847E7
:1003A000D1E7154A49461548054B984704B0BDE8C2
:1003B000F08749461248024B9847F7E764930208D2
:1003C0002D77010890930208898A0208B8930208E1
:1003D0009C930208C493020875020108E0140020EF
:1003E0004DC6010898930208049402080C94020870
:1003F000A4930208D8930208F8930208E89402082C
:1004000074950208F56E01088AB110B44C1E1144AF
:100410000139084A14F8013F4340DBB252F8233057
:1004200083EA10208C42F5D1C04310BC7047C04312
:10043000704700BF8C95020838B505460C1F224650
:1004400001464FF0FF30054B98472B19020E2A55F5
:10045000020C5A70020A9A70D87038BD090401085B
:1004600038B50546054C4FF0FF312046044B984700
:10047000044B1D702046044B984738BDE016002001
:1004800031700108E4160020AD70010838B5084B42
:100490001C780CB9204638BD064D4FF0FF31284678
:1004A000054B9847024B1C782846044B9847F1E7C8
:1004B000E4160020E016002031700108AD7001083C
:1004C00010B5044601460C480C4B984758B10C4BEC
:1004D00001221A6021460B48084B984738B90A4B4D
:1004E00000221A6010BD064B00221A60F2E7064B8C
:1004F00001221A60F6E700BF909302081502010876
:10050000F01A0020B8930208F41A00202DE9F04FE9
:10051000BFB004460220AA4B98478CB12546002460
:10052000DFF85883A74FA84E98F800202146384698
:10053000B04701344FF47A70A44B9847AC42F3D1E2
:1005400003209F4B9847002308931C46DFF830B3E5
:100550009D4E0FE1002D4FF0FF30C8BF0020002D51
:1005600040F3C9809A4D224629469A489A4B9847AB
:100570009A4B294605F1120011F8012B03F8012FBF
:100580008142F9D1924D224629469548924B98478F
:1005900029469448B047944B294605F1120011F8BA
:1005A000012B03F8012F8142F9D1894D22462946BA
:1005B0008E48894B984729468D48B0478D4B294630
:1005C00005F1140011F8012B03F8012F8142F9D134
:1005D000224605218848894DA8472246052188489A
:1005E000A847DFF8A0A223460AAA51468548864DAF
:1005F000A847DFF8889299F8003003EB43012346BF
:100600000AAA824850F821108148A847DFF878826A
:1006100023460AAA41467F48A8477F4F23460AAA95
:1006200039467E48A84723460AAA51467C48A8472F
:1006300099F8003003EB430123460AAA794850F8A1
:1006400021107948A84723460AAA41467748A84777
:1006500023460AAA39467648A84705460A9900293A
:1006600078D1744E002231467348744CA047002262
:1006700031467348A04700223C215F485F4CA047A9
:10068000002205215E48A04729466E484E4B9847F8
:10069000002D40F03D836C484B4B98470A246B4E2D
:1006A000DFF8AC81484F002108A8B047B0F1FF3F08
:1006B00040F0EC80013C14F1020F00F02D83089B08
:1006C00040F20B22934200F00483B3F5147F00F054
:1006D0000983B3F5027F00F00E8321465C483A4C53
:1006E000A04708995B48A0476420384B98476FF0B3
:1006F0000203079325E007461AE029465648B0470B
:100700005648B0476420314B984736E02946524856
:10071000B0475348B04764202C4B98472DE02946FA
:100720004D48294CA0474F48A0476420274B984785
:100730004D48254CA04739464248A0474FF0FF336B
:100740000793079BB3FA83F040093FB0BDE8F08FF1
:100750000746EDE74548B047224645494548374BEF
:100760009847054643F69820184B98470A9B002B5C
:100770003FF477AF0A9424946425214624A8D847EF
:10078000B0F1FF3F7FF4E6AE013DB5F1FF3FDFD0B2
:10079000249B40F20B229342AFD0B3F5147FB5D027
:1007A0000746B3F5027FBAD029462B48064CA0472E
:1007B00024993148A0476420044B9847B8E700BF0C
:1007C00061040108D48F02082D770108F56E010835
:1007D000E0150020A8900208CD010108371C002078
:1007E000B4900208C09002084B1C0020D49002086C
:1007F000E0900208BF1B0020909302080D0301083F
:10080000B8930208F0900208C10201082894020877
:10081000FC90020810910208209102082891020819
:100820003891020888940208449102084C91020809
:100830005C910208ECF50208AC910208750201080F
:10084000C491020888900208DC91020881C701085F
:10085000F091020820920208E88F0208F08F020847
:1008600014900208289002086C9002086C9102080B
:100870000C0903089C9102084C9002080C0000101F
:10088000E5C60108209A0208049102080795002C89
:1008900040F3468208AF002400943B4606221146EE
:1008A0002046DFF814A3D047224639462046DFF819
:1008B0000C93C84704940397029401940126009670
:1008C000B34B324644F248312046DFF8F482C04749
:1008D00000943B46062211463046D0472246394610
:1008E0003046C84704940397029401940096A84B9D
:1008F000324644F248313046C0470DF1F80908232A
:1009000049F8D43DDFF8BC820194009743464A463B
:10091000314640F2F230DFF8B0A2D04701940097A0
:1009200043464A46314640F21E50D047DFF89C828B
:100930000194009743464A46314640F2FE30D04784
:100940000194009743464A46314640F22A50D04728
:10095000DFF87CB2DFF87C8298F8003003EB4303C9
:100960008C4800EB83039868019400975B464A46E5
:100970003146D04798F8003003EB4303864A02EB38
:1009800083039868019400975B464A463146D047F6
:1009900004940397029401940096334640F2F23295
:1009A00040F2E93120467D4DA84705940497DFF8D1
:1009B0002892B9F80030039302960196744B009385
:1009C0002346774A40F2E9312046DFF810B2D84793
:1009D000744A07CA0DF1280C8CE807000DF1900A43
:1009E000714A92E803008AE8030001940097634685
:1009F000324640F2E93120466C4DA84701940097F9
:100A00005346324640F2E9312046694DA8470494E6
:100A10000397029401940096334640F2FE3240F26E
:100A20001A4120465D4DA84705940497B9F8003057
:100A3000039302960196564B00932346584A40F280
:100A40001A412046D8470DF1280C5A490FC9ACE885
:100A500007008CF80030544A92E803008AE803004B
:100A6000019400970DF1280C6346324640F21A417A
:100A700020464E4DA847019400975346324640F217
:100A80001A4120464A4DA84798F8001001FA06F38B
:100A90005A18404800EB820292680B4400EB830333
:100AA00059680494039702940194009623462046C3
:100AB0003A4DA84798F8003003EB43033548054604
:100AC00000EB8303596805940497B9F80030039349
:100AD000029601962E4B00932346314A2046D84772
:100AE0000DF1280C33490FC9ACE807008CF8003031
:100AF00098F8003003EB430305EB83035968019436
:100B000000970DF1280C634632462046274DA84732
:100B100004940397029401940096334640F21E52C7
:100B200040F2E93130461D4DA84705940497B9F8C5
:100B30000030039302960196154B00932346184A02
:100B400040F2E9313046D847164A07CA0DF1280C61
:100B50008CE80700144A92E803008AE80300019435
:100B600000976346324640F2E93130460F4DA847C0
:100B7000019400975346324640F2E93130460C4D1D
:100B8000A84704940397029401940096334627E003
:100B900040420F00289402088894020879C901088D
:100BA00020A107004492020820910208E9C9010827
:100BB000BDCA01085092020869C80108C1C80108ED
:100BC00005C901080000001019CB0108040000103D
:100BD000080000100C0000105E1C002045CA01082F
:100BE00040F22A5240F21A4130464F4DA847059430
:100BF0000497B9F800300393029601964B4B00938B
:100C000023464B4A40F21A413046D8470DF1280C92
:100C100048490FC9ACE807008CF80030464A92E812
:100C200003008AE80300019400970AAA134632469B
:100C300040F21A413046414DA8470194009753466F
:100C4000324640F21A4130463D4DA84798F8001010
:100C500001FA06F35A183B4800EB820292680B44F3
:100C600000EB83035968049403970294019400965F
:100C7000234630462C4DA84798F8003003EB430339
:100C80003048054600EB8303596805940497B9F88A
:100C90000030039302960196244B00932346244A86
:100CA0003046D8470DF1280C22490FC9ACE807009F
:100CB0008CF8003098F8003003EB430305EB830316
:100CC0005968019400970AAB324630461B4DA8473D
:100CD00037E521464046B8471B48B84764201B4BC0
:100CE0009847E0E421464046B8471948B847642091
:100CF000164B9847D7E421461648174CA04717488B
:100D0000A0476420114B98476FF00103079318E543
:100D10004FF0FF33079314E56FF00303079310E5DB
:100D20006FF0030307930CE579C9010840420F00F7
:100D300020A107005092020820910208E9C9010889
:100D4000BDCA01088894020800920208F56E0108E5
:100D500014900208F09102082D77010828900208EB
:100D60002DE9F04F93B04FF0000BDFF818A2CDF84B
:100D700018B000F01BBC6E4B9847009023236D4ABF
:100D80006D496E486E4CA047694B9847002844D087
:100D90006C4B9847009009AB0022022108466A4C30
:100DA000A0476A4B9860002874DB684C41F62C33EE
:100DB000A38001466648624B98474FF00203ADF8A6
:100DC000283000230B93A088624B9847ADF82A0087
:100DD000A4685C4B9847009009AB20220AA92046E2
:100DE0005D4CA04700285ADB584B01221A601DE0D9
:100DF00009995A48524B9847C6E712AC54F8241D3B
:100E000057484F4B9847574B9D684E4B9847024663
:100E100021462846544B9847B6E7454B98470090E3
:100E20002323444A44494548454CA047404B9847F2
:100E3000002844D0434B9847009009AB0022022180
:100E40000846414CA047494B9860002845DB474C79
:100E500044F24923A38001463D48394B98474FF05F
:100E60000203ADF8283000230B93A088394B984734
:100E7000ADF82A00A468334B9847009009AB2022B4
:100E80000AA92046344CA04700282BDB374B01220F
:100E90001A601DE009993148294B9847C6E712AC02
:100EA00054F8241D2E48264B9847284B9D68254B07
:100EB00098470246214628462B4B9847B6E71C4BDD
:100EC0009847009023231B4A1B491C481C4CA047F1
:100ED00000230A93264D274C1FE009991F48184B01
:100EE0009847F5E712AC54F8241D1D48144B984759
:100EF0001E4B9D68134B98470246214628461A4BC5
:100F00009847E5E7002109A81B4B98470690002861
:100F10003AD04FF47A70194B98470020A8472368BD
:100F2000002BEFD1164B1B68002BF2D0EAE700BF75
:100F3000691A0108A89902086092020878920208CA
:100F40002D770108751A0108A5B80108A41C002016
:100F5000B4920208C5BA0108F9B801089C920208C7
:100F6000C4920208D01C002051B90108781C00204E
:100F7000C1040108F01A002031C80108F56E01080B
:100F8000F41A002020470020744F754C3968204621
:100F9000744DA84739687448A847DFF8049299F857
:100FA000003003EB4303714A02EB830358684FF0B0
:100FB000000BCDF804B009AD00953B682246012135
:100FC000DFF8E081C0470146694E3060099A694800
:100FD000694CA0473B6899F8002002EB4202674940
:100FE00001EB82025068CDF804B000955E4A012101
:100FF000C0470146624F3860DFF8AC91099A484615
:10100000A0475B462A46012140F2E930DFF89C8187
:10101000C047316801433160099A5648A0475B4692
:101020002A46012140F2E930C0473968014339605E
:10103000099A4846A0475B462A46012140F21A40D9
:10104000C047316801433160099A4A48A0475B466E
:101050002A46012140F21A40C047396801433960ED
:10106000099A4846A047DAF80090D94508BF4FF0E2
:101070000109DFF83C814F46AEE0424B186800287A
:1010800040F30C81404A414B184413F8011B02F80D
:10109000011B8342F9D101E13A4B1868002840F363
:1010A00013813B4A394B184413F8011B02F8011B0A
:1010B0008342F9D108E1374B1868002840F31D81BD
:1010C000354A324B184413F8011B02F8011B8342C6
:1010D000F9D112E12F4B1868002840F325812F4ADF
:1010E0002A4B184413F8011B02F8011B8342F9D163
:1010F0001AE11A4B1B682A4A127802EB42021B497A
:1011000001EB820250680022019209AE0096144A57
:101110000121244CA047164C2060099A06991548D5
:10112000154DA84700233246012140F2E930DFF88F
:101130007CB0D847216801432160099A0D48A8472F
:1011400000233246012140F21A40D847216801436A
:101150002160099A0748A847C4E100BF08000010B1
:10116000AC11002039040108101200202894020854
:10117000601C0020DC9202082D7701088894020888
:10118000641C0020000000101C100020E816002045
:101190008010002004000010E410002048110020FE
:1011A0000C00001075CB0108F8920208EDCB010885
:1011B00084120020A648A74B9847DAF800000028C0
:1011C00008BF0120A0EB0900B0F5FA7F80F0C381D1
:1011D000C0F5FA70A04B9847A04B9847042840F000
:1011E000C381DAF80090B9F1000F08BF4FF0010990
:1011F000D8F800300133C8F80030994C4FF0FF3177
:101200002046984B9847D8F80020130643EA12630B
:10121000110A01F47F410B43120202F47F021343CF
:10122000914E3360914A13602046914B9847DFF806
:1012300064B2904D2B7803EB43038F4A02EB830398
:1012400058680024009409ABDBF8002031468B4E2F
:10125000B047DBF800202B7803EB4303884901EB10
:1012600083035868009409AB8049B04764207A4BE7
:10127000984712A941F8204D049409AB0393814B80
:101280000293814B01930DAB00930CAB0BAA40F280
:10129000E9307E4CA04700283FF4EFAE002312A9AE
:1012A00041F8203D049309AB0393764B0293764BB0
:1012B00001930DAB00930CAB0BAA40F2E930734CD9
:1012C000A04700283FF4E8AE6420634B9847002312
:1012D00012A941F8203D049309AB03936C4B029390
:1012E000694B01930DAB00930CAB0BAA40F21A4073
:1012F000664CA04700283FF4DEAE002312A941F857
:10130000203D049309AB0393614B02935E4B019321
:101310000DAB00930CAB0BAA40F21A405B4CA047FC
:10132000069000283FF4D6AE64204B4B98474FF010
:10133000FF314B484B4B9847564B1A68002A08DD43
:101340004949554B9C1813F8010B01F8010B9C42BD
:10135000F9D1524B1968524B1B68994206D0DAF802
:101360000030002B08BF01234E490B60454B186825
:10137000002808DD49494A4B1D1813F8014B01F8B4
:10138000014BAB42F9D1484B1968484B1B68994255
:1013900006D0DAF80030002B08BF012344490B6067
:1013A0003B4B1968002908DD3F4C404B5E1813F891
:1013B000015B04F8015BB342F9D1002A08DD2B4C34
:1013C0003C4B1A4413F8015B04F8015B9A42F9D1D3
:1013D000394B1A68394B1B689A4206D0DAF800304C
:1013E000002B08BF0123364A1360002808DD324A6B
:1013F000324B184413F8014B02F8014B8342F9D1E8
:10140000304B1A68304B1B689A4206D0DAF800302D
:10141000002B08BF01232D4A1360002908DD294A4B
:10142000294B194413F8010B02F8010B8B42F9D137
:101430000B480F4B9847DAF80030002B08BF012308
:10144000DB1B41F2873293427FF7B7AE40E000BF2B
:10145000149302082D770108F56E01088D04010828
:10146000E016002031700108AC110020101200209D
:10147000AD7001080C0000102894020839CC010856
:101480008894020800000010E8160020A9CC01088A
:10149000040000100800001018140020881200201A
:1014A0001C1000207412002050130020E4100020B3
:1014B0007C1200207C140020EC1200208010002000
:1014C00078120020B4130020481100208012002060
:1014D000DAF80070002F08BF0127674B1B68002B4C
:1014E0007FF407AE654B1B68002B3FF463AE644B83
:1014F0001B68644A127802EB4202634901EB8202E4
:1015000050680022019209AE0096604A0121604CA9
:10151000A0470146594C2060099A5E485E4DA84795
:1015200000233246012140F2E930DFF8C4B1D84748
:10153000216801432160099A5648A8470023324692
:10154000012140F21A40D847216801432160099ADD
:101550005048A8472EE6009040F212334F4A5049B7
:1015600050484D4CA04737E600204F4B98474F4C12
:10157000042120464E4B98474FF4FA704D4B984744
:10158000042120464C4B984705204C4B9847092492
:10159000484F4B4E404D6420B847069B079A214662
:1015A0003046A847013CB4F1FF3FF4D10221454841
:1015B000414B9847C8203F4B9847022141483C4B3C
:1015C00098471420404B98470790404B18600028DC
:1015D000CDD0364C04212046354FB8473220354D0A
:1015E000A84704212046344EB0476420A847042170
:1015F0002046B8473220A84704212046B04704209F
:101600002E4B9847324B9847324B984700283FF46F
:10161000B2AB314B9847009009AB0022022108463B
:101620002E4CA0472E4B98600028FFF6E1AB2C4CC7
:1016300041F62D33A38001462A48174B98474FF0B7
:101640000203ADF8283000230B93A088264B98475F
:10165000ADF82A00A468204B9847009009AB2022DF
:101660000AA92046214CA0470028FFF6C6AB1C4B18
:1016700001221A60FFF788BB601C0020641C002058
:10168000080000100C0000108894020810120020BE
:1016900075CB0108F89202082D7701089C99020881
:1016A000249302087892020811A80108000C024055
:1016B00009660108F56E01080D660108610401085C
:1016C00040930208001002400D050108681C00202C
:1016D000451A0108691A0108751A0108A5B8010818
:1016E000D01C0020B4920208C5BA0108F9B801085C
:1016F000EDCB010810B582B0184B01221A60431ED1
:10170000DBB2072B1DD8164A137064211548164CFE
:10171000A04764211548A04764211548A047154BF0
:1017200001221A70662300934FF48053124A00215D
:101730001248134CA047011E0EDA12480A4B984774
:101740000AE000904FF45F730F4A10491048064CAE
:10175000A047034B01221A7002B010BDE016002012
:101760000C000010788F02082D7701088C8F02087A
:10177000A08F0208E41600201C000020610D010863
:101780006D6D0108B48F02088C9902082493020839
:101790007892020838B56C4B1A686C4B1B68002BAA
:1017A00008BF01239B1AC72B0FDD0446674B1B683C
:1017B000002B08BF0123644A1360654B9847042837
:1017C00006D00020634B187001E0624B187838BDDA
:1017D0004FF0FF316048614B9847614B1B681A0618
:1017E00042EA1362190A01F47F410A431B0203F41F
:1017F0007F0313435B4A13605B4B1868002810DDBE
:101800005A4A584B184413F8011B02F8011B834233
:10181000F9D15749534A12F8010B01F8010B9A42CA
:10182000F9D1544B1A68494B1B68002B08BF0123A0
:101830009B1AB3F5FA6F10DD012C10D04E4B1A68CD
:10184000424B1B68002B08BF01239B1AB3F5FA6FAC
:1018500036DD022C36D0002511E0022CEED0474BAD
:101860001868002808DD464A464B184413F8011B47
:1018700002F8011B8342F9D10125364B1D70424B02
:101880001A68324B1B68002B08BF01239B1AB3F563
:10189000FA6F2BDD012C2BD03C4B1A682B4B1B68AD
:1018A000002B08BF01239B1AB3F5FA6F38DD022C19
:1018B00038D02948364B9847264B00221A702CE026
:1018C000012C11D02D4B1868002808DD2C4A314B13
:1018D000184413F8011B02F8011B8342F9D11D4B78
:1018E00002221A700125CAE70025C8E7022CD3D0CE
:1018F000294B1868002808DD284A294B184413F89A
:10190000011B02F8011B8342F9D1124B01221A700C
:1019100011481F4B9847002DCED00E4B187856E734
:10192000012CC6D01C4B1868002808DD1B4A1D4B33
:10193000184413F8011B02F8011B8342F9D1054B2F
:1019400002221A70E4E700BFEC1A002020470020B2
:101950008D040108E81A0020E0160020317001080B
:1019600084120020D41B002008000010181400204E
:101970007C14002074120020781200200000001057
:10198000F81A0020881200207C120020801200200B
:10199000AD700108EC120020040000105C1B002058
:1019A000E41000204811002070B582B000211A48D0
:1019B0001A4B98471A4900201A4B9847184D1A4C51
:1019C0001A4E294601A8A047B0F1FF3F1FD1019947
:1019D00040F20B2399420AD0B1F5147F0BD0B1F538
:1019E000027F0CD012480D4B984700200DE0304686
:1019F0000A4B9847E5E70F48084B9847E1E70E4840
:101A0000064CA0470D48A047002002B070BD0C480E
:101A1000024B98470120F8E78C9A02082D770108BD
:101A2000701C00201DC6010801B801089C9A02081C
:101A3000DC9A02081490020828900208B49A02085E
:101A4000FC9A020808B5044B98470146034B1860FE
:101A50000348044B984708BDA91901086C1C0020D5
:101A6000789A02082D770108014B1868704700BF6B
:101A70006C1C002000487047701C0020064A0023A0
:101A8000136093801361054A136093801361044AC5
:101A90001360938013617047D01C0020A41C0020A9
:101AA000781C0020002909DD431E1944002013F88A
:101AB000012F1044C0B28B42F9D17047002070470B
:101AC00070B58EB00D461446022806D01146284641
:101AD0001A4B984720460EB070BD194B9847002806
:101AE000F8D0184B1B68002BF4D00DF11702164BE1
:101AF00003F1200013F8011B02F8011F8342F9D102
:101B0000079B002BE6D00F4B9E68104B9847039025
:101B100005AB02932023019306AB009300232246DA
:101B2000294630460A4DA8470028D3DA00904923B9
:101B3000084A094909480A4DA847CBE761710108DD
:101B4000691A0108D01C0020DC1C0020751A01084D
:101B500095B90108849B0208209B0208789202082C
:101B60002D7701082DE9F84304460D461746034634
:101B70005448554EB047E4B2544B1C70EA78322AB0
:101B80004AD018D9422A58D0502A6BD0402A41D185
:101B90004F484D4B984720464E4B98474E4C04219A
:101BA00020464E4B984732204D4B98470421204603
:101BB0004C4B98472EE0102A29D0302A2AD1464E85
:101BC00004213046DFF81491C8473220444FB8470B
:101BD00004213046DFF80C81C0476420B847042157
:101BE0003046C8473220B84704213046C0472B79D9
:101BF000DB093D4A137020463C4B98470421304690
:101C0000C8473220B84704213046C04702E020468A
:101C1000374B9847BDE8F88339462846354B9847F7
:101C20002D4C042120462D4B984764202C4B98477F
:101C3000042120462B4B9847ECE72F48224B98472E
:101C4000394628462D4B9847234C04212046234BE8
:101C500098474FF4FA70224B984704212046214BB5
:101C60009847D7E71C4E042130461C4B984732203A
:101C70001B4B9847042130461A4B98472B7913F099
:101C8000010F10D06B79AA7942EA0322EB7943EA7B
:101C900002231B4A12682A7A42EA03222946204676
:101CA000184B9847B6E76B79AA7942EA0322EB7999
:101CB00043EA02232A7A42EA032229462046124BAB
:101CC0009847A7E73C9B02082D770108FC240020D9
:101CD000589B020885290108000C0240096601088A
:101CE000F56E01080D660108BC3000205529010879
:101CF000E928010821280108709B020881290108B0
:101D0000204700209D200108051E010808B50D4B45
:101D10001B68002B08BF01230B4A12689B1AB3F5FE
:101D20007A7F09D3074B1B68002B08BF0123064AA3
:101D30001360064B1B7803B908BD054B1878054B9B
:101D40009847F9E72047002000250020BC300020FC
:101D5000FC2400205529010870477047002814DD35
:101D60000D4B5B68834213DB10B50B4B9B68A3EBF9
:101D7000002000F582234FF48072084CA34298BFE4
:101D80001846074B9847002010BD4FF0FF307047B2
:101D90004FF0FF30704700BF10300020FF0F0400ED
:101DA00071D7010800281DDD08B5114BDB6883429F
:101DB0001BDB0F4B1B69A3EB002303F5C0000D4A8F
:101DC000904288BF18464FF4807200F580100A4B8D
:101DD00098470A4B1B68002B08BF0123084A136071
:101DE000002008BD4FF0FF3070474FF0FF30F8E79C
:101DF00010300020FFFF5F0071D70108204700204E
:101E0000082D002070B50646294B1D6805F14004D9
:101E10002B46002103F8011B9C42FBD1F5232B70BC
:101E200000236B704023AB705123EB7021494B684A
:101E3000180E6871180CA871180AE8712B7248689E
:101E40009042A8BF1046030E6B72030CAB72030ADC
:101E5000EB722873184B1B68002B08BF0123174A2D
:101E600013601749174B9847A8B905F10D0305F101
:101E70001300154A12F8011B03F8011B9842F9D10F
:101E800005F1150305F11C00104A12F8011B03F8B7
:101E9000011B9842F9D13F2128460D4B984785F800
:101EA0003F004022294630460A4B984770BD00BF8C
:101EB0001000001010300020204700200C300020BF
:101EC0000C2E00205D1D01080E2E0020162E002075
:101ED000A51A0108C11A010810B582B004460021F4
:101EE0006846144B98479DF8003084F89C309DF864
:101EF000013084F89D309DF8023084F89E309DF8C2
:101F0000033084F89F309DF8043084F8A0309DF8A9
:101F1000053084F8A130A6212046074B9847A4F845
:101F2000A600A82221464FF40070044B98470120D8
:101F300002B010BDE96701087D6B010835D20108C8
:101F400070B586B004466FF0720303706FF05503EE
:101F50004370002104A8294B98479DF81030A370C6
:101F60009DF81130E3709DF8123023719DF8133005
:101F700063719DF81430A3719DF81530E371FE2153
:101F800020461F4B9847A4F8FE001E4D2A69E968B9
:101F90001D481E4EB0472379E278A178E07902907F
:101FA000A0790190607900901948B0472D6905F536
:101FB0008015C5F30B03EBB14FF480722146284620
:101FC000144B98470F4B1B6903F58073124A9342D9
:101FD00088BF00230B4AD26845F6EF718A4202D8C7
:101FE00001320849CA60074803610C4B984700203A
:101FF00006B070BD28460A4B9847DDE7E96701083F
:102000007D6B010810300020989B02082D77010895
:10201000BC9B0208B9D80108FFFF5F00D91E010868
:1020200065DA010808B5154B1A68154B1B68002BBB
:1020300008BF01239B1A41F2873293421DDD104BEA
:102040001B68002B08BF01230C4A13604FF400618A
:102050000C480D4B984700280FDD0C4A0C4B03F140
:10206000F50013F8011B02F8011F8342F9D109485A
:10207000002380F8FD30084B984708BD082D00204C
:10208000204700200425002099220108132D00205C
:10209000092500200C2D0020411F010870B50546C0
:1020A00016462F4B1C6804F586712346002203F860
:1020B000012B9942FBD140212A482B4B9847F5230D
:1020C0002370012363700C23A3705123E370274B0B
:1020D0001B68002B08BF0123254A1360254AD368DB
:1020E000190E6171190CA171190AE1712372D0687E
:1020F000B042A8BF3046030E6372030CA372030AFA
:10210000E37220731C491D4B9847D0B904F10D03AD
:1021100004F113001A4A12F8011B03F8011B834251
:10212000F9D104F11402174B03F1F50013F8011B68
:1021300002F8011F8342F9D10F4B93F8FD3084F868
:102140000A3140F20B1120460F4B984784F80B01DF
:102150004FF48672214628460C4B984770BD00BF4D
:1021600010000010001402400966010820470020FA
:102170000C300020103000200C2F0020A51D01087D
:102180000E2F0020142F0020A51A0108C11A0108E3
:102190002F4B1A682F4B1B68002B08BF01239B1A7B
:1021A00042F20F72934252DD70B586B00446294B5D
:1021B0001B68002B08BF0123254A1360002104A8D7
:1021C000254B98479DF81030A3709DF81130E370AF
:1021D0009DF8123023719DF8133063719DF814300F
:1021E000A3719DF81530E3711C4DAA6869681C48FD
:1021F0001C4EB0472379E278A178E0790290A0796B
:102200000190607900901848B047AD68C5F30B03A2
:10221000CBB14FF4807221462846144B984705F500
:102220008075134A954288BF00250C4A5268B2F562
:10223000806F02D2013209494A60084885600D4B1F
:10224000984706B070BD28460B4B9847E1E77047AA
:10225000042D002020470020E967010810300020ED
:102260009C9B02082D770108BC9B0208B9D8010885
:10227000FF0F0400D91E010865DA010833B90123F4
:102280009340425C22EA0302425470470123934088
:10229000425C1A43425470472DE9F84F054600F559
:1022A00061710346002203F8012B8B42FBD1F52319
:1022B0002B7003236B708423AB703123EB700024ED
:1022C000DFF8FC80364F374E21464046B847C3B250
:1022D000614204F0070201F0070158BF4A4221465B
:1022E000002CB8BFE11DC91005312846B0470134A4
:1022F000262CE9D10024DFF8CC802B4F294E214633
:102300004046B847C3B2614204F0070201F007013A
:1023100058BF4A422146002CB8BFE11DC9101531F3
:102320002846B0470134142CE9D1204E2F46002412
:10233000DFF894A0DFF89490DFF894802BE0B6F9F2
:102340004C00D047F16BC8478346B6F84E00184B97
:10235000984701465846174B98474146164B9847B1
:10236000164B984700B2C0F3072387F83E3087F832
:102370003F0004F007022146002CB8BFE11DC91040
:10238000012336312846DFF81CB0D84701345836CF
:1023900002370E2C1ED0B36B002BD0D0306CDFE791
:1023A000498801087D22010887880108383100200A
:1023B000C180020871810208D9820208FD840208E6
:1023C0003064002048640020C9800208617F020850
:1023D0000000C842DB4E3046DB4CA047DB4FA7FB7A
:1023E0000023C3F34F131A0A85F87A2085F87B304F
:1023F0003046A047031C18BF012300223A2128467B
:10240000D84706363046A047A7FB0023C3F34F1337
:102410001A0A85F87C2085F87D303046A047031CD9
:1024200018BF012301223A212846D847C84C94F806
:10243000053985F8813094F8483A85F88530C54BE0
:102440001A68130643EA1263110A01F47F410B4331
:10245000120202F47F021343BF4AA2FB03239B092B
:1024600085F8F23004F530784046BC4FB847030E8B
:1024700085F82C31030C85F82D31030A85F82E31AF
:1024800085F82F014046B64EB047030E85F830312F
:10249000030C85F83131030A85F8323185F83301B0
:1024A00004F551794846B847030E85F83431030CDA
:1024B00085F83531030A85F8363185F83701484605
:1024C000B047030E85F83831030C85F83931030A1B
:1024D00085F83A3185F83B0104F565794846B847F7
:1024E000030E85F83C31030C85F83D31030A85F86D
:1024F0003E3185F83F014846B047030E85F840312C
:10250000030C85F84131030A85F8423185F843010F
:1025100004F57E794846B847030E85F84431030C2C
:1025200085F84531030A85F8463185F84701484664
:10253000B047030E85F84831030C85F84931030A8A
:1025400085F84A3185F84B0104F5E2794846B847E9
:10255000030E85F84C31030C85F84D31030A85F8DC
:102560004E3185F84F014846B047030E85F850318B
:10257000030C85F85131030A85F8523185F853016F
:1025800004F50A794846B847030E85F85431030C20
:1025900085F85531030A85F8563185F857014846C4
:1025A000B047030E85F85831030C85F85931030AFA
:1025B00085F85A3185F85B0104F104094846B847AB
:1025C000030E85F85C31030C85F85D31030A85F84C
:1025D0005E3185F85F014846B047030E85F86031EB
:1025E000030C85F86131030A85F8623185F86301CF
:1025F00054342046B847030E85F86431030C85F83F
:102600006531030A85F8663185F867012046B047D1
:10261000030E85F86831030C85F86931030A85F8E3
:102620006A3185F86B0140464E4B98474E4B1B680C
:10263000002B08BF01231B1A474A82FB0312DB173A
:10264000C3EBA2131A0E85F86C211A0C85F86D21C4
:102650001A0A85F86E2185F86F3104F53C70414BFC
:102660009847414B1B68002B08BF01231B1A3A4AAD
:1026700082FB0312DB17C3EBA2131A0E85F870213D
:102680001A0C85F871211A0A85F8722185F87331C0
:102690004846344B9847344B1B68002B08BF012336
:1026A0001B1A2D4A82FB0312DB17C3EBA2131A0E6F
:1026B00085F874211A0C85F875211A0A85F8762197
:1026C00085F877312046274B9847274B1B68002B0E
:1026D00008BF01231B1A204A82FB0312DB17C3EB3E
:1026E000A2131A0E85F878211A0C85F879211A0A96
:1026F00085F87A2185F87B3140461C4B98471A4B68
:102700001B68002B08BF01231B1A134A82FB03120C
:10271000DB17C3EBA2131A0E85F87C211A0C85F87F
:102720007D211A0A85F87E2185F87F3104F53C70F9
:102730000E4B98470C4B1B68002B08BF01231B1A3C
:1027400016E000BF7C4200209D5301081F85EB511D
:10275000D03700205C1B0020D34D6210FD5D0108C6
:10276000F95D0108055E010820470020095E0108A7
:10277000274A82FB0312DB17C3EBA2131A0E85F85C
:1027800080211A0C85F881211A0A85F8822185F8A2
:10279000833148461F4B98471F4B1B68002B08BFCF
:1027A00001231B1A1A4A82FB0312DB17C3EBA21385
:1027B0001A0E85F884211A0C85F885211A0A85F8E5
:1027C000862185F887312046124B9847124B1B68AB
:1027D000002B08BF01231B1A0D4A82FB0312DB17D3
:1027E000C3EBA2131A0E85F888211A0C85F88921EB
:1027F0001A0A85F88A2185F88B3140F28331284600
:10280000064B984785F883034FF46170BDE8F88F55
:10281000D34D6210095E010820470020A51A010867
:102820002DE9F041054600242A4F2B4E2146002C6D
:10283000B8BFE11D634204F0070203F0070358BF6D
:102840005A4205EBE1014B791341497D41FA02F20D
:1028500003F0010302F0010221463846B04701347B
:10286000262CE3D12E461D4F0024DFF8788096F801
:102870003E0096F83F3043EA0020C0472346002C34
:10288000B8BFE31D05EBE30393F88230614204F027
:10289000070201F0070158BF4A42134103F0010348
:1028A000BB6338640134023658370E2CDFD195F8FB
:1028B0008C3095F88B2042EA032295F88A3043EA5F
:1028C000022295F8893043EA0223054A1360BDE8E5
:1028D000F08100BF306400202189010838310020D8
:1028E000B8300020C180020870B50646164B1C683F
:1028F000F5232370002262701325A5701123E37065
:1029000001232371342161716521A1719F21E1713E
:102910001021217263721723A372E27223730823BA
:1029200063731823A3730F22E27323741923637450
:1029300012212046054B9847A0742A46214630466E
:10294000034B984770BD00BF10000010A51A010886
:10295000C11A010838B50546064B1C684FF40061E2
:102960002046054B9847021E03DD21462846034BAF
:10297000984738BD1000001099220108C11A0108BB
:102980007047000038B505460F4B1C6804F582718E
:102990002346002203F8012B9942FBD1F523237033
:1029A000012363700423A3704123E37040F20311F9
:1029B0002046064B984784F803014FF48272214663
:1029C0002846034B984738BD10000010A51A01088F
:1029D000C11A01089F2805D10B78002B024808BFB7
:1029E0000020704700207047300009060023136064
:1029F00041F21703984245D011D9B0F5C05F4BD0D2
:102A00002BD8B0F5A05F43D0B0F5B05F42D041F213
:102A1000180398423AD0264B0B600020704741F2D1
:102A20000503984226D00AD941F2070398423DD0C7
:102A300024D341F216039842EDD1052207E0B0F508
:102A4000805F31D041F201039842E4D1012200239A
:102A50000B60184800EBC2007047B0F5005F1FD054
:102A6000B0F5085F1ED0B0F5D05FD4D1124B136023
:102A70000B22ECE7114B13600222E8E7104B1360C6
:102A80000322E4E70F4B13600622E0E70722DEE7AC
:102A90000822DCE70922DAE70B4B13600A22D6E7AB
:102AA0000C22D4E70D22D2E70022D0E70422CEE7A1
:102AB00000000206F09B0208F4300020CC30002019
:102AC000D0300020D4300020D830002038B50D465A
:102AD000144641F28E2303FB00F3C0F5FF407F3024
:102AE00093FBF0F0024B984728602060012038BD2E
:102AF000C180020870B50D461646074B98474FF047
:102B00008B41064B9847064C0649A0470649A0470B
:102B100030602860012070BDC98002087181020800
:102B2000D982020800FEFF460000F04200000000CB
:102B3000F8B50F461646104CA0474FF08B410F4B8F
:102B400098470F4D0F49A8470F49A84738604FF0E5
:102B500081410E4B98470E4B984705A3D3E90023BC
:102B60000C4DA8470C4B9847A04730600120F8BD9A
:102B70002D431CEBE2365A3FC980020871810208DE
:102B8000D982020800FEFF460000F0425D7F020885
:102B900021790208257C0208057F0208F8B50E4657
:102BA000154641F28E2404FB00F4C0F5FF407F304F
:102BB00094FBF0F420461E4B984730601D4B9C421E
:102BC00031D8B4F5EC7F30D340F277514FF42F7306
:102BD0000022194E06EBC3004068844238BF1A46F3
:102BE000844228BF1946531803EBD3735B109A42F3
:102BF00001DA9942EEDC104B53F8326003EBC2026B
:102C0000526853F83100871B101B00FB07F003EBE1
:102C1000C1014B68D21AB0FBF2F03044074B984721
:102C200028600120F8BD0648F8E740F2E730F5E7F4
:102C3000C18002086BC90100A0C80208C98002084F
:102C400070FEFFFFF8B50E46154641F28E2404FBD8
:102C500000F4C0F5FF407F3094FBF0F420461E4B9B
:102C6000984730601D4B9C4231D8B4F5EC7F30D38F
:102C700040F277514FF42F730022194E06EBC30038
:102C80004068844238BF1A46844228BF1946531808
:102C900003EBD3735B109A4201DA9942EEDC104BDE
:102CA00053F8326003EBC202526853F83100871BBD
:102CB000101B00FB07F003EBC1014B68D21AB0FBFD
:102CC000F2F03044074B984728600120F8BD0648D1
:102CD000F8E740F2E730F5E7C18002086BC9010070
:102CE000E09C0208C980020870FEFFFF70B50D4627
:102CF0001646094B98470949094B9847094C0A4918
:102D0000A0470A49A0470146094B98470949A047EF
:102D100030602860012070BDC98002080000C045F5
:102D200071810208D982020800FEFF460000C842F5
:102D3000617F020800002041F8B50F461646124C8C
:102D4000A0474FF08B41114B9847114D1149A847AF
:102D50001149A84738604FF08141104B9847104BFC
:102D6000984707A3D3E900230E4DA84700220E4B36
:102D70000E4DA8470E4B9847A04730600120F8BD84
:102D800075931804560EE13FC9800208718102084C
:102D9000D982020800FEFF460000F0425D7F020873
:102DA00021790208257C020800002440D17902081C
:102DB000057F02082DE9F84F1C481D4B98471D4F11
:102DC0001D4E06F59A69DFF878B0DFF864A019E0C7
:102DD0001A48D04712E084F8252084F82480002384
:102DE000A3622B68A364EB686364E3632364B5F9AF
:102DF0001230A4F84C30AB8AA4F84E300C37583659
:102E00004E4511D03A68BD682B68002BE0D034469F
:102E100032602A7C95F81180531EDBB20F2BDAD971
:102E20005846D0471022D6E7BDE8F88F7C9C0208B0
:102E30002D77010868F4020838310020909C0208C0
:102E40009C9C020838B53A4B9B6B002B27D0384B23
:102E5000196C374B586C374B9847002863D1344B6B
:102E6000D3F89030002B30D0314BD3F89810304B42
:102E7000D3F89C002F4B9847002856D12C4BD3F801
:102E8000E830002B38D02A4BD3F8F010284BD3F879
:102E9000F400284B9847003018BF012044E0244C30
:102EA000B4F94C00244B9847E16B244B98470546F6
:102EB000B4F84E00224B984701462846214B9847CC
:102EC0002149224B98470146C3E7194CB4F9A400A5
:102ED000194B9847D4F89410184B98470546B4F806
:102EE000A600174B984701462846164B98471649A7
:102EF000164B98470146BAE70D4CB4F9FC000E4B4F
:102F00009847D4F8EC100D4B98470546B4F8FE00EE
:102F10000B4B9847014628460A4B98470A490B4BEA
:102F200098470146B2E7012038BD0120FCE700BF09
:102F30003831002099840208C9800208617F0208A4
:102F4000C1800208718102080000C842D9820208CB
:102F50009E4B1A689E4B1B68002B08BF01239B1ACF
:102F6000282B40F381832DE9F0438DB0984B1B68EB
:102F7000002B08BF0123954A1360964B187805284B
:102F800017D9831FDBB2052B40F23881A0F10C0367
:102F9000DBB2012B40F256828E4B1B780133DBB241
:102FA0000D2B40F25E838B4B00221A700DB0BDE8F2
:102FB000F0830A220DF12E01874B9847854B1C7830
:102FC000BDF82E00854A582303FB04239D6C002D79
:102FD00054D000B2814A582303FB042393F825C040
:102FE000BCF1010F1DD0582303FB04239F6A002F5F
:102FF0004ED0BCF1000F0DD0582303FB0423023345
:103000002C2101FB04CC023202EB4C0C23F8020F02
:103010006345FBD1714A582303FB042301229A62C2
:10302000DA6286B26D4B582101FB043103AA543198
:10303000A847002800F0AD80039D684A582303FB91
:1030400004232946186B664B984750B9634A5823A6
:1030500003FB0423596B2846614B9847002800F076
:1030600092805E4A582303FB04235A6CDA635B4B5D
:10307000582202FB0434A4F850608DE700905E23D0
:10308000584A594959485A4CA0475A48A04783E7DB
:10309000524A582303FB0423DB6A2C2101FB043131
:1030A00002EB410290800133E046634526DA4B494A
:1030B000582202FB0412D362484A582303FB04231C
:1030C00093F824300BBB582303FB0423B3F904000B
:1030D000BCF1010F0EDD582303FB042304332C2124
:1030E00001FB04C1023202EB410133F9022F10440B
:1030F0009942FAD1B0FBFCF000B292E7374A58236C
:1031000003FB04230022DA62D6E7BCF1000F0DD0E6
:10311000324B582202FB0432023203AB03EB4C0069
:1031200032F8021F23F8021B8342F9D103A800EBF7
:103130004C0608F1FF3900E00230B94511DD0137D6
:10314000B845F9DD831C864633F9021BB0F900202F
:103150009142C4BFAEF8001023F8022CB342F3D161
:10316000EAE74FEA5C0C0CAB03EB4C0333F9260C9B
:103170000CAB03EB4C0C3CF9243C184400EBD07036
:1031800040F34F004DE7154A582303FB0423DD634A
:103190006DE7124A582303FB04235A6CDA63DFF805
:1031A0004490DFF84480114F009677234A46414609
:1031B00038460F4DA84703980F4B9847CDE90001BB
:1031C00078234A4641463846A84750E73431002024
:1031D0002047002033310020158A010838310020B3
:1031E000C184020860F40208B09C020878920208C8
:1031F0002D770108C09C0208217902080A220DF1EE
:103200002E010638854B9847854B1C78BDF82E005B
:10321000844A582303FB04239D6C002D54D000B234
:10322000804A582303FB042393F825C0BCF1010F07
:103230001DD0582303FB04239F6A002F4ED0BCF1FE
:10324000000F0DD0582303FB042302332C2101FB74
:1032500004CC023202EB4C0C23F8020F6345FBD185
:10326000704A582303FB042301229A62DA6286B271
:103270006C4B582101FB043103AA5431A8470028A4
:1032800000F0AE80039D674A582303FB04232946C0
:10329000186B654B984750B9624A582303FB0423C7
:1032A000596B2846604B9847002800F093805D4A90
:1032B000582303FB04235A6CDA635A4B582202FB4F
:1032C0000434A4F8506067E600905E23574A5849DA
:1032D0005848594CA0475948A0475DE6514A5823E1
:1032E00003FB0423DB6A2C2101FB043102EB4102C6
:1032F00090800133E046634527DA4A49582202FBB1
:103300000412D362474A582303FB042393F8243062
:1033100013BB582303FB0423B3F90420BCF1010FB2
:103320000FDD4049582303FB041304332C2000FB1A
:1033300004C0023101EB400033F9021F0A4483420A
:10334000FAD1B2FBFCF210B291E7364A582303FBE4
:1033500004230022DA62D5E7BCF1000F0DD0314B17
:10336000582202FB0432023203AB03EB4C0032F86A
:10337000021F23F8021B8342F9D103A800EB4C067D
:1033800008F1FF390CE033F9021BB0F9002091423B
:10339000C4BFAEF8001023F8022CB342F3D10230C0
:1033A000B94505DD0137B845F9DD831C8646EAE7F6
:1033B0004FEA5C0C0CAB03EB4C0333F9260C0CAB63
:1033C00003EB4C0C3CF9243C184400EBD07040F368
:1033D0004F004CE7134A582303FB0423DD636CE7DB
:1033E000104A582303FB04235A6CDA63DFF83C903D
:1033F000DFF83C800F4F009677234A464146384617
:103400000D4DA84703980E4B9847CDE9000178234E
:103410004A4641463846A8474FE700BFA18A0108FF
:103420003331002038310020C184020860F40208E2
:10343000B09C0208789202082D770108C09C02080F
:10344000217902080A220DF12E010C38874B98478A
:10345000874B1C78BDF82E00864A582303FB0423B3
:103460009D6C002D54D000B2824A582303FB0423E4
:1034700093F825C0BCF1010F1DD0582303FB042392
:103480009F6A002F4ED0BCF1000F0DD0582303FBD4
:10349000042302332C2101FB04CC023202EB4C0248
:1034A00023F8020F9342FBD1724A582303FB0423F3
:1034B00001229A62DA6286B26E4B582101FB043116
:1034C00003AA5431A847002800F0AE80039D694A42
:1034D000582303FB04232946186B674B984750B9C0
:1034E000644A582303FB0423596B2846624B9847D0
:1034F000002800F093805F4A582303FB04235A6C92
:10350000DA635C4B582202FB0434A4F8506043E5B4
:1035100000905E23594A5A495A485B4CA0475B4881
:10352000A04739E5534A582303FB0423DB6A2C21C7
:1035300001FB043102EB410290800133E046634518
:1035400027DA4C49582202FB0412D362494A582315
:1035500003FB042393F8243013BB582303FB0423F9
:10356000B3F90420BCF1010F0FDD4249582303FBDE
:10357000041304332C2000FB04C0023101EB400093
:1035800033F9021F0A448342FAD1B2FBFCF210B2B3
:1035900091E7384A582303FB04230022DA62D5E777
:1035A000BCF1000F0DD0334B582202FB0432023223
:1035B00003AB03EB4C0032F8021F23F8021B8342DB
:1035C000F9D103A800EB4C0608F1FF390CE033F900
:1035D000021BB0F900209142C4BFAEF8001023F8DE
:1035E000022CB342F3D10230B94505DD0137B845AD
:1035F000F9DD831C8646EAE74FEA5C0C0CAB03EB73
:103600004C0333F9260C0CAB03EB4C0C3CF9243C7B
:10361000184400EBD07040F34F004CE7154A582394
:1036200003FB0423DD636CE7124A582303FB0423E6
:103630005A6CDA63DFF84490DFF84480114F00964B
:1036400077234A46414638460F4DA8470398104B0A
:103650009847CDE9000178234A4641463846A847B5
:103660004FE7034A1370A1E4704700BF318B010894
:103670003331002038310020C184020860F4020890
:10368000B09C0208789202082D770108C09C0208BD
:10369000217902087047000038B5104BD3F840314B
:1036A000C3B90E4CB4F954010D4B9847D4F84411EA
:1036B0000C4B98470546B4F856010B4B984701460A
:1036C00028460A4B98470A490A4B98470A4B98479D
:1036D00080B238BD014BD3F84801F7E738310020FC
:1036E000C9800208617F0208C18002087181020856
:1036F0000000C842D98202084985020838B5104B3B
:10370000D3F84832C3B90E4CB4F95C020D4B98475C
:10371000D4F84C120C4B98470546B4F85E020B4B9C
:103720009847014628460A4B98470A490A4B98474A
:103730000A4B984700B238BD014BD3F85002F7E767
:1037400038310020C9800208617F0208C180020868
:10375000718102080000C842D9820208FD84020873
:1037600038B5104BD3F8A032C3B90E4CB4F9B4023B
:103770000D4B9847D4F8A4120C4B98470546B4F863
:10378000B6020B4B9847014628460A4B98470A4910
:103790000A4B98470A4B984700B238BD014BD3F803
:1037A000A802F7E738310020C9800208617F0208CB
:1037B000C1800208718102080000C842D982020853
:1037C000FD840208F0B40F4B03F59A670120002234
:1037D0000D490E4E0025642483F8250083F824004B
:1037E0009A621A605964D96319649A649A631E6371
:1037F0005D63A3F84C20A3F84E405833BB42EBD195
:10380000F0BC70473831002000FF7F4700FE7F4743
:1038100038B501280CD007281BD0174C01212046B1
:10382000164B9847164BD9792046164B984738BD0A
:10383000134D114C697D2046134B9847697CC9098B
:103840002046124B9847A97CC9092046104B98473F
:10385000E3E70B4D084CE97E20460B4B9847697C0B
:10386000C1F340012046094B9847A97CC1F34001B0
:103870002046074B9847D0E7A8400020315E01085A
:103880005C1B0020C55E0108595E0108C95E010885
:10389000055F010870B52A4B1B7833B1284B1878A7
:1038A000012840D007282DD070BD264E2321304658
:1038B000254DA847044624213046A847400040EA49
:1038C000840044B225213046A8472043C0B20428D2
:1038D00005D0072812D01A4B00221A7006E0184BA8
:1038E00001221A70164B1878184B9847184B1B6812
:1038F000002B08BF0123174A1360CFE7104B0722A4
:103900001A70EFE7134B1A68114B1B68002B08BFA6
:1039100001239B1AB3F5FA7FC6DB0D4B1A6847F2F9
:1039200030539A42C0D90C4B18710C4B9847084B36
:103930001B68002B08BF0123064A1360B4E700BFD1
:10394000143600203064002049880108F51601086B
:10395000204700200C360020D41B0020113801081D
:103960002DE9F843474D2846DFF83481C047064625
:103970002846C047A5F52274000240EA2620A4F894
:10398000B0002846404EB04707462846B0470002E0
:1039900040EA2720A4F8B80005F5E87738463B4D03
:1039A000A84781463846A847000240EA2920A4F8E3
:1039B0001C0104F543773846C04781463846C04766
:1039C000000240EA2920A4F8E6003846B0478046C5
:1039D0003846B047000240EA2820A4F8EE0004F57B
:1039E000AF663046A84707463046A847000240EA7F
:1039F0002720A4F852012648264B984710BBB4F85C
:103A0000CA100A0242EA1122A4F89A22B4F8CE108F
:103A10000A0242EA1122A4F89C22B4F8CC100A024D
:103A200042EA1122A4F89E221B481A4B984790B1F3
:103A30001A4B0022A3F81E23A3F82023A3F8222365
:103A4000BDE8F883154B0022A3F89A22A3F89C2224
:103A5000A3F89E22E8E7114BB3F800110A0242EAEC
:103A60001122A3F81E23B3F804110A0242EA11221C
:103A7000A3F82023B3F802110A0242EA1122A3F8A4
:103A80002223DDE7583A00204D3E0108516301082A
:103A9000944200203D600108B0430020D037002050
:103AA000493E010870B5204C2046204DA8470646E7
:103AB00004F16400A847014630461D4B98471D4B52
:103AC000984724F8140C1C4B9847A4F8D6001B4BBD
:103AD0009847A4F85A0104F52670194B9847012815
:103AE00016D0A4F5E074B4F83C110B0243EA11239C
:103AF000A4F898321348124B984701280ED0124A66
:103B0000B2F872110B0243EA1123A2F81C3370BD04
:103B10000D4B4FF69C72A3F89822EBE70A4B4FF639
:103B20009C72A3F81C23F2E7903900201959010870
:103B30004953010899360108FD360108613701082B
:103B4000F1610108483D0020D037002008B5224B24
:103B50001B68002B08BF0123204A1360204B9847A5
:103B6000204B9847204B9847204B9847204B1A688A
:103B7000194B1B68002B08BF01239B1AB3F5FA7F72
:103B800000DA08BD1B481C4B9847E8B9124B1B686C
:103B9000002B08BF0123164A13601648174B98479D
:103BA000174B98471748184B98470C4B1A680A4B05
:103BB0001B68002B08BF01239B1A144A9342E0DDC7
:103BC0000C4B00221A70DCE71148124B9847124840
:103BD000124B9847DAE700BF204700200836002044
:103BE000A53A01087963010861390108953801088F
:103BF00010360020D03700204152010891500108B2
:103C000025200108183600209121010840771B006B
:103C100010300020D91E0108F8F502082D770108A0
:103C200010B400232E220270332242706FF01E0265
:103C300082706FF07002C270052280F829205E2227
:103C400042710121817180F87E3080F87F3080F8E8
:103C5000803080F881306FF0230280F8822080F875
:103C6000833080F8843080F88530382280F88620D0
:103C70004FF0FF3280F8872080F8882080F8892074
:103C8000402480F88A4080F88B1080F88C3080F8CF
:103C90008D3080F88E4080F88F1080F8903080F85A
:103CA0009130462180F8921080F8933080F894305B
:103CB00080F89530782180F8961080F897305A2156
:103CC00080F8981080F899303C2180F89A1080F89C
:103CD0009B301E2180F89C1080F89D3080F89E302B
:103CE00080F89F306FF0130380F8A03080F8A12097
:103CF0006FF0590380F8A23080F8A32010BC704701
:103D000010B50446A82201464FF40070094B9847AD
:103D1000A6212046084B98472268084B9A4201D0BA
:103D2000002010BDB4F8A630834214BF002001204B
:103D3000F7E700BF25D101087D6B0108526EFC92A8
:103D400000F1A8010346002203F8012B9942FBD1A0
:103D50006FF0600380F8A230652380F8A33034232D
:103D600080F8A430012380F8A530522303706E231D
:103D700043706FF0030383706FF06D03C37070477F
:103D800038B5204CA622214600201F4B9847A4217D
:103D900020461E4B98470546A62120461C4B9847B7
:103DA00029461C481C4B984722681C4B9A4219D044
:103DB0001B48194B9847134C20461A4B9847A4218F
:103DC0002046124B9847A4F8A400A62221460020C2
:103DD000154B98471548164B984740B11548164B58
:103DE000984738BDB4F8A430AB42E1D1F2E71348AC
:103DF000094B98470D4C2046114B98472046114BD4
:103E00009847EBE71837002025D101087D6B0108A2
:103E10000D6C01080CF602082D7701082E33E18F96
:103E200034F60208213C010835D201081030002088
:103E3000013D0108D03700205541010818F602085D
:103E4000413D0108D91E01084089704780897047AB
:103E50002DE9F04182B00446037E03F007030376A8
:103E600013213648364B984710B9637E012B49D051
:103E700014213248324B984710B9637E022B41D04F
:103E8000237E23F00103237611212C482C4B9847E5
:103E900010B9637E012B3AD012212848284B98474D
:103EA00010B9637E022B32D0237E23F002032376E7
:103EB00000212248224B984728B900212148224B53
:103EC0009847012828D001211C481D4B984758B31A
:103ED000237E23F004032376667E277E04F15C05AF
:103EE00028461A4B984780462846194B9847009019
:103EF00043463A4631461748174DA847207E02B040
:103F0000BDE8F081237E43F001032376BCE7237EE6
:103F100043F002032376CBE7637E012BD3D1237ECC
:103F200043F004032376D7E701210648064B984760
:103F30000128CDD1637E022BCAD1F0E73064002086
:103F4000498801084864002087880108015E01084B
:103F5000FD5D0108CCF602082D77010808B5017A4D
:103F60000148024B984708BD486400208788010833
:103F700008B5064B1B7813F0040F04D101780448F0
:103F8000044B984708BD044B9847FBE7B830002026
:103F900030640020498801085D3F010870B5C4699C
:103FA000154B1B68002B08BF01231B1BB3F57A7F41
:103FB00020DB15460E46044679B9104B984708B1E8
:103FC000012D17D120460D4B984712E04FF47A632C
:103FD000638100236362A3620CE0084B984710B131
:103FE0006368012BF2D0044B1B68002B08BF012330
:103FF000E361668170BD00BF20470020713F01086A
:1040000038B504461D4B984700B938BD04F1380552
:1040100028461B4B98471B4B1B68002B08BF0123EE
:10402000181A194B984203DC2046144B984770B974
:10403000012200212046154B984720460F4B9847F8
:10404000C0B90022217A1248124B9847DDE7284672
:104050000B4B98470B4B1B68002B08BF0123181A0A
:104060000D4981FB0031C017C0EBA1110B480C4B6F
:104070009847CAE728460B4B9847E2E75D3F01089F
:10408000095E0108204700201FBF02009D3F010874
:1040900048640020BD880108D34D6210A0F60208D4
:1040A0002D770108855D010838B504461C4B9847FB
:1040B00000B138BD1B481C4B984701461B481C4BA0
:1040C000984704F1380528461A4B98471A4B1B6845
:1040D000002B08BF0123181A184B984203DC204616
:1040E0000F4B984740B12846154B98470122217A3B
:1040F0001448154B9847DCE728460E4B98470E4B63
:104100001968002908BF0121091A104B83FB0123FC
:10411000C917C1EBA3110E48054B9847C9E700BF6B
:104120005D3F0108A8400020E15E010850F602084A
:104130002D770108055E0108204700201FBF0200FF
:104140003D5D010848640020BD880108D34D621020
:1041500074F602082DE9F04182B004464748484B06
:104160009847012626700025C4F8585A454BC4F8D4
:104170007C3104F5BE70444B9847444BB3F805308E
:1041800003EB830303EB83039B0084F8BC310A2316
:1041900084F880310B2384F8813184F8C0510823DE
:1041A00084F8E83184F8EA3184F8F36184F8245221
:1041B000092384F84C3284F84E32022384F85732B3
:1041C00084F89063042284F8B82384F8BA2384F82E
:1041D000C363052284F8B92384F8BB2384F8F4630D
:1041E000062284F81C2484F81E2484F8273407222D
:1041F00084F81D2484F81F2484F8A16284F8905266
:1042000084F8885284F8253384F8146384F80C63A6
:1042100084F8296084F82B3084F82C3084F87930C5
:10422000032384F87B3084F87C30DFF87880D8F87A
:104230001430019500952A46154904F53070154F44
:10424000B847D8F81830019500952A46124904F568
:104250005170B847019500962B462A460F4904F540
:104260003970B847019500962B462A460C4904F54B
:104270005A70B84702B0BDE8F08100BFD8F8020814
:104280002D770108ECF80208E155010818370020E5
:10429000F4F802080D5E0108FCF8020804F90208AF
:1042A00018F902081030002010B50446D0F85C2A36
:1042B0001D4BA3FB0212D0F8501AA3FB0131920947
:1042C00089091A481A4B9847D4F8580A50B9194B1B
:1042D0001B68002B08BF0123C4F8503A0123C4F81F
:1042E000583A10BD94F884317BB9124B1B68002BEF
:1042F00008BF0123D4F8502A9B1AC4F85C3A04F58D
:10430000BE700D4B98470120EBE794F88331042BE6
:1043100004D00A48064B98470320E2E70848044BBC
:1043200098470220DDE700BFD34D621090F80208E5
:104330002D7701082047002065540108CCF80208B9
:10434000B8F80208F8B504466248634B9847012361
:1043500084F8483A251D2846604B98472846604B0C
:104360009847604B1B68002B08BF0123181AB0F553
:10437000FA6F00DAF8BD04F15400584B984704F581
:1043800022752846584B984704F530763046544BF2
:104390009847544B1B68002B08BF0123181AB0F52F
:1043A000FA6FE7DB04F5437738464F4B98472846CA
:1043B0004E4B984718B938464C4B984718B14C4863
:1043C000454B9847D6E73046454B9847454B1B68C9
:1043D000002B08BF0123181A41F2873398420DDDE4
:1043E00004F551703E4B98473E4B1B68002B08BFAD
:1043F00001231B1A41F28732934203DC3D48364BBE
:104400009847B7E704F56476002130463A4B984761
:1044100004F565752846324B9847324B1B68002BD4
:1044200008BF01231B1AB3F5FA6FA3DB04F57D77F0
:1044300000213846304B98473046304B984718B9E2
:1044400038462E4B984718B12D48234B984791E793
:104450002846234B9847234B1B68002B08BF01239A
:104460001B1A41F28732934203DC26481A4B9847C5
:1044700080E704F57E701A4B98471A4B1B68002B97
:1044800008BF01231B1A41F287329342EDDD04F588
:10449000E076002130461C4FB84704F5097500212D
:1044A0002846B84700213046134B984704F5E27080
:1044B0000B4B98470B4B1B68002B08BF01231B1AA3
:1044C000B3F5FA6FFFF656AF002128460A4B98471E
:1044D00050E700BF38F902082D7701083D5901085F
:1044E000055E01082047002001400108713F0108D6
:1044F00044F9020854F9020879560108E9560108FE
:1045000078F902088CF902081D5901082DE9F04FCD
:1045100083B0044600F68420714B984704F526606A
:10452000704B9847072384F8483A6F486F4B984779
:10453000261D30466E4DA847009004F154073846BA
:10454000A847019004F5E07528466A4B984704F5A2
:10455000E270694B9847694B1B68002B08BF012329
:10456000181AB0F5FA6F02DA03B0BDE8F08F04F55F
:10457000097A50465F4B98472846614B984718B9CF
:1045800050465F4B984718B304F5227B58465D4B65
:10459000984704F5307840465B4B9847574B1B686B
:1045A000002B08BF0123181AB0F5FA6FDCDB04F505
:1045B00043794846534B98475846544B984718B947
:1045C0004846524B984750B15148484B9847CBE723
:1045D0005048464B984720464F4B9847C4E74046C3
:1045E000494B9847454B1B68002B08BF0123181AFD
:1045F00041F2873398420DDD04F55170424B9847E4
:104600003E4B1B68002B08BF01231B1A41F2873267
:10461000934203DC4148354B9847A5E704F5647B9A
:10462000002158463E4B984704F56570364B984735
:10463000324B1B68002B08BF01231B1AB3F5FA6F1E
:1046400092DB04F57D73002198461846344B984759
:1046500058462B4B9847002837D14046284B98475F
:10466000002832D1009B002B33D141F64C51284613
:104670002C4DA84741F64C515046A84704F5BE7052
:10468000294B98473046294B984730461A4B984754
:104690001A4B1B68002B08BF01231B1AB3F5FA6FD6
:1046A000FFF662AF3846214B98473046204B98477B
:1046B00000287FF459AF38461D4B984700287FF4F7
:1046C00053AF1C48094B98474EE71B48074B984788
:1046D0004AE7019B002BC8D01848044B9847C4E711
:1046E0003D5D0108855D010850F702082D7701083E
:1046F000215901080D560108095E010820470020D4
:10470000E956010801400108055E0108713F0108F2
:1047100044F902085CF702084543010854F902080D
:10472000795601081D590108E1530108D9590108BA
:10473000A95901087CF7020878F902086CF7020809
:104740002DE9F041044600F68420484B984704F5D3
:104750002660474B98474748474B9847062384F8BD
:10476000483A201D454DA847064604F15400A84785
:10477000074604F5E0752846414B984704F5E2707A
:10478000404B9847404B1B68002B08BF0123181A69
:10479000B0F5FA6F01DABDE8F08104F5097840461A
:1047A000374B98472846394B984718B94046374BFE
:1047B000984710B304F522752846354B984704F501
:1047C0003070344B9847304B1B68002B08BF0123D7
:1047D000181AB0F5FA6FDEDB04F5437840462C4B2F
:1047E000984728462C4B984718B940462A4B98477B
:1047F00050B12A48204B9847CDE72046284B984790
:1048000028481D4B9847C6E704F5647500212846E3
:10481000254B984704F565701E4B98471A4B1B684B
:10482000002B08BF0123181AB0F5FA6FB3DB04F5AB
:104830007D78002140461C4B98472846134B9847EB
:1048400048B94046114B984728B946B904F5BE709F
:10485000164B98479FE71648074B98479BE7002F52
:10486000F4D01448044B9847F0E700BF3D5D0108C1
:10487000855D01088CF702082D7701082159010890
:104880000D560108095E010820470020E95601087D
:1048900001400108055E0108713F010844F9020862
:1048A000454301085CF7020879560108E153010805
:1048B00078F902086CF7020870B5044639483A4B9B
:1048C0009847022384F8483A251D2846374B9847D5
:1048D0002846374B9847374B1B68002B08BF0123EE
:1048E000181AB0F5FA6F00DA70BD04F154002F4BBE
:1048F000984704F5227528462F4B984704F53070E9
:104900002B4B98472B4B1B68002B08BF0123181A11
:10491000B0F5FA6FE8DB04F543763046264B98474E
:104920002846264B984718B93046244B984700B381
:1049300004F5E0752846224B984704F5E270214BB8
:1049400098471C4B1B68002B08BF0123181AB0F5B1
:10495000FA6FC9DB04F509742046194B984741F6F4
:104960004C512846184DA84741F64C512046A847BF
:10497000BAE7002104F56470144B984704F565709C
:104980000B4B98470B4B1B68002B08BF0123181AD1
:10499000B0F5FA6FA8DB002104F57D700B4B98474A
:1049A000C6E700BF4CF802082D7701083D59010801
:1049B000055E01082047002001400108713F010801
:1049C0000D560108095E01081D59010879560108B4
:1049D0002DE9F04F83B0044600F684207A4B9847C7
:1049E00004F52660794B984779487A4B9847052318
:1049F00084F8483A04F564784046774DA84704F5B2
:104A00007D7A5046A84704F522763046734DA84774
:104A10008346009004F543773846A84781465B46B5
:104A20001BB130466E4B984718BB04F53970664B86
:104A30009847B9F1000F03D03846694B9847E8B959
:104A400004F55A70604B984704F5E0752846654BAD
:104A5000984704F5E270644B9847644B1B68002B41
:104A600008BF0123181AB0F5FA6F0CDA03B0BDE8DD
:104A7000F08F04F53970554B9847DAE704F55A7012
:104A8000524B9847E0E704F5097301931846554BDC
:104A9000984741F64C512846DFF888B1D84741F68F
:104AA0004C510198D8472846514B984718B901985E
:104AB0004F4B984700B3251D28464E4B9847284634
:104AC0004D4B9847494B1B68002B08BF0123181A10
:104AD000B0F5FA6FCADB04F1540B5846454B9847C2
:104AE0002846464B984718B95846444B984750B10A
:104AF0004348384B9847B9E74248364B98472046D9
:104B0000414B9847B2E74046364B984704F56570ED
:104B1000354B9847354B1B68002B08BF0123181AEB
:104B2000B0F5FA6FA2DB50462E4B98474046304B0B
:104B30009847D8B1009B2BBBB9F1000F02D0B9F157
:104B4000000F36D13046314B984704F53070264B74
:104B50009847264B1B68002B08BF01231B1AB3F58F
:104B6000FA6F83DB3846294B98477FE75046204B46
:104B700098470028DED12046254B98472548154BFD
:104B8000984773E7B9F1000F09D104F53970224B4A
:104B900098471428D3D93046204B9847D2E704F5DC
:104BA00039701D4B98471428EFD91D48094B984779
:104BB000C8E704F55A70184B98471428C2D93046F4
:104BC000164B9847BEE700BF855D01083D5D0108B3
:104BD000F8F602082D77010819570108513E01081F
:104BE0005D3F01080D560108095E010820470020BD
:104BF000E95601083D590108055E0108A959010857
:104C000018F7020804F7020845430108A940010803
:104C1000B948010828F70208FD5D010801400108B4
:104C20003CF702081D59010810B504462F48304BC7
:104C300098470B2384F8483AB4F94A2A2D4BB3F924
:104C4000A0309A4203DDB4F9D238A02B21DCB4F9AC
:104C50004A2A284BB3F9A2309A422EDCB4F94A2AE8
:104C6000244BB3F9A2309A423BDA04F52660224B7A
:104C70009847224B1B68002B08BF0123181A204BB2
:104C8000984202DC2378002B2BD020461D4B9847FE
:104C90002AE004F68420184B9847184B1B68002B19
:104CA00008BF0123181A164B984202DC2378002B08
:104CB000CDD02046144B984716E004F526600E4BE5
:104CC00098470E4B1B68002B08BF0123181A0C4B8A
:104CD000984202DC2378002BC0D020460B4B98472B
:104CE00002E020460A4B984710BD00BF2CF902088D
:104CF0002D77010818370020055E010820470020A5
:104D0000C02709000D450108D149010841470108A4
:104D1000B948010838B50F4B9B6BBBB90D4CB4F9C2
:104D20004C000D4B9847E16B0C4B98470546B4F887
:104D30004E000B4B9847014628460A4B98470A49B4
:104D40000A4B98470A4B984700B238BD014B186C84
:104D5000F8E700BF38310020C9800208617F0208EF
:104D6000C1800208718102080000C842D98202088D
:104D7000FD84020838B5054600F6D8042046084BE5
:104D80009847FF2807D02046054B9847283800EB66
:104D9000800000B238BD2846024B9847FAE700BFB2
:104DA000A15E0108154D010838B5104BD3F89030BD
:104DB000C3B90E4CB4F9A4000D4B9847D4F8941025
:104DC0000C4B98470546B4F8A6000B4B9847014694
:104DD00028460A4B98470A490A4B98470A4B984776
:104DE00000B238BD014BD3F89800F7E73831002006
:104DF000C9800208617F0208C1800208718102082F
:104E00000000C842D9820208FD84020838B5174B59
:104E1000D3F8903083B1154BD3F89840144920460D
:104E2000144B9847F8B900212046134B9847134B71
:104E30009847193800B238BD0C4CB4F9A400104B97
:104E40009847D4F894100C4B98470546B4F8A60040
:104E50000C4B9847014628460B4B98470B490C4B87
:104E600098470446DAE70B48E5E700BF38310020F1
:104E7000000096C399840208617F0208FD8402083D
:104E8000C9800208C1800208718102080000C8427E
:104E9000D9820208D4FEFFFF38B505460B4B984770
:104EA000044610F5967F01D0204638BD05F6D8059A
:104EB0002846074B9847FF28F6D02846044B9847CA
:104EC0002D3800EB800004B2EEE700BF0D4E010864
:104ED0007D5E01082DE9F8430646404F1021384613
:104EE0003F4DA84780460F213846A84781460E21EE
:104EF0003846A847840044EA490444EA080464B2F6
:104F00000D213846A84744EAC000C0B2354B1B7893
:104F100083420AD0334B1870334B1B68002B08BFF9
:104F20000123324A1360BDE8F883304A10682E4AE4
:104F30001268002A08BF01222D4991F829404FF438
:104F40007A7101FB04F1121A91421ADA082B15D07A
:104F5000042B1CD00C2B1ED0022B20D00A2B22D0CD
:104F6000062B24D00E2B26D0012B28D0092B2AD09B
:104F7000052B2CD1FA2386F84C3A02E0C82386F898
:104F80004C3A96F84C1A1B481B4B9847CBE7C82362
:104F900086F84C3AF5E7C82386F84C3AF1E7C8237F
:104FA00086F84C3AEDE7C82386F84C3AE9E7D22375
:104FB00086F84C3AE5E7DC2386F84C3AE1E7E6234D
:104FC00086F84C3ADDE7F02386F84C3AD9E7DC2145
:104FD00086F84C1A0948084B9847D2E730640020FD
:104FE00049880108BE37002020470020C037002034
:104FF00018370020BCF702082D77010898F702083F
:10500000F8B51C4D162128461B4CA0470646172113
:105010002846A047074618212846A047800040EAB6
:1050200047003043C0B2154B1B7883420CD0144B61
:105030001B784BB9134B1B68002B08BF0123124A86
:1050400013600F4B01221A700F4B19680D4B1B6830
:10505000002B08BF01230D4A92F829404FF47A72C1
:1050600002FB04F25B1A9A42BCBF044B1870034B5C
:105070001878F8BD3064002049880108C437002042
:10508000C537002020470020C837002018370020EF
:1050900070B582B004464F4E717D4F484F4DA847C2
:1050A00031684F48A84720464E4B984720464E4B04
:1050B0009847014684F804094C48A8474C484D4B92
:1050C0009847014684F805094B48A84794F80439E5
:1050D000052B0FBF94F80539062384F80539002302
:1050E00084F8483A94F8481A44483C4B9847444B53
:1050F000984700284AD12046424B9847054620460B
:10510000414B984706462046404B98470346324657
:105110002946201D3E4DA847B4F9D438B4F9D62805
:10512000B4F9D2183B482D4DA84720463A4B984732
:1051300094F84C2AA4F8D02894F8483A013BDBB202
:10514000022BB4F9D638B4F9D4180191B4F9D218B5
:10515000009194BF0021012104F608102F4DA847AB
:10516000D4F8403AB4F8D418C91A09B2A4F84A1AC3
:105170002B481A4B984794F8483A013B072B0BD819
:10518000DFE803F00C1014181C200A242548134BE8
:1051900098472046244B984702B070BD2046234BC9
:1051A0009847F9E72046224B9847F5E72046214BE0
:1051B0009847F1E720461C4B9847EDE720461E4BE9
:1051C0009847E9E720461D4B9847E5E72046164BF0
:1051D0009847E1E75C1B0020D0F702082D77010813
:1051E000ECF70208A94201080150010808F802087A
:1051F000A84000201B5F01081CF802082CF80208D8
:10520000452E0108754D0108994E0108A94D010868
:10521000E55C010858F80208D54E0108415C010818
:1052200084F802083CF80208B94801080D45010855
:1052300041470108D1490108294C010845430108AB
:10524000114B1A68114B1B68002B08BF01239B1AD6
:1052500047F23052934214DD70B504460B4B1B6885
:10526000002B08BF0123084A136000F53070084E78
:10527000B047084D686104F55170B047A86101203E
:1052800070BD0020704700BFCC37002020470020B1
:10529000F95D010810300020224B0022C3F864247D
:1052A000C3F86824012083F858041F49C3F8601428
:1052B000C3F88425C3F8882583F87805C3F88015DA
:1052C000C3F8A426C3F8A82683F89806C3F8B02725
:1052D000C3F8A016C3F8C027C3F8C42783F8B407DF
:1052E000C3F8CC28C3F8BC17C3F83C2AC3F8402A3B
:1052F0000E49C3F8441A83F80E2941F28831C3F8E5
:105300002419C3F82C190521C3F818191421C3F85E
:105310002019C3F814293022C3F81C299622C3F897
:1053200028297047D0370020E8620020E09304006D
:105330007047704743888B4203D983888B4298BF5C
:10534000018000207047000070B50E460E4C0146EB
:1053500020460E4DA8473146A01DA84720880C4B7B
:105360001B88834204D10B4B1A88E3889A4209D0E8
:10537000074B1880044BD988064B198000231A4626
:10538000054CA04770BD00BF7C420020355301088A
:10539000784200207A420020C1D40108008870477A
:1053A00070B5044609480A4B98470A4E01222179F4
:1053B0003046094DA847002261793046A847074B7F
:1053C0001B68002B08BF0123636370BD18FA020835
:1053D0002D77010848640020BD880108204700207F
:1053E00070B5044609480A4B98470A4E00222179B5
:1053F0003046094DA847012261793046A847074B3E
:105400001B68002B08BF0123A36370BD24FA0208A8
:105410002D77010848640020BD880108204700203E
:1054200010B504460548064B9847208E41F2931369
:10543000984294BF0020012010BD00BFF0F902087F
:105440002D77010810B504460448054B9847208E77
:10545000B0F5FA7F8CBF0020012010BD04FA0208CD
:105460002D77010810B50446C379062B3CD8DFE838
:1054700003F00412373C9C719F004F4B984710B9C2
:105480000223E37130E020464C4B98470123E3713F
:105490004B4A136028E04B4B9847F0B9626B4A4B7C
:1054A0001B68002B08BF01239B1A49F63F42934219
:1054B0001ADD2046454B98472046424B984794F8C2
:1054C0003C30002814BF1846581C84F83C000623C2
:1054D000E3713F483F4B984706E00023E37103E048
:1054E0003A4B98470323E37110BD334B984790B173
:1054F000334B1B682BB92046304B98470523E3718B
:10550000F2E72046314B98470023A3710422E27151
:1055100084F83C30E8E7A26B2B4B1B68002B08BFDC
:1055200001239B1A49F63F429342DDDD2046274B7B
:1055300098472046204B984794F83C30002814BFE9
:105540001846581C84F83C000623E3712248214B7E
:105550009847C9E71B4B9847F0B9626B1A4B1B6819
:10556000002B08BF01239B1A49F63F429342BBDD43
:105570002046164B98472046124B984794F83C30EB
:10558000002814BF1846581C84F83C000623E37119
:105590001248104B9847A7E720460C4B9847032327
:1055A000E371074B01221A609EE7012303729BE718
:1055B0000123037298E700BF45540108A153010875
:1055C000884200202154010820470020E1530108AF
:1055D000B0F902082D770108C4F90208D8F90208C9
:1055E000002303728371C37180F83D3080F83C3032
:1055F0000386704708B590F828100248024B984778
:1056000008BD00BF486400208788010838B50446FB
:10561000114B984700B138BD251D28460F4B9847C0
:105620000F4B1B68002B08BF0123181A42F20F739F
:10563000984203DC2046084B984748B1012294F871
:1056400028100848084B98472846084B9847E2E737
:105650000748084B9847DEE7F5550108055E010845
:105660002047002048640020BD8801083D5D0108F6
:1056700030FA02082D77010870B50446124B98479E
:1056800000B970BD251D2846104B9847104B1B686C
:10569000002B08BF0123181A42F20F73984203DC53
:1056A0002046094B984758B9002626662846094BDC
:1056B0009847324694F828100748084B9847E0E787
:1056C0000748084B9847DCE7F5550108095E0108D3
:1056D00020470020855D010848640020BD8801083E
:1056E00054FA02082D77010808B5074B1B7813F010
:1056F000040F05D190F82A100448054B984708BDBF
:10570000044B9847FBE700BFB8300020306400200E
:1057100049880108F55501082DE9F04182B0044699
:1057200090F8323003F0150380F832300B217148C5
:10573000714B984718B994F83330012B6FD0092179
:105740006C486D4B984718B994F83330022B66D0EB
:1057500094F8323023F0020384F83230082165488F
:10576000654B984728B908216448654B984701283C
:105770005CD009215F48604B9847002864D094F8BA
:10578000323023F0010384F83230042159485A4B57
:10579000984728B904215948594B9847012861D0A6
:1057A00006215448544B9847002869D094F8323069
:1057B00023F0040384F8323005214E484E4B9847BD
:1057C00028B905214D484E4B9847012866D007213E
:1057D0004848494B984700286BD094F8323023F062
:1057E000080384F832302378002B6DD094F83360AE
:1057F00094F8327004F13C052846424B98478046A5
:105800002846414B9847009043463A4631463F4828
:105810003F4DA84794F8320002B0BDE8F08194F8FB
:10582000323043F0020384F8323097E794F8333093
:10583000012B9ED12378002B9BD194F8323043F07A
:10584000010384F83230A0E709212C482C4B9847FB
:10585000012894D194F83330022B90D12378002B77
:105860008DD1EAE794F83330012B99D12378012BBD
:1058700096D194F8323043F0040384F832309BE739
:1058800006211E481E4B984701288FD194F83330CB
:10589000022B8BD12378012B88D1EAE794F833309F
:1058A000012B94D194F8323043F0080384F832305D
:1058B00099E707211148124B984701288DD194F898
:1058C0003330022B89D1EDE794F8336094F83270CD
:1058D00004F13C0528460B4B9847804628460A4B66
:1058E0009847009043463A4631460A48084DA84733
:1058F00090E700BF30640020498801084864002018
:1059000087880108015E0108FD5D0108A4FA02080C
:105910002D77010878FA0208008E704701867047DB
:105920000020704708B590F827100248024B9847AE
:1059300008BD00BF486400208788010810B50446F0
:10594000114B984700B910BD2046104B9847104B9B
:105950001B68002B08BF0123181A42F20F739842EC
:1059600003DC2046084B984748B92046094B984726
:10597000002294F827100848084B9847E3E70848A6
:10598000084B9847DFE700BF25590108095E010869
:1059900020470020855D010848640020BD8801087B
:1059A000F8FA02082D77010808B5074B1B7813F0A9
:1059B000040F05D190F828100448054B984708BDFE
:1059C000044B9847FBE700BFB8300020306400204C
:1059D000498801082559010810B50446114B98471C
:1059E00000B110BD2046104B9847104B1B68002B90
:1059F00008BF0123181A42F20F73984203DC2046B5
:105A0000084B984748B1012294F827100848094BE1
:105A100098472046084B9847E3E70848084B9847C3
:105A2000DFE700BF25590108055E01082047002077
:105A300048640020BD8801083D5D0108D0FA0208D5
:105A40002D77010870B40A68C1F828218B699A4241
:105A5000C8BFC1F828315B42D1F828219A42B8BFAB
:105A6000C1F828318B79002B00F084804A6A002A23
:105A700040F09980CB694B624C69D1F81831A34250
:105A8000A4BF0023C1F81831D1F8183101EB83000D
:105A9000002585620D791DB1D1F82861002E08DC42
:105AA0004E791EB1D1F82861002E02DBD1F82861B1
:105AB000866201339C42D8BF0023C1F8183100230D
:105AC000C1F82C319C420BDD18460A3251F82220D5
:105AD00010440133DBB21A469C42F6DCC1F82C01BB
