:020000040801F1
:10000000D07F0010516001088901010889010108B1
:100010008901010889010108890101080000000027
:100020000017011003F8A25900000000890101081F
:10003000890101080000000095660108855F01083C
:100040008901010889010108890101088901010864
:100050008901010889010108890101088901010854
:100060008901010889010108890101088901010844
:100070006D0A020849710108D1090208B17001082E
:10008000890101088901010889010108F11D02089F
:100090001D21020809220208D5240208890101084D
:1000A0008901010889010108890101088901010804
:1000B000BD7A0108F97A0108357B01080D7601083F
:1000C000917501086D140208F113020889010108F5
:1000D00089010108890101088901010889010108D4
:1000E00089010108890101088901010889010108C4
:1000F00089010108890101088901010889010108B4
:100100008901010889010108717B01088901010841
:100110008901010889010108AD7B010889010108F5
:1001200089010108890101083910020889010108C3
:10013000890101088901010889010108691F020874
:10014000F5220208E5230208E524020889010108D6
:10015000BD6901089D0F020829690108890101088C
:100160008901010889010108890101088901010843
:100170008901010889010108890101088901010833
:100180008901010889010108FEE7000010B5054C4E
:10019000237833B9044B13B10448AFF30080012333
:1001A000237010BD0000002000000000240103089F
:1001B00008B5034B1BB103490348AFF3008008BDEA
:1001C00000000000040000202401030870B584B082
:1001D00005460E4604AB002443F8044D0092FF226E
:1001E000084CA047044638B1039A29460648074BF5
:1001F0009847204604B070BD324629460448034B58
:100200009847F6E7C1BB0108388A0208A16C0108CB
:10021000288A020830B585B0054604AB002243F8B1
:10022000042D0091FF220C490C4CA04740B9044614
:100230000B4909480B4B984740B1204605B030BDEB
:1002400029460948094B98470024F6E729460848FB
:10025000064B98470124F0E7E0140020C1BB0108D9
:10026000D8880208E97F02089C8A0208A16C01086C
:10027000B48A020870B582B005460E4602AC00236F
:1002800044F8043D13462246094CA047044640B1B9
:10029000019B324629460748074DA847204602B031
:1002A00070BD324629460548034B9847F6E700BF24
:1002B00011BC0108708A0208A16C0108608A02085A
:1002C000F8B507460D4616461C461A460B490C4B18
:1002D0009847034628B9094928460A4B98470346D8
:1002E00008B91846F8BD224629463846064B9847B5
:1002F0000346326801323260F3E700BFE0140020A9
:10030000CD010108E97F0208750201082DE9F047D7
:1003100084B081460E469046002303930146274849
:10032000274B984727494846274B984700282DD008
:1003300026494846244B984700282DD14246244957
:100340002448254B984706EB860676000024DFF804
:10035000B4A0224D224F0120D0470134CDF80080B7
:1003600003ABFF2229464846B847D0B91D49284665
:10037000154B9847E8B129461B48114B9847A642B0
:10038000E9DA494619480E4B98470FE042461049B2
:100390001748114B9847D6E749461648084B9847E7
:1003A000D1E7154A49461548054B984704B0BDE8C2
:1003B000F08749461248024B9847F7E7A48802089D
:1003C000A16C0108D0880208E97F0208F8880208B9
:1003D000DC8802080489020875020108E014002084
:1003E000C1BB0108D8880208448902084C89020868
:1003F000E48802081889020838890208288A020855
:10040000B48A0208696401088AB110B44C1E114410
:100410000139084A14F8013F4340DBB252F8233057
:1004200083EA10208C42F5D1C04310BC7047C04312
:10043000704700BFCC8A020838B505460C1F22461B
:1004400001464FF0FF30054B98472B19020E2A55F5
:10045000020C5A70020A9A70D87038BD090401085B
:1004600038B50546054C4FF0FF312046044B984700
:10047000044B1D702046044B984738BDE016002001
:10048000A5650108E41600202166010838B5084B6F
:100490001C780CB9204638BD064D4FF0FF31284678
:1004A000054B9847024B1C782846044B9847F1E7C8
:1004B000E4160020E0160020A56501082166010869
:1004C00010B5044601460C480C4B984758B10C4BEC
:1004D00001221A6021460B48084B984738B90A4B4D
:1004E00000221A6010BD064B00221A60F2E7064B8C
:1004F00001221A60F6E700BFD08802081502010841
:10050000F01A0020F8880208F41A00202DE9F04FB4
:10051000BFB004460220AA4B98478CB12546002460
:10052000DFF85883A74FA84E98F800202146384698
:10053000B04701344FF47A70A44B9847AC42F3D1E2
:1005400003209F4B9847002308931C46DFF830B3E5
:100550009D4E0FE1002D4FF0FF30C8BF0020002D51
:1005600040F3C9809A4D224629469A489A4B9847AB
:100570009A4B294605F1120011F8012B03F8012FBF
:100580008142F9D1924D224629469548924B98478F
:1005900029469448B047944B294605F1120011F8BA
:1005A000012B03F8012F8142F9D1894D22462946BA
:1005B0008E48894B984729468D48B0478D4B294630
:1005C00005F1140011F8012B03F8012F8142F9D134
:1005D000224605218848894DA8472246052188489A
:1005E000A847DFF8A0A223460AAA51468548864DAF
:1005F000A847DFF8889299F8003003EB43012346BF
:100600000AAA824850F821108148A847DFF878826A
:1006100023460AAA41467F48A8477F4F23460AAA95
:1006200039467E48A84723460AAA51467C48A8472F
:1006300099F8003003EB430123460AAA794850F8A1
:1006400021107948A84723460AAA41467748A84777
:1006500023460AAA39467648A84705460A9900293A
:1006600078D1744E002231467348744CA047002262
:1006700031467348A04700223C215F485F4CA047A9
:10068000002205215E48A04729466E484E4B9847F8
:10069000002D40F03D836C484B4B98470A246B4E2D
:1006A000DFF8AC81484F002108A8B047B0F1FF3F08
:1006B00040F0EC80013C14F1020F00F02D83089B08
:1006C00040F20B22934200F00483B3F5147F00F054
:1006D0000983B3F5027F00F00E8321465C483A4C53
:1006E000A04708995B48A0476420384B98476FF0B3
:1006F0000203079325E007461AE029465648B0470B
:100700005648B0476420314B984736E02946524856
:10071000B0475348B04764202C4B98472DE02946FA
:100720004D48294CA0474F48A0476420274B984785
:100730004D48254CA04739464248A0474FF0FF336B
:100740000793079BB3FA83F040093FB0BDE8F08FF1
:100750000746EDE74548B047224645494548374BEF
:100760009847054643F69820184B98470A9B002B5C
:100770003FF477AF0A9424946425214624A8D847EF
:10078000B0F1FF3F7FF4E6AE013DB5F1FF3FDFD0B2
:10079000249B40F20B229342AFD0B3F5147FB5D027
:1007A0000746B3F5027FBAD029462B48064CA0472E
:1007B00024993148A0476420044B9847B8E700BF0C
:1007C0006104010814850208A16C0108696401082C
:1007D000E0150020E8850208CD010108371C002043
:1007E000F4850208008602084B1C002014860208CB
:1007F00020860208BF1B0020D08802080D030108D4
:10080000F888020830860208C102010868890208D7
:100810003C86020850860208608602086886020844
:1008200078860208C8890208848602088C86020835
:100830009C86020824EB0208EC8602087502010877
:1008400004870208C88502081C870208F5BC010855
:100850003087020860870208288502083085020870
:100860005485020868850208AC850208AC86020837
:100870007CFC0208DC8602088C8502080C00001053
:1008800059BC0108608F0208448602080795002CB5
:1008900040F3468208AF002400943B4606221146EE
:1008A0002046DFF814A3D047224639462046DFF819
:1008B0000C93C84704940397029401940126009670
:1008C000B34B324644F248312046DFF8F482C04749
:1008D00000943B46062211463046D0472246394610
:1008E0003046C84704940397029401940096A84B9D
:1008F000324644F248313046C0470DF1F80908232A
:1009000049F8D43DDFF8BC820194009743464A463B
:10091000314640F2F230DFF8B0A2D04701940097A0
:1009200043464A46314640F21E50D047DFF89C828B
:100930000194009743464A46314640F2FE30D04784
:100940000194009743464A46314640F22A50D04728
:10095000DFF87CB2DFF87C8298F8003003EB4303C9
:100960008C4800EB83039868019400975B464A46E5
:100970003146D04798F8003003EB4303864A02EB38
:1009800083039868019400975B464A463146D047F6
:1009900004940397029401940096334640F2F23295
:1009A00040F2E93120467D4DA84705940497DFF8D1
:1009B0002892B9F80030039302960196744B009385
:1009C0002346774A40F2E9312046DFF810B2D84793
:1009D000744A07CA0DF1280C8CE807000DF1900A43
:1009E000714A92E803008AE8030001940097634685
:1009F000324640F2E93120466C4DA84701940097F9
:100A00005346324640F2E9312046694DA8470494E6
:100A10000397029401940096334640F2FE3240F26E
:100A20001A4120465D4DA84705940497B9F8003057
:100A3000039302960196564B00932346584A40F280
:100A40001A412046D8470DF1280C5A490FC9ACE885
:100A500007008CF80030544A92E803008AE803004B
:100A6000019400970DF1280C6346324640F21A417A
:100A700020464E4DA847019400975346324640F217
:100A80001A4120464A4DA84798F8001001FA06F38B
:100A90005A18404800EB820292680B4400EB830333
:100AA00059680494039702940194009623462046C3
:100AB0003A4DA84798F8003003EB43033548054604
:100AC00000EB8303596805940497B9F80030039349
:100AD000029601962E4B00932346314A2046D84772
:100AE0000DF1280C33490FC9ACE807008CF8003031
:100AF00098F8003003EB430305EB83035968019436
:100B000000970DF1280C634632462046274DA84732
:100B100004940397029401940096334640F21E52C7
:100B200040F2E93130461D4DA84705940497B9F8C5
:100B30000030039302960196154B00932346184A02
:100B400040F2E9313046D847164A07CA0DF1280C61
:100B50008CE80700144A92E803008AE80300019435
:100B600000976346324640F2E93130460F4DA847C0
:100B7000019400975346324640F2E93130460C4D1D
:100B8000A84704940397029401940096334627E003
:100B900040420F0068890208C8890208EDBE0108BA
:100BA00020A1070084870208608602085DBF010853
:100BB00031C0010890870208DDBD010835BE01087B
:100BC00079BE0108000000108DC00108040000106B
:100BD000080000100C0000105E1C0020B9BF0108C6
:100BE00040F22A5240F21A4130464F4DA847059430
:100BF0000497B9F800300393029601964B4B00938B
:100C000023464B4A40F21A413046D8470DF1280C92
:100C100048490FC9ACE807008CF80030464A92E812
:100C200003008AE80300019400970AAA134632469B
:100C300040F21A413046414DA8470194009753466F
:100C4000324640F21A4130463D4DA84798F8001010
:100C500001FA06F35A183B4800EB820292680B44F3
:100C600000EB83035968049403970294019400965F
:100C7000234630462C4DA84798F8003003EB430339
:100C80003048054600EB8303596805940497B9F88A
:100C90000030039302960196244B00932346244A86
:100CA0003046D8470DF1280C22490FC9ACE807009F
:100CB0008CF8003098F8003003EB430305EB830316
:100CC0005968019400970AAB324630461B4DA8473D
:100CD00037E521464046B8471B48B84764201B4BC0
:100CE0009847E0E421464046B8471948B847642091
:100CF000164B9847D7E421461648174CA04717488B
:100D0000A0476420114B98476FF00103079318E543
:100D10004FF0FF33079314E56FF00303079310E5DB
:100D20006FF0030307930CE5EDBE010840420F008E
:100D300020A1070090870208608602085DBF0108B5
:100D400031C00108C88902084087020869640108A7
:100D50005485020830870208A16C010868850208E2
:100D60002DE9F04F93B04FF0000BDFF818A2CDF84B
:100D700018B000F01BBC6E4B9847009023236D4ABF
:100D80006D496E486E4CA047694B9847002844D087
:100D90006C4B9847009009AB0022022108466A4C30
:100DA000A0476A4B9860002874DB684C41F62C33EE
:100DB000A38001466648624B98474FF00203ADF8A6
:100DC000283000230B93A088624B9847ADF82A0087
:100DD000A4685C4B9847009009AB20220AA92046E2
:100DE0005D4CA04700285ADB584B01221A601DE0D9
:100DF00009995A48524B9847C6E712AC54F8241D3B
:100E000057484F4B9847574B9D684E4B9847024663
:100E100021462846544B9847B6E7454B98470090E3
:100E20002323444A44494548454CA047404B9847F2
:100E3000002844D0434B9847009009AB0022022180
:100E40000846414CA047494B9860002845DB474C79
:100E500044F24923A38001463D48394B98474FF05F
:100E60000203ADF8283000230B93A088394B984734
:100E7000ADF82A00A468334B9847009009AB2022B4
:100E80000AA92046344CA04700282BDB374B01220F
:100E90001A601DE009993148294B9847C6E712AC02
:100EA00054F8241D2E48264B9847284B9D68254B07
:100EB00098470246214628462B4B9847B6E71C4BDD
:100EC0009847009023231B4A1B491C481C4CA047F1
:100ED00000230A93264D274C1FE009991F48184B01
:100EE0009847F5E712AC54F8241D1D48144B984759
:100EF0001E4B9D68134B98470246214628461A4BC5
:100F00009847E5E7002109A81B4B98470690002861
:100F10003AD04FF47A70194B98470020A8472368BD
:100F2000002BEFD1164B1B68002BF2D0EAE700BF75
:100F3000691A0108E88E0208A0870208B88702082B
:100F4000A16C0108751A010819AE0108A41C002043
:100F5000F487020839B001086DAE0108DC87020889
:100F600004880208D01C0020C5AE0108781C0020AF
:100F7000C1040108F01A0020A5BD01086964010838
:100F8000F41A002088450020744F754C39682046BB
:100F9000744DA84739687448A847DFF8049299F857
:100FA000003003EB4303714A02EB830358684FF0B0
:100FB000000BCDF804B009AD00953B682246012135
:100FC000DFF8E081C0470146694E3060099A694800
:100FD000694CA0473B6899F8002002EB4202674940
:100FE00001EB82025068CDF804B000955E4A012101
:100FF000C0470146624F3860DFF8AC91099A484615
:10100000A0475B462A46012140F2E930DFF89C8187
:10101000C047316801433160099A5648A0475B4692
:101020002A46012140F2E930C0473968014339605E
:10103000099A4846A0475B462A46012140F21A40D9
:10104000C047316801433160099A4A48A0475B466E
:101050002A46012140F21A40C047396801433960ED
:10106000099A4846A047DAF80090D94508BF4FF0E2
:101070000109DFF83C814F46AEE0424B186800287A
:1010800040F30C81404A414B184413F8011B02F80D
:10109000011B8342F9D101E13A4B1868002840F363
:1010A00013813B4A394B184413F8011B02F8011B0A
:1010B0008342F9D108E1374B1868002840F31D81BD
:1010C000354A324B184413F8011B02F8011B8342C6
:1010D000F9D112E12F4B1868002840F325812F4ADF
:1010E0002A4B184413F8011B02F8011B8342F9D163
:1010F0001AE11A4B1B682A4A127802EB42021B497A
:1011000001EB820250680022019209AE0096144A57
:101110000121244CA047164C2060099A06991548D5
:10112000154DA84700233246012140F2E930DFF88F
:101130007CB0D847216801432160099A0D48A8472F
:1011400000233246012140F21A40D847216801436A
:101150002160099A0748A847C4E100BF08000010B1
:10116000AC1100203904010810120020688902081F
:10117000601C00201C880208A16C0108C8890208B4
:10118000641C0020000000101C100020E816002045
:101190008010002004000010E410002048110020FE
:1011A0000C000010E9C001083888020861C101087C
:1011B00084120020A648A74B9847DAF800000028C0
:1011C00008BF0120A0EB0900B0F5FA7F80F0C381D1
:1011D000C0F5FA70A04B9847A04B9847042840F000
:1011E000C381DAF80090B9F1000F08BF4FF0010990
:1011F000D8F800300133C8F80030994C4FF0FF3177
:101200002046984B9847D8F80020130643EA12630B
:10121000110A01F47F410B43120202F47F021343CF
:10122000914E3360914A13602046914B9847DFF806
:1012300064B2904D2B7803EB43038F4A02EB830398
:1012400058680024009409ABDBF8002031468B4E2F
:10125000B047DBF800202B7803EB4303884901EB10
:1012600083035868009409AB8049B04764207A4BE7
:10127000984712A941F8204D049409AB0393814B80
:101280000293814B01930DAB00930CAB0BAA40F280
:10129000E9307E4CA04700283FF4EFAE002312A9AE
:1012A00041F8203D049309AB0393764B0293764BB0
:1012B00001930DAB00930CAB0BAA40F2E930734CD9
:1012C000A04700283FF4E8AE6420634B9847002312
:1012D00012A941F8203D049309AB03936C4B029390
:1012E000694B01930DAB00930CAB0BAA40F21A4073
:1012F000664CA04700283FF4DEAE002312A941F857
:10130000203D049309AB0393614B02935E4B019321
:101310000DAB00930CAB0BAA40F21A405B4CA047FC
:10132000069000283FF4D6AE64204B4B98474FF010
:10133000FF314B484B4B9847564B1A68002A08DD43
:101340004949554B9C1813F8010B01F8010B9C42BD
:10135000F9D1524B1968524B1B68994206D0DAF802
:101360000030002B08BF01234E490B60454B186825
:10137000002808DD49494A4B1D1813F8014B01F8B4
:10138000014BAB42F9D1484B1968484B1B68994255
:1013900006D0DAF80030002B08BF012344490B6067
:1013A0003B4B1968002908DD3F4C404B5E1813F891
:1013B000015B04F8015BB342F9D1002A08DD2B4C34
:1013C0003C4B1A4413F8015B04F8015B9A42F9D1D3
:1013D000394B1A68394B1B689A4206D0DAF800304C
:1013E000002B08BF0123364A1360002808DD324A6B
:1013F000324B184413F8014B02F8014B8342F9D1E8
:10140000304B1A68304B1B689A4206D0DAF800302D
:10141000002B08BF01232D4A1360002908DD294A4B
:10142000294B194413F8010B02F8010B8B42F9D137
:101430000B480F4B9847DAF80030002B08BF012308
:10144000DB1B41F2873293427FF7B7AE40E000BF2B
:1014500054880208A16C0108696401088D04010820
:10146000E0160020A5650108AC1100201012002034
:10147000216601080C00001068890208ADC101084E
:10148000C889020800000010E81600201DC20108EB
:10149000040000100800001018140020881200201A
:1014A0001C1000207412002050130020E4100020B3
:1014B0007C1200207C140020EC1200208010002000
:1014C00078120020B4130020481100208012002060
:1014D000DAF80070002F08BF0127674B1B68002B4C
:1014E0007FF407AE654B1B68002B3FF463AE644B83
:1014F0001B68644A127802EB4202634901EB8202E4
:1015000050680022019209AE0096604A0121604CA9
:10151000A0470146594C2060099A5E485E4DA84795
:1015200000233246012140F2E930DFF8C4B1D84748
:10153000216801432160099A5648A8470023324692
:10154000012140F21A40D847216801432160099ADD
:101550005048A8472EE6009040F212334F4A5049B7
:1015600050484D4CA04737E600204F4B98474F4C12
:10157000042120464E4B98474FF4FA704D4B984744
:10158000042120464C4B984705204C4B9847092492
:10159000484F4B4E404D6420B847069B079A214662
:1015A0003046A847013CB4F1FF3FF4D10221454841
:1015B000414B9847C8203F4B9847022141483C4B3C
:1015C00098471420404B98470790404B18600028DC
:1015D000CDD0364C04212046354FB8473220354D0A
:1015E000A84704212046344EB0476420A847042170
:1015F0002046B8473220A84704212046B04704209F
:101600002E4B9847324B9847324B984700283FF46F
:10161000B2AB314B9847009009AB0022022108463B
:101620002E4CA0472E4B98600028FFF6E1AB2C4CC7
:1016300041F62D33A38001462A48174B98474FF0B7
:101640000203ADF8283000230B93A088264B98475F
:10165000ADF82A00A468204B9847009009AB2022DF
:101660000AA92046214CA0470028FFF6C6AB1C4B18
:1016700001221A60FFF788BB601C0020641C002058
:10168000080000100C000010C88902081012002089
:10169000E9C0010838880208A16C0108DC8E020844
:1016A00064880208B8870208859D0108000C024082
:1016B0007D5B010869640108815B01086104010820
:1016C00080880208001002400D050108681C0020F7
:1016D000451A0108691A0108751A010819AE0108AE
:1016E000D01C0020F487020839B001086DAE010853
:1016F00061C1010810B582B0184B01221A60431E67
:10170000DBB2072B1DD8164A137064211548164CFE
:10171000A04764211548A04764211548A047154BF0
:1017200001221A70662300934FF48053124A00215D
:101730001248134CA047011E0EDA12480A4B984774
:101740000AE000904FF45F730F4A10491048064CAE
:10175000A047034B01221A7002B010BDE016002012
:101760000C000010B8840208A16C0108CC840208A7
:10177000E0840208E41600201C000020610D01082E
:10178000E1620108F4840208CC8E02086488020831
:10179000B887020838B56C4B1A686C4B1B68002B75
:1017A00008BF01239B1AC72B0FDD0446674B1B683C
:1017B000002B08BF0123644A1360654B9847042837
:1017C00006D00020634B187001E0624B187838BDDA
:1017D0004FF0FF316048614B9847614B1B681A0618
:1017E00042EA1362190A01F47F410A431B0203F41F
:1017F0007F0313435B4A13605B4B1868002810DDBE
:101800005A4A584B184413F8011B02F8011B834233
:10181000F9D15749534A12F8010B01F8010B9A42CA
:10182000F9D1544B1A68494B1B68002B08BF0123A0
:101830009B1AB3F5FA6F10DD012C10D04E4B1A68CD
:10184000424B1B68002B08BF01239B1AB3F5FA6FAC
:1018500036DD022C36D0002511E0022CEED0474BAD
:101860001868002808DD464A464B184413F8011B47
:1018700002F8011B8342F9D10125364B1D70424B02
:101880001A68324B1B68002B08BF01239B1AB3F563
:10189000FA6F2BDD012C2BD03C4B1A682B4B1B68AD
:1018A000002B08BF01239B1AB3F5FA6F38DD022C19
:1018B00038D02948364B9847264B00221A702CE026
:1018C000012C11D02D4B1868002808DD2C4A314B13
:1018D000184413F8011B02F8011B8342F9D11D4B78
:1018E00002221A700125CAE70025C8E7022CD3D0CE
:1018F000294B1868002808DD284A294B184413F89A
:10190000011B02F8011B8342F9D1124B01221A700C
:1019100011481F4B9847002DCED00E4B187856E734
:10192000012CC6D01C4B1868002808DD1B4A1D4B33
:10193000184413F8011B02F8011B8342F9D1054B2F
:1019400002221A70E4E700BFEC1A0020884500204C
:101950008D040108E81A0020E0160020A5650108A2
:1019600084120020D41B002008000010181400204E
:101970007C14002074120020781200200000001057
:10198000F81A0020881200207C120020801200200B
:1019900021660108EC120020040000105C1B0020EE
:1019A000E41000204811002070B582B000211A48D0
:1019B0001A4B98471A4900201A4B9847184D1A4C51
:1019C0001A4E294601A8A047B0F1FF3F1FD1019947
:1019D00040F20B2399420AD0B1F5147F0BD0B1F538
:1019E000027F0CD012480D4B984700200DE0304686
:1019F0000A4B9847E5E70F48084B9847E1E70E4840
:101A0000064CA0470D48A047002002B070BD0C480E
:101A1000024B98470120F8E7CC8F0208A16C01081F
:101A2000701C002091BB010875AD0108DC8F020815
:101A30001C9002085485020868850208F48F020889
:101A40003C90020808B5044B98470146034B1860C8
:101A50000348044B984708BDA91901086C1C0020D5
:101A6000B88F0208A16C0108014B1868704700BFCD
:101A70006C1C002000487047701C0020064A0023A0
:101A8000136093801361054A136093801361044AC5
:101A90001360938013617047D01C0020A41C0020A9
:101AA000781C0020002909DD431E1944002013F88A
:101AB000012F1044C0B28B42F9D17047002070470B
:101AC00070B58EB00D461446022806D01146284641
:101AD0001A4B984720460EB070BD194B9847002806
:101AE000F8D0184B1B68002BF4D00DF11702164BE1
:101AF00003F1200013F8011B02F8011F8342F9D102
:101B0000079B002BE6D00F4B9E68104B9847039025
:101B100005AB02932023019306AB009300232246DA
:101B2000294630460A4DA8470028D3DA00904923B9
:101B3000084A094909480A4DA847CBE7D566010874
:101B4000691A0108D01C0020DC1C0020751A01084D
:101B500009AF0108BC90020860900208B88702082B
:101B6000A16C01082DE9F84304460D461646544879
:101B7000544B9847EB78322B4BD0E4B218D9422B18
:101B800058D0502B6BD0402B41D14F484D4B9847EC
:101B900020464E4B98474E4C042120464D4B9847CB
:101BA00032204D4B9847042120464C4B98472EE05D
:101BB000102B29D0302B2AD1454E04213046DFF896
:101BC0001491C8473220444FB84704213046DFF80B
:101BD0000C81C0476420B84704213046C8473220F2
:101BE000B84704213046C0472B79DB093C4A1370C3
:101BF00020463C4B984704213046C8473220B8471E
:101C000004213046C04702E02046374B9847BDE8E4
:101C1000F88331462846354B98472D4C0421204601
:101C20002C4B984764202C4B9847042120462B4B83
:101C30009847ECE72E48234B9847314628462D4BD2
:101C40009847234C04212046224B98474FF4FA70C2
:101C5000214B984704212046204B9847D7E71C4E3C
:101C6000042130461B4B984732201B4B98470421D8
:101C700030461A4B98472B7913F0010F10D06B792F
:101C8000AA7942EA0322EB7943EA02231A4A12684C
:101C90002A7A42EA032229462046184B9847B6E79B
:101CA0006B79AA7942EA0322EB7943EA02232A7A82
:101CB00042EA032229462046114B9847A7E700BF76
:101CC0007C900208A16C010890900208112901087B
:101CD000000C02407D5B010869640108815B01081A
:101CE000B4300020992801082D280108892701080F
:101CF000A89002080D290108884500204920010804
:101D0000B11D010870477047002814DD0D4B5B685A
:101D1000834213DB10B50B4B9B68A3EB002000F54F
:101D200082234FF48072084CA34298BF1846074B99
:101D30009847002010BD4FF0FF3070474FF0FF3044
:101D4000704700BF08300020FF0F0400E5CC0108F9
:101D500000281DDD08B5114BDB6883421BDB0F4BF0
:101D60001B69A3EB002303F5C0000D4A904288BF16
:101D700018464FF4807200F580100A4B98470A4BC2
:101D80001B68002B08BF0123084A1360002008BD10
:101D90004FF0FF3070474FF0FF30F8E70830002079
:101DA000FFFF5F00E5CC010888450020002D0020E2
:101DB00070B50646294B1D6805F140042B460021ED
:101DC00003F8011B9C42FBD1F5232B7000236B70A1
:101DD0004023AB705123EB7021494B68180E68719A
:101DE000180CA871180AE8712B7248689042A8BFB5
:101DF0001046030E6B72030CAB72030AEB7228736E
:101E0000184B1B68002B08BF0123174A13601749A2
:101E1000174B9847A8B905F10D0305F11300154AB2
:101E200012F8011B03F8011B9842F9D105F11503C3
:101E300005F11C00104A12F8011B03F8011B98421F
:101E4000F9D13F2128460D4B984785F83F004022A5
:101E5000294630460A4B984770BD00BF100000105D
:101E6000083000208845002004300020042E002087
:101E7000091D0108062E00200E2E0020A51A0108BB
:101E8000C11A010810B582B0044600216846144BFF
:101E900098479DF8003084F89C309DF8013084F814
:101EA0009D309DF8023084F89E309DF8033084F810
:101EB0009F309DF8043084F8A0309DF8053084F8F8
:101EC000A130A6212046074B9847A4F8A600A822D7
:101ED00021464FF40070044B9847012002B010BD1A
:101EE0005D5D0108F1600108A9C7010870B586B001
:101EF00004466FF0720303706FF0550343700021C6
:101F000004A8294B98479DF81030A3709DF8113014
:101F1000E3709DF8123023719DF8133063719DF8C2
:101F20001430A3719DF81530E371FE2120461F4B3C
:101F30009847A4F8FE001E4D2A69E9681D481E4E08
:101F4000B0472379E278A178E0790290A0790190F6
:101F5000607900901948B0472D6905F58015C5F3E3
:101F60000B03EBB14FF4807221462846144B98477F
:101F70000F4B1B6903F58073124A934288BF0023FD
:101F80000B4AD26845F6EF718A4202D801320849FD
:101F9000CA60074803610C4B9847002006B070BD2B
:101FA00028460A4B9847DDE75D5D0108F1600108AE
:101FB00008300020D0900208A16C0108F4900208BB
:101FC0002DCE0108FFFF5F00851E0108D9CF010853
:101FD00008B5154B1A68154B1B68002B08BF012369
:101FE0009B1A41F2873293421DDD104B1B68002B78
:101FF00008BF01230C4A13604FF400610C480D4BDD
:10200000984700280FDD0C4A0C4B03F1F50013F83C
:10201000011B02F8011F8342F9D10948002380F80F
:10202000FD30084B984708BD002D00208845002052
:10203000FC240020292201080B2D0020012500206E
:10204000042D0020ED1E010870B5054616462F4BE5
:102050001C6804F586712346002203F8012B99427F
:10206000FBD140212A482B4B9847F52323700123AD
:1020700063700C23A3705123E370274B1B68002B64
:1020800008BF0123254A1360254AD368190E6171E0
:10209000190CA171190AE1712372D068B042A8BF6E
:1020A0003046030E6372030CA372030AE3722073BB
:1020B0001C491D4B9847D0B904F10D0304F11300DE
:1020C0001A4A12F8011B03F8011B8342F9D104F1EB
:1020D0001402174B03F1F50013F8011B02F8011F5E
:1020E0008342F9D10F4B93F8FD3084F80A3140F266
:1020F0000B1120460F4B984784F80B014FF4867262
:10210000214628460C4B984770BD00BF10000010B8
:10211000001402407D5B0108884500200430002047
:1021200008300020042F0020511D0108062F002038
:102130000C2F0020A51A0108C11A01082F4B1A689C
:102140002F4B1B68002B08BF01239B1A42F20F7212
:10215000934252DD70B586B00446294B1B68002BB4
:1021600008BF0123254A1360002104A8254B984786
:102170009DF81030A3709DF81130E3709DF8123077
:1021800023719DF8133063719DF81430A3719DF88D
:102190001530E3711C4DAA6869681C481C4EB04795
:1021A0002379E278A178E0790290A07901906079B2
:1021B00000901848B047AD68C5F30B03CBB14FF49E
:1021C000807221462846144B984705F58075134ABE
:1021D000954288BF00250C4A5268B2F5806F02D242
:1021E000013209494A60084885600D4B984706B09E
:1021F00070BD28460B4B9847E1E77047FC2C002048
:10220000884500205D5D010808300020D490020858
:10221000A16C0108F49002082DCE0108FF0F040004
:10222000851E0108D9CF01082DE9F04F83B004467F
:1022300000F561710346002203F8012B8B42FBD1AC
:10224000F5232370032363708423A3703123E37089
:102250000026DFF830A1DFF830914FF0010807E0E9
:1022600008FA07F7635D1F4367550136262E19D01C
:102270003546002EB8BFF51DED100535734206F04A
:10228000070703F0070358BF5F4231465046C8476F
:10229000C0B20028E4D108FA07F7635D23EA070714
:1022A0006755E2E70026DFF8E4A0DFF8E4904FF09E
:1022B000010807E008FA07F7635D1F436755013619
:1022C000142E19D03546002EB8BFF51DED1015356A
:1022D000734206F0070703F0070358BF5F42314619
:1022E0005046C847C0B20028E4D108FA07F7635D3A
:1022F00023EA07076755E2E71D4E27460025DFF86A
:1023000094B0DFF894A0DFF894904FF001082AE031
:10231000B6F94C00D847F16B164B98470190B6F8C8
:102320004E00154B984701460198144B98471449A5
:10233000D047C84700B2C0F3072387F83E3087F87C
:102340003F002B46002DB8BFEB1DDB10363305F0E8
:10235000070208FA02F2E15C0A43E25401355836FA
:1023600002370E2D1CD0B36B002BD1D0306CE0E7C0
:1023700030310020D574020835760208E57602086F
:102380000000C84298620020BD7D0108B0620020B4
:10239000FB7D01083D7602084D780208717A02083B
:1023A000DC4D95F8C13784F8813095F8043984F80C
:1023B0008530D94B1A68130643EA1263110A01F4F7
:1023C0007F410B43120202F47F021343D34AA2FB64
:1023D00003239B0984F8F23005F506784046D04F78
:1023E000B847030E84F82C31030C84F82D31030A0E
:1023F00084F82E3184F82F014046CA4EB047030EB0
:1024000084F83031030C84F83131030A84F8323116
:1024100084F8330105F51D794846B847030E84F862
:102420003431030C84F83531030A84F8363184F8EA
:1024300037014846B047030E84F83831030C84F85E
:102440003931030A84F83A3184F83B0105F52779DC
:102450004846B847030E84F83C31030C84F83D31FC
:10246000030A84F83E3184F83F014846B047030E22
:1024700084F84031030C84F84131030A84F8423176
:1024800084F8430105F536794846B847030E84F8C9
:102490004431030C84F84531030A84F8463184F84A
:1024A00047014846B047030E84F84831030C84F8CE
:1024B0004931030A84F84A3184F84B0105F5B679AD
:1024C0004846B847030E84F84C31030C84F84D316C
:1024D000030A84F84E3184F84F014846B047030E92
:1024E00084F85031030C84F85131030A84F85231D6
:1024F00084F8530105F5D4794846B847030E84F8AB
:102500005431030C84F85531030A84F8563184F8A9
:1025100057014846B047030E84F85831030C84F83D
:102520005931030A84F85A3184F85B012846B847C8
:10253000030E84F85C31030C84F85D31030A84F8DF
:102540005E3184F85F012846B047030E84F860319D
:10255000030C84F86131030A84F8623184F8630162
:1025600028352846B847030E84F86431030C84F8F4
:102570006531030A84F8663184F867012846B0475C
:10258000030E84F86831030C84F86931030A84F877
:102590006A3184F86B014046634B9847634B1B6874
:1025A000002B08BF01231B1A5C4A82FB0312DB17B6
:1025B000C3EBA2131A0E84F86C211A0C84F86D2157
:1025C0001A0A84F86E2184F86F3105F51370564BA2
:1025D0009847564B1B68002B08BF01231B1A4F4A14
:1025E00082FB0312DB17C3EBA2131A0E84F87021CF
:1025F0001A0C84F871211A0A84F8722184F8733154
:10260000A5F12800484B9847484B1B68002B08BF92
:1026100001231B1A414A82FB0312DB17C3EBA213EF
:102620001A0E84F874211A0C84F875211A0A84F899
:10263000762184F8773128463B4B98473B4B1B6803
:10264000002B08BF01231B1A344A82FB0312DB173D
:10265000C3EBA2131A0E84F878211A0C84F879219E
:102660001A0A84F87A2184F87B314046304B984727
:102670002E4B1B68002B08BF01231B1A274A82FB25
:102680000312DB17C3EBA2131A0E84F87C211A0C79
:1026900084F87D211A0A84F87E2184F87F3105F5BB
:1026A0001370234B9847214B1B68002B08BF012355
:1026B0001B1A1A4A82FB0312DB17C3EBA2131A0E72
:1026C00084F880211A0C84F881211A0A84F8822166
:1026D00084F88331A5F12800154B9847134B1B68EC
:1026E000002B08BF01231B1A0C4A82FB0312DB17C5
:1026F000C3EBA2131A0E84F884211A0C84F88521E6
:102700001A0A84F8862184F887312846084B9847AE
:1027100010E000BFC43700205C1B0020D34D6210C6
:10272000B1530108AD530108B55301088845002095
:10273000B9530108114B1B68002B08BF01231B1A5A
:102740000F4A82FB0312DB17C3EBA2131A0E84F8A5
:1027500088211A0C84F889211A0A84F88A2184F8BD
:102760008B3140F283312046064B984784F883032F
:102770004FF4617003B0BDE8F08F00BF88450020C2
:10278000D34D6210A51A01082DE9F0410546002439
:10279000224F234E2146002CB8BFE11D634204F0B6
:1027A000070203F0070358BF5A4205EBE1014B79DA
:1027B0001341497D41FA02F203F0010302F00102E4
:1027C00021463846B0470134262CE3D12E46154F1A
:1027D0000024DFF8548096F83E0096F83F3043EA34
:1027E0000020C0472346002CB8BFE31D05EBE303E0
:1027F00093F88230614204F0070201F0070158BFEC
:102800004A42134103F00103BB63386401340236CA
:1028100058370E2CDFD1BDE8F08100BF9862002050
:10282000957E0108303100203576020870B50646E5
:10283000164B1C68F5232370002262701325A570C7
:102840001123E37001232371342161716521A1718A
:102850009F21E1711021217263721723A372E2722A
:102860002373082363731823A3730F22E273237463
:102870001923637412212046054B9847A0742A46F9
:1028800021463046034B984770BD00BF1000001032
:10289000A51A0108C11A010838B50546064B1C687F
:1028A0004FF400612046054B9847021E03DD214688
:1028B0002846034B984738BD100000102922010814
:1028C000C11A010808B50D4B1B68002B08BF012376
:1028D0000B4A12689B1AB3F5FA7F09D3074B1B68A2
:1028E000002B08BF0123064A1360064B1B7803B96F
:1028F00008BD0020044B9847FAE700BF8845002038
:10290000B0300020B4300020992801087047000042
:1029100038B505460F4B1C6804F58271234600222A
:1029200003F8012B9942FBD1F52323700123637037
:102930000423A3704123E37040F203112046064BA9
:10294000984784F803014FF4827221462846034BCE
:10295000984738BD10000010A51A0108C11A0108D7
:102960009F2805D10B78002B024808BF0020704734
:1029700000207047300009060023136041F217035E
:10298000984245D011D9B0F5C05F4BD02BD8B0F5E7
:10299000A05F43D0B0F5B05F42D041F21803984237
:1029A0003AD0264B0B600020704741F20503984255
:1029B00026D00AD941F2070398423DD024D341F2F0
:1029C00016039842EDD1052207E0B0F5805F31D0C3
:1029D00041F201039842E4D1012200230B60184820
:1029E00000EBC2007047B0F5005F1FD0B0F5085F84
:1029F0001ED0B0F5D05FD4D1124B13600B22ECE7A0
:102A0000114B13600222E8E7104B13600322E4E746
:102A10000F4B13600622E0E70722DEE70822DCE71F
:102A20000922DAE70B4B13600A22D6E70C22D4E71F
:102A30000D22D2E70022D0E70422CEE700000206F2
:102A400028910208EC300020C4300020C83000205B
:102A5000CC300020D030002038B50D46144641F26D
:102A60008E2303FB00F3C0F5FF407F3093FBF0F0B3
:102A7000024B984728602060012038BD3576020857
:102A800070B50D461646074B98474FF08B41064BE5
:102A90009847064C0649A0470649A0473060286081
:102AA000012070BD3D760208E57602084D780208E7
:102AB00000FEFF460000F042F8B50F461646104CE7
:102AC000A0474FF08B410F4B98470F4D0F49A84738
:102AD0000F49A84738604FF081410E4B98470E4B85
:102AE000984705A3D3E900230C4DA8470C4B984702
:102AF000A04730600120F8BD2D431CEBE2365A3F61
:102B00003D760208E57602084D78020800FEFF4691
:102B10000000F042D1740208956E02089971020813
:102B200079740208F8B50E46154641F28E2404FB6E
:102B300000F4C0F5FF407F3094FBF0F420461E4BBC
:102B4000984730601D4B9C4231D8B4F5EC7F30D3B0
:102B500040F277514FF42F730022194E06EBC30059
:102B60004068844238BF1A46844228BF1946531829
:102B700003EBD3735B109A4201DA9942EEDC104BFF
:102B800053F8326003EBC202526853F83100871BDE
:102B9000101B00FB07F003EBC1014B68D21AB0FB1E
:102BA000F2F03044074B984728600120F8BD0648F2
:102BB000F8E740F2E730F5E7357602086BC9010027
:102BC000D8BD02083D76020870FEFFFFF8B50E463C
:102BD000154641F28E2404FB00F4C0F5FF407F301F
:102BE00094FBF0F420461E4B984730601D4B9C42EE
:102BF00031D8B4F5EC7F30D340F277514FF42F73D6
:102C00000022194E06EBC3004068844238BF1A46C2
:102C1000844228BF1946531803EBD3735B109A42C2
:102C200001DA9942EEDC104B53F8326003EBC2023A
:102C3000526853F83100871B101B00FB07F003EBB1
:102C4000C1014B68D21AB0FBF2F03044074B9847F1
:102C500028600120F8BD0648F8E740F2E730F5E7C4
:102C6000357602086BC90100189202083D76020809
:102C700070FEFFFF70B50D461646094B984709498F
:102C8000094B9847094C0A49A0470A49A047014601
:102C9000094B98470949A04730602860012070BD62
:102CA0003D7602080000C045E57602084D7802082E
:102CB00000FEFF460000C842D57402080000204113
:102CC000F8B50F461646124CA0474FF08B41114BFA
:102CD0009847114D1149A8471149A84738604FF04E
:102CE0008141104B9847104B984707A3D3E9002325
:102CF0000E4DA84700220E4B0E4DA8470E4B98478D
:102D0000A04730600120F8BD75931804560EE13FCE
:102D10003D760208E57602084D78020800FEFF467F
:102D20000000F042D1740208956E02089971020801
:102D300000002440456F0208797402082DE9F84F1D
:102D40001C481D4B98471D4F1D4E06F59A69DFF82C
:102D500078B0DFF864A019E01A48D04712E084F890
:102D6000252084F824800023A3622B68A364EB68E9
:102D70006364E3632364B5F91230A4F84C30AB8A82
:102D8000A4F84E300C3758364E4511D03A68BD681D
:102D90002B68002BE0D0344632602A7C95F81180F5
:102DA000531EDBB20F2BDAD95846D0471022D6E794
:102DB000BDE8F88FB4910208A16C0108A0E90208EF
:102DC00030310020C8910208D491020838B53A4B3E
:102DD0009B6B002B27D0384B196C374B586C374BFB
:102DE0009847002863D1344BD3F89030002B30D073
:102DF000314BD3F89810304BD3F89C002F4B9847A9
:102E0000002856D12C4BD3F8E830002B38D02A4B71
:102E1000D3F8F010284BD3F8F400284B9847003033
:102E200018BF012044E0244CB4F94C00244B9847CF
:102E3000E16B244B98470546B4F84E00224B984767
:102E400001462846214B98472149224B9847014685
:102E5000C3E7194CB4F9A400194B9847D4F894105F
:102E6000184B98470546B4F8A600174B98470146FB
:102E70002846164B98471649164B98470146BAE71D
:102E80000D4CB4F9FC000E4B9847D4F8EC100D4BE8
:102E900098470546B4F8FE000B4B98470146284674
:102EA0000A4B98470A490B4B98470146B2E7012065
:102EB00038BD0120FCE700BF303100200D7A020848
:102EC0003D760208D574020835760208E5760208D8
:102ED0000000C8424D7802089E4B1A689E4B1B6842
:102EE000002B08BF01239B1A282B40F381832DE977
:102EF000F0438DB0984B1B68002B08BF0123954A07
:102F00001360964B1878052817D9831FDBB2052B61
:102F100040F23881A0F10C03DBB2012B40F2568263
:102F20008E4B1B780133DBB20D2B40F25E838B4B53
:102F300000221A700DB0BDE8F0830A220DF12E01B7
:102F4000874B9847854B1C78BDF82E00854A58233F
:102F500003FB04239D6C002D54D000B2814A5823FA
:102F600003FB042393F825C0BCF1010F1DD05823A7
:102F700003FB04239F6A002F4ED0BCF1000F0DD03D
:102F8000582303FB042302332C2101FB04CC02321F
:102F900002EB4C0C23F8020F6345FBD1714A582316
:102FA00003FB042301229A62DA6286B26D4B582138
:102FB00001FB043103AA5431A847002800F0AD807A
:102FC000039D684A582303FB04232946186B664B6C
:102FD000984750B9634A582303FB0423596B28468A
:102FE000614B9847002800F092805E4A582303FB0B
:102FF00004235A6CDA635B4B582202FB0434A4F8B6
:1030000050608DE700905E23584A594959485A4C00
:10301000A0475A48A04783E7524A582303FB04239A
:10302000DB6A2C2101FB043102EB41029080013369
:10303000E046634526DA4B49582202FB0412D3626C
:10304000484A582303FB042393F824300BBB58232E
:1030500003FB0423B3F90400BCF1010F0EDD582378
:1030600003FB042304332C2101FB04C1023202EBD5
:10307000410133F9022F10449942FAD1B0FBFCF020
:1030800000B292E7374A582303FB04230022DA6296
:10309000D6E7BCF1000F0DD0324B582202FB0432B0
:1030A000023203AB03EB4C0032F8021F23F8021B81
:1030B0008342F9D103A800EB4C0608F1FF3900E088
:1030C0000230B94511DD0137B845F9DD831C86466C
:1030D00033F9021BB0F900209142C4BFAEF80010D2
:1030E00023F8022CB342F3D1EAE74FEA5C0C0CABB5
:1030F00003EB4C0333F9260C0CAB03EB4C0C3CF903
:10310000243C184400EBD07040F34F004DE7154AC3
:10311000582303FB0423DD636DE7124A582303FBA6
:1031200004235A6CDA63DFF84490DFF84480114FCF
:10313000009677234A46414638460F4DA8470398E4
:103140000F4B9847CDE9000178234A46414638465F
:10315000A84750E72C310020884500202B31002063
:10316000897F010830310020357A020898E9020889
:10317000E8910208B8870208A16C0108F8910208DA
:10318000956E02080A220DF12E010638854B9847EC
:10319000854B1C78BDF82E00844A582303FB04237A
:1031A0009D6C002D54D000B2804A582303FB0423A9
:1031B00093F825C0BCF1010F1DD0582303FB042355
:1031C0009F6A002F4ED0BCF1000F0DD0582303FB97
:1031D000042302332C2101FB04CC023202EB4C0C01
:1031E00023F8020F6345FBD1704A582303FB0423E5
:1031F00001229A62DA6286B26C4B582101FB0431DB
:1032000003AA5431A847002800F0AE80039D674A06
:10321000582303FB04232946186B654B984750B984
:10322000624A582303FB0423596B2846604B984796
:10323000002800F093805D4A582303FB04235A6C56
:10324000DA635A4B582202FB0434A4F8506067E654
:1032500000905E23574A58495848594CA04759484E
:10326000A0475DE6514A582303FB0423DB6A2C2167
:1032700001FB043102EB410290800133E0466345DB
:1032800027DA4A49582202FB0412D362474A5823DC
:1032900003FB042393F8243013BB582303FB0423BC
:1032A000B3F90420BCF1010F0FDD4049582303FBA3
:1032B000041304332C2000FB04C0023101EB400056
:1032C00033F9021F0A448342FAD1B2FBFCF210B276
:1032D00091E7364A582303FB04230022DA62D5E73C
:1032E000BCF1000F0DD0314B582202FB04320232E8
:1032F00003AB03EB4C0032F8021F23F8021B83429E
:10330000F9D103A800EB4C0608F1FF390CE033F9C2
:10331000021BB0F900209142C4BFAEF8001023F8A0
:10332000022CB342F3D10230B94505DD0137B8456F
:10333000F9DD831C8646EAE74FEA5C0C0CAB03EB35
:103340004C0333F9260C0CAB03EB4C0C3CF9243C3E
:10335000184400EBD07040F34F004CE7134A582359
:1033600003FB0423DD636CE7104A582303FB0423AB
:103370005A6CDA63DFF83C90DFF83C800F4F009620
:1033800077234A46414638460D4DA84703980E4BD1
:103390009847CDE9000178234A4641463846A84778
:1033A0004FE700BF158001082B310020303100208D
:1033B000357A020898E90208E8910208B8870208FD
:1033C000A16C0108F8910208956E02080A220DF11D
:1033D0002E010C38874B9847874B1C78BDF82E0080
:1033E000864A582303FB04239D6C002D54D000B261
:1033F000824A582303FB042393F825C0BCF1010F34
:103400001DD0582303FB04239F6A002F4ED0BCF12C
:10341000000F0DD0582303FB042302332C2101FBA2
:1034200004CC023202EB4C0223F8020F9342FBD190
:10343000724A582303FB042301229A62DA6286B29D
:103440006E4B582101FB043103AA5431A8470028D0
:1034500000F0AE80039D694A582303FB04232946EC
:10346000186B674B984750B9644A582303FB0423F1
:10347000596B2846624B9847002800F093805F4ABA
:10348000582303FB04235A6CDA635C4B582202FB7B
:103490000434A4F8506043E500905E23594A5A4929
:1034A0005A485B4CA0475B48A04739E5534A58232C
:1034B00003FB0423DB6A2C2101FB043102EB4102F4
:1034C00090800133E046634527DA4C49582202FBDD
:1034D0000412D362494A582303FB042393F824308F
:1034E00013BB582303FB0423B3F90420BCF1010FE1
:1034F0000FDD4249582303FB041304332C2000FB47
:1035000004C0023101EB400033F9021F0A44834238
:10351000FAD1B2FBFCF210B291E7384A582303FB10
:1035200004230022DA62D5E7BCF1000F0DD0334B43
:10353000582202FB0432023203AB03EB4C0032F898
:10354000021F23F8021B8342F9D103A800EB4C06AB
:1035500008F1FF390CE033F9021BB0F90020914269
:10356000C4BFAEF8001023F8022CB342F3D10230EE
:10357000B94505DD0137B845F9DD831C8646EAE724
:103580004FEA5C0C0CAB03EB4C0333F9260C0CAB91
:1035900003EB4C0C3CF9243C184400EBD07040F396
:1035A0004F004CE7154A582303FB0423DD636CE707
:1035B000124A582303FB04235A6CDA63DFF8449061
:1035C000DFF84480114F009677234A46414638463B
:1035D0000F4DA8470398104B9847CDE90001782379
:1035E0004A4641463846A8474FE7034A1370A1E4CC
:1035F000704700BFA58001082B310020303100202A
:10360000357A020898E90208E8910208B8870208AA
:10361000A16C0108F8910208956E0208704700003D
:1036200038B5104BD3F84031C3B90E4CB4F954013E
:103630000D4B9847D4F844110C4B98470546B4F805
:1036400056010B4B9847014628460A4B98470A49B2
:103650000A4B98470A4B984780B238BD014BD3F8C4
:103660004801F7E7303100203D760208D5740208A2
:1036700035760208E57602080000C8424D78020857
:10368000BD7A020838B5104BD3F84832C3B90E4C96
:10369000B4F95C020D4B9847D4F84C120C4B984788
:1036A0000546B4F85E020B4B9847014628460A4B84
:1036B00098470A490A4B98470A4B984700B238BDC9
:1036C000014BD3F85002F7E7303100203D76020875
:1036D000D574020835760208E57602080000C84273
:1036E0004D780208717A020838B5104BD3F8A03231
:1036F000C3B90E4CB4F9B4020D4B9847D4F8A412D8
:103700000C4B98470546B4F8B6020B4B9847014658
:1037100028460A4B98470A490A4B98470A4B98474C
:1037200000B238BD014BD3F8A802F7E730310020D2
:103730003D760208D574020835760208E57602085F
:103740000000C8424D780208717A0208F0B40F4BAD
:1037500003F59A67012000220D490E4E00256424CE
:1037600083F8250083F824009A621A605964D963AB
:1037700019649A649A631E635D63A3F84C20A3F8EE
:103780004E405833BB42EBD1F0BC70473031002083
:1037900000FF7F4700FE7F4738B5012802D0072889
:1037A00011D038BD114D124C697D2046114B984700
:1037B000697CC9092046104B9847A97CC909204655
:1037C0000E4B9847EDE7094D094CE97E2046094B21
:1037D0009847697CC1F340012046074B9847A97C74
:1037E000C1F340012046054B9847DAE75C1B0020F7
:1037F000583F0020F553010861540108775401082F
:1038000070B52A4B1B7833B1284B1878012840D06B
:1038100007282DD070BD264E23213046254DA847C0
:10382000044624213046A847400040EA840044B2C0
:1038300025213046A8472043C0B2042805D00728D8
:1038400012D01A4B00221A7006E0184B01221A708F
:10385000164B1878184B9847184B1B68002B08BF5D
:103860000123174A1360CFE7104B07221A70EFE7C6
:10387000134B1A68114B1B68002B08BF01239B1ABE
:10388000B3F5FA7FC6DB0D4B1A6847F230539A4204
:10389000C0D90C4B18710C4B9847084B1B68002B78
:1038A00008BF0123064A1360B4E700BF08360020B2
:1038B00098620020BD7D0108F516010888450020AA
:1038C00000360020D41B0020993701082DE9F84369
:1038D000474D2846DFF83481C04706462846C04792
:1038E000A5F5F274000240EA2620A4F85C00284600
:1038F000404EB04707462846B047000240EA27201E
:10390000A4F8640005F5987738463B4DA8478146F2
:103910003846A847000240EA2920A4F8C80004F568
:1039200010773846C04781463846C047000240EA13
:103930002920A4F892003846B04780463846B04760
:10394000000240EA2820A4F89A0004F234463046E7
:10395000A84707463046A847000240EA2720A4F8B7
:10396000FE002648264B984710BBB4F876100A0292
:1039700042EA1122A4F8F621B4F87A100A0242EAC7
:103980001122A4F8F821B4F878100A0242EA1122B0
:10399000A4F8FA211B481A4B984790B11A4B002201
:1039A000A3F85222A3F85422A3F85622BDE8F883C4
:1039B000154B0022A3F8F621A3F8F821A3F8FA2169
:1039C000E8E7114BB3F8AC100A0242EA1122A3F85F
:1039D0005222B3F8B0100A0242EA1122A3F854228C
:1039E000B3F8AE100A0242EA1122A3F85622DDE72C
:1039F000A8390020893D0108C5580108FC40002075
:103A0000B155010818420020C4370020853D010847
:103A100070B5204C2046204DA847064604F13C00D6
:103A2000A847014630461D4B98471D4B984724F840
:103A3000140C1C4B9847A4F886001B4B9847A4F81D
:103A4000E20004F5D470194B9847012816D0A4F56C
:103A5000B674B4F8E8100B0243EA1123A4F8F43169
:103A60001348124B984701280ED0124AB2F81E1183
:103A70000B0243EA1123A2F8503270BD0D4B4FF6F2
:103A80009C72A3F8F421EBE70A4B4FF69C72A3F863
:103A90005022F2E7303900208B4F0108794C0108A1
:103AA0002136010885360108E93601086557010805
:103AB000F83B0020C437002010B5184C2368184B81
:103AC0009847184B9847184B9847184B9847184BEE
:103AD0001A682368002B08BF01239B1AB3F5FA7FED
:103AE00000DA10BD1348144B984778B90B4B1B688C
:103AF000002B08BF01230E4A13600E480F4B984756
:103B00000F4B98470F48104B9847EAE70F48104B68
:103B100098471048104B9847E8E700BF88450020B9
:103B2000113A0108ED580108CD38010801380108A3
:103B300004360020C4370020714B0108A949010850
:103B4000D11F01080C3600203D210108083000205B
:103B5000851E010830EB0208A16C010810B4002397
:103B60002E220270332242706FF01E0282706FF0BC
:103B70007002C270052280F829205E224271012164
:103B8000817180F87E3080F87F3080F8803080F856
:103B900081306FF0230280F8822080F8833080F833
:103BA000843080F88530382280F886204FF0FF324C
:103BB00080F8872080F8882080F88920402480F8C9
:103BC0008A4080F88B1080F88C3080F88D3080F837
:103BD0008E4080F88F1080F8903080F89130462128
:103BE00080F8921080F8933080F8943080F8953007
:103BF000782180F8961080F897305A2180F8981034
:103C000080F899303C2180F89A1080F89B301E2172
:103C100080F89C1080F89D3080F89E3080F89F30AE
:103C20006FF0130380F8A03080F8A1206FF05903E3
:103C300080F8A23080F8A32010BC704710B504466D
:103C4000A82201464FF40070094B9847A621204650
:103C5000084B98472268084B9A4201D0002010BDBB
:103C6000B4F8A630834214BF00200120F7E700BF5C
:103C700099C60108F1600108526EFC9200F1A8019A
:103C80000346002203F8012B9942FBD16FF0600339
:103C900080F8A230652380F8A330342380F8A43064
:103CA000012380F8A530522303706E2343706FF018
:103CB000030383706FF06D03C370704738B5204CF9
:103CC000A622214600201F4B9847A42120461E4BC8
:103CD00098470546A62120461C4B984729461C4874
:103CE0001C4B984722681C4B9A4219D01B48194B11
:103CF0009847134C20461A4B9847A4212046124B54
:103D00009847A4F8A400A62221460020154B984706
:103D10001548164B984740B11548164B984738BD83
:103D2000B4F8A430AB42E1D1F2E71348094B98470D
:103D30000D4C2046114B98472046114B9847EBE716
:103D40000C37002099C60108F16001088161010863
:103D500044EB0208A16C01082E33E18F6CEB0208E2
:103D60005D3B0108A9C70108083000203D3C01085F
:103D7000C4370020D53F010850EB02087D3C010804
:103D8000851E0108408970478089704708B5017811
:103D90000148024B984708BD98620020BD7D01088C
:103DA00070B584694F4B1B68002B08BF01231B1B98
:103DB000B3F57A7F48DB16460D460446002936D116
:103DC000494B984708B1012E3ED12046464B9847B3
:103DD00036E04FF47A63638100232362636233E049
:103DE000012E34D0236A23B994F82830013384F8A3
:103DF000283001232362E26A3A4B1B68002B08BF7C
:103E000001239B1A47F22F5293421DDD638940F62E
:103E1000B832934218D9A3F5FA736381314B1B680A
:103E2000002B08BF0123E362002363620CE02E4BEA
:103E3000984790B92B4B1B68002B08BF0123A36147
:103E4000658100232362636270BD012ED1D1B4F974
:103E50001E2012F1640F13D1ECE76368012BB8D078
:103E6000B4F91C30002B06DDDB2BB9DCC72B02DDDF
:103E7000236A012BE9D0B4F91E2012F1640FD9D0C6
:103E8000012ED7D00F2A04DD112AD3DC636A012B5F
:103E9000D0D1A16D1548164B9847636A23B994F8A1
:103EA0002930013384F8293001236362226B0D4BE2
:103EB0001B68002B08BF01239B1A4EF65F2293421A
:103EC000C2DD638940F6B8329342BDD9A3F5FA73D7
:103ED0006381044B1B68002B08BF0123236300236D
:103EE0002362B1E7884500208D3D0108B0EB020850
:103EF000A16C01080020704738B5044600F1340574
:103F00002846114B9847114B1B68002B08BF012313
:103F10000F4AB2F872104FF47A7202FB01F2181ACB
:103F200082420DDC0122002120460A4B9847284698
:103F3000094B98470022217A0848094B984738BD19
:103F40000848094B9847FAE7B9530108884500200B
:103F50000C370020A13D010839530108B062002050
:103F6000317E010888EB0208A16C010838B50446CF
:103F700000F1340528460F4B98470F4B1B68002B68
:103F800008BF01230D4AB2F872104FF47A7202FB97
:103F900001F2181A824208DC2846094B9847012290
:103FA000217A0848084B984738BD0848084B98477D
:103FB000FAE700BFB5530108884500200C37002000
:103FC000F1520108B0620020317E010888EB02083E
:103FD000A16C0108F0B583B004462C482C4B9847DF
:103FE0000025C4F814592B4BC4F8283104F59470FB
:103FF000294B9847294BB3F8053003EB830303EBB8
:1040000083039B0084F868310A2384F82C310B2346
:1040100084F82D31082384F8903184F891310923F4
:1040200084F8CC3184F8CD31042384F8C03284F88C
:10403000C132062384F8FC3284F8FD3284F8EC5156
:1040400084F8E451012384F8483284F84032022392
:1040500084F8243084F82530032384F84C3084F825
:104060004D300F4F7B69019500952A460D4904F5A7
:1040700006700D4EB047BB69019500952A460B4965
:1040800004F51D70B04703B0F0BD00BFCCED0208D1
:10409000A16C0108E0ED02080D4F01080C3700206B
:1040A00008300020E8ED0208BD530108F0ED0208D9
:1040B0002DE9F04F83B00446072380F804393B48CC
:1040C0003B4B984720463B4DA847834604F12809BF
:1040D0004846A847019004F5B6752846364FB847BC
:1040E00004F5D4763046B8472846344B984718B97B
:1040F0003046324B9847A0B104F5F2773846DFF8E6
:10410000E880C04704F5107A5046C04738462C4B2B
:10411000984718B950462A4B984728B12948244B4C
:10412000984703B0BDE8F08F04F5277A0021504688
:10413000254FB84704F5367800214046B847504629
:104140001E4B984730BB40461C4B984710BBBBF1F9
:10415000000F23D141F64C5128461C4DA84741F68B
:104160004C513046A84704F59470194B98472046A7
:10417000184DA8474846A8472046174B984700289F
:10418000CFD14846144B98470028CAD11348084B52
:104190009847C6E71248064B9847C2E7019B002B99
:1041A000D8D01048024B9847D4E700BF20EC020853
:1041B000A16C0108B94F0108214F01086D4F01089A
:1041C0008D3D01082CEC0208454F01088F4F010876
:1041D0000D4D0108D54F0108BD4F010860EC0208E4
:1041E0003CEC020850EC0208F93E010810B5044608
:1041F000D0F81829D0F80C191848194B9847D4F85A
:10420000140950B9174B1B68002B08BF0123C4F8D1
:104210000C390123C4F8143910BD94F830317BB93E
:10422000104B1B68002B08BF0123D4F80C299B1AE4
:10423000C4F8183904F594700B4B98470120EBE74C
:1042400094F82F31042B04D00848054B98470320DD
:10425000E2E70748024B98470220DDE784ED0208B9
:10426000A16C010888450020914D0108C0ED0208AD
:10427000ACED02082DE9F84304462F482F4B984730
:10428000062384F8043920462D4DA847804604F1C2
:104290002800A847814604F5B6752846294EB04740
:1042A00004F5D4773846B0472846274B984718B9C5
:1042B0003846254B9847A8B104F5F2752846234E99
:1042C000B04704F510773846B0472846204B98474A
:1042D00018B938461E4B984740B11E48174B9847AF
:1042E000BDE8F8831C48154B9847F9E704F5277596
:1042F00000212846194EB04704F53677002138468C
:10430000B0472846104B984758B938460E4B984747
:1043100038B9B8F1000F08D104F59470104B9847E4
:10432000DEE71048054B9847DAE7B9F1000FF3D004
:104330000D48024B9847EFE770EC0208A16C0108AA
:10434000B94F0108214F01086D4F0108F93E0108DE
:104350008D3D01082CEC02087CEC0208454F010859
:104360000D4D01083CEC020850EC0208F8B504467B
:104370001D481E4B9847012384F8043920461C4DE4
:10438000A84704F12800A84704F5F2752846194EFD
:10439000B04704F510773846B0472846164B984783
:1043A00018B93846144B984718B114480F4B984722
:1043B000F8BD002104F52770114DA847002104F530
:1043C0003670A84704F5B676002130460D4FB84741
:1043D00004F5D47400212046B84700213046A84790
:1043E00000212046A847E3E704EE0208A16C01087B
:1043F000954F0108F93E01088D3D01082CEC02089B
:10440000454F01088F4F0108F8B504461D481E4B63
:104410009847022384F8043920461C4DA84704F12C
:104420002800A84704F5F2752846194EB04704F550
:1044300010773846B0472846164B984790B104F598
:10444000B6752846144EB04704F5D4742046B047DC
:1044500041F64C512846114DA84741F64C51204693
:10446000A847F8BD38460B4B98470028E7D10021F4
:1044700004F527700A4DA847002104F53670A847B7
:10448000DDE700BF08ED0208A16C0108954F0108A7
:10449000F93E01088D3D0108214F01088F4F0108A9
:1044A000454F01082DE9F04F83B004463648374B9D
:1044B0009847052384F8043904F527784046344D9D
:1044C000A84704F536794846A84704F5F27B5846D4
:1044D000304DA847009004F5107A5046A847019047
:1044E00004F5B67528462C4FB84704F5D476304607
:1044F000B84741F64C512846284FB84741F64C5131
:104500003046B8472846264B984718B93046244BC2
:104510009847A0B12046234DA84704F1280630460D
:10452000A8472046204B984718B930461E4B98475D
:1045300048B11E48154B984703B0BDE8F08F1C48A2
:10454000124B9847F8E74046134CA0474846A0470F
:104550004046134B984738B1009B73B95846154CE9
:10456000A0475046A047E7E748460D4B984700282C
:10457000F2D11148054B9847DEE7019B002BEDD0A7
:104580000E48024B9847E9E7C8EB0208A16C010806
:10459000854F0108F53E0108214F01088F4F0108A2
:1045A0006D4F0108954F0108BD4F0108E8EB020867
:1045B000D4EB02086D3F0108F8EB02080CEC02088E
:1045C00010B504461248134B98470B2384F804395E
:1045D000B4F90639104AB2F9A0209A4203DAB4F9C4
:1045E0008E27A02A0BDC0C4AB2F9A22093420ADCE7
:1045F00093422046B4BF094B094B984710BD204653
:10460000084B9847FAE72046074B9847F6E700BF64
:10461000F8ED0208A16C01080C370020B140010838
:1046200009440108A54401087542010838B50F4B3B
:104630009B6BBBB90D4CB4F94C000D4B9847E16B2B
:104640000C4B98470546B4F84E000B4B9847014673
:1046500028460A4B98470A490A4B98470A4B9847FD
:1046600000B238BD014B186CF8E700BF30310020B4
:104670003D760208D574020835760208E576020810
:104680000000C8424D780208717A020838B5054624
:1046900000F294742046084B9847FF2807D0204624
:1046A000054B9847283800EB800000B238BD2846FB
:1046B000024B9847FAE700BF3D5401082D46010818
:1046C00038B5104BD3F89030C3B90E4CB4F9A400F0
:1046D0000D4B9847D4F894100C4B98470546B4F806
:1046E000A6000B4B9847014628460A4B98470A49B3
:1046F0000A4B98470A4B984700B238BD014BD3F894
:104700009800F7E7303100203D760208D5740208A2
:1047100035760208E57602080000C8424D780208A6
:10472000717A020838B5174BD3F8903083B1154B26
:10473000D3F8984014492046144B9847F8B9002103
:104740002046134B9847134B9847193800B238BD91
:104750000C4CB4F9A400104B9847D4F894100C4BAF
:1047600098470546B4F8A6000C4B984701462846E2
:104770000B4B98470B490C4B98470446DAE70B481C
:10478000E5E700BF30310020000096C30D7A020833
:10479000D5740208717A02083D760208357602085F
:1047A000E57602080000C8424D780208D4FEFFFFFB
:1047B00038B505460B4B9847044610F5967F01D057
:1047C000204638BD05F294752846074B9847FF28C8
:1047D000F6D02846044B98472D3800EB800004B2F1
:1047E000EEE700BF25470108195401082DE9F843F9
:1047F0000646404F102138463F4DA84780460F21BE
:104800003846A84781460E213846A847840044EA26
:10481000490444EA080464B20D213846A84744EA32
:10482000C000C0B2354B1B7883420AD0334B18709E
:10483000334B1B68002B08BF0123324A1360BDE8CD
:10484000F883304A10682E4A1268002A08BF0122F5
:104850002D4991F829404FF47A7101FB04F1121AA5
:1048600091421ADA082B15D0042B1CD00C2B1ED029
:10487000022B20D00A2B22D0062B24D00E2B26D0A0
:10488000012B28D0092B2AD0052B2CD1FA2386F80E
:10489000083902E0C82386F8083996F808191B4839
:1048A0001B4B9847CBE7C82386F80839F5E7C823A0
:1048B00086F80839F1E7C82386F80839EDE7C823F8
:1048C00086F80839E9E7D22386F80839E5E7DC23DA
:1048D00086F80839E1E7E62386F80839DDE7F023B2
:1048E00086F80839D9E7DC2186F808190948084B09
:1048F0009847D2E798620020BD7D0108B2370020BA
:1049000088450020B43700200C370020B0EC0208A6
:10491000A16C01088CEC0208F8B51C4D1621284644
:104920001B4CA047064617212846A04707461821DA
:104930002846A047800040EA47003043C0B2154BEC
:104940001B7883420CD0144B1B784BB9134B1B685C
:10495000002B08BF0123124A13600F4B01221A706B
:104960000F4B19680D4B1B68002B08BF01230D4A24
:1049700092F829404FF47A7202FB04F25B1A9A42D1
:10498000BCBF044B1870034B1878F8BD9862002028
:10499000BD7D0108B8370020B937002088450020C8
:1049A000BC3700200C37002070B582B00446554B50
:1049B00098472046544B9847014684F8C00753480F
:1049C000534DA8475348544B9847014684F8C107B4
:1049D0005248A84794F8C037052B0FBF94F8C13749
:1049E000062384F8C137002384F8043994F80419A5
:1049F0004B48474B98474B4B984700284AD1204695
:104A0000494B984705462046484B9847064620465E
:104A1000474B98470346324629462046454DA8470E
:104A2000B4F99037B4F99227B4F98E174248384D4B
:104A3000A8472046414B984794F80829A4F88C27AA
:104A400094F80439013BDBB2022BB4F99237B4F984
:104A500090170191B4F98E17009194BF00210121A4
:104A600004F2C470364DA847D4F8FC38B4F8901757
:104A7000C91A09B2A4F806193248254B984794F888
:104A80000439013B072B0FD8DFE803F00B23272B5A
:104A90002F330E372C481E4B984720462B4B9847F8
:104AA00015E020462A4B98472A4D697D2A48184C24
:104AB000A0472B68190641EA13611A0A02F47F42E3
:104AC00011431B0203F47F0319432448A04702B09B
:104AD00070BD2046224B9847E6E72046214B984779
:104AE000E2E72046194B9847DEE720461E4B9847E1
:104AF000DAE720461D4B9847D6E72046134B9847E8
:104B0000D2E700BFED41010819490108C4EC0208D1
:104B1000A16C0108583F00208D540108D8EC020810
:104B2000E8EC0208CD2D01088D460108B1470108C7
:104B3000C14601089952010814ED0208ED47010829
:104B4000F551010840ED0208F8EC0208094401089B
:104B5000B14001085C1B00204CED020868ED020822
:104B600075420108A5440108C14501086D430108CB
:104B7000114B1A68114B1B68002B08BF01239B1AAD
:104B800047F23052934214DD70B504460B4B1B685C
:104B9000002B08BF0123084A136000F50670084E79
:104BA000B047084D686104F51D70B047A861012049
:104BB00070BD0020704700BFC0370020884500202E
:104BC000AD53010808300020224B0022C3F82023F7
:104BD000C3F82423012083F814031F49C3F81C13CE
:104BE000C3F84024C3F8442483F83404C3F83C14C5
:104BF000C3F86025C3F8642583F85405C3F86C2610
:104C0000C3F85C15C3F87C26C3F8802683F87006C9
:104C1000C3F88827C3F87816C3F8F828C3F8FC2827
:104C20000E49C3F8001983F8CA2741F28831C3F846
:104C3000E017C3F8E8170521C3F8D4171421C3F807
:104C4000DC17C3F8D0273022C3F8D8279622C3F840
:104C5000E4277047C437002050610020E09304002F
:104C60007047704743888B4203D983888B4298BF33
:104C7000018000207047000070B50E460E4C0146C2
:104C800020460E4DA8473146A01DA84720880C4B52
:104C90001B88834204D10B4B1A88E3889A4209D0BF
:104CA000074B1880044BD988064B198000231A46FD
:104CB000054CA04770BD00BFE4400020654C0108D2
:104CC000E0400020E240002035CA010870B50446EB
:104CD00009480A4B98470A4E012221793046094D6E
:104CE000A847002261793046A847074B1B68002B74
:104CF00008BF0123636370BD78EE0208A16C010850
:104D0000B0620020317E01088845002070B504465D
:104D100009480A4B98470A4E002221793046094D2E
:104D2000A847012261793046A847074B1B68002B32
:104D300008BF0123A36370BD84EE0208A16C0108C3
:104D4000B0620020317E01088845002010B504467D
:104D50000548064B9847208E41F29313984294BF22
:104D60000020012010BD00BF50EE0208A16C010818
:104D700010B504460448054B9847208EB0F5FA7FDD
:104D80008CBF0020012010BD64EE0208A16C010858
:104D900010B50446C379062B3CD8DFE803F00412B3
:104DA000373C9C719F004F4B984710B90223E37129
:104DB00030E020464C4B98470123E3714B4A136087
:104DC00028E04B4B9847F0B9626B4A4B1B68002BAD
:104DD00008BF01239B1A49F63F4293421ADD204641
:104DE000454B98472046424B984794F83C30002862
:104DF00014BF1846581C84F83C000623E3713F4852
:104E00003F4B984706E00023E37103E03A4B984795
:104E10000323E37110BD334B984790B1334B1B68AC
:104E20002BB92046304B98470523E371F2E7204623
:104E3000314B98470023A3710422E27184F83C307F
:104E4000E8E7A26B2B4B1B68002B08BF01239B1AC2
:104E500049F63F429342DDDD2046274B98472046E6
:104E6000204B984794F83C30002814BF1846581C33
:104E700084F83C000623E3712248214B9847C9E798
:104E80001B4B9847F0B9626B1A4B1B68002B08BF8D
:104E900001239B1A49F63F429342BBDD2046164B45
:104EA00098472046124B984794F83C30002814BF8E
:104EB0001846581C84F83C000623E3711248104B36
:104EC0009847A7E720460C4B98470323E371074B0D
:104ED00001221A609EE7012303729BE701230372FC
:104EE00098E700BF714D0108CD4C0108F04000204B
:104EF0004D4D0108884500200D4D010810EE0208B7
:104F0000A16C010824EE020838EE020800230372A7
:104F10008371C37180F83D3080F83C300386704760
:104F200010B50446012290F824100348034B98471B
:104F30002046034B984710BDB0620020317E010827
:104F4000F152010810B504460022826390F8241043
:104F50000348044B98472046034B984710BD00BFB9
:104F6000B0620020317E01083953010808B590F87D
:104F700025100248024B984708BD00BF98620020E8
:104F8000BD7D010890F834007047808D70478185A1
:104F90007047000010B50446002290F82410034822
:104FA000034B98472046034B984710BDB062002042
:104FB000317E0108395301080020704708B590F888
:104FC00025100248024B984708BD00BF9862002098
:104FD000BD7D010810B50446012290F82410034855
:104FE000034B98472046034B984710BDB062002002
:104FF000317E0108F152010870B40A68C1F8282115
:105000008B699A42C8BFC1F828315B42D1F8282188
:105010009A42B8BFC1F828318B79002B00F0848008
:105020004A6A002A40F09980CB694B624C69D1F8FA
:105030001831A342A4BF0023C1F81831D1F81831A8
:1050400001EB8300002585620D791DB1D1F828613F
:10505000002E08DC4E791EB1D1F82861002E02DB4B
:10506000D1F82861866201339C42D8BF0023C1F881
:1050700018310023C1F82C319C420BDD18460A324E
:1050800051F8222010440133DBB21A469C42F6DC70
:10509000C1F82C01D1F82C3193FBF4F4C1F82C4168
:1050A0001DB1D1F82831002B0ADC4B791BB1D1F8A6
:1050B0002831002B04DBD1F81C311C44C1F81C4101
:1050C0000A6A0D69642404FB02F494FBF5F4D1F838
:1050D0001C31A342C8BFC1F81C416FF0630303FB3E
:1050E00002F393FBF5F3D1F81C219A42B8BFC1F843
:1050F0001C31D1F82821CB6803FB02F3184C84FB48
:105100000320DB17C3EB6013C1F82431D1F81C0175
:1051100000FB05F084FB0024C217C2EB6412C1F847
:10512000202113448B6018E000228A60C1F8182106
:10513000C1F82021C1F81C21C1F82421C1F82C217B
:105140004869904209DDD1F828410A3241F82240ED
:105150000133DBB21A468342F7DB70BC704700BFF5
:105160001F85EB5138B50446059DF1B10846012174
:10517000A171E2B94FF49672E26003F11402A3F157
:105180001201A94232D20699691A11F10A0FACBF75
:10519000002101216171023295420DD2069AA81AAE
:1051A0000A28D4BF0020012006E0002282714FF4BB
:1051B000FA72E260012060712071049A9B1A142B2C
:1051C0000DDD1423236021462046094B9847636A6E
:1051D000B3F5FA7348BF41F28833636238BD13F107
:1051E000140FB8BF6FF013032360ECE70146D1E75B
:1051F000F94F0108F0B585B0054614460A9E02969F
:10520000D0F83821019200932346D0F83C21003198
:1052100018BF01211D4FB8471D49D1F87E3003EB5F
:10522000830303EB03131B4A82FB0302DB17C3EB6D
:105230006212D1F88600D1F88AC0D1F89230ACEB76
:105240000307331A03FB07F3D1F88E60801B93FB2F
:10525000F0F36344D1F882101439641A04EB440467
:1052600004EBD4746410C5F834411C44AB681C448E
:105270001444C5F83841D5F83C31A3F5FA73002B36
:10528000D8BF0023C5F83C3105B0F0BD6551010819
:105290000C3700201F85EB51A0F88E17A0F892273D
:1052A000A0F89037704700004368DBB1C2680E4B2E
:1052B0001B68002B08BF01239B1AB3F57A7F11DB13
:1052C0000A4A82FB0312DB17C3EBA21302691A44DA
:1052D0000261426913444361034B1B68002B08BF02
:1052E0000123C360704700BF88450020D34D621082
:1052F00008B5436863B901234360074B1B68002B63
:1053000008BF01238361C360036A0133036208BDE0
:10531000024B9847FBE700BF88450020A9520108CF
:10532000002303614361034B1B68002B08BF01236B
:1053300083617047884500204368002B2ED010B54C
:1053400004460023436083682BBBC068144B1A6873
:10535000002A08BF0122121A124981FB0231D2171A
:10536000C2EBA11221690A4422610D4B1B68002B7C
:1053700008BF01231B1A0B4A82FB0312DB17C3EB86
:10538000A213626913446361054B1B68002B08BFBD
:105390000123E36110BD044B9847F5E7704700BF58
:1053A00088450020D34D62102153010800697047E1
:1053B00040697047C069704780697047002141604B
:1053C00003614261009B8360019B036270478369B4
:1053D00013F0010F14BFC069406900F0010070476D
:1053E000836913F4804F14BFC069406900F48040A2
:1053F0007047000038B503788B4209D04B1EDBB2F2
:10540000062B05D80C460546024B984700B12C7078
:1054100038BD00BFE153010810B50446064B98475C
:1054200040B1A36913F4007F14BFB4F90800B4F9C4
:10543000060010BDFF20FCE7CF53010810B504465D
:10544000064B984740B1A36913F4806F14BFB4F9B9
:105450000C00B4F90A0010BDFF20FCE7CF5301088F
:1054600021B9436923F0020343617047436943F064
:1054700002034361704721B9436923F480434361C8
:105480007047436943F4804343617047836913F471
:10549000805F14BF4078007870470000A9B110B455
:1054A0004B1E9BB20133C1184FF6FF73094C10F825
:1054B000012B82EA232234F8122082EA03239BB2D2
:1054C0008842F4D1184610BC70474FF6FF73184657
:1054D000704700BFA0EE0208324B1A69324B1B68BE
:1054E000002B08BF01239B1AC72B52DD2D4BD3F88D
:1054F0002C212D4B1B68002B08BF01239B1AC72BA7
:1055000049DD2A4B1A69284B1B68002B08BF012371
:105510009B1AC72B41DD254BD3F83021224B1B684A
:10552000002B08BF01239B1AC72B38DD1D4BDA68FF
:105530001D4B1B68002B08BF01239B1AC72B22DDC4
:10554000184BD3F82821184B1B68002B08BF0123E8
:105550009B1AC72B19DD154BDA68134B1B68002B00
:1055600008BF01239B1AC72B11DD104BD3F82C0168
:105570000D4B1B68002B08BF0123181AC728D4BF86
:105580000020012070470020704700207047002055
:1055900070470020704700207047002070470020AF
:1055A000704700BFFC4000208845002034430020A5
:1055B000D0F81831064A1068002808BF0120C01A28
:1055C00047F230539842D4BF00200120704700BFFB
:1055D0008845002038B505460C4603780B70032338
:1055E0004B7000234B804FF440638B800621204694
:1055F000084B9847030AA371E071074B1B68002B07
:1056000008BF01232B61AB68DB680821204698475F
:10561000012038BD9D5401088845002038B5054655
:105620000C4603780B70062161704FF49073638011
:1056300020460B4B9847030AA371E07108212046CE
:10564000084B9847AB68DB68082120469847064B13
:105650001B68002B08BF0123EB60012038BD00BF91
:105660009D540108816101088845002038B5054630
:105670000C4603780B70062161704FF490736380C1
:105680002046094B9847030AA371E071AB68DB68B9
:10569000082120469847054B1B68002B08BF0123B3
:1056A000EB60012038BD00BF9D54010888450020F3
:1056B0002DE9F04104460E4600F1160500F58B7108
:1056C0002B46002203F8012B8B42FBD10023A3823F
:1056D000A3681B694FF4807128469847074683B238
:1056E000A3826BB3A17D227891422ED194F81780CA
:1056F000B8F1030F2CD1023B99B22846174B9847BB
:10570000BFB2E319C0F307221B7D9A4223D127447D
:105710007B7DC0B2834202D04FF0040812E0731EBA
:1057200004F1340115F8012B03F8012F8D42F9D152
:105730000B4B1B68002B08BF0123C4F8183101E094
:105740004FF001084046BDE8F0814FF00208F9E74C
:105750004FF00208F6E74FF00408F3E79D54010804
:10576000884500208369064A1068002808BF012088
:10577000C01A47F230539842D4BF0020012070472E
:105780008845002038B505460C4603780B70032386
:105790004B704FF4C8434B804FF480538B800621ED
:1057A0002046094B9847030AA371E071074B1B6819
:1057B000002B08BF01232B61AB68DB680821204662
:1057C0009847012038BD00BF9D540108884500203E
:1057D00038B505460C4603780B700621617000232E
:1057E000A3702046084B9847030AA371E071074B4A
:1057F0001B68002B08BF01232B61AB68DB68082105
:1058000020469847012038BD9D5401088845002056
:105810002DE9F04104460E4600F11E0500F58F719A
:105820002B46002203F8012B8B42FBD10023A383DC
:10583000A3681B694FF4807128469847074683B2D6
:10584000A38363B3A17F227891422DD194F81F8066
:10585000B8F1030F2BD1023B99B22846174B98475A
:10586000BFB2E319C0F307221B7F9A4222D127441B
:105870007B7FC0B2834202D04FF0040811E0731E58
:1058800004F1440115F8012B03F8012F8D42F9D1E1
:105890000B4B1B68002B08BF0123A36101E04FF0F5
:1058A00001084046BDE8F0814FF00208F9E74FF0EB
:1058B0000208F6E74FF00408F3E700BF9D54010823
:1058C00088450020808A7047064B33221A703422A4
:1058D00083F81C21044B35221A70362283F82021CC
:1058E000704700BFFC4000203443002008B5604BE7
:1058F0001B68062B08D8DFE803F0041A374E657BD7
:1059000099005C4B984700B908BD5B4B1B685B4A2C
:1059100052F823105A4A4FF48E7000FB0320594B63
:1059200098470128F0D1524B01221A60ECE7514B05
:1059300098470028E8D0504B1B68504A52F8231073
:1059400018314F4A4FF48E7000FB03204E4B98479E
:10595000032805D00128D7D1454B00221A60D3E790
:10596000434B02221A60CFE7424B98470028CBD026
:10597000414B1B68414A52F823100831404A4FF40A
:105980008E7000FB0320414B98470128BCD1384B57
:1059900003221A60B8E7374B98470028B4D0364B3B
:1059A0001B68364A52F823101031354A4FF48E7076
:1059B00000FB0320364B98470128A5D12C4B04222D
:1059C0001A60A1E72B4B984700289DD02A4B1B68F3
:1059D00003EBC3002F4A52F823102F4B03EB401068
:1059E0002E4B984701288FD1214B05221A608BE757
:1059F000204B9847002887D01F4B1868254B53F839
:105A0000201000EBC0001031234B03EB4010244B5F
:105A10009847032806D001287FF476AF144B042260
:105A20001A6071E7124B06221A606DE7114B984716
:105A300000283FF469AF104B1868164B53F820103C
:105A400000EBC0000831144B03EB4010154B984796
:105A500000283FF459AF064B00221A60064A13682B
:105A6000013303F0010348BF5B4213604CE700BF02
:105A7000F8400020D9540108F440002090EE0208BC
:105A8000FC400020D5550108B15601086D560108AB
:105A90001D56010898EE020834430020855701087E
:105AA00011580108D1570108104B0022DA601A6121
:105AB000012018700E499960C3F82C21C3F83021D9
:105AC00083F82001C3F828110A4BDA601A611870B4
:105AD000C3F818219960C3F82821C3F82C2183F852
