:020000040801F1
:10000000D07F00104D6901088901010889010108AC
:100010008901010889010108890101080000000027
:100020000017011003F8A25900000000890101081F
:100030008901010800000000916F01088168010832
:100040008901010889010108890101088901010864
:100050008901010889010108890101088901010854
:100060008901010889010108890101088901010844
:1000700069130208457A0108CD120208AD7901081A
:10008000890101088901010889010108ED2602089A
:10009000192A0208052B0208D12D0208890101083E
:1000A0008901010889010108890101088901010804
:1000B000B9830108F583010831840108097F01082B
:1000C0008D7E0108691D0208ED1C020889010108E6
:1000D00089010108890101088901010889010108D4
:1000E00089010108890101088901010889010108C4
:1000F00089010108890101088901010889010108B4
:1001000089010108890101086D840108890101083C
:100110008901010889010108A984010889010108F0
:1001200089010108890101083519020889010108BE
:10013000890101088901010889010108652802086F
:10014000F12B0208E12C0208E12D020889010108C7
:10015000B97201089918020825720108890101087D
:100160008901010889010108890101088901010843
:100170008901010889010108890101088901010833
:100180008901010889010108FEE7000010B5054C4E
:10019000237833B9044B13B10448AFF30080012333
:1001A000237010BD0000002000000000DC0B0308DD
:1001B00008B5034B1BB103490348AFF3008008BDEA
:1001C0000000000004000020DC0B030870B584B0C0
:1001D00005460E4604AB002443F8044D0092FF226E
:1001E000084CA047044638B1039A29460648074BF5
:1001F0009847204604B070BD324629460448034B58
:100200009847F6E7BDC40108389302089D750108B8
:100210002893020830B585B0054604AB002243F8A8
:10022000042D0091FF220C490C4CA04740B9044614
:100230000B4909480B4B984740B1204605B030BDEB
:1002400029460948094B98470024F6E729460848FB
:10025000064B98470124F0E7E0140020BDC40108D4
:10026000D8910208E98802089C9302089D7501084C
:10027000B493020870B582B005460E4602AC002366
:1002800044F8043D13462246094CA047044640B1B9
:10029000019B324629460748074DA847204602B031
:1002A00070BD324629460548034B9847F6E700BF24
:1002B0000DC50108709302089D750108609302083E
:1002C000F8B507460D4616461C461A460B490C4B18
:1002D0009847034628B9094928460A4B98470346D8
:1002E00008B91846F8BD224629463846064B9847B5
:1002F0000346326801323260F3E700BFE0140020A9
:10030000CD010108E9880208750201082DE9F047CE
:1003100084B081460E469046002303930146274849
:10032000274B984727494846274B984700282DD008
:1003300026494846244B984700282DD14246244957
:100340002448254B984706EB860676000024DFF804
:10035000B4A0224D224F0120D0470134CDF80080B7
:1003600003ABFF2229464846B847D0B91D49284665
:10037000154B9847E8B129461B48114B9847A642B0
:10038000E9DA494619480E4B98470FE042461049B2
:100390001748114B9847D6E749461648084B9847E7
:1003A000D1E7154A49461548054B984704B0BDE8C2
:1003B000F08749461248024B9847F7E7A491020894
:1003C0009D750108D0910208E9880208F891020899
:1003D000DC9102080492020875020108E014002072
:1003E000BDC40108D8910208449202084C92020848
:1003F000E491020818920208389202082893020831
:10040000B4930208656D01088AB110B44C1E114402
:100410000139084A14F8013F4340DBB252F8233057
:1004200083EA10208C42F5D1C04310BC7047C04312
:10043000704700BFCC93020838B505460C1F224612
:1004400001464FF0FF30054B98472B19020E2A55F5
:10045000020C5A70020A9A70D87038BD090401085B
:1004600038B50546054C4FF0FF312046044B984700
:10047000044B1D702046044B984738BDE016002001
:10048000A16E0108E41600201D6F010838B5084B65
:100490001C780CB9204638BD064D4FF0FF31284678
:1004A000054B9847024B1C782846044B9847F1E7C8
:1004B000E4160020E0160020A16E01081D6F01085F
:1004C00010B5044601460C480C4B984758B10C4BEC
:1004D00001221A6021460B48084B984738B90A4B4D
:1004E00000221A6010BD064B00221A60F2E7064B8C
:1004F00001221A60F6E700BFD09102081502010838
:10050000F01A0020F8910208F41A00202DE9F04FAB
:10051000BFB004460220AA4B98478CB12546002460
:10052000DFF85883A74FA84E98F800202146384698
:10053000B04701344FF47A70A44B9847AC42F3D1E2
:1005400003209F4B9847002308931C46DFF830B3E5
:100550009D4E0FE1002D4FF0FF30C8BF0020002D51
:1005600040F3C9809A4D224629469A489A4B9847AB
:100570009A4B294605F1120011F8012B03F8012FBF
:100580008142F9D1924D224629469548924B98478F
:1005900029469448B047944B294605F1120011F8BA
:1005A000012B03F8012F8142F9D1894D22462946BA
:1005B0008E48894B984729468D48B0478D4B294630
:1005C00005F1140011F8012B03F8012F8142F9D134
:1005D000224605218848894DA8472246052188489A
:1005E000A847DFF8A0A223460AAA51468548864DAF
:1005F000A847DFF8889299F8003003EB43012346BF
:100600000AAA824850F821108148A847DFF878826A
:1006100023460AAA41467F48A8477F4F23460AAA95
:1006200039467E48A84723460AAA51467C48A8472F
:1006300099F8003003EB430123460AAA794850F8A1
:1006400021107948A84723460AAA41467748A84777
:1006500023460AAA39467648A84705460A9900293A
:1006600078D1744E002231467348744CA047002262
:1006700031467348A04700223C215F485F4CA047A9
:10068000002205215E48A04729466E484E4B9847F8
:10069000002D40F03D836C484B4B98470A246B4E2D
:1006A000DFF8AC81484F002108A8B047B0F1FF3F08
:1006B00040F0EC80013C14F1020F00F02D83089B08
:1006C00040F20B22934200F00483B3F5147F00F054
:1006D0000983B3F5027F00F00E8321465C483A4C53
:1006E000A04708995B48A0476420384B98476FF0B3
:1006F0000203079325E007461AE029465648B0470B
:100700005648B0476420314B984736E02946524856
:10071000B0475348B04764202C4B98472DE02946FA
:100720004D48294CA0474F48A0476420274B984785
:100730004D48254CA04739464248A0474FF0FF336B
:100740000793079BB3FA83F040093FB0BDE8F08FF1
:100750000746EDE74548B047224645494548374BEF
:100760009847054643F69820184B98470A9B002B5C
:100770003FF477AF0A9424946425214624A8D847EF
:10078000B0F1FF3F7FF4E6AE013DB5F1FF3FDFD0B2
:10079000249B40F20B229342AFD0B3F5147FB5D027
:1007A0000746B3F5027FBAD029462B48064CA0472E
:1007B00024993148A0476420044B9847B8E700BF0C
:1007C00061040108148E02089D750108656D010819
:1007D000E0150020E88E0208CD010108371C00203A
:1007E000F48E0208008F02084B1C0020148F0208B0
:1007F000208F0208BF1B0020D09102080D030108C2
:10080000F8910208308F0208C102010868920208BC
:100810003C8F0208508F0208608F0208688F020820
:10082000788F0208C8920208848F02088C8F020811
:100830009C8F02082CF40208EC8F02087502010854
:1008400004900208C88E02081C900208F1C5010835
:100850003090020860900208288E0208308E02084C
:10086000548E0208688E0208AC8E0208AC8F020813
:1008700034070308DC8F02088C8E02080C0000107D
:1008800055C5010860980208448F02080795002C9E
:1008900040F3468208AF002400943B4606221146EE
:1008A0002046DFF814A3D047224639462046DFF819
:1008B0000C93C84704940397029401940126009670
:1008C000B34B324644F248312046DFF8F482C04749
:1008D00000943B46062211463046D0472246394610
:1008E0003046C84704940397029401940096A84B9D
:1008F000324644F248313046C0470DF1F80908232A
:1009000049F8D43DDFF8BC820194009743464A463B
:10091000314640F2F230DFF8B0A2D04701940097A0
:1009200043464A46314640F21E50D047DFF89C828B
:100930000194009743464A46314640F2FE30D04784
:100940000194009743464A46314640F22A50D04728
:10095000DFF87CB2DFF87C8298F8003003EB4303C9
:100960008C4800EB83039868019400975B464A46E5
:100970003146D04798F8003003EB4303864A02EB38
:1009800083039868019400975B464A463146D047F6
:1009900004940397029401940096334640F2F23295
:1009A00040F2E93120467D4DA84705940497DFF8D1
:1009B0002892B9F80030039302960196744B009385
:1009C0002346774A40F2E9312046DFF810B2D84793
:1009D000744A07CA0DF1280C8CE807000DF1900A43
:1009E000714A92E803008AE8030001940097634685
:1009F000324640F2E93120466C4DA84701940097F9
:100A00005346324640F2E9312046694DA8470494E6
:100A10000397029401940096334640F2FE3240F26E
:100A20001A4120465D4DA84705940497B9F8003057
:100A3000039302960196564B00932346584A40F280
:100A40001A412046D8470DF1280C5A490FC9ACE885
:100A500007008CF80030544A92E803008AE803004B
:100A6000019400970DF1280C6346324640F21A417A
:100A700020464E4DA847019400975346324640F217
:100A80001A4120464A4DA84798F8001001FA06F38B
:100A90005A18404800EB820292680B4400EB830333
:100AA00059680494039702940194009623462046C3
:100AB0003A4DA84798F8003003EB43033548054604
:100AC00000EB8303596805940497B9F80030039349
:100AD000029601962E4B00932346314A2046D84772
:100AE0000DF1280C33490FC9ACE807008CF8003031
:100AF00098F8003003EB430305EB83035968019436
:100B000000970DF1280C634632462046274DA84732
:100B100004940397029401940096334640F21E52C7
:100B200040F2E93130461D4DA84705940497B9F8C5
:100B30000030039302960196154B00932346184A02
:100B400040F2E9313046D847164A07CA0DF1280C61
:100B50008CE80700144A92E803008AE80300019435
:100B600000976346324640F2E93130460F4DA847C0
:100B7000019400975346324640F2E93130460C4D1D
:100B8000A84704940397029401940096334627E003
:100B900040420F0068920208C8920208E9C70108A3
:100BA00020A1070084900208608F020859C801083C
:100BB0002DC9010890900208D9C6010831C7010863
:100BC00075C701080000001089C901080400001061
:100BD000080000100C0000105E1C0020B5C80108C1
:100BE00040F22A5240F21A4130464F4DA847059430
:100BF0000497B9F800300393029601964B4B00938B
:100C000023464B4A40F21A413046D8470DF1280C92
:100C100048490FC9ACE807008CF80030464A92E812
:100C200003008AE80300019400970AAA134632469B
:100C300040F21A413046414DA8470194009753466F
:100C4000324640F21A4130463D4DA84798F8001010
:100C500001FA06F35A183B4800EB820292680B44F3
:100C600000EB83035968049403970294019400965F
:100C7000234630462C4DA84798F8003003EB430339
:100C80003048054600EB8303596805940497B9F88A
:100C90000030039302960196244B00932346244A86
:100CA0003046D8470DF1280C22490FC9ACE807009F
:100CB0008CF8003098F8003003EB430305EB830316
:100CC0005968019400970AAB324630461B4DA8473D
:100CD00037E521464046B8471B48B84764201B4BC0
:100CE0009847E0E421464046B8471948B847642091
:100CF000164B9847D7E421461648174CA04717488B
:100D0000A0476420114B98476FF00103079318E543
:100D10004FF0FF33079314E56FF00303079310E5DB
:100D20006FF0030307930CE5E9C7010840420F0089
:100D300020A1070090900208608F020859C801089E
:100D40002DC90108C892020840900208656D01088B
:100D5000548E0208309002089D750108688E0208C2
:100D60002DE9F04F93B04FF0000BDFF818A2CDF84B
:100D700018B000F01BBC6E4B9847009023236D4ABF
:100D80006D496E486E4CA047694B9847002844D087
:100D90006C4B9847009009AB0022022108466A4C30
:100DA000A0476A4B9860002874DB684C41F62C33EE
:100DB000A38001466648624B98474FF00203ADF8A6
:100DC000283000230B93A088624B9847ADF82A0087
:100DD000A4685C4B9847009009AB20220AA92046E2
:100DE0005D4CA04700285ADB584B01221A601DE0D9
:100DF00009995A48524B9847C6E712AC54F8241D3B
:100E000057484F4B9847574B9D684E4B9847024663
:100E100021462846544B9847B6E7454B98470090E3
:100E20002323444A44494548454CA047404B9847F2
:100E3000002844D0434B9847009009AB0022022180
:100E40000846414CA047494B9860002845DB474C79
:100E500044F24923A38001463D48394B98474FF05F
:100E60000203ADF8283000230B93A088394B984734
:100E7000ADF82A00A468334B9847009009AB2022B4
:100E80000AA92046344CA04700282BDB374B01220F
:100E90001A601DE009993148294B9847C6E712AC02
:100EA00054F8241D2E48264B9847284B9D68254B07
:100EB00098470246214628462B4B9847B6E71C4BDD
:100EC0009847009023231B4A1B491C481C4CA047F1
:100ED00000230A93264D274C1FE009991F48184B01
:100EE0009847F5E712AC54F8241D1D48144B984759
:100EF0001E4B9D68134B98470246214628461A4BC5
:100F00009847E5E7002109A81B4B98470690002861
:100F10003AD04FF47A70194B98470020A8472368BD
:100F2000002BEFD1164B1B68002BF2D0EAE700BF75
:100F3000691A0108E8970208A0900208B890020810
:100F40009D750108751A010815B70108A41C002039
:100F5000F490020835B9010869B70108DC9002086D
:100F600004910208D01C0020C1B70108781C0020A1
:100F7000C1040108F01A0020A1C60108656D01082E
:100F8000F41A002030460020744F754C3968204612
:100F9000744DA84739687448A847DFF8049299F857
:100FA000003003EB4303714A02EB830358684FF0B0
:100FB000000BCDF804B009AD00953B682246012135
:100FC000DFF8E081C0470146694E3060099A694800
:100FD000694CA0473B6899F8002002EB4202674940
:100FE00001EB82025068CDF804B000955E4A012101
:100FF000C0470146624F3860DFF8AC91099A484615
:10100000A0475B462A46012140F2E930DFF89C8187
:10101000C047316801433160099A5648A0475B4692
:101020002A46012140F2E930C0473968014339605E
:10103000099A4846A0475B462A46012140F21A40D9
:10104000C047316801433160099A4A48A0475B466E
:101050002A46012140F21A40C047396801433960ED
:10106000099A4846A047DAF80090D94508BF4FF0E2
:101070000109DFF83C814F46AEE0424B186800287A
:1010800040F30C81404A414B184413F8011B02F80D
:10109000011B8342F9D101E13A4B1868002840F363
:1010A00013813B4A394B184413F8011B02F8011B0A
:1010B0008342F9D108E1374B1868002840F31D81BD
:1010C000354A324B184413F8011B02F8011B8342C6
:1010D000F9D112E12F4B1868002840F325812F4ADF
:1010E0002A4B184413F8011B02F8011B8342F9D163
:1010F0001AE11A4B1B682A4A127802EB42021B497A
:1011000001EB820250680022019209AE0096144A57
:101110000121244CA047164C2060099A06991548D5
:10112000154DA84700233246012140F2E930DFF88F
:101130007CB0D847216801432160099A0D48A8472F
:1011400000233246012140F21A40D847216801436A
:101150002160099A0748A847C4E100BF08000010B1
:10116000AC11002039040108101200206892020816
:10117000601C00201C9102089D750108C89202089D
:10118000641C0020000000101C100020E816002045
:101190008010002004000010E410002048110020FE
:1011A0000C000010E5C90108389102085DCA010869
:1011B00084120020A648A74B9847DAF800000028C0
:1011C00008BF0120A0EB0900B0F5FA7F80F0C381D1
:1011D000C0F5FA70A04B9847A04B9847042840F000
:1011E000C381DAF80090B9F1000F08BF4FF0010990
:1011F000D8F800300133C8F80030994C4FF0FF3177
:101200002046984B9847D8F80020130643EA12630B
:10121000110A01F47F410B43120202F47F021343CF
:10122000914E3360914A13602046914B9847DFF806
:1012300064B2904D2B7803EB43038F4A02EB830398
:1012400058680024009409ABDBF8002031468B4E2F
:10125000B047DBF800202B7803EB4303884901EB10
:1012600083035868009409AB8049B04764207A4BE7
:10127000984712A941F8204D049409AB0393814B80
:101280000293814B01930DAB00930CAB0BAA40F280
:10129000E9307E4CA04700283FF4EFAE002312A9AE
:1012A00041F8203D049309AB0393764B0293764BB0
:1012B00001930DAB00930CAB0BAA40F2E930734CD9
:1012C000A04700283FF4E8AE6420634B9847002312
:1012D00012A941F8203D049309AB03936C4B029390
:1012E000694B01930DAB00930CAB0BAA40F21A4073
:1012F000664CA04700283FF4DEAE002312A941F857
:10130000203D049309AB0393614B02935E4B019321
:101310000DAB00930CAB0BAA40F21A405B4CA047FC
:10132000069000283FF4D6AE64204B4B98474FF010
:10133000FF314B484B4B9847564B1A68002A08DD43
:101340004949554B9C1813F8010B01F8010B9C42BD
:10135000F9D1524B1968524B1B68994206D0DAF802
:101360000030002B08BF01234E490B60454B186825
:10137000002808DD49494A4B1D1813F8014B01F8B4
:10138000014BAB42F9D1484B1968484B1B68994255
:1013900006D0DAF80030002B08BF012344490B6067
:1013A0003B4B1968002908DD3F4C404B5E1813F891
:1013B000015B04F8015BB342F9D1002A08DD2B4C34
:1013C0003C4B1A4413F8015B04F8015B9A42F9D1D3
:1013D000394B1A68394B1B689A4206D0DAF800304C
:1013E000002B08BF0123364A1360002808DD324A6B
:1013F000324B184413F8014B02F8014B8342F9D1E8
:10140000304B1A68304B1B689A4206D0DAF800302D
:10141000002B08BF01232D4A1360002908DD294A4B
:10142000294B194413F8010B02F8010B8B42F9D137
:101430000B480F4B9847DAF80030002B08BF012308
:10144000DB1B41F2873293427FF7B7AE40E000BF2B
:10145000549102089D750108656D01088D0401080D
:10146000E0160020A16E0108AC110020101200202F
:101470001D6F01080C00001068920208A9CA01083B
:10148000C892020800000010E816002019CB0108DD
:10149000040000100800001018140020881200201A
:1014A0001C1000207412002050130020E4100020B3
:1014B0007C1200207C140020EC1200208010002000
:1014C00078120020B4130020481100208012002060
:1014D000DAF80070002F08BF0127674B1B68002B4C
:1014E0007FF407AE654B1B68002B3FF463AE644B83
:1014F0001B68644A127802EB4202634901EB8202E4
:1015000050680022019209AE0096604A0121604CA9
:10151000A0470146594C2060099A5E485E4DA84795
:1015200000233246012140F2E930DFF8C4B1D84748
:10153000216801432160099A5648A8470023324692
:10154000012140F21A40D847216801432160099ADD
:101550005048A8472EE6009040F212334F4A5049B7
:1015600050484D4CA04737E600204F4B98474F4C12
:10157000042120464E4B98474FF4FA704D4B984744
:10158000042120464C4B984705204C4B9847092492
:10159000484F4B4E404D6420B847069B079A214662
:1015A0003046A847013CB4F1FF3FF4D10221454841
:1015B000414B9847C8203F4B9847022141483C4B3C
:1015C00098471420404B98470790404B18600028DC
:1015D000CDD0364C04212046354FB8473220354D0A
:1015E000A84704212046344EB0476420A847042170
:1015F0002046B8473220A84704212046B04704209F
:101600002E4B9847324B9847324B984700283FF46F
:10161000B2AB314B9847009009AB0022022108463B
:101620002E4CA0472E4B98600028FFF6E1AB2C4CC7
:1016300041F62D33A38001462A48174B98474FF0B7
:101640000203ADF8283000230B93A088264B98475F
:10165000ADF82A00A468204B9847009009AB2022DF
:101660000AA92046214CA0470028FFF6C6AB1C4B18
:1016700001221A60FFF788BB601C0020641C002058
:10168000080000100C000010C89202081012002080
:10169000E5C90108389102089D750108DC97020828
:1016A00064910208B890020881A60108000C02406B
:1016B00079640108656D01087D6401086104010811
:1016C00080910208001002400D050108681C0020EE
:1016D000451A0108691A0108751A010815B70108A9
:1016E000D01C0020F490020835B9010869B7010840
:1016F0005DCA010810B582B0184B01221A60431E62
:10170000DBB2072B1DD8164A137064211548164CFE
:10171000A04764211548A04764211548A047154BF0
:1017200001221A70662300934FF48053124A00215D
:101730001248134CA047011E0EDA12480A4B984774
:101740000AE000904FF45F730F4A10491048064CAE
:10175000A047034B01221A7002B010BDE016002012
:101760000C000010B88D02089D750108CC8D020890
:10177000E08D0208E41600201C000020610D010825
:10178000DD6B0108F48D0208CC9702086491020811
:10179000B890020838B56C4B1A686C4B1B68002B6C
:1017A00008BF01239B1AC72B0FDD0446674B1B683C
:1017B000002B08BF0123644A1360654B9847042837
:1017C00006D00020634B187001E0624B187838BDDA
:1017D0004FF0FF316048614B9847614B1B681A0618
:1017E00042EA1362190A01F47F410A431B0203F41F
:1017F0007F0313435B4A13605B4B1868002810DDBE
:101800005A4A584B184413F8011B02F8011B834233
:10181000F9D15749534A12F8010B01F8010B9A42CA
:10182000F9D1544B1A68494B1B68002B08BF0123A0
:101830009B1AB3F5FA6F10DD012C10D04E4B1A68CD
:10184000424B1B68002B08BF01239B1AB3F5FA6FAC
:1018500036DD022C36D0002511E0022CEED0474BAD
:101860001868002808DD464A464B184413F8011B47
:1018700002F8011B8342F9D10125364B1D70424B02
:101880001A68324B1B68002B08BF01239B1AB3F563
:10189000FA6F2BDD012C2BD03C4B1A682B4B1B68AD
:1018A000002B08BF01239B1AB3F5FA6F38DD022C19
:1018B00038D02948364B9847264B00221A702CE026
:1018C000012C11D02D4B1868002808DD2C4A314B13
:1018D000184413F8011B02F8011B8342F9D11D4B78
:1018E00002221A700125CAE70025C8E7022CD3D0CE
:1018F000294B1868002808DD284A294B184413F89A
:10190000011B02F8011B8342F9D1124B01221A700C
:1019100011481F4B9847002DCED00E4B187856E734
:10192000012CC6D01C4B1868002808DD1B4A1D4B33
:10193000184413F8011B02F8011B8342F9D1054B2F
:1019400002221A70E4E700BFEC1A002030460020A3
:101950008D040108E81A0020E0160020A16E01089D
:1019600084120020D41B002008000010181400204E
:101970007C14002074120020781200200000001057
:10198000F81A0020881200207C120020801200200B
:101990001D6F0108EC120020040000105C1B0020E9
:1019A000E41000204811002070B582B000211A48D0
:1019B0001A4B98471A4900201A4B9847184D1A4C51
:1019C0001A4E294601A8A047B0F1FF3F1FD1019947
:1019D00040F20B2399420AD0B1F5147F0BD0B1F538
:1019E000027F0CD012480D4B984700200DE0304686
:1019F0000A4B9847E5E70F48084B9847E1E70E4840
:101A0000064CA0470D48A047002002B070BD0C480E
:101A1000024B98470120F8E7CC9802089D75010811
:101A2000701C00208DC4010871B60108DC98020802
:101A30001C990208548E0208688E0208F498020865
:101A40003C99020808B5044B98470146034B1860BF
:101A50000348044B984708BDA91901086C1C0020D5
:101A6000B89802089D750108014B1868704700BFBF
:101A70006C1C002000487047701C0020064A0023A0
:101A8000136093801361054A136093801361044AC5
:101A90001360938013617047D01C0020A41C0020A9
:101AA000781C0020002909DD431E1944002013F88A
:101AB000012F1044C0B28B42F9D17047002070470B
:101AC00070B58EB00D461446022806D01146284641
:101AD0001A4B984720460EB070BD194B9847002806
:101AE000F8D0184B1B68002BF4D00DF11702164BE1
:101AF00003F1200013F8011B02F8011F8342F9D102
:101B0000079B002BE6D00F4B9E68104B9847039025
:101B100005AB02932023019306AB009300232246DA
:101B2000294630460A4DA8470028D3DA00904923B9
:101B3000084A094909480A4DA847CBE7D16F01086F
:101B4000691A0108D01C0020DC1C0020751A01084D
:101B500005B80108C499020860990208B890020803
:101B60009D7501082DE9F84304460D4617460346C6
:101B70005448554EB047E4B2544B1C70EA78322AB0
:101B80004AD018D9422A58D0502A6BD0402A41D185
:101B90004F484D4B984720464E4B98474E4C04219A
:101BA00020464E4B984732204D4B98470421204603
:101BB0004C4B98472EE0102A29D0302A2AD1464E85
:101BC00004213046DFF81491C8473220444FB8470B
:101BD00004213046DFF80C81C0476420B847042157
:101BE0003046C8473220B84704213046C0472B79D9
:101BF000DB093D4A137020463C4B98470421304690
:101C0000C8473220B84704213046C04702E020468A
:101C1000374B9847BDE8F88339462846354B9847F7
:101C20002D4C042120462D4B984764202C4B98477F
:101C3000042120462B4B9847ECE72F48224B98472E
:101C4000394628462D4B9847234C04212046234BE8
:101C500098474FF4FA70224B984704212046214BB5
:101C60009847D7E71C4E042130461C4B984732203A
:101C70001B4B9847042130461A4B98472B7913F099
:101C8000010F10D06B79AA7942EA0322EB7943EA7B
:101C900002231B4A12682A7A42EA03222946204676
:101CA000184B9847B6E76B79AA7942EA0322EB7999
:101CB00043EA02232A7A42EA032229462046124BAB
:101CC0009847A7E77C9902089D750108FC2400202D
:101CD0009899020841290108000C02407964010822
:101CE000656D01087D640108BC30002011290108E0
:101CF000A5280108DD270108B09902083D2901083F
:101D0000304600209D200108051E010808B50D4B36
:101D10001B68002B08BF01230B4A12689B1AB3F5FE
:101D20007A7F09D3074B1B68002B08BF0123064AA3
:101D30001360064B1B7803B908BD054B1878054B9B
:101D40009847F9E73046002000250020BC300020ED
:101D5000FC2400201129010870477047002814DD79
:101D60000D4B5B68834213DB10B50B4B9B68A3EBF9
:101D7000002000F582234FF48072084CA34298BFE4
:101D80001846074B9847002010BD4FF0FF307047B2
:101D90004FF0FF30704700BF10300020FF0F0400ED
:101DA000E1D5010800281DDD08B5114BDB68834231
:101DB0001BDB0F4B1B69A3EB002303F5C0000D4A8F
:101DC000904288BF18464FF4807200F580100A4B8D
:101DD00098470A4B1B68002B08BF0123084A136071
:101DE000002008BD4FF0FF3070474FF0FF30F8E79C
:101DF00010300020FFFF5F00E1D5010830460020D1
:101E0000082D002070B50646294B1D6805F14004D9
:101E10002B46002103F8011B9C42FBD1F5232B70BC
:101E200000236B704023AB705123EB7021494B684A
:101E3000180E6871180CA871180AE8712B7248689E
:101E40009042A8BF1046030E6B72030CAB72030ADC
:101E5000EB722873184B1B68002B08BF0123174A2D
:101E600013601749174B9847A8B905F10D0305F101
:101E70001300154A12F8011B03F8011B9842F9D10F
:101E800005F1150305F11C00104A12F8011B03F8B7
:101E9000011B9842F9D13F2128460D4B984785F800
:101EA0003F004022294630460A4B984770BD00BF8C
:101EB0001000001010300020304600200C300020B0
:101EC0000C2E00205D1D01080E2E0020162E002075
:101ED000A51A0108C11A010810B582B004460021F4
:101EE0006846144B98479DF8003084F89C309DF864
:101EF000013084F89D309DF8023084F89E309DF8C2
:101F0000033084F89F309DF8043084F8A0309DF8A9
:101F1000053084F8A130A6212046074B9847A4F845
:101F2000A600A82221464FF40070044B98470120D8
:101F300002B010BD59660108ED690108A5D001087D
:101F400070B586B004466FF0720303706FF05503EE
:101F50004370002104A8294B98479DF81030A370C6
:101F60009DF81130E3709DF8123023719DF8133005
:101F700063719DF81430A3719DF81530E371FE2153
:101F800020461F4B9847A4F8FE001E4D2A69E968B9
:101F90001D481E4EB0472379E278A178E07902907F
:101FA000A0790190607900901948B0472D6905F536
:101FB0008015C5F30B03EBB14FF480722146284620
:101FC000144B98470F4B1B6903F58073124A9342D9
:101FD00088BF00230B4AD26845F6EF718A4202D8C7
:101FE00001320849CA60074803610C4B984700203A
:101FF00006B070BD28460A4B9847DDE759660108D0
:10200000ED69010810300020D89902089D7501087B
:10201000FC99020829D70108FFFF5F00D91E0108BB
:10202000D5D8010808B5154B1A68154B1B68002B4D
:1020300008BF01239B1A41F2873293421DDD104BEA
:102040001B68002B08BF01230C4A13604FF400618A
:102050000C480D4B984700280FDD0C4A0C4B03F140
:10206000F50013F8011B02F8011F8342F9D109485A
:10207000002380F8FD30084B984708BD082D00204C
:1020800030460020042500207D220108132D002069
:10209000092500200C2D0020411F010870B50546C0
:1020A00016462F4B1C6804F586712346002203F860
:1020B000012B9942FBD140212A482B4B9847F5230D
:1020C0002370012363700C23A3705123E370274B0B
:1020D0001B68002B08BF0123254A1360254AD368DB
:1020E000190E6171190CA171190AE1712372D0687E
:1020F000B042A8BF3046030E6372030CA372030AFA
:10210000E37220731C491D4B9847D0B904F10D03AD
:1021100004F113001A4A12F8011B03F8011B834251
:10212000F9D104F11402174B03F1F50013F8011B68
:1021300002F8011F8342F9D10F4B93F8FD3084F868
:102140000A3140F20B1120460F4B984784F80B01DF
:102150004FF48672214628460C4B984770BD00BF4D
:10216000100000100014024079640108304600207D
:102170000C300020103000200C2F0020A51D01087D
:102180000E2F0020142F0020A51A0108C11A0108E3
:102190002F4B1A682F4B1B68002B08BF01239B1A7B
:1021A00042F20F72934252DD70B586B00446294B5D
:1021B0001B68002B08BF0123254A1360002104A8D7
:1021C000254B98479DF81030A3709DF81130E370AF
:1021D0009DF8123023719DF8133063719DF814300F
:1021E000A3719DF81530E3711C4DAA6869681C48FD
:1021F0001C4EB0472379E278A178E0790290A0796B
:102200000190607900901848B047AD68C5F30B03A2
:10221000CBB14FF4807221462846144B984705F500
:102220008075134A954288BF00250C4A5268B2F562
:10223000806F02D2013209494A60084885600D4B1F
:10224000984706B070BD28460B4B9847E1E77047AA
:10225000042D00203046002059660108103000206F
:10226000DC9902089D750108FC99020829D701082C
:10227000FF0F0400D91E0108D5D801082DE9F04F41
:1022800083B0044600F561710346002203F8012B78
:102290008B42FBD1F5232370032363708423A37047
:1022A0003123E3700026DFF830A1DFF830914FF0E2
:1022B000010807E008FA07F7635D1F436755013619
:1022C000262E19D03546002EB8BFF51DED10053568
:1022D000734206F0070703F0070358BF5F42314619
:1022E0005046C847C0B20028E4D108FA07F7635D3A
:1022F00023EA07076755E2E70026DFF8E4A0DFF8E6
:10230000E4904FF0010807E008FA07F7635D1F4308
:1023100067550136142E19D03546002EB8BFF51D6D
:10232000ED101535734206F0070703F0070358BF99
:102330005F4231465046C847C0B20028E4D108FA8F
:1023400007F7635D23EA07076755E2E71D4E274657
:102350000025DFF894B0DFF894A0DFF894904FF0F8
:1023600001082AE0B6F94C00D847F16B164B9847A4
:102370000190B6F84E00154B984701460198144B52
:1023800098471449D047C84700B2C0F3072387F8DD
:102390003E3087F83F002B46002DB8BFEB1DDB1009
:1023A000363305F0070208FA02F2E15C0A43E25410
:1023B0000135583602370E2D1CD0B36B002BD1D00F
:1023C000306CE0E738310020D17D0208317F02080F
:1023D000E17F02080000C84240630020B98601087E
:1023E00058630020F7860108397F020849810208F6
:1023F0006D830208DC4D95F8153884F8813095F826
:10240000583984F88530D94B1A68130643EA1263A9
:10241000110A01F47F410B43120202F47F021343BD
:10242000D34AA2FB03239B0984F8F23005F5087810
:102430004046D04FB847030E84F82C31030C84F883
:102440002D31030A84F82E3184F82F014046CA4EFC
:10245000B047030E84F83031030C84F83131030A9D
:1024600084F8323184F8330105F529794846B847B4
:10247000030E84F83431030C84F83531030A84F8F0
:10248000363184F837014846B047030E84F83831B6
:10249000030C84F83931030A84F83A3184F83B019B
:1024A00005F53C794846B847030E84F83C31030CE7
:1024B00084F83D31030A84F83E3184F83F014846F0
:1024C000B047030E84F84031030C84F84131030A0D
:1024D00084F8423184F8430105F54B794846B84702
:1024E000030E84F84431030C84F84531030A84F860
:1024F000463184F847014846B047030E84F8483116
:10250000030C84F84931030A84F84A3184F84B01FA
:1025100005F5B8794846B847030E84F84C31030CEA
:1025200084F84D31030A84F84E3184F84F0148464F
:10253000B047030E84F85031030C84F85131030A7C
:1025400084F8523184F8530105F5D6794846B847E6
:10255000030E84F85431030C84F85531030A84F8CF
:10256000563184F857014846B047030E84F8583175
:10257000030C84F85931030A84F85A3184F85B015A
:1025800005F104094846B847030E84F85C31030C92
:1025900084F85D31030A84F85E3184F85F014846AF
:1025A000B047030E84F86031030C84F86131030AEC
:1025B00084F8623184F863012C352846B847030E4D
:1025C00084F86431030C84F86531030A84F86631B9
:1025D00084F867012846B047030E84F86831030C7D
:1025E00084F86931030A84F86A3184F86B01404643
:1025F000624B9847624B1B68002B08BF01231B1AD4
:102600005B4A82FB0312DB17C3EBA2131A0E84F89A
:102610006C211A0C84F86D211A0A84F86E2184F852
:102620006F3105F51E70554B9847554B1B68002BB5
:1026300008BF01231B1A4E4A82FB0312DB17C3EBB0
:10264000A2131A0E84F870211A0C84F871211A0A48
:1026500084F8722184F873314846484B9847484BB8
:102660001B68002B08BF01231B1A414A82FB03127F
:10267000DB17C3EBA2131A0E84F874211A0C84F82A
:1026800075211A0A84F8762184F8773128463B4B65
:1026900098473B4B1B68002B08BF01231B1A344A89
:1026A00082FB0312DB17C3EBA2131A0E84F8782106
:1026B0001A0C84F879211A0A84F87A2184F87B317B
:1026C0004046304B98472E4B1B68002B08BF012318
:1026D0001B1A274A82FB0312DB17C3EBA2131A0E45
:1026E00084F87C211A0C84F87D211A0A84F87E2152
:1026F00084F87F3105F51E70224B9847204B1B68EC
:10270000002B08BF01231B1A194A82FB0312DB1797
:10271000C3EBA2131A0E84F880211A0C84F88121CD
:102720001A0A84F8822184F883314846154B984769
:10273000134B1B68002B08BF01231B1A0C4A82FB9A
:102740000312DB17C3EBA2131A0E84F884211A0CB0
:1027500084F885211A0A84F8862184F8873128466E
:10276000084B984710E000BFD03700205C1B0020CA
:10277000D34D62106D5C0108695C0108755C01084D
:1027800030460020795C0108114B1B68002B08BF04
:1027900001231B1A0F4A82FB0312DB17C3EBA213A0
:1027A0001A0E84F888211A0C84F889211A0A84F8F0
:1027B0008A2184F88B3140F283312046064B9847BA
:1027C00084F883034FF4617003B0BDE8F08F00BF5D
:1027D00030460020D34D6210A51A01082DE9F041C2
:1027E000054600242A4F2B4E2146002CB8BFE11D80
:1027F000634204F0070203F0070358BF5A4205EB97
:10280000E1014B791341497D41FA02F203F00103E2
:1028100002F0010221463846B0470134262CE3D1AC
:102820002E461D4F0024DFF8788096F83E0096F87B
:102830003F3043EA0020C0472346002CB8BFE31DC9
:1028400005EBE30393F88230614204F0070201F0E4
:10285000070158BF4A42134103F00103BB633864C8
:102860000134023658370E2CDFD195F88C3095F8AC
:102870008B2042EA032295F88A3043EA022295F837
:10288000893043EA0223054A1360BDE8F08100BFA6
:10289000406300209187010838310020B8300020C3
:1028A000317F020870B50646164B1C68F52323706D
:1028B000002262701325A5701123E3700123237198
:1028C000342161716521A1719F21E1711021217273
:1028D00063721723A372E2722373082363731823AE
:1028E000A3730F22E2732374192363741221204609
:1028F000054B9847A0742A4621463046034B98471B
:1029000070BD00BF10000010A51A0108C11A01080F
:1029100038B50546064B1C684FF400612046054B50
:102920009847021E03DD21462846034B984738BDD1
:10293000100000107D220108C11A01087047000034
:1029400038B505460F4B1C6804F5827123460022FA
:1029500003F8012B9942FBD1F52323700123637007
:102960000423A3704123E37040F203112046064B79
:10297000984784F803014FF4827221462846034B9E
:10298000984738BD10000010A51A0108C11A0108A7
:102990009F2805D10B78002B024808BF0020704704
:1029A00000207047300009060023136041F217032E
:1029B000984245D011D9B0F5C05F4BD02BD8B0F5B7
:1029C000A05F43D0B0F5B05F42D041F21803984207
:1029D0003AD0264B0B600020704741F20503984225
:1029E00026D00AD941F2070398423DD024D341F2C0
:1029F00016039842EDD1052207E0B0F5805F31D093
:102A000041F201039842E4D1012200230B601848EF
:102A100000EBC2007047B0F5005F1FD0B0F5085F53
:102A20001ED0B0F5D05FD4D1124B13600B22ECE76F
:102A3000114B13600222E8E7104B13600322E4E716
:102A40000F4B13600622E0E70722DEE70822DCE7EF
:102A50000922DAE70B4B13600A22D6E70C22D4E7EF
:102A60000D22D2E70022D0E70422CEE700000206C2
:102A7000309A0208F4300020CC300020D030002002
:102A8000D4300020D830002038B50D46144641F22D
:102A90008E2303FB00F3C0F5FF407F3093FBF0F083
:102AA000024B984728602060012038BD317F020822
:102AB00070B50D461646074B98474FF08B41064BB5
:102AC0009847064C0649A0470649A0473060286051
:102AD000012070BD397F0208E17F020849810208A8
:102AE00000FEFF460000F042F8B50F461646104CB7
:102AF000A0474FF08B410F4B98470F4D0F49A84708
:102B00000F49A84738604FF081410E4B98470E4B54
:102B1000984705A3D3E900230C4DA8470C4B9847D1
:102B2000A04730600120F8BD2D431CEBE2365A3F30
:102B3000397F0208E17F02084981020800FEFF4652
:102B40000000F042CD7D020891770208957A0208D4
:102B5000757D0208F8B50E46154641F28E2404FB39
:102B600000F4C0F5FF407F3094FBF0F420461E4B8C
:102B7000984730601D4B9C4231D8B4F5EC7F30D380
:102B800040F277514FF42F730022194E06EBC30029
:102B90004068844238BF1A46844228BF19465318F9
:102BA00003EBD3735B109A4201DA9942EEDC104BCF
:102BB00053F8326003EBC202526853F83100871BAE
:102BC000101B00FB07F003EBC1014B68D21AB0FBEE
:102BD000F2F03044074B984728600120F8BD0648C2
:102BE000F8E740F2E730F5E7317F02086BC90100F2
:102BF000E0C60208397F020870FEFFFFF8B50E46F6
:102C0000154641F28E2404FB00F4C0F5FF407F30EE
:102C100094FBF0F420461E4B984730601D4B9C42BD
:102C200031D8B4F5EC7F30D340F277514FF42F73A5
:102C30000022194E06EBC3004068844238BF1A4692
:102C4000844228BF1946531803EBD3735B109A4292
:102C500001DA9942EEDC104B53F8326003EBC2020A
:102C6000526853F83100871B101B00FB07F003EB81
:102C7000C1014B68D21AB0FBF2F03044074B9847C1
:102C800028600120F8BD0648F8E740F2E730F5E794
:102C9000317F02086BC90100209B0208397F0208BE
:102CA00070FEFFFF70B50D461646094B984709495F
:102CB000094B9847094C0A49A0470A49A0470146D1
:102CC000094B98470949A04730602860012070BD32
:102CD000397F02080000C045E17F020849810208EF
:102CE00000FEFF460000C842D17D020800002041DE
:102CF000F8B50F461646124CA0474FF08B41114BCA
:102D00009847114D1149A8471149A84738604FF01D
:102D10008141104B9847104B984707A3D3E90023F4
:102D20000E4DA84700220E4B0E4DA8470E4B98475C
:102D3000A04730600120F8BD75931804560EE13F9E
:102D4000397F0208E17F02084981020800FEFF4640
:102D50000000F042CD7D020891770208957A0208C2
:102D60000000244041780208757D02082DE9F84FE3
:102D70001C481D4B98471D4F1D4E06F59A69DFF8FC
:102D800078B0DFF864A019E01A48D04712E084F860
:102D9000252084F824800023A3622B68A364EB68B9
:102DA0006364E3632364B5F91230A4F84C30AB8A52
:102DB000A4F84E300C3758364E4511D03A68BD68ED
:102DC0002B68002BE0D0344632602A7C95F81180C5
:102DD000531EDBB20F2BDAD95846D0471022D6E764
:102DE000BDE8F88FBC9A02089D750108A8F2020898
:102DF00038310020D09A0208DC9A020838B53A4BE4
:102E00009B6B002B27D0384B196C374B586C374BCA
:102E10009847002863D1344BD3F89030002B30D042
:102E2000314BD3F89810304BD3F89C002F4B984778
:102E3000002856D12C4BD3F8E830002B38D02A4B41
:102E4000D3F8F010284BD3F8F400284B9847003003
:102E500018BF012044E0244CB4F94C00244B98479F
:102E6000E16B244B98470546B4F84E00224B984737
:102E700001462846214B98472149224B9847014655
:102E8000C3E7194CB4F9A400194B9847D4F894102F
:102E9000184B98470546B4F8A600174B98470146CB
:102EA0002846164B98471649164B98470146BAE7ED
:102EB0000D4CB4F9FC000E4B9847D4F8EC100D4BB8
:102EC00098470546B4F8FE000B4B98470146284644
:102ED0000A4B98470A490B4B98470146B2E7012035
:102EE00038BD0120FCE700BF38310020098302080B
:102EF000397F0208D17D0208317F0208E17F020894
:102F00000000C842498102089E4B1A689E4B1B680C
:102F1000002B08BF01239B1A282B40F381832DE946
:102F2000F0438DB0984B1B68002B08BF0123954AD6
:102F30001360964B1878052817D9831FDBB2052B31
:102F400040F23881A0F10C03DBB2012B40F2568233
:102F50008E4B1B780133DBB20D2B40F25E838B4B23
:102F600000221A700DB0BDE8F0830A220DF12E0187
:102F7000874B9847854B1C78BDF82E00854A58230F
:102F800003FB04239D6C002D54D000B2814A5823CA
:102F900003FB042393F825C0BCF1010F1DD0582377
:102FA00003FB04239F6A002F4ED0BCF1000F0DD00D
:102FB000582303FB042302332C2101FB04CC0232EF
:102FC00002EB4C0C23F8020F6345FBD1714A5823E6
:102FD00003FB042301229A62DA6286B26D4B582108
:102FE00001FB043103AA5431A847002800F0AD804A
:102FF000039D684A582303FB04232946186B664B3C
:10300000984750B9634A582303FB0423596B284659
:10301000614B9847002800F092805E4A582303FBDA
:1030200004235A6CDA635B4B582202FB0434A4F885
:1030300050608DE700905E23584A594959485A4CD0
:10304000A0475A48A04783E7524A582303FB04236A
:10305000DB6A2C2101FB043102EB41029080013339
:10306000E046634526DA4B49582202FB0412D3623C
:10307000484A582303FB042393F824300BBB5823FE
:1030800003FB0423B3F90400BCF1010F0EDD582348
:1030900003FB042304332C2101FB04C1023202EBA5
:1030A000410133F9022F10449942FAD1B0FBFCF0F0
:1030B00000B292E7374A582303FB04230022DA6266
:1030C000D6E7BCF1000F0DD0324B582202FB043280
:1030D000023203AB03EB4C0032F8021F23F8021B51
:1030E0008342F9D103A800EB4C0608F1FF3900E058
:1030F0000230B94511DD0137B845F9DD831C86463C
:1031000033F9021BB0F900209142C4BFAEF80010A1
:1031100023F8022CB342F3D1EAE74FEA5C0C0CAB84
:1031200003EB4C0333F9260C0CAB03EB4C0C3CF9D2
:10313000243C184400EBD07040F34F004DE7154A93
:10314000582303FB0423DD636DE7124A582303FB76
:1031500004235A6CDA63DFF84490DFF84480114F9F
:10316000009677234A46414638460F4DA8470398B4
:103170000F4B9847CDE9000178234A46414638462F
:10318000A84750E73431002030460020333100207A
:10319000858801083831002031830208A0F2020836
:1031A000F09A0208B89002089D750108009B020879
:1031B000917702080A220DF12E010638854B9847B7
:1031C000854B1C78BDF82E00844A582303FB04234A
:1031D0009D6C002D54D000B2804A582303FB042379
:1031E00093F825C0BCF1010F1DD0582303FB042325
:1031F0009F6A002F4ED0BCF1000F0DD0582303FB67
:10320000042302332C2101FB04CC023202EB4C0CD0
:1032100023F8020F6345FBD1704A582303FB0423B4
:1032200001229A62DA6286B26C4B582101FB0431AA
:1032300003AA5431A847002800F0AE80039D674AD6
:10324000582303FB04232946186B654B984750B954
:10325000624A582303FB0423596B2846604B984766
:10326000002800F093805D4A582303FB04235A6C26
:10327000DA635A4B582202FB0434A4F8506067E624
:1032800000905E23574A58495848594CA04759481E
:10329000A0475DE6514A582303FB0423DB6A2C2137
:1032A00001FB043102EB410290800133E0466345AB
:1032B00027DA4A49582202FB0412D362474A5823AC
:1032C00003FB042393F8243013BB582303FB04238C
:1032D000B3F90420BCF1010F0FDD4049582303FB73
:1032E000041304332C2000FB04C0023101EB400026
:1032F00033F9021F0A448342FAD1B2FBFCF210B246
:1033000091E7364A582303FB04230022DA62D5E70B
:10331000BCF1000F0DD0314B582202FB04320232B7
:1033200003AB03EB4C0032F8021F23F8021B83426D
:10333000F9D103A800EB4C0608F1FF390CE033F992
:10334000021BB0F900209142C4BFAEF8001023F870
:10335000022CB342F3D10230B94505DD0137B8453F
:10336000F9DD831C8646EAE74FEA5C0C0CAB03EB05
:103370004C0333F9260C0CAB03EB4C0C3CF9243C0E
:10338000184400EBD07040F34F004CE7134A582329
:1033900003FB0423DD636CE7104A582303FB04237B
:1033A0005A6CDA63DFF83C90DFF83C800F4F0096F0
:1033B00077234A46414638460D4DA84703980E4BA1
:1033C0009847CDE9000178234A4641463846A84748
:1033D0004FE700BF11890108333100203831002048
:1033E00031830208A0F20208F09A0208B89002089D
:1033F0009D750108009B0208917702080A220DF1D1
:103400002E010C38874B9847874B1C78BDF82E004F
:10341000864A582303FB04239D6C002D54D000B230
:10342000824A582303FB042393F825C0BCF1010F03
:103430001DD0582303FB04239F6A002F4ED0BCF1FC
:10344000000F0DD0582303FB042302332C2101FB72
:1034500004CC023202EB4C0223F8020F9342FBD160
:10346000724A582303FB042301229A62DA6286B26D
:103470006E4B582101FB043103AA5431A8470028A0
:1034800000F0AE80039D694A582303FB04232946BC
:10349000186B674B984750B9644A582303FB0423C1
:1034A000596B2846624B9847002800F093805F4A8A
:1034B000582303FB04235A6CDA635C4B582202FB4B
:1034C0000434A4F8506043E500905E23594A5A49F9
:1034D0005A485B4CA0475B48A04739E5534A5823FC
:1034E00003FB0423DB6A2C2101FB043102EB4102C4
:1034F00090800133E046634527DA4C49582202FBAD
:103500000412D362494A582303FB042393F824305E
:1035100013BB582303FB0423B3F90420BCF1010FB0
:103520000FDD4249582303FB041304332C2000FB16
:1035300004C0023101EB400033F9021F0A44834208
:10354000FAD1B2FBFCF210B291E7384A582303FBE0
:1035500004230022DA62D5E7BCF1000F0DD0334B13
:10356000582202FB0432023203AB03EB4C0032F868
:10357000021F23F8021B8342F9D103A800EB4C067B
:1035800008F1FF390CE033F9021BB0F90020914239
:10359000C4BFAEF8001023F8022CB342F3D10230BE
:1035A000B94505DD0137B845F9DD831C8646EAE7F4
:1035B0004FEA5C0C0CAB03EB4C0333F9260C0CAB61
:1035C00003EB4C0C3CF9243C184400EBD07040F366
:1035D0004F004CE7154A582303FB0423DD636CE7D7
:1035E000124A582303FB04235A6CDA63DFF8449031
:1035F000DFF84480114F009677234A46414638460B
:103600000F4DA8470398104B9847CDE90001782348
:103610004A4641463846A8474FE7034A1370A1E49B
:10362000704700BFA18901083331002038310020E4
:1036300031830208A0F20208F09A0208B89002084A
:103640009D750108009B02089177020870470000F1
:1036500038B5104BD3F84031C3B90E4CB4F954010E
:103660000D4B9847D4F844110C4B98470546B4F8D5
:1036700056010B4B9847014628460A4B98470A4982
:103680000A4B98470A4B984780B238BD014BD3F894
:103690004801F7E738310020397F0208D17D020860
:1036A000317F0208E17F02080000C8424981020818
:1036B000B983020838B5104BD3F84832C3B90E4C61
:1036C000B4F95C020D4B9847D4F84C120C4B984758
:1036D0000546B4F85E020B4B9847014628460A4B54
:1036E00098470A490A4B98470A4B984700B238BD99
:1036F000014BD3F85002F7E738310020397F020838
:10370000D17D0208317F0208E17F02080000C84233
:10371000498102086D83020838B5104BD3F8A032F6
:10372000C3B90E4CB4F9B4020D4B9847D4F8A412A7
:103730000C4B98470546B4F8B6020B4B9847014628
:1037400028460A4B98470A490A4B98470A4B98471C
:1037500000B238BD014BD3F8A802F7E7383100209A
:10376000397F0208D17D0208317F0208E17F02081B
:103770000000C842498102086D830208F0B40F4B73
:1037800003F59A67012000220D490E4E002564249E
:1037900083F8250083F824009A621A605964D9637B
:1037A00019649A649A631E635D63A3F84C20A3F8BE
:1037B0004E405833BB42EBD1F0BC7047383100204B
:1037C00000FF7F4700FE7F4738B501280CD007284F
:1037D0001BD0174C01212046164B9847164BD97920
:1037E0002046164B984738BD134D114C697D204635
:1037F000134B9847697CC9092046124B9847A97C0E
:10380000C9092046104B9847E3E70B4D084CE97E69
:1038100020460B4B9847697CC1F340012046094B79
:103820009847A97CC1F340012046074B9847D0E751
:10383000B83F0020A15C01085C1B0020355D010839
:10384000C95C0108395D0108755D010870B52A4B36
:103850001B7833B1284B1878012840D007282DD089
:1038600070BD264E23213046254DA847044624210D
:103870003046A847400040EA840044B22521304643
:10388000A8472043C0B2042805D0072812D01A4BFD
:1038900000221A7006E0184B01221A70164B187895
:1038A000184B9847184B1B68002B08BF0123174A79
:1038B0001360CFE7104B07221A70EFE7134B1A681B
:1038C000114B1B68002B08BF01239B1AB3F5FA7F2D
:1038D000C6DB0D4B1A6847F230539A42C0D90C4BE5
:1038E00018710C4B9847084B1B68002B08BF01232D
:1038F000064A1360B4E700BF14360020406300207E
:10390000B9860108F5160108304600200C36002063
:10391000D41B0020C93701082DE9F843474D28463C
:10392000DFF83481C04706462846C047A5F5F47441
:10393000000240EA2620A4F860002846404EB04726
:1039400007462846B047000240EA2720A4F868004E
:1039500005F5C07738463B4DA84781463846A8470D
:10396000000240EA2920A4F8CC0004F51B77384671
:10397000C04781463846C047000240EA2920A4F8E3
:1039800096003846B04780463846B047000240EAC5
:103990002820A4F89E0004F591663046A847074603
:1039A0003046A847000240EA2720A4F80201264832
:1039B000264B984710BBB4F87A100A0242EA11224B
:1039C000A4F8FA21B4F87E100A0242EA1122A4F8FF
:1039D000FC21B4F87C100A0242EA1122A4F8FE216C
:1039E0001B481A4B984790B11A4B0022A3F87E222D
:1039F000A3F88022A3F88222BDE8F883154B0022A9
:103A0000A3F8FA21A3F8FC21A3F8FE21E8E7114B63
:103A1000B3F8B0100A0242EA1122A3F87E22B3F8EA
:103A2000B4100A0242EA1122A3F88022B3F8B210BD
:103A30000A0242EA1122A3F88222DDE7B839002007
:103A4000053E0108C1610108A4410020AD5E0108E6
:103A5000C0420020D0370020013E010870B5204C44
:103A60002046204DA847064604F13C00A8470146E1
:103A700030461D4B98471D4B984724F8140C1C4B9F
:103A80009847A4F886001B4B9847A4F80A0104F550
:103A9000FC70194B9847012816D0A4F5B874B4F8F7
:103AA000EC100B0243EA1123A4F8F8311348124B2F
:103AB000984701280ED0124AB2F822110B0243EAAD
:103AC0001123A2F87C3270BD0D4B4FF69C72A3F807
:103AD000F821EBE70A4B4FF69C72A3F87C22F2E741
:103AE0004039002087570108B553010851360108B5
:103AF000B53601081937010861600108583C0020FB
:103B0000D037002008B5224B1B68002B08BF0123CB
:103B1000204A1360204B9847204B9847204B9847EA
:103B2000204B9847204B1A68194B1B68002B08BF85
:103B300001239B1AB3F5FA7F00DA08BD1B481C4B22
:103B40009847E8B9124B1B68002B08BF0123164A9F
:103B500013601648174B9847174B98471748184B50
:103B600098470C4B1A680A4B1B68002B08BF0123AF
:103B70009B1A144A9342E0DD0C4B00221A70DCE7DA
:103B80001148124B98471248124B9847DAE700BF8A
:103B900030460020083600205D3A0108E96101083E
:103BA000193901084D38010810360020D03700209F
:103BB000AD520108FD5001082520010818360020EB
:103BC0009121010840771B0010300020D91E010808
:103BD00038F402089D75010810B400232E220270EB
:103BE000332242706FF01E0282706FF07002C2705A
:103BF000052280F829205E2242710121817180F81E
:103C00007E3080F87F3080F8803080F881306FF02F
:103C1000230280F8822080F8833080F8843080F896
:103C20008530382280F886204FF0FF3280F88720D8
:103C300080F8882080F88920402480F88A4080F825
:103C40008B1080F88C3080F88D3080F88E4080F8B2
:103C50008F1080F8903080F89130462180F89210D3
:103C600080F8933080F8943080F89530782180F88F
:103C7000961080F897305A2180F8981080F8993083
:103C80003C2180F89A1080F89B301E2180F89C100F
:103C900080F89D3080F89E3080F89F306FF01303DD
:103CA00080F8A03080F8A1206FF0590380F8A2308E
:103CB00080F8A32010BC704710B50446A822014626
:103CC0004FF40070094B9847A6212046084B9847AF
:103CD0002268084B9A4201D0002010BDB4F8A630EB
:103CE000834214BF00200120F7E700BF95CF0108F1
:103CF000ED690108526EFC9200F1A8010346002212
:103D000003F8012B9942FBD16FF0600380F8A230D9
:103D1000652380F8A330342380F8A430012380F891
:103D2000A530522303706E2343706FF0030383703A
:103D30006FF06D03C370704738B5204CA622214642
:103D400000201F4B9847A42120461E4B984705464C
:103D5000A62120461C4B984729461C481C4B9847D7
:103D600022681C4B9A4219D01B48194B9847134C98
:103D700020461A4B9847A4212046124B9847A4F896
:103D8000A400A62221460020154B98471548164B43
:103D9000984740B11548164B984738BDB4F8A43041
:103DA000AB42E1D1F2E71348094B98470D4C20464E
:103DB000114B98472046114B9847EBE718370020E6
:103DC00095CF0108ED6901087D6A01084CF40208ED
:103DD0009D7501082E33E18F74F40208D93B010868
:103DE000A5D0010810300020B93C0108D0370020D0
:103DF000E941010858F40208F93C0108D91E0108FC
:103E0000408970478089704770B50446037E03F08F
:103E10000703037613213248324B984710B9637E6B
:103E2000012B41D014212E482E4B984710B9637EA8
:103E3000022B39D0237E23F0010323761121284859
:103E4000284B984710B9637E012B32D012212448A9
:103E5000244B984710B9637E022B2AD0237E23F08F
:103E60000203237600211E481E4B984728B90021E3
:103E70001D481E4B9847012820D001211848194B96
:103E8000984718B3237E23F004032376657E267EAD
:103E900004F15C00164B9847034632462946154804
:103EA000154DA847207E70BD237E43F00103237685
:103EB000C4E7237E43F002032376D3E7637E012B1E
:103EC000DBD1237E43F004032376DFE7012106489C
:103ED000064B98470128D5D1637E022BD2D1F0E75B
:103EE00040630020B986010858630020F786010866
:103EF000715C01080CF502089D75010808B5017A8E
:103F00000148024B984708BD58630020F786010816
:103F100008B5064B1B7813F0040F04D10178044850
:103F2000044B984708BD044B9847FBE7B830002086
:103F300040630020B9860108FD3E010870B5C469E0
:103F4000504B1B68002B08BF01231B1BB3F57A7F66
:103F500048DB16460D460446002936D14A4B9847A1
:103F600008B1012E3ED12046474B984736E04FF42A
:103F70007A63638100236362A36233E0012E34D04D
:103F8000636A23B994F82C30013384F82C30012370
:103F90006362226B3B4B1B68002B08BF01239B1AFB
:103FA00047F22F5293421DDD638940F6B8329342A7
:103FB00018D9A3F5FA736381324B1B68002B08BF35
:103FC000012323630023A3620CE02F4B984790B991
:103FD0002C4B1B68002B08BF0123E3616581002384
:103FE0006362A36270BD012ED1D1B4F9222012F117
:103FF000640F13D1ECE76368012BB8D0B4F920301B
:10400000002B06DDDB2BB9DCC72B02DD636A012B3D
:10401000E9D0B4F9222012F1640FD9D0012ED7D003
:104020000F2A04DD112AD3DCA36A012BD0D1D4F8E6
:1040300080101648164B9847A36A23B994F82D3080
:10404000013384F82D300123A362626B0D4B1B6892
:10405000002B08BF01239B1A4EF65F229342C1DD5D
:10406000638940F6B8329342BCD9A3F5FA736381F1
:10407000044B1B68002B08BF0123636300236362AA
:10408000B0E700BF30460020113F010830F50208BC
:104090009D75010838B504461D4B984700B938BDD9
:1040A00004F1380528461B4B98471B4B1B68002B17
:1040B00008BF0123181A194B984203DC2046144B01
:1040C000984770B9012200212046154B9847204699
:1040D0000F4B9847C0B90022217A1248124B9847DB
:1040E000DDE728460B4B98470B4B1B68002B08BF9E
:1040F0000123181A0D4981FB0031C017C0EBA11133
:104100000B480C4B9847CAE728460B4B9847E2E709
:10411000FD3E0108795C0108304600201FBF020007
:104120003D3F0108586300202D870108D34D6210E0
:10413000E0F402089D750108F55B010838B50446F6
:104140001C4B984700B138BD1B481C4B9847014693
:104150001B481C4B984704F1380528461A4B9847D2
:104160001A4B1B68002B08BF0123181A184B9842E2
:1041700003DC20460F4B984740B12846154B984723
:104180000122217A1448154B9847DCE728460E4B4C
:1041900098470E4B1968002908BF0121091A104BD6
:1041A00083FB0123C917C1EBA3110E48054B9847A8
:1041B000C9E700BFFD3E0108B83F0020515D01087E
:1041C00090F402089D750108755C010830460020D6
:1041D0001FBF0200AD5B0108586300202D87010856
:1041E000D34D6210B4F402082DE9F04182B00446C8
:1041F0003848394B9847012626700025C4F868597D
:10420000364BC4F82C3104F59670354B9847354B36
:10421000B3F8053003EB830303EB83039B0084F8BF
:104220006C310A2384F830310B2384F831310823B0
:1042300084F8943184F89531092384F8D03184F8D6
:10424000D131042384F8143384F81533062384F819
:10425000503384F8513384F8016284F8F05184F8C3
:10426000E851022384F8853284F8746284F86C6221
:1042700084F8283084F82930032384F8503084F8F7
:104280005130DFF87880D8F81430019500952A462F
:10429000154904F50870154FB847D8F8183001953E
:1042A00000952A46124904F52970B84701950096F1
:1042B0002B462A460F4904F51170B8470195009620
:1042C0002B462A460C4904F53270B84702B0BDE8C7
:1042D000F08100BF58F702089D7501086CF70208CD
:1042E000495601081837002074F702087D5C010860
:1042F0007CF7020884F7020898F7020810300020C3
:1043000010B50446D0F86C291D4BA3FB0212D0F85F
:104310006019A3FB0131920989091A481A4B984781
:10432000D4F8680950B9194B1B68002B08BF01234A
:10433000C4F860390123C4F8683910BD94F83431E9
:104340007BB9124B1B68002B08BF0123D4F86029EE
:104350009B1AC4F86C3904F596700D4B98470120F0
:10436000EBE794F83331042B04D00A48064B984706
:104370000320E2E70848044B98470220DDE700BF2E
:10438000D34D621010F702089D75010830460020D9
:10439000CD5401084CF7020838F70208F8B5044676
:1043A0006048614B9847012384F85839251D2846F9
:1043B0005E4B984728465E4B98475E4B1B68002B28
:1043C00008BF0123181AB0F5FA6F00DAF8BD04F13E
:1043D0002C00564B984704F5F4752846564B9847E1
:1043E00004F508763046524B9847524B1B68002B19
:1043F00008BF0123181AB0F5FA6FE7DB04F51B7745
:1044000038464D4B984728464C4B984718B9384684
:104410004A4B984718B14A48434B9847D6E730462D
:10442000434B9847434B1B68002B08BF0123181AC6
:1044300041F2873398420DDD04F529703C4B9847D3
:104440003C4B1B68002B08BF01231B1A41F287322B
:10445000934203DC3B48344B9847B7E704F53C757F
:1044600000212846384B98472846314B9847314B16
:104470001B68002B08BF01231B1AB3F5FA6FA5DBDD
:1044800004F54B76002130462F4B984728462F4B9A
:10449000984718B930462D4B984718B12C48224BF5
:1044A000984793E72846224B9847224B1B68002BDE
:1044B00008BF01231B1A41F28732934203DC2548CF
:1044C000194B984782E73046194B9847194B1B68A0
:1044D000002B08BF01231B1A41F287329342EEDD05
:1044E00004F5B875002128461B4EB04704F5D67474
:1044F00000212046B04700212846134B9847284604
:104500000B4B98470B4B1B68002B08BF01231B1A52
:10451000B3F5FA6FFFF65AAF002120460A4B9847D1
:1045200054E700BFB8F702089D750108AD570108B0
:10453000755C01083046002095400108113F0108D4
:10454000C4F70208D4F70208E156010851570108E0
:10455000F8F702080CF802088B5701082DE9F04F14
:1045600083B0044600F69410704B984704F517602A
:104570006F4B9847072384F858396E486E4B98471D
:10458000261D30466D4DA847009004F12C07384693
:10459000A847019004F5B8752846694B9847284606
:1045A000684B9847684B1B68002B08BF0123181AFB
:1045B000B0F5FA6F02DA03B0BDE8F08F04F5D67AF1
:1045C00050465F4B98472846604B984718B950466D
:1045D0005E4B984718B304F5F47B58465C4B9847FC
:1045E00004F5087840465B4B9847574B1B68002BF7
:1045F00008BF0123181AB0F5FA6FDCDB04F51B794C
:104600004846534B98475846534B984718B9484625
:10461000514B984750B15148474B9847CBE75048CA
:10462000454B984720464F4B9847C4E74046494B77
:104630009847454B1B68002B08BF0123181A41F20D
:10464000873398420DDD04F52970424B98473E4B65
:104650001B68002B08BF01231B1A41F287329342CB
:1046600003DC4148344B9847A5E704F53C7B002127
:1046700058463E4B98475846364B9847324B1B6836
:10468000002B08BF01231B1AB3F5FA6F93DB04F567
:104690004B73002198461846344B984758462B4B8D
:1046A0009847002837D14046284B9847002832D1F8
:1046B000009B002B33D141F64C5128462C4DA84786
:1046C00041F64C515046A84704F59670294B98473F
:1046D0003046294B984730461A4B98471A4B1B686F
:1046E000002B08BF01231B1AB3F5FA6FFFF663AF67
:1046F0003846214B98473046204B984700287FF496
:104700005AAF38461D4B984700287FF454AF1C48D9
:10471000094B98474FE71B48074B98474BE7019BCE
:10472000002BC8D01848044B9847C4E7AD5B01087C
:10473000F55B0108D0F502089D7501088F57010847
:1047400075560108795C0108304600205157010870
:1047500095400108755C0108113F0108C4F7020883
:10476000DCF502089D430108D4F70208E156010870
:104770008B57010849540108495801081958010884
:10478000FCF50208F8F70208ECF502082DE9F04103
:10479000044600F69410474B984704F51760464BC3
:1047A00098474648464B9847062384F85839201DB9
:1047B000444DA847064604F12C00A847074604F5D7
:1047C000B8752846404B98472846404B9847404B81
:1047D0001B68002B08BF0123181AB0F5FA6F01DA25
:1047E000BDE8F08104F5D6784046374B9847284617
:1047F000384B984718B94046364B984710B304F5E4
:10480000F4752846344B984704F50870334B9847A5
:104810002F4B1B68002B08BF0123181AB0F5FA6F45
:10482000DEDB04F51B7840462B4B984728462C4B83
:10483000984718B940462A4B984750B12948204B11
:104840009847CDE72046284B984728481C4B984767
:10485000C6E704F53C7500212846254B98472846B5
:104860001E4B98471A4B1B68002B08BF0123181AD0
:10487000B0F5FA6FB4DB04F54B78002140461C4BD1
:1048800098472846134B984748B94046114B9847DC
:1048900028B946B904F59670164B9847A0E7164814
:1048A000074B98479CE7002FF4D01448044B9847D7
:1048B000F0E700BFAD5B0108F55B01080CF60208EC
:1048C0009D7501088F57010875560108795C01082C
:1048D000304600205157010895400108755C0108D9
:1048E000113F0108C4F702089D430108DCF50208E6
:1048F000E156010849540108F8F70208ECF50208EE
:1049000070B504463848394B9847022384F8583923
:10491000251D2846364B98472846364B9847364B38
:104920001B68002B08BF0123181AB0F5FA6F00DAD4
:1049300070BD04F12C002E4B984704F5F475284601
:104940002E4B984704F508702A4B98472A4B1B6852
:10495000002B08BF0123181AB0F5FA6FE8DB04F545
:104960001B763046254B98472846254B984718B963
:104970003046234B9847F8B104F5B8752846214BCB
:1049800098472846204B98471B4B1B68002B08BFB5
:104990000123181AB0F5FA6FCADB04F5D674204665
:1049A000184B984741F64C512846184DA84741F6F8
:1049B0004C512046A847BBE704F53C75002128462A
:1049C000134B984728460B4B98470B4B1B68002B03
:1049D00008BF0123181AB0F5FA6FA9DB002104F50E
:1049E0004B700B4B9847C7E7CCF602089D75010842
:1049F000AD570108755C010830460020954001085C
:104A0000113F010875560108795C01088B570108B0
:104A1000E15601082DE9F04F83B0044600F69410EA
:104A2000824B984704F51760814B98478148824B29
:104A30009847052384F8583904F53C7840467F4D63
:104A4000A84704F54B7A5046A84704F5F47630465B
:104A50007B4DA8478346009004F51B773846A8474E
:104A600081465B461BB13046764B984710BB04F538
:104A700011706E4B9847B9F1000F03D03846714B57
:104A80009847E0B904F53270684B984704F5B8755B
:104A900028466D4B984728466C4B98476C4B1B68D3
:104AA000002B08BF0123181AB0F5FA6F0CDA03B017
:104AB000BDE8F08F04F511705D4B9847DBE704F516
:104AC00032705B4B9847E1E704F5D67301931846C3
:104AD0005D4B984741F64C512846DFF8B4B1D847B2
:104AE00041F64C510198D84728465A4B984718B977
:104AF0000198584B984700B3251D2846564B9847B8
:104B00002846564B9847524B1B68002B08BF012381
:104B1000181AB0F5FA6FCADB04F12C0B58464E4B4D
:104B2000984728464E4B984718B958464C4B9847DB
:104B300050B14C48404B9847B9E74B483E4B9847DB
:104B400020464A4B9847B2E740463F4B984740467D
:104B50003E4B98473E4B1B68002B08BF0123181A99
:104B6000B0F5FA6FA3DB5046374B98474046394BB8
:104B7000984700282CD0009B002B35D1B9F1000FAD
:104B800002D0B9F1000F46D104F51170DFF8F480BE
:104B9000C04701463648284DA84704F53270C04743
:104BA00001463448A8473046334B984704F508700F
:104BB000264B9847264B1B68002B08BF01231B1A66
:104BC000B3F5FA6FFFF673AF38462B4B98476EE795
:104BD0005046204B98470028CDD12046274B984778
:104BE0002748154B984762E7B9F1000F09D104F542
:104BF0001170244B98471428C3D93046224B98474C
:104C0000C2E704F511701F4B98471428EFD91F48CD
:104C1000094B9847B8E704F532701A4B98471428A7
:104C2000B2D93046184B9847AEE700BFF55B010894
:104C3000AD5B010848F502089D7501088157010820
:104C4000093E0108FD3E010875560108795C01081E
:104C50003046002051570108AD570108755C010826
:104C60001958010868F5020854F502089D43010827
:104C7000A0F50208B8F502083D4101080149010804
:104C800078F502086D5C0108954001088CF5020872
:104C90008B57010810B504462F48304B98470B231B
:104CA00084F85839B4F95A292D4BB3F9A0309A42F7
:104CB00003DDB4F9E237A02B21DCB4F95A29284BE3
:104CC000B3F9A2309A422EDCB4F95A29244BB3F935
:104CD000A2309A423BDA04F51760224B9847224BE8
:104CE0001B68002B08BF0123181A204B984202DCD6
:104CF0002378002B2BD020461D4B98472AE004F642
:104D00009410184B9847184B1B68002B08BF0123C1
:104D1000181A164B984202DC2378002BCDD020467F
:104D2000144B984716E004F517600E4B98470E4B4E
:104D30001B68002B08BF0123181A0C4B984202DC99
:104D40002378002BC0D020460B4B984702E020462A
:104D50000A4B984710BD00BFACF702089D750108CB
:104D600018370020755C010830460020C027090074
:104D70005D450108154A01088D47010801490108F0
:104D800038B50F4B9B6BBBB90D4CB4F94C000D4BB8
:104D90009847E16B0C4B98470546B4F84E000B4B17
:104DA0009847014628460A4B98470A490A4B9847B4
:104DB0000A4B984700B238BD014B186CF8E700BFAA
:104DC00038310020397F0208D17D0208317F020886
:104DD000E17F02080000C842498102086D83020891
:104DE00038B5054600F5FD642046084B9847FF2876
:104DF00007D02046054B9847283800EB800000B2CA
:104E000038BD2846024B9847FAE700BF115D0108FC
:104E1000814D010838B5104BD3F89030C3B90E4C12
:104E2000B4F9A4000D4B9847D4F894100C4B984754
:104E30000546B4F8A6000B4B9847014628460A4B96
:104E400098470A490A4B98470A4B984700B238BD21
:104E5000014BD3F89800F7E738310020397F02087A
:104E6000D17D0208317F0208E17F02080000C842BC
:104E7000498102086D83020838B5174BD3F890308A
:104E800083B1154BD3F8984014492046144B9847EA
:104E9000F8B900212046134B9847134B984719380F
:104EA00000B238BD0C4CB4F9A400104B9847D4F8AC
:104EB00094100C4B98470546B4F8A6000C4B984745
:104EC000014628460B4B98470B490C4B9847044624
:104ED000DAE70B48E5E700BF38310020000096C351
:104EE00009830208D17D02086D830208397F020818
:104EF000317F0208E17F02080000C84249810208B0
:104F0000D4FEFFFF38B505460B4B9847044610F515
:104F1000967F01D0204638BD05F5FD652846074B34
:104F20009847FF28F6D02846044B98472D3800EBC9
:104F3000800004B2EEE700BF794E0108ED5C010885
:104F40002DE9F8430646404F102138463F4DA8470B
:104F500080460F213846A84781460E213846A8478B
:104F6000840044EA490444EA080464B20D21384646
:104F7000A84744EAC000C0B2354B1B7883420AD030
:104F8000334B1870334B1B68002B08BF0123324A88
:104F90001360BDE8F883304A10682E4A1268002A70
:104FA00008BF01222D4991F829404FF47A7101FB85
:104FB00004F1121A91421ADA082B15D0042B1CD0D6
:104FC0000C2B1ED0022B20D00A2B22D0062B24D053
:104FD0000E2B26D0012B28D0092B2AD0052B2CD123
:104FE000FA2386F85C3902E0C82386F85C3996F823
:104FF0005C191B481B4B9847CBE7C82386F85C39E4
:10500000F5E7C82386F85C39F1E7C82386F85C39F0
:10501000EDE7C82386F85C39E9E7D22386F85C39E6
:10502000E5E7DC2386F85C39E1E7E62386F85C39BE
:10503000DDE7F02386F85C39D9E7DC2186F85C19D6
:105040000948084B9847D2E740630020B986010819
:10505000BE37002030460020C0370020183700201F
:105060003CF602089D75010818F60208F8B51C4DBB
:10507000162128461B4CA047064617212846A04764
:10508000074618212846A047800040EA47003043E1
:10509000C0B2154B1B7883420CD0144B1B784BB914
:1050A000134B1B68002B08BF0123124A13600F4BE0
:1050B00001221A700F4B19680D4B1B68002B08BF9B
:1050C00001230D4A92F829404FF47A7202FB04F250
:1050D0005B1A9A42BCBF044B1870034B1878F8BD9A
:1050E00040630020B9860108C4370020C53700207E
:1050F00030460020C83700201837002070B582B035
:1051000004464F4E717D4F484F4DA84731684F4878
:10511000A84720464E4B984720464E4B984701469D
:1051200084F814084C48A8474C484D4B9847014612
:1051300084F815084B48A84794F81438052B0FBF7E
:1051400094F81538062384F81538002384F8583964
:1051500094F8581944483C4B9847444B98470028CA
:105160004AD12046424B984705462046414B984736
:1051700006462046404B9847034632462946201DA6
:105180003E4DA847B4F9E437B4F9E627B4F9E2177D
:105190003B482D4DA84720463A4B984794F85C2948
:1051A000A4F8E02794F85839013BDBB2022BB4F99C
:1051B000E637B4F9E4170191B4F9E217009194BF0E
:1051C0000021012104F618002F4DA847D4F85039CA
:1051D000B4F8E417C91A09B2A4F85A192B481A4BA3
:1051E000984794F85839013B072B0BD8DFE803F0B8
:1051F0000C1014181C200A242548134B98472046ED
:10520000244B984702B070BD2046234B9847F9E7DE
:105210002046224B9847F5E72046214B9847F1E777
:1052200020461C4B9847EDE720461E4B9847E9E780
:1052300020461D4B9847E5E72046164B9847E1E787
:105240005C1B002050F602089D7501086CF60208F0
:10525000014301086D50010888F60208B83F00209C
:105260008B5D01089CF60208ACF60208FD2D0108D2
:10527000E14D0108054F0108154E0108555B010875
:10528000D8F60208414F0108B15A010804F7020894
:10529000BCF60208014901085D4501088D47010877
:1052A000154A0108954C01089D430108114B1A68E5
:1052B000114B1B68002B08BF01239B1A47F2305289
:1052C000934214DD70B504460B4B1B68002B08BFDE
:1052D0000123084A136000F50870084EB047084DD6
:1052E000686104F52970B047A861012070BD0020F5
:1052F000704700BFCC37002030460020695C0108B1
:1053000010300020224B0022C3F87423C3F8782306
:10531000012083F868031F49C3F87013C3F894246D
:10532000C3F8982483F88804C3F89014C3F8B4250C
:10533000C3F8B82583F8A805C3F8C026C3F8B0158C
:10534000C3F8D026C3F8D42683F8C406C3F8DC27F4
:10535000C3F8CC16C3F84C29C3F850290E49C3F83A
:10536000541983F81E2841F28831C3F83418C3F861
:105370003C180521C3F828181421C3F83018C3F8C5
:1053800024283022C3F82C289622C3F838287047E6
:10539000D0370020F8610020E09304007047704788
:1053A00043888B4203D983888B4298BF01800020B9
:1053B0007047000070B50E460E4C014620460E4D5B
:1053C000A8473146A01DA84720880C4B1B88834264
:1053D00004D10B4B1A88E3889A4209D0074B1880F6
:1053E000044BD988064B198000231A46054CA04768
:1053F00070BD00BF8C410020A153010888410020EE
:105400008A41002031D3010870B5044609480A4B8F
:1054100098470A4E012221793046094DA8470022BB
:1054200061793046A847074B1B68002B08BF012352
:10543000636370BD98F802089D75010858630020E9
:105440002D8701083046002070B5044609480A4BF4
:1054500098470A4E002221793046094DA84701227B
:1054600061793046A847074B1B68002B08BF012312
:10547000A36370BDA4F802089D750108586300205D
:105480002D8701083046002010B504460548064B1C
:105490009847208E41F29313984294BF0020012038
:1054A00010BD00BF70F802089D75010810B50446D4
:1054B0000448054B9847208EB0F5FA7F8CBF00203A
:1054C000012010BD84F802089D75010810B504463E
:1054D000C379062B3CD8DFE803F00412373C9C71FB
:1054E0009F004F4B984710B90223E37130E02046EC
:1054F0004C4B98470123E3714B4A136028E04B4B18
:105500009847F0B9626B4A4B1B68002B08BF012318
:105510009B1A49F63F4293421ADD2046454B984775
:105520002046424B984794F83C30002814BF184658
:10553000581C84F83C000623E3713F483F4B9847D2
:1055400006E00023E37103E03A4B98470323E3713D
:1055500010BD334B984790B1334B1B682BB9204695
:10556000304B98470523E371F2E72046314B9847CB
:105570000023A3710422E27184F83C30E8E7A26BB7
:105580002B4B1B68002B08BF01239B1A49F63F4297
:105590009342DDDD2046274B98472046204B984715
:1055A00094F83C30002814BF1846581C84F83C007E
:1055B0000623E3712248214B9847C9E71B4B9847C4
:1055C000F0B9626B1A4B1B68002B08BF01239B1AB2
:1055D00049F63F429342BBDD2046164B9847204692
:1055E000124B984794F83C30002814BF1846581CBA
:1055F00084F83C000623E3711248104B9847A7E754
:1056000020460C4B98470323E371074B01221A6095
:105610009EE7012303729BE70123037298E700BF13
:10562000AD5401080954010898410020895401082B
:10563000304600204954010830F802089D750108E1
:1056400044F8020858F80208002303728371C371FA
:1056500080F83D3080F83C300386704708B590F8FC
:1056600024100248024B984708BD00BF5863002031
:10567000F786010810B50446114B984700B110BDDC
:105680002046104B9847104B1B68002B08BF012386
:10569000181A42F20F73984203DC2046084B9847D1
:1056A00048B1012294F824100848094B9847204635
:1056B000084B9847E3E70848084B9847DFE700BFE7
:1056C0005D560108755C01083046002058630020D3
:1056D0002D870108AD5B0108B0F802089D7501082F
:1056E00038B50446124B984700B938BD2046114BD7
:1056F0009847114B1B68002B08BF0123181A42F270
:105700000F73984203DC2046094B984758B900258F
:10571000A5632046094B98472A4694F82410084868
:10572000084B9847E1E70848084B9847DDE700BF7A
:105730005D560108795C010830460020F55B0108E0
:10574000586300202D870108D4F802089D750108D0
:1057500008B5074B1B7813F0040F05D190F82510FE
:105760000448054B984708BD044B9847FBE700BF2A
:10577000B830002040630020B98601085D5601085A
:1057800090F834007047808D704781857047002005
:105790007047000008B590F824100248024B984763
:1057A00008BD00BF58630020F786010810B5044605
:1057B000114B984700B910BD2046104B9847104B2D
:1057C0001B68002B08BF0123181A42F20F7398427E
:1057D00003DC2046084B984748B92046094B9847B8
:1057E000002294F824100848084B9847E3E708483B
:1057F000084B9847DFE700BF95570108795C01081F
:1058000030460020F55B0108586300202D87010811
:1058100020F902089D75010808B5074B1B7813F0A5
:10582000040F05D190F825100448054B984708BD92
:10583000044B9847FBE700BFB830002040630020CE
:10584000B98601089557010810B50446114B9847D1
:1058500000B110BD2046104B9847104B1B68002B21
:1058600008BF0123181A42F20F73984203DC204646
:10587000084B984748B1012294F824100848094B76
:1058800098472046084B9847E3E70848084B984755
:10589000DFE700BF95570108755C0108304600201E
:1058A000586300202D870108AD5B0108F8F8020855
:1058B0009D75010870B40A68C1F828218B699A4265
:1058C000C8BFC1F828315B42D1F828219A42B8BF3D
:1058D000C1F828318B79002B00F084804A6A002AB5
:1058E00040F09980CB694B624C69D1F81831A342E2
:1058F000A4BF0023C1F81831D1F8183101EB83009F
:10590000002585620D791DB1D1F82861002E08DCD3
:105910004E791EB1D1F82861002E02DBD1F8286142
:10592000866201339C42D8BF0023C1F8183100239E
:10593000C1F82C319C420BDD18460A3251F8222066
:1059400010440133DBB21A469C42F6DCC1F82C014C
:10595000D1F82C3193FBF4F4C1F82C411DB1D1F8EE
:105960002831002B0ADC4B791BB1D1F82831002BF0
:1059700004DBD1F81C311C44C1F81C410A6A0D69D2
:10598000642404FB02F494FBF5F4D1F81C31A34227
:10599000C8BFC1F81C416FF0630303FB02F393FB24
:1059A000F5F3D1F81C219A42B8BFC1F81C31D1F8E7
:1059B0002821CB6803FB02F3184C84FB0320DB1780
:1059C000C3EB6013C1F82431D1F81C0100FB05F0D2
:1059D00084FB0024C217C2EB6412C1F820211344D7
:1059E0008B6018E000228A60C1F81821C1F82021DC
:1059F000C1F81C21C1F82421C1F82C21486990422A
:105A000009DDD1F828410A3241F822400133DBB2E6
:105A10001A468342F7DB70BC704700BF1F85EB510D
:105A200038B50446059DF1B108460121A171E2B9DE
:105A30004FF49672E26003F11402A3F11201A9423D
:105A400032D20699691A11F10A0FACBF0021012167
:105A50006171023295420DD2069AA81A0A28D4BF63
:105A60000020012006E0002282714FF4FA72E26009
:105A7000012060712071049A9B1A142B0DDD1423F0
:105A8000236021462046094B9847636AB3F5FA73B1
:105A900048BF41F28833636238BD13F1140FB8BFB9
:105AA0006FF013032360ECE70146D1E7B558010816
:105AB000F0B585B0054614460A9E0296D0F8382106
:105AC000019200932346D0F83C21003118BF0121F8
:105AD0001D4FB8471D49D1F87E3003EB830303EB1C
