:020000040801F1
:10000000D07F0010355B01088901010889010108D2
:100010008901010889010108890101080000000027
:100020000017011003F8A25900000000890101081F
:10003000890101080000000079610108695A01087E
:100040008901010889010108890101088901010864
:100050008901010889010108890101088901010854
:100060008901010889010108890101088901010844
:10007000510502082D6C0108B5040208956B0108B2
:10008000890101088901010889010108D5180208C0
:10009000011C0208ED1C0208B91F020889010108B1
:1000A0008901010889010108890101088901010804
:1000B000A1750108DD75010819760108F1700108C4
:1000C00075700108510F0208D50E02088901010858
:1000D00089010108890101088901010889010108D4
:1000E00089010108890101088901010889010108C4
:1000F00089010108890101088901010889010108B4
:100100008901010889010108557601088901010862
:100110008901010889010108917601088901010816
:1001200089010108890101081D0B020889010108E4
:100130008901010889010108890101084D1A020895
:10014000D91D0208C91E0208C91F02088901010839
:10015000A1640108810A02080D64010889010108EF
:100160008901010889010108890101088901010843
:100170008901010889010108890101088901010833
:100180008901010889010108FEE7000010B5054C4E
:10019000237833B9044B13B10448AFF30080012333
:1001A000237010BD0000002000000000FCFB0208CE
:1001B00008B5034B1BB103490348AFF3008008BDEA
:1001C0000000000004000020FCFB020870B584B0B1
:1001D00005460E4604AB002443F8044D0092FF226E
:1001E000084CA047044638B1039A29460648074BF5
:1001F0009847204604B070BD324629460448034B58
:100200009847F6E7A5B60108388502088567010812
:100210002885020830B585B0054604AB002243F8B6
:10022000042D0091FF220C490C4CA04740B9044614
:100230000B4909480B4B984740B1204605B030BDEB
:1002400029460948094B98470024F6E729460848FB
:10025000064B98470124F0E7E0140020A5B60108FA
:10026000D8830208C97A02089C85020885670108BC
:10027000B485020870B582B005460E4602AC002374
:1002800044F8043D13462246094CA047044640B1B9
:10029000019B324629460748074DA847204602B031
:1002A00070BD324629460548034B9847F6E700BF24
:1002B000F5B60108708502088567010860850208A7
:1002C000F8B507460D4616461C461A460B490C4B18
:1002D0009847034628B9094928460A4B98470346D8
:1002E00008B91846F8BD224629463846064B9847B5
:1002F0000346326801323260F3E700BFE0140020A9
:10030000CD010108C97A0208750201082DE9F047FC
:1003100084B081460E469046002303930146274849
:10032000274B984727494846274B984700282DD008
:1003300026494846244B984700282DD14246244957
:100340002448254B984706EB860676000024DFF804
:10035000B4A0224D224F0120D0470134CDF80080B7
:1003600003ABFF2229464846B847D0B91D49284665
:10037000154B9847E8B129461B48114B9847A642B0
:10038000E9DA494619480E4B98470FE042461049B2
:100390001748114B9847D6E749461648084B9847E7
:1003A000D1E7154A49461548054B984704B0BDE8C2
:1003B000F08749461248024B9847F7E7A4830208A2
:1003C00085670108D0830208C97A0208F883020809
:1003D000DC8302080484020875020108E01400208E
:1003E000A5B60108D8830208448402084C84020898
:1003F000E483020818840208388402082885020869
:10040000B48502084D5F01088AB110B44C1E114436
:100410000139084A14F8013F4340DBB252F8233057
:1004200083EA10208C42F5D1C04310BC7047C04312
:10043000704700BFCC85020838B505460C1F224620
:1004400001464FF0FF30054B98472B19020E2A55F5
:10045000020C5A70020A9A70D87038BD090401085B
:1004600038B50546054C4FF0FF312046044B984700
:10047000044B1D702046044B984738BDE016002001
:1004800089600108E41600200561010838B5084BB1
:100490001C780CB9204638BD064D4FF0FF31284678
:1004A000054B9847024B1C782846044B9847F1E7C8
:1004B000E4160020E01600208960010805610108AB
:1004C00010B5044601460C480C4B984758B10C4BEC
:1004D00001221A6021460B48084B984738B90A4B4D
:1004E00000221A6010BD064B00221A60F2E7064B8C
:1004F00001221A60F6E700BFD08302081502010846
:10050000F01A0020F8830208F41A00202DE9F04FB9
:10051000BFB004460220AA4B98478CB12546002460
:10052000DFF85883A74FA84E98F800202146384698
:10053000B04701344FF47A70A44B9847AC42F3D1E2
:1005400003209F4B9847002308931C46DFF830B3E5
:100550009D4E0FE1002D4FF0FF30C8BF0020002D51
:1005600040F3C9809A4D224629469A489A4B9847AB
:100570009A4B294605F1120011F8012B03F8012FBF
:100580008142F9D1924D224629469548924B98478F
:1005900029469448B047944B294605F1120011F8BA
:1005A000012B03F8012F8142F9D1894D22462946BA
:1005B0008E48894B984729468D48B0478D4B294630
:1005C00005F1140011F8012B03F8012F8142F9D134
:1005D000224605218848894DA8472246052188489A
:1005E000A847DFF8A0A223460AAA51468548864DAF
:1005F000A847DFF8889299F8003003EB43012346BF
:100600000AAA824850F821108148A847DFF878826A
:1006100023460AAA41467F48A8477F4F23460AAA95
:1006200039467E48A84723460AAA51467C48A8472F
:1006300099F8003003EB430123460AAA794850F8A1
:1006400021107948A84723460AAA41467748A84777
:1006500023460AAA39467648A84705460A9900293A
:1006600078D1744E002231467348744CA047002262
:1006700031467348A04700223C215F485F4CA047A9
:10068000002205215E48A04729466E484E4B9847F8
:10069000002D40F03D836C484B4B98470A246B4E2D
:1006A000DFF8AC81484F002108A8B047B0F1FF3F08
:1006B00040F0EC80013C14F1020F00F02D83089B08
:1006C00040F20B22934200F00483B3F5147F00F054
:1006D0000983B3F5027F00F00E8321465C483A4C53
:1006E000A04708995B48A0476420384B98476FF0B3
:1006F0000203079325E007461AE029465648B0470B
:100700005648B0476420314B984736E02946524856
:10071000B0475348B04764202C4B98472DE02946FA
:100720004D48294CA0474F48A0476420274B984785
:100730004D48254CA04739464248A0474FF0FF336B
:100740000793079BB3FA83F040093FB0BDE8F08FF1
:100750000746EDE74548B047224645494548374BEF
:100760009847054643F69820184B98470A9B002B5C
:100770003FF477AF0A9424946425214624A8D847EF
:10078000B0F1FF3F7FF4E6AE013DB5F1FF3FDFD0B2
:10079000249B40F20B229342AFD0B3F5147FB5D027
:1007A0000746B3F5027FBAD029462B48064CA0472E
:1007B00024993148A0476420044B9847B8E700BF0C
:1007C0006104010814800208856701084D5F010873
:1007D000E0150020E8800208CD010108371C002048
:1007E000F4800208008102084B1C002014810208DA
:1007F00020810208BF1B0020D08302080D030108DE
:10080000F883020830810208C102010868840208E6
:100810003C81020850810208608102086881020858
:1008200078810208C8840208848102088C81020849
:100830009C81020824E60208EC8102087502010886
:1008400004820208C88002081C820208D9B7010885
:100850003082020860820208288002083080020884
:100860005480020868800208AC800208AC8102084B
:1008700054F70208DC8102088C8002080C0000108A
:100880003DB70108608A0208448102080795002CE0
:1008900040F3468208AF002400943B4606221146EE
:1008A0002046DFF814A3D047224639462046DFF819
:1008B0000C93C84704940397029401940126009670
:1008C000B34B324644F248312046DFF8F482C04749
:1008D00000943B46062211463046D0472246394610
:1008E0003046C84704940397029401940096A84B9D
:1008F000324644F248313046C0470DF1F80908232A
:1009000049F8D43DDFF8BC820194009743464A463B
:10091000314640F2F230DFF8B0A2D04701940097A0
:1009200043464A46314640F21E50D047DFF89C828B
:100930000194009743464A46314640F2FE30D04784
:100940000194009743464A46314640F22A50D04728
:10095000DFF87CB2DFF87C8298F8003003EB4303C9
:100960008C4800EB83039868019400975B464A46E5
:100970003146D04798F8003003EB4303864A02EB38
:1009800083039868019400975B464A463146D047F6
:1009900004940397029401940096334640F2F23295
:1009A00040F2E93120467D4DA84705940497DFF8D1
:1009B0002892B9F80030039302960196744B009385
:1009C0002346774A40F2E9312046DFF810B2D84793
:1009D000744A07CA0DF1280C8CE807000DF1900A43
:1009E000714A92E803008AE8030001940097634685
:1009F000324640F2E93120466C4DA84701940097F9
:100A00005346324640F2E9312046694DA8470494E6
:100A10000397029401940096334640F2FE3240F26E
:100A20001A4120465D4DA84705940497B9F8003057
:100A3000039302960196564B00932346584A40F280
:100A40001A412046D8470DF1280C5A490FC9ACE885
:100A500007008CF80030544A92E803008AE803004B
:100A6000019400970DF1280C6346324640F21A417A
:100A700020464E4DA847019400975346324640F217
:100A80001A4120464A4DA84798F8001001FA06F38B
:100A90005A18404800EB820292680B4400EB830333
:100AA00059680494039702940194009623462046C3
:100AB0003A4DA84798F8003003EB43033548054604
:100AC00000EB8303596805940497B9F80030039349
:100AD000029601962E4B00932346314A2046D84772
:100AE0000DF1280C33490FC9ACE807008CF8003031
:100AF00098F8003003EB430305EB83035968019436
:100B000000970DF1280C634632462046274DA84732
:100B100004940397029401940096334640F21E52C7
:100B200040F2E93130461D4DA84705940497B9F8C5
:100B30000030039302960196154B00932346184A02
:100B400040F2E9313046D847164A07CA0DF1280C61
:100B50008CE80700144A92E803008AE80300019435
:100B600000976346324640F2E93130460F4DA847C0
:100B7000019400975346324640F2E93130460C4D1D
:100B8000A84704940397029401940096334627E003
:100B900040420F0068840208C8840208D1B90108E5
:100BA00020A10700848202086081020841BA01087E
:100BB00015BB010890820208C1B8010819B90108E3
:100BC0005DB901080000001071BB010804000010AD
:100BD000080000100C0000105E1C00209DBA0108E7
:100BE00040F22A5240F21A4130464F4DA847059430
:100BF0000497B9F800300393029601964B4B00938B
:100C000023464B4A40F21A413046D8470DF1280C92
:100C100048490FC9ACE807008CF80030464A92E812
:100C200003008AE80300019400970AAA134632469B
:100C300040F21A413046414DA8470194009753466F
:100C4000324640F21A4130463D4DA84798F8001010
:100C500001FA06F35A183B4800EB820292680B44F3
:100C600000EB83035968049403970294019400965F
:100C7000234630462C4DA84798F8003003EB430339
:100C80003048054600EB8303596805940497B9F88A
:100C90000030039302960196244B00932346244A86
:100CA0003046D8470DF1280C22490FC9ACE807009F
:100CB0008CF8003098F8003003EB430305EB830316
:100CC0005968019400970AAB324630461B4DA8473D
:100CD00037E521464046B8471B48B84764201B4BC0
:100CE0009847E0E421464046B8471948B847642091
:100CF000164B9847D7E421461648174CA04717488B
:100D0000A0476420114B98476FF00103079318E543
:100D10004FF0FF33079314E56FF00303079310E5DB
:100D20006FF0030307930CE5D1B9010840420F00AF
:100D300020A10700908202086081020841BA0108E0
:100D400015BB0108C8840208408202084D5F0108F3
:100D50005480020830820208856701086880020812
:100D60002DE9F04F93B04FF0000BDFF818A2CDF84B
:100D700018B000F01BBC6E4B9847009023236D4ABF
:100D80006D496E486E4CA047694B9847002844D087
:100D90006C4B9847009009AB0022022108466A4C30
:100DA000A0476A4B9860002874DB684C41F62C33EE
:100DB000A38001466648624B98474FF00203ADF8A6
:100DC000283000230B93A088624B9847ADF82A0087
:100DD000A4685C4B9847009009AB20220AA92046E2
:100DE0005D4CA04700285ADB584B01221A601DE0D9
:100DF00009995A48524B9847C6E712AC54F8241D3B
:100E000057484F4B9847574B9D684E4B9847024663
:100E100021462846544B9847B6E7454B98470090E3
:100E20002323444A44494548454CA047404B9847F2
:100E3000002844D0434B9847009009AB0022022180
:100E40000846414CA047494B9860002845DB474C79
:100E500044F24923A38001463D48394B98474FF05F
:100E60000203ADF8283000230B93A088394B984734
:100E7000ADF82A00A468334B9847009009AB2022B4
:100E80000AA92046344CA04700282BDB374B01220F
:100E90001A601DE009993148294B9847C6E712AC02
:100EA00054F8241D2E48264B9847284B9D68254B07
:100EB00098470246214628462B4B9847B6E71C4BDD
:100EC0009847009023231B4A1B491C481C4CA047F1
:100ED00000230A93264D274C1FE009991F48184B01
:100EE0009847F5E712AC54F8241D1D48144B984759
:100EF0001E4B9D68134B98470246214628461A4BC5
:100F00009847E5E7002109A81B4B98470690002861
:100F10003AD04FF47A70194B98470020A8472368BD
:100F2000002BEFD1164B1B68002BF2D0EAE700BF75
:100F3000691A0108E8890208A0820208B88202083A
:100F400085670108751A0108FDA80108A41C002086
:100F5000F48202081DAB010851A90108DC820208D5
:100F600004830208D01C0020A9A90108781C0020D5
:100F7000C1040108F01A002089B801084D5F01087A
:100F8000F41A0020C4460020744F754C396820467E
:100F9000744DA84739687448A847DFF8049299F857
:100FA000003003EB4303714A02EB830358684FF0B0
:100FB000000BCDF804B009AD00953B682246012135
:100FC000DFF8E081C0470146694E3060099A694800
:100FD000694CA0473B6899F8002002EB4202674940
:100FE00001EB82025068CDF804B000955E4A012101
:100FF000C0470146624F3860DFF8AC91099A484615
:10100000A0475B462A46012140F2E930DFF89C8187
:10101000C047316801433160099A5648A0475B4692
:101020002A46012140F2E930C0473968014339605E
:10103000099A4846A0475B462A46012140F21A40D9
:10104000C047316801433160099A4A48A0475B466E
:101050002A46012140F21A40C047396801433960ED
:10106000099A4846A047DAF80090D94508BF4FF0E2
:101070000109DFF83C814F46AEE0424B186800287A
:1010800040F30C81404A414B184413F8011B02F80D
:10109000011B8342F9D101E13A4B1868002840F363
:1010A00013813B4A394B184413F8011B02F8011B0A
:1010B0008342F9D108E1374B1868002840F31D81BD
:1010C000354A324B184413F8011B02F8011B8342C6
:1010D000F9D112E12F4B1868002840F325812F4ADF
:1010E0002A4B184413F8011B02F8011B8342F9D163
:1010F0001AE11A4B1B682A4A127802EB42021B497A
:1011000001EB820250680022019209AE0096144A57
:101110000121244CA047164C2060099A06991548D5
:10112000154DA84700233246012140F2E930DFF88F
:101130007CB0D847216801432160099A0D48A8472F
:1011400000233246012140F21A40D847216801436A
:101150002160099A0748A847C4E100BF08000010B1
:10116000AC11002039040108101200206884020824
:10117000601C00201C83020885670108C8840208DF
:10118000641C0020000000101C100020E816002045
:101190008010002004000010E410002048110020FE
:1011A0000C000010CDBB01083883020845BC0108C3
:1011B00084120020A648A74B9847DAF800000028C0
:1011C00008BF0120A0EB0900B0F5FA7F80F0C381D1
:1011D000C0F5FA70A04B9847A04B9847042840F000
:1011E000C381DAF80090B9F1000F08BF4FF0010990
:1011F000D8F800300133C8F80030994C4FF0FF3177
:101200002046984B9847D8F80020130643EA12630B
:10121000110A01F47F410B43120202F47F021343CF
:10122000914E3360914A13602046914B9847DFF806
:1012300064B2904D2B7803EB43038F4A02EB830398
:1012400058680024009409ABDBF8002031468B4E2F
:10125000B047DBF800202B7803EB4303884901EB10
:1012600083035868009409AB8049B04764207A4BE7
:10127000984712A941F8204D049409AB0393814B80
:101280000293814B01930DAB00930CAB0BAA40F280
:10129000E9307E4CA04700283FF4EFAE002312A9AE
:1012A00041F8203D049309AB0393764B0293764BB0
:1012B00001930DAB00930CAB0BAA40F2E930734CD9
:1012C000A04700283FF4E8AE6420634B9847002312
:1012D00012A941F8203D049309AB03936C4B029390
:1012E000694B01930DAB00930CAB0BAA40F21A4073
:1012F000664CA04700283FF4DEAE002312A941F857
:10130000203D049309AB0393614B02935E4B019321
:101310000DAB00930CAB0BAA40F21A405B4CA047FC
:10132000069000283FF4D6AE64204B4B98474FF010
:10133000FF314B484B4B9847564B1A68002A08DD43
:101340004949554B9C1813F8010B01F8010B9C42BD
:10135000F9D1524B1968524B1B68994206D0DAF802
:101360000030002B08BF01234E490B60454B186825
:10137000002808DD49494A4B1D1813F8014B01F8B4
:10138000014BAB42F9D1484B1968484B1B68994255
:1013900006D0DAF80030002B08BF012344490B6067
:1013A0003B4B1968002908DD3F4C404B5E1813F891
:1013B000015B04F8015BB342F9D1002A08DD2B4C34
:1013C0003C4B1A4413F8015B04F8015B9A42F9D1D3
:1013D000394B1A68394B1B689A4206D0DAF800304C
:1013E000002B08BF0123364A1360002808DD324A6B
:1013F000324B184413F8014B02F8014B8342F9D1E8
:10140000304B1A68304B1B689A4206D0DAF800302D
:10141000002B08BF01232D4A1360002908DD294A4B
:10142000294B194413F8010B02F8010B8B42F9D137
:101430000B480F4B9847DAF80030002B08BF012308
:10144000DB1B41F2873293427FF7B7AE40E000BF2B
:1014500054830208856701084D5F01088D04010867
:10146000E016002089600108AC1100201012002055
:10147000056101080C0000106884020891BC010895
:10148000C884020800000010E816002001BD010811
:10149000040000100800001018140020881200201A
:1014A0001C1000207412002050130020E4100020B3
:1014B0007C1200207C140020EC1200208010002000
:1014C00078120020B4130020481100208012002060
:1014D000DAF80070002F08BF0127674B1B68002B4C
:1014E0007FF407AE654B1B68002B3FF463AE644B83
:1014F0001B68644A127802EB4202634901EB8202E4
:1015000050680022019209AE0096604A0121604CA9
:10151000A0470146594C2060099A5E485E4DA84795
:1015200000233246012140F2E930DFF8C4B1D84748
:10153000216801432160099A5648A8470023324692
:10154000012140F21A40D847216801432160099ADD
:101550005048A8472EE6009040F212334F4A5049B7
:1015600050484D4CA04737E600204F4B98474F4C12
:10157000042120464E4B98474FF4FA704D4B984744
:10158000042120464C4B984705204C4B9847092492
:10159000484F4B4E404D6420B847069B079A214662
:1015A0003046A847013CB4F1FF3FF4D10221454841
:1015B000414B9847C8203F4B9847022141483C4B3C
:1015C00098471420404B98470790404B18600028DC
:1015D000CDD0364C04212046354FB8473220354D0A
:1015E000A84704212046344EB0476420A847042170
:1015F0002046B8473220A84704212046B04704209F
:101600002E4B9847324B9847324B984700283FF46F
:10161000B2AB314B9847009009AB0022022108463B
:101620002E4CA0472E4B98600028FFF6E1AB2C4CC7
:1016300041F62D33A38001462A48174B98474FF0B7
:101640000203ADF8283000230B93A088264B98475F
:10165000ADF82A00A468204B9847009009AB2022DF
:101660000AA92046214CA0470028FFF6C6AB1C4B18
:1016700001221A60FFF788BB601C0020641C002058
:10168000080000100C000010C8840208101200208E
:10169000CDBB01083883020885670108DC89020890
:1016A00064830208B882020869980108000C0240AD
:1016B000615601084D5F0108655601086104010883
:1016C00080830208001002400D050108681C0020FC
:1016D000451A0108691A0108751A0108FDA80108D0
:1016E000D01C0020F48202081DAB010851A901089A
:1016F00045BC010810B582B0184B01221A60431E88
:10170000DBB2072B1DD8164A137064211548164CFE
:10171000A04764211548A04764211548A047154BF0
:1017200001221A70662300934FF48053124A00215D
:101730001248134CA047011E0EDA12480A4B984774
:101740000AE000904FF45F730F4A10491048064CAE
:10175000A047034B01221A7002B010BDE016002012
:101760000C000010B87F020885670108CC7F0208D2
:10177000E07F0208E41600201C000020610D010833
:10178000C55D0108F47F0208CC8902086483020861
:10179000B882020838B56C4B1A686C4B1B68002B7A
:1017A00008BF01239B1AC72B0FDD0446674B1B683C
:1017B000002B08BF0123644A1360654B9847042837
:1017C00006D00020634B187001E0624B187838BDDA
:1017D0004FF0FF316048614B9847614B1B681A0618
:1017E00042EA1362190A01F47F410A431B0203F41F
:1017F0007F0313435B4A13605B4B1868002810DDBE
:101800005A4A584B184413F8011B02F8011B834233
:10181000F9D15749534A12F8010B01F8010B9A42CA
:10182000F9D1544B1A68494B1B68002B08BF0123A0
:101830009B1AB3F5FA6F10DD012C10D04E4B1A68CD
:10184000424B1B68002B08BF01239B1AB3F5FA6FAC
:1018500036DD022C36D0002511E0022CEED0474BAD
:101860001868002808DD464A464B184413F8011B47
:1018700002F8011B8342F9D10125364B1D70424B02
:101880001A68324B1B68002B08BF01239B1AB3F563
:10189000FA6F2BDD012C2BD03C4B1A682B4B1B68AD
:1018A000002B08BF01239B1AB3F5FA6F38DD022C19
:1018B00038D02948364B9847264B00221A702CE026
:1018C000012C11D02D4B1868002808DD2C4A314B13
:1018D000184413F8011B02F8011B8342F9D11D4B78
:1018E00002221A700125CAE70025C8E7022CD3D0CE
:1018F000294B1868002808DD284A294B184413F89A
:10190000011B02F8011B8342F9D1124B01221A700C
:1019100011481F4B9847002DCED00E4B187856E734
:10192000012CC6D01C4B1868002808DD1B4A1D4B33
:10193000184413F8011B02F8011B8342F9D1054B2F
:1019400002221A70E4E700BFEC1A0020C44600200F
:101950008D040108E81A0020E016002089600108C3
:1019600084120020D41B002008000010181400204E
:101970007C14002074120020781200200000001057
:10198000F81A0020881200207C120020801200200B
:1019900005610108EC120020040000105C1B00200F
:1019A000E41000204811002070B582B000211A48D0
:1019B0001A4B98471A4900201A4B9847184D1A4C51
:1019C0001A4E294601A8A047B0F1FF3F1FD1019947
:1019D00040F20B2399420AD0B1F5147F0BD0B1F538
:1019E000027F0CD012480D4B984700200DE0304686
:1019F0000A4B9847E5E70F48084B9847E1E70E4840
:101A0000064CA0470D48A047002002B070BD0C480E
:101A1000024B98470120F8E7CC8A02088567010845
:101A2000701C002075B6010859A80108DC8A02085C
:101A30001C8B02085480020868800208F48A02089D
:101A40003C8B020808B5044B98470146034B1860CD
:101A50000348044B984708BDA91901086C1C0020D5
:101A6000B88A020885670108014B1868704700BFF3
:101A70006C1C002000487047701C0020064A0023A0
:101A8000136093801361054A136093801361044AC5
:101A90001360938013617047D01C0020A41C0020A9
:101AA000781C0020002909DD431E1944002013F88A
:101AB000012F1044C0B28B42F9D17047002070470B
:101AC00070B58EB00D461446022806D01146284641
:101AD0001A4B984720460EB070BD194B9847002806
:101AE000F8D0184B1B68002BF4D00DF11702164BE1
:101AF00003F1200013F8011B02F8011F8342F9D102
:101B0000079B002BE6D00F4B9E68104B9847039025
:101B100005AB02932023019306AB009300232246DA
:101B2000294630460A4DA8470028D3DA00904923B9
:101B3000084A094909480A4DA847CBE7B961010895
:101B4000691A0108D01C0020DC1C0020751A01084D
:101B5000EDA90108BC8B0208608B0208B88202085C
:101B6000856701082DE9F84304460D46164654489A
:101B7000544B9847EB78322B4BD0E4B218D9422B18
:101B800058D0502B6BD0402B41D14F484D4B9847EC
:101B900020464E4B98474E4C042120464D4B9847CB
:101BA00032204D4B9847042120464C4B98472EE05D
:101BB000102B29D0302B2AD1454E04213046DFF896
:101BC0001491C8473220444FB84704213046DFF80B
:101BD0000C81C0476420B84704213046C8473220F2
:101BE000B84704213046C0472B79DB093C4A1370C3
:101BF00020463C4B984704213046C8473220B8471E
:101C000004213046C04702E02046374B9847BDE8E4
:101C1000F88331462846354B98472D4C0421204601
:101C20002C4B984764202C4B9847042120462B4B83
:101C30009847ECE72E48234B9847314628462D4BD2
:101C40009847234C04212046224B98474FF4FA70C2
:101C5000214B984704212046204B9847D7E71C4E3C
:101C6000042130461B4B984732201B4B98470421D8
:101C700030461A4B98472B7913F0010F10D06B792F
:101C8000AA7942EA0322EB7943EA02231A4A12684C
:101C90002A7A42EA032229462046184B9847B6E79B
:101CA0006B79AA7942EA0322EB7943EA02232A7A82
:101CB00042EA032229462046114B9847A7E700BF76
:101CC0007C8B020885670108908B0208CD250108EE
:101CD000000C0240615601084D5F0108655601087D
:101CE000C832002055250108E924010845240108CF
:101CF000A88B0208C9250108C44600204D20010810
:101D00001D1E01087047704710B582B004460021BF
:101D10006846154B98479DF8003084F8B0329DF81E
:101D2000013084F8B1329DF8023084F8B2329DF867
:101D3000033084F8B3329DF8043084F8B4329DF84F
:101D4000053084F8B53240F2BA212046074B984757
:101D5000A4F8BA024FF42F7221464FF40070044BDE
:101D60009847012002B010BD41580108D55B010819
:101D70008DC20108002814DD0D4B5B68834213DB24
:101D800010B50B4B9B68A3EB002000F582234FF4AA
:101D90008072084CA34298BF1846074B9847002012
:101DA00010BD4FF0FF3070474FF0FF30704700BF5D
:101DB00008300020FF0F0400C9C7010800281DDDFE
:101DC00008B5114BDB6883421BDB0F4B1B69A3EB90
:101DD000002303F5C0000D4A904288BF18464FF417
:101DE000807200F580100A4B98470A4B1B68002B45
:101DF00008BF0123084A1360002008BD4FF0FF30E0
:101E000070474FF0FF30F8E708300020FFFF5F0019
:101E1000C9C70108C4460020002D002070B5064641
:101E2000294B1D6805F140042B46002103F8011BD6
:101E30009C42FBD1F5232B7000236B704023AB70C9
:101E40005123EB7021494B68180E6871180CA8716A
:101E5000180AE8712B7248689042A8BF1046030E1A
:101E60006B72030CAB72030AEB722873184B1B687E
:101E7000002B08BF0123174A13601749174B9847D7
:101E8000A8B905F10D0305F11300154A12F8011B5D
:101E900003F8011B9842F9D105F1150305F11C0067
:101EA000104A12F8011B03F8011B9842F9D13F2197
:101EB00028460D4B984785F83F004022294630467A
:101EC0000A4B984770BD00BF10000010083000207A
:101ED000C446002004300020042E0020751D010897
:101EE000062E00200E2E0020A51A0108C11A010896
:101EF00070B586B004466FF0720303706FF055033F
:101F00004370002104A8294B98479DF81030A37016
:101F10009DF81130E3709DF8123023719DF8133055
:101F200063719DF81430A3719DF81530E371FE21A3
:101F300020461F4B9847A4F8FE001E4D2A69E96809
:101F40001D481E4EB0472379E278A178E0790290CF
:101F5000A0790190607900901948B0472D6905F586
:101F60008015C5F30B03EBB14FF480722146284670
:101F7000144B98470F4B1B6903F58073124A934229
:101F800088BF00230B4AD26845F6EF718A4202D817
:101F900001320849CA60074803610C4B984700208A
:101FA00006B070BD28460A4B9847DDE74158010846
:101FB000D55B010808300020D08B02088567010836
:101FC000F48B020811C90108FFFF5F00091D010819
:101FD000BDCA010808B5154B1A68154B1B68002BC4
:101FE00008BF01239B1A41F2873293421DDD104B3B
:101FF0001B68002B08BF01230C4A13604FF40061DB
:102000000C480D4B984700280FDD0C4A0C4B03F190
:10201000F50013F8011B02F8011F8342F9D10948AA
:10202000002380F8FD30084B984708BD002D0020A4
:10203000C4460020FC2400202D2201080B2D002086
:1020400001250020042D0020F11E010870B5054671
:1020500016462F4B1C6804F586712346002203F8B0
:10206000012B9942FBD140212A482B4B9847F5235D
:102070002370012363700C23A3705123E370274B5B
:102080001B68002B08BF0123254A1360254AD3682B
:10209000190E6171190CA171190AE1712372D068CE
:1020A000B042A8BF3046030E6372030CA372030A4A
:1020B000E37220731C491D4B9847D0B904F10D03FE
:1020C00004F113001A4A12F8011B03F8011B8342A2
:1020D000F9D104F11402174B03F1F50013F8011BB9
:1020E00002F8011F8342F9D10F4B93F8FD3084F8B9
:1020F0000A3140F20B1120460F4B984784F80B0130
:102100004FF48672214628460C4B984770BD00BF9D
:10211000100000100014024061560108C44600205F
:102120000430002008300020042F0020BD1D0108CD
:10213000062F00200C2F0020A51A0108C11A010843
:102140002F4B1A682F4B1B68002B08BF01239B1ACB
:1021500042F20F72934252DD70B586B00446294BAD
:102160001B68002B08BF0123254A1360002104A827
:10217000254B98479DF81030A3709DF81130E370FF
:102180009DF8123023719DF8133063719DF814305F
:10219000A3719DF81530E3711C4DAA6869681C484D
:1021A0001C4EB0472379E278A178E0790290A079BB
:1021B0000190607900901848B047AD68C5F30B03F3
:1021C000CBB14FF4807221462846144B984705F551
:1021D0008075134A954288BF00250C4A5268B2F5B3
:1021E000806F02D2013209494A60084885600D4B70
:1021F000984706B070BD28460B4B9847E1E77047FB
:10220000FC2C0020C4460020415801080830002062
:10221000D48B020885670108F48B020811C90108F4
:10222000FF0F0400091D0108BDCA01082DE9F04F88
:1022300083B0044600F561710346002203F8012BC8
:102240008B42FBD1F5232370032363708423A37097
:102250003123E3700026DFF8D0A1DFF8D0914FF0F2
:10226000010807E008FA07F7635D1F436755013669
:10227000262E19D03546002EB8BFF51DED100535B8
:10228000734206F0070703F0070358BF5F42314669
:102290005046C847C0B20028E4D108FA07F7635D8A
:1022A00023EA07076755E2E70026DFF884A1DFF895
:1022B00084914FF0010807E008FA07F7635D1F43B8
:1022C00067550136142E19D03546002EB8BFF51DBE
:1022D000ED101535734206F0070703F0070358BFEA
:1022E0005F4231465046C847C0B20028E4D108FAE0
:1022F00007F7635D23EA07076755E2E7404E274685
:102300000025DFF834B1DFF834A1DFF834914FF065
:1023100001082AE0B6F94C00D847F16B394B9847D1
:102320000190B6F84E00384B984701460198374B5C
:1023300098473749D047C84700B2C0F3072387F80A
:102340003E3087F83F002B46002DB8BFEB1DDB1059
:10235000363305F0070208FA02F2E15C0A43E25460
:102360000135583602370E2D04D0B36B002BD1D077
:10237000306CE0E7274B1A68130643EA1263110A30
:1023800001F47F410B43120202F47F021343224DFA
:10239000A5FB03239B0984F8F2302048D0F8D831FC
:1023A000D0F890219B1AA5FB03239A09990F84F872
:1023B0002C11990D84F82D119B0B84F82E3184F883
:1023C0002F2100F5DE70164B9847A5FB0035AB09B1
:1023D000AA0F84F83021AA0D84F83121AD0B84F8BE
:1023E000325184F8333140F2833120460D4B984707
:1023F00084F883034FF4617003B0BDE8F08F00BF31
:1024000044330020B96F020819710208C97102082B
:102410000000C8425C1B0020D34D6210D43900205C
:10242000ED3A0108A51A0108D4630020A17801083B
:10243000EC630020DF780108217102083173020883
:10244000557502082DE9F04105460024224F234E20
:102450002146002CB8BFE11D634204F0070203F0DF
:10246000070358BF5A4205EBE1014B791341497DFF
:1024700041FA02F203F0010302F00102214638465C
:10248000B0470134262CE3D12E46154F0024DFF847
:10249000548096F83E0096F83F3043EA0020C0474B
:1024A0002346002CB8BFE31D05EBE30393F882300D
:1024B000614204F0070201F0070158BF4A4213418C
:1024C00003F00103BB6338640134023658370E2C25
:1024D000DFD1BDE8F08100BFD46300207979010825
:1024E000443300201971020870B50646164B1C686B
:1024F000F5232370002262701325A5701123E37069
:1025000001232371342161716521A1719F21E17142
:102510001021217263721723A372E27223730823BE
:1025200063731823A3730F22E27323741923637454
:1025300012212046054B9847A0742A462146304672
:10254000034B984770BD00BF10000010A51A01088A
:10255000C11A010838B50546064B1C684FF40061E6
:102560002046054B9847021E03DD21462846034BB3
:10257000984738BD100000102D220108C11A01082B
:1025800008B50D4B1B68002B08BF01230B4A1268CE
:102590009B1AB3F5FA7F09D3074B1B68002B08BFC2
:1025A0000123064A1360064B1B7803B908BD0020BF
:1025B000044B9847FAE700BFC4460020C43200200D
:1025C000C8320020552501087047000038B505467F
:1025D0000F4B1C6804F582712346002203F8012B7F
:1025E0009942FBD1F5232370012363700423A37068
:1025F0004123E37040F203112046064B984784F8CC
:1026000003014FF4827221462846034B984738BD98
:1026100010000010A51A0108C11A01089F2805D151
:102620000B78002B024808BF00207047002070473D
:10263000300009060023136041F21703984245D089
:1026400011D9B0F5C05F4BD02BD8B0F5A05F43D007
:10265000B0F5B05F42D041F2180398423AD0264B11
:102660000B600020704741F20503984226D00AD93A
:1026700041F2070398423DD024D341F21603984219
:10268000EDD1052207E0B0F5805F31D041F20103C2
:102690009842E4D1012200230B60184800EBC200ED
:1026A0007047B0F5005F1FD0B0F5085F1ED0B0F5E1
:1026B000D05FD4D1124B13600B22ECE7114B1360A7
:1026C0000222E8E7104B13600322E4E70F4B13608C
:1026D0000622E0E70722DEE70822DCE70922DAE744
:1026E0000B4B13600A22D6E70C22D4E70D22D2E767
:1026F0000022D0E70422CEE700000206288C020860
:1027000000330020D8320020DC320020E0320020EC
:10271000E432002038B50D46144641F28E2303FB07
:1027200000F3C0F5FF407F3093FBF0F0024B984779
:1027300028602060012038BD1971020870B50D466F
:102740001646074B98474FF08B41064B9847064C6F
:102750000649A0470649A04730602860012070BDA7
:1027600021710208C97102083173020800FEFF4698
:102770000000F04200000000F8B50F461646104C6D
:10278000A0474FF08B410F4B98470F4D0F49A8477B
:102790000F49A84738604FF081410E4B98470E4BC8
:1027A000984705A3D3E900230C4DA8470C4B984745
:1027B000A04730600120F8BD2D431CEBE2365A3FA4
:1027C00021710208C97102083173020800FEFF4638
:1027D0000000F042B56F0208796902087D6C0208BA
:1027E0005D6F0208F8B50E46154641F28E2404FBD3
:1027F00000F4C0F5FF407F3094FBF0F420461E4B00
:10280000984730601D4B9C4231D8B4F5EC7F30D3F3
:1028100040F277514FF42F730022194E06EBC3009C
:102820004068844238BF1A46844228BF194653186C
:1028300003EBD3735B109A4201DA9942EEDC104B42
:1028400053F8326003EBC202526853F83100871B21
:10285000101B00FB07F003EBC1014B68D21AB0FB61
:10286000F2F03044074B984728600120F8BD064835
:10287000F8E740F2E730F5E7197102086BC901008B
:10288000D8B802082171020870FEFFFFF8B50E46A5
:10289000154641F28E2404FB00F4C0F5FF407F3062
:1028A00094FBF0F420461E4B984730601D4B9C4231
:1028B00031D8B4F5EC7F30D340F277514FF42F7319
:1028C0000022194E06EBC3004068844238BF1A4606
:1028D000844228BF1946531803EBD3735B109A4206
:1028E00001DA9942EEDC104B53F8326003EBC2027E
:1028F000526853F83100871B101B00FB07F003EBF5
:10290000C1014B68D21AB0FBF2F03044074B984734
:1029100028600120F8BD0648F8E740F2E730F5E707
:10292000197102086BC90100188D02082171020893
:1029300070FEFFFF70B50D461646094B98470949D2
:10294000094B9847094C0A49A0470A49A047014644
:10295000094B98470949A04730602860012070BDA5
:10296000217102080000C045C971020831730208D4
:1029700000FEFF460000C842B96F02080000204177
:10298000F8B50F461646124CA0474FF08B41114B3D
:102990009847114D1149A8471149A84738604FF091
:1029A0008141104B9847104B984707A3D3E9002368
:1029B0000E4DA84700220E4B0E4DA8470E4B9847D0
:1029C000A04730600120F8BD75931804560EE13F12
:1029D00021710208C97102083173020800FEFF4626
:1029E0000000F042B56F0208796902087D6C0208A8
:1029F00000002440296A02085D6F02082DE9F84FA3
:102A00001C481D4B98471D4F1D4E06F59A69DFF86F
:102A100078B0DFF864A019E01A48D04712E084F8D3
:102A2000252084F824800023A3622B68A364EB682C
:102A30006364E3632364B5F91230A4F84C30AB8AC5
:102A4000A4F84E300C3758364E4511D03A68BD6860
:102A50002B68002BE0D0344632602A7C95F8118038
:102A6000531EDBB20F2BDAD95846D0471022D6E7D7
:102A7000BDE8F88FB48C020885670108A0E402085D
:102A800044330020C88C0208D48C020838B53A4B75
:102A90009B6B002B27D0384B196C374B586C374B3E
:102AA0009847002863D1344BD3F89030002B30D0B6
:102AB000314BD3F89810304BD3F89C002F4B9847EC
:102AC000002856D12C4BD3F8E830002B38D02A4BB5
:102AD000D3F8F010284BD3F8F400284B9847003077
:102AE00018BF012044E0244CB4F94C00244B984713
:102AF000E16B244B98470546B4F84E00224B9847AB
:102B000001462846214B98472149224B98470146C8
:102B1000C3E7194CB4F9A400194B9847D4F89410A2
:102B2000184B98470546B4F8A600174B984701463E
:102B30002846164B98471649164B98470146BAE760
:102B40000D4CB4F9FC000E4B9847D4F8EC100D4B2B
:102B500098470546B4F8FE000B4B984701462846B7
:102B60000A4B98470A490B4B98470146B2E70120A8
:102B700038BD0120FCE700BF44330020F174020897
:102B800021710208B96F020819710208C97102089F
:102B90000000C842317302089E4B1A689E4B1B68A6
:102BA000002B08BF01239B1A282B40F381832DE9BA
:102BB000F0438DB0984B1B68002B08BF0123954A4A
:102BC0001360964B1878052817D9831FDBB2052BA5
:102BD00040F23881A0F10C03DBB2012B40F25682A7
:102BE0008E4B1B780133DBB20D2B40F25E838B4B97
:102BF00000221A700DB0BDE8F0830A220DF12E01FB
:102C0000874B9847854B1C78BDF82E00854A582382
:102C100003FB04239D6C002D54D000B2814A58233D
:102C200003FB042393F825C0BCF1010F1DD05823EA
:102C300003FB04239F6A002F4ED0BCF1000F0DD080
:102C4000582303FB042302332C2101FB04CC023262
:102C500002EB4C0C23F8020F6345FBD1714A582359
:102C600003FB042301229A62DA6286B26D4B58217B
:102C700001FB043103AA5431A847002800F0AD80BD
:102C8000039D684A582303FB04232946186B664BAF
:102C9000984750B9634A582303FB0423596B2846CD
:102CA000614B9847002800F092805E4A582303FB4E
:102CB00004235A6CDA635B4B582202FB0434A4F8F9
:102CC00050608DE700905E23584A594959485A4C44
:102CD000A0475A48A04783E7524A582303FB0423DE
:102CE000DB6A2C2101FB043102EB410290800133AD
:102CF000E046634526DA4B49582202FB0412D362B0
:102D0000484A582303FB042393F824300BBB582371
:102D100003FB0423B3F90400BCF1010F0EDD5823BB
:102D200003FB042304332C2101FB04C1023202EB18
:102D3000410133F9022F10449942FAD1B0FBFCF063
:102D400000B292E7374A582303FB04230022DA62D9
:102D5000D6E7BCF1000F0DD0324B582202FB0432F3
:102D6000023203AB03EB4C0032F8021F23F8021BC4
:102D70008342F9D103A800EB4C0608F1FF3900E0CB
:102D80000230B94511DD0137B845F9DD831C8646AF
:102D900033F9021BB0F900209142C4BFAEF8001015
:102DA00023F8022CB342F3D1EAE74FEA5C0C0CABF8
:102DB00003EB4C0333F9260C0CAB03EB4C0C3CF946
:102DC000243C184400EBD07040F34F004DE7154A07
:102DD000582303FB0423DD636DE7124A582303FBEA
:102DE00004235A6CDA63DFF84490DFF84480114F13
:102DF000009677234A46414638460F4DA847039828
:102E00000F4B9847CDE9000178234A4641463846A2
:102E1000A84750E740330020C44600203F3300203D
:102E20006D7A0108443300201975020898E40208FD
:102E3000E88C0208B882020885670108F88C02084D
:102E4000796902080A220DF12E010638854B984750
:102E5000854B1C78BDF82E00844A582303FB0423BD
:102E60009D6C002D54D000B2804A582303FB0423EC
:102E700093F825C0BCF1010F1DD0582303FB042398
:102E80009F6A002F4ED0BCF1000F0DD0582303FBDA
:102E9000042302332C2101FB04CC023202EB4C0C44
:102EA00023F8020F6345FBD1704A582303FB042328
:102EB00001229A62DA6286B26C4B582101FB04311E
:102EC00003AA5431A847002800F0AE80039D674A4A
:102ED000582303FB04232946186B654B984750B9C8
:102EE000624A582303FB0423596B2846604B9847DA
:102EF000002800F093805D4A582303FB04235A6C9A
:102F0000DA635A4B582202FB0434A4F8506067E697
:102F100000905E23574A58495848594CA047594891
:102F2000A0475DE6514A582303FB0423DB6A2C21AA
:102F300001FB043102EB410290800133E04663451E
:102F400027DA4A49582202FB0412D362474A58231F
:102F500003FB042393F8243013BB582303FB0423FF
:102F6000B3F90420BCF1010F0FDD4049582303FBE6
:102F7000041304332C2000FB04C0023101EB400099
:102F800033F9021F0A448342FAD1B2FBFCF210B2B9
:102F900091E7364A582303FB04230022DA62D5E77F
:102FA000BCF1000F0DD0314B582202FB043202322B
:102FB00003AB03EB4C0032F8021F23F8021B8342E1
:102FC000F9D103A800EB4C0608F1FF390CE033F906
:102FD000021BB0F900209142C4BFAEF8001023F8E4
:102FE000022CB342F3D10230B94505DD0137B845B3
:102FF000F9DD831C8646EAE74FEA5C0C0CAB03EB79
:103000004C0333F9260C0CAB03EB4C0C3CF9243C81
:10301000184400EBD07040F34F004CE7134A58239C
:1030200003FB0423DD636CE7104A582303FB0423EE
:103030005A6CDA63DFF83C90DFF83C800F4F009663
:1030400077234A46414638460D4DA84703980E4B14
:103050009847CDE9000178234A4641463846A847BB
:103060004FE700BFF97A01083F33002044330020C6
:103070001975020898E40208E88C0208B882020870
:1030800085670108F88C0208796902080A220DF1A7
:103090002E010C38874B9847874B1C78BDF82E00C3
:1030A000864A582303FB04239D6C002D54D000B2A4
:1030B000824A582303FB042393F825C0BCF1010F77
:1030C0001DD0582303FB04239F6A002F4ED0BCF170
:1030D000000F0DD0582303FB042302332C2101FBE6
:1030E00004CC023202EB4C0223F8020F9342FBD1D4
:1030F000724A582303FB042301229A62DA6286B2E1
:103100006E4B582101FB043103AA5431A847002813
:1031100000F0AE80039D694A582303FB042329462F
:10312000186B674B984750B9644A582303FB042334
:10313000596B2846624B9847002800F093805F4AFD
:10314000582303FB04235A6CDA635C4B582202FBBE
:103150000434A4F8506043E500905E23594A5A496C
:103160005A485B4CA0475B48A04739E5534A58236F
:1031700003FB0423DB6A2C2101FB043102EB410237
:1031800090800133E046634527DA4C49582202FB20
:103190000412D362494A582303FB042393F82430D2
:1031A00013BB582303FB0423B3F90420BCF1010F24
:1031B0000FDD4249582303FB041304332C2000FB8A
:1031C00004C0023101EB400033F9021F0A4483427C
:1031D000FAD1B2FBFCF210B291E7384A582303FB54
:1031E00004230022DA62D5E7BCF1000F0DD0334B87
:1031F000582202FB0432023203AB03EB4C0032F8DC
:10320000021F23F8021B8342F9D103A800EB4C06EE
:1032100008F1FF390CE033F9021BB0F900209142AC
:10322000C4BFAEF8001023F8022CB342F3D1023031
:10323000B94505DD0137B845F9DD831C8646EAE767
:103240004FEA5C0C0CAB03EB4C0333F9260C0CABD4
:1032500003EB4C0C3CF9243C184400EBD07040F3D9
:103260004F004CE7154A582303FB0423DD636CE74A
:10327000124A582303FB04235A6CDA63DFF84490A4
:10328000DFF84480114F009677234A46414638467E
:103290000F4DA8470398104B9847CDE900017823BC
:1032A0004A4641463846A8474FE7034A1370A1E40F
:1032B000704700BF897B01083F3300204433002062
:1032C0001975020898E40208E88C0208B88202081E
:1032D00085670108F88C02087969020870470000C8
:1032E00038B5104BD3F84031C3B90E4CB4F9540182
:1032F0000D4B9847D4F844110C4B98470546B4F849
:1033000056010B4B9847014628460A4B98470A49F5
:103310000A4B98470A4B984780B238BD014BD3F807
:103320004801F7E74433002021710208B96F020811
:1033300019710208C97102080000C84231730208FD
:10334000A175020838B5104BD3F84832C3B90E4CFA
:10335000B4F95C020D4B9847D4F84C120C4B9847CB
:103360000546B4F85E020B4B9847014628460A4BC7
:1033700098470A490A4B98470A4B984700B238BD0C
:10338000014BD3F85002F7E74433002021710208C3
:10339000B96F020819710208C97102080000C84219
:1033A000317302085575020838B5104BD3F8A032B6
:1033B000C3B90E4CB4F9B4020D4B9847D4F8A4121B
:1033C0000C4B98470546B4F8B6020B4B984701469C
:1033D00028460A4B98470A490A4B98470A4B984790
:1033E00000B238BD014BD3F8A802F7E74433002000
:1033F00021710208B96F020819710208C971020827
:103400000000C8423173020855750208F0B40F4B32
:1034100003F59A67012000220D490E4E0025642411
:1034200083F8250083F824009A621A605964D963EE
:1034300019649A649A631E635D63A3F84C20A3F831
:103440004E405833BB42EBD1F0BC704744330020B0
:1034500000FF7F4700FE7F4738B5012802D00728CC
:1034600011D038BD114D124C697D2046114B984743
:10347000697CC9092046104B9847A97CC909204698
:103480000E4B9847EDE7094D094CE97E2046094B64
:103490009847697CC1F340012046074B9847A97CB7
:1034A000C1F340012046054B9847DAE75C1B00203A
:1034B00094400020D94E0108454F01085B4F010898
:1034C00070B52A4B1B7833B1284B1878012840D0AF
:1034D00007282DD070BD264E23213046254DA84704
:1034E000044624213046A847400040EA840044B204
:1034F00025213046A8472043C0B2042805D007281C
:1035000012D01A4B00221A7006E0184B01221A70D2
:10351000164B1878184B9847184B1B68002B08BFA0
:103520000123174A1360CFE7104B07221A70EFE709
:10353000134B1A68114B1B68002B08BF01239B1A01
:10354000B3F5FA7FC6DB0D4B1A6847F230539A4247
:10355000C0D90C4B18710C4B9847084B1B68002BBB
:1035600008BF0123064A1360B4E700BF1C380020DF
:10357000D4630020A1780108F5160108C446002094
:1035800014380020D41B0020593401082DE9F843D9
:10359000464D2846DFF83081C04706462846C047DA
:1035A000A5F5BC74000240EA2620A0852846404EBE
:1035B000B04707462846B047000240EA2720A086C9
:1035C00005F1C80738463B4DA84781463846A8470D
:1035D000000240EA2920A4F8980004F5DE77384676
:1035E000C04781463846C047000240EA2920A4F877
:1035F00062003846B04780463846B047000240EA8D
:103600002820A4F86A0004F558763046A8470746F3
:103610003046A847000240EA2720A4F8CE002648FA
:10362000264B984710BBB4F846100A0242EA112212
:10363000A4F88A21B4F84A100A0242EA1122A4F836
:103640008C21B4F848100A0242EA1122A4F88E2113
:103650001B481A4B984790B11A4B0022A3F8CE2171
:10366000A3F8D021A3F8D221BDE8F883154B00229E
:10367000A3F88A21A3F88C21A3F88E21E8E7114B47
:10368000B3F87C100A0242EA1122A3F8CE21B3F863
:1036900080100A0242EA1122A3F8D021B3F87E106A
:1036A0000A0242EA1122A3F8D221DDE74C3B0020B6
:1036B00065390108A95301083842002095500108D6
:1036C00054430020D43900206139010870B5204CE2
:1036D0002046204DA847064604F12000A847014691
:1036E00030461D4B98471D4B984724F8140C1C4B33
:1036F0009847A4F84E001B4B9847A4F8920004F595
:103700008470194B9847012816D0A4F59C74B4F81E
:10371000B8100B0243EA1123A4F888311348124B66
:10372000984701280ED0124AB2F8EE100B0243EA75
:103730001123A2F8CC3170BD0D4B4FF69C72A3F84B
:103740008821EBE70A4B4FF69C72A3F8CC21F2E7F5
:103750000C3B0020814B01083D480108E132010883
:1037600045330108A933010849520108343D0020BE
:10377000D439002010B5114C2368114B9847114BD8
:103780009847114B9847114B9847114B1A6823687B
:10379000002B08BF01239B1AB3F5FA7F0DDB2368CA
:1037A000002B08BF01230A4A13600A480A4B9847B6
:1037B0000A4B98470A480B4B984710BDC446002057
:1037C000CD360108D15301088D350108C1340108F7
:1037D00018380020D4390020A9450108D51F010858
:1037E000203800204121010810B400232E2202704D
:1037F000332242706FF01E0282706FF07002C2704E
:10380000052280F829205E2242710121817180F811
:103810007E3080F87F3080F8803080F881306FF023
:10382000230280F8822080F8833080F8843080F88A
:103830008530382280F886204FF0FF3280F88720CC
:1038400080F8882080F88920402480F88A4080F819
:103850008B1080F88C3080F88D3080F88E4080F8A6
:103860008F1080F8903080F89130462180F89210C7
:1038700080F8933080F8943080F89530782180F883
:10388000961080F897305A2180F8981080F8993077
:103890003C2180F89A1080F89B301E2180F89C1003
:1038A00080F89D3080F89E3080F89F306FF01303D1
:1038B00080F8A03080F8A1206FF0590380F8A23082
:1038C00080F8A32010BC704738B5194CA6222146B9
:1038D0000020184B9847A4212046174B98470546CF
:1038E000A6212046154B984729461548154B984761
:1038F0002268154B9A4215D01448124B98470C4C2D
:103900002046134B9847A42120460B4B9847A4F818
:10391000A400A622214600200E4B98470E480F4BCC
:10392000984738BDB4F8A430AB42E5D1F6E700BF04
:10393000203900207DC10108D55B0108655C0108C4
:1039400030E60208856701082E33E18F3CE6020865
:10395000E93701088DC20108D43900207D3B0108F8
:10396000408970478089704708B501780148024B4B
:10397000984708BDD4630020A178010870B5046A97
:10398000544B1B68002B08BF01231B1BB3F57A7F28
:1039900052DB16460D460446002940D14E4B98474F
:1039A00008B1012E48D120464B4B984740E0A16911
:1039B000484B1B68002B08BF0123591A4748484B46
:1039C00098474FF47A6363810023A362E36233E094
:1039D000012E34D0A36A23B994F83030013384F82F
:1039E00030300123A362626B3A4B1B68002B08BF87
:1039F00001239B1A47F22F5293421DDD638940F643
:103A0000B832934218D9A3F5FA736381314B1B681E
:103A1000002B08BF012363630023E3620CE02E4BFD
:103A2000984790B92B4B1B68002B08BF01232362DA
:103A300065810023A362E36270BD012ED1D1B4F988
:103A4000262012F1640F13D1ECE76368012BAED08E
:103A5000B4F92430002B06DDDB2BB9DCC72B02DDEB
:103A6000A36A012BE9D0B4F9262012F1640FD9D052
:103A7000012ED7D00F2A04DD112AD3DCE36A012BF3
:103A8000D0D1E16B1748164B9847E36A23B994F8F5
:103A90003130013384F831300123E362A26B0D4BE6
:103AA0001B68002B08BF01239B1A4EF65F2293422E
:103AB000C2DD638940F6B8329342BDD9A3F5FA73EB
:103AC0006381044B1B68002B08BF0123A363002301
:103AD000A362B1E7C44600206939010858E602082C
:103AE0008567010880E6020800207047006C704777
:103AF00010B50446012200210B4B984721780B4852
:103B00000B4B984750B10B4B1A68002A08BF012293
:103B1000E261236CA1695B1A134423640022217AB9
:103B20000548064B984710BD7D390108D463002035
:103B3000A1780108C4460020EC6300201579010833
:103B400010B50446017A0848084B984728B9084B35
:103B50001B68002B08BF0123A3610122217A0548BD
:103B6000054B984710BD00BFD4630020A178010821
:103B7000C4460020EC6300201579010838B50446DE
:103B80001F48204B98470025C4F8405820461E4B3C
:103B900040F8F83F1D4B98471D4BB3F8053003EB39
:103BA000830303EB83039B0084F834310A2384F8F6
:103BB000FC300B2384F8FD30082384F8383184F876
:103BC0003931092384F8583184F85931042384F8B1
:103BD000003284F80132062384F8203284F821323E
:103BE00084F8805184F87851012384F8C43184F832
:103BF000BC3102232370637003232374637438BDC4
:103C0000B4E8020885670108C8E80208D14A01083B
:103C1000203900202DE9F04F83B004463A483B4B51
:103C2000984720463A4DA847834604F11009484674
:103C3000A847019004F59C752846364FB84704F50F
:103C4000AC763046B8472846334B984720B93046C3
:103C5000314B984700284DD004F5BC773846DFF843
:103C6000E080C04704F5DE7A5046C04738462B4B0B
:103C7000984700282CD004F50070274B984700285F
:103C800035D104F50870244B984700282FD1BBF19B
:103C9000000F32D141F64C512846214DA84741F63C
:103CA0004C513046A84704F1F8001E4B9847204677
:103CB0001D4DA8474846A84720461C4B9847C8B901
:103CC00048461A4B9847A8B91948104B984711E035
:103CD0005046124B98470028CDD1002104F50070C2
:103CE000144FB847002104F50870B847C3E71248DD
:103CF000064B984703B0BDE8F08F019B002BC9D05D
:103D00000E48024B9847C5E710E70208856701088F
:103D1000C14B0108E54A0108FD4A0108693901085B
:103D2000854B0108D1480108D94B0108C54B010852
:103D300040E70208114B01081CE7020830E70208BF
:103D4000F13A010810B50446D0F84428D0F83818E4
:103D50001848194B9847D4F8400850B9174B1B68BE
:103D6000002B08BF0123C4F838380123C4F84038B9
:103D700010BD94F800317BB9104B1B68002B08BFB5
:103D80000123D4F838289B1AC4F8443804F1F80009
:103D90000B4B98470120EBE794F8FF30042B04D03D
:103DA0000848054B98470320E2E70748024B98472D
:103DB0000220DDE76CE8020885670108C4460020A0
:103DC00055490108A8E8020894E802082DE9F04FD7
:103DD00083B004463848394B98472046384DA847A9
:103DE000834604F110094846A847019004F59C75E4
:103DF0002846344FB84704F5AC763046B8472846D5
:103E0000314B984720B930462F4B984700283DD07A
:103E100004F5BC773846DFF8D480C04704F5DE7A75
:103E20005046C0473846294B9847E8B104F5007022
:103E3000254B984738BB04F50870234B984710BBB7
:103E4000BBF1000F25D12046214FB8478046484698
:103E5000B84780451FD220461E4B984741F64C512B
:103E600028461D4B98471EE05046184B984700289F
:103E7000DCD1002104F50070184FB847002104F58B
:103E80000870B847D2E716480C4B984703B0BDE816
:103E9000F08F019B63B948460E4B984741F64C5151
:103EA00030460D4B984704F1F8000E4B9847EDE76C
:103EB0000D48024B9847EEE750E702088567010876
:103EC000C14B0108E54A0108FD4A010869390108AA
:103ED000014C0108D94B0108854B0108114B010821
:103EE0001CE70208D148010830E70208F13A01084E
:103EF000F8B504463448354B98472046344DA8471A
:103F000004F11000A84704F5BC752846314EB047AF
:103F100004F5DE773846B04728462F4B98470028EF
:103F200042D004F5007528462C4B984788B12846A6
:103F30002A4B98472A4B1B68002B08BF0123294AAC
:103F400092F86F104FF47A7202FB01F2181A824253
:103F500029DC04F508752846204B984788B1284687
:103F60001E4B98471E4B1B68002B08BF01231D4AA0
:103F700092F86F104FF47A7202FB01F2181A824223
:103F800011DC04F59C7500212846174EB04704F556
:103F9000AC7400212046B04700212846134DA847A5
:103FA00000212046A847F8BD38460B4B984700280B
:103FB000B7D1002104F500700C4DA847002104F58D
:103FC0000870A847ADE700BFDCE802088567010874
:103FD0008D4B0108F13A010869390108894B010844
:103FE000C446002020390020854B0108114B0108F0
:103FF000F8B504461B481C4B984720461B4DA84764
:1040000004F11000A84704F5BC752846184EB047C7
:1040100004F5DE773846B0472846164B984790B1EE
:1040200004F59C752846144EB04704F5AC74204640
:10403000B04741F64C512846104DA84741F64C5127
:104040002046A847F8BD38460A4B98470028E7D1D4
:10405000002104F500700A4DA847002104F50870FE
:10406000A847DDE7F0E70208856701088D4B0108E6
:10407000F13A010869390108E54A0108854B010850
:10408000114B01082DE9F04F83B004463D483E4BEB
:10409000984704F5007840463C4DA84704F5087958
:1040A0004846A84704F5BC7B5846394DA8470090C0
:1040B00004F5DE7A5046A847019004F59C75284621
:1040C000344FB84704F5AC763046B84741F64C510A
:1040D0002846314FB84741F64C513046B84728463C
:1040E0002E4B984718B930462C4B9847A0B1204624
:1040F0002B4DA84704F110063046A8472046294B0F
:10410000984718B93046274B984748B126481E4B68
:10411000984703B0BDE8F08F24481B4B9847F8E759
:1041200040461C4CA0474846A04740461B4B98477A
:1041300080B1009BBBB958461D4CA0470546504670
:10414000A047854216D31B480F4B984750461A4B41
:104150009847DEE74846114B98470028E9D11748B1
:10416000094B9847D5E7019B002BECD01448064B30
:104170009847E8E71348044B984758460E4B984732
:10418000C7E700BF98E60208856701087D4B010874
:10419000E93A0108E54A0108854B0108FD4A010892
:1041A0008D4B0108C54B0108B8E60208A4E60208D9
:1041B000ED3A0108F0E60208413B0108C8E60208B2
:1041C000DCE6020800E7020810B504461048114B6F
:1041D0009847B4F93238104AB2F9A0209A4203DA6B
:1041E000B4F9BA26A02A0BDC0B4AB2F9A2209342FA
:1041F0000ADC93422046B4BF084B094B984710BDD8
:104200002046084B9847FAE72046074B9847F6E7C1
:10421000D0E802088567010820390020153C010814
:10422000F13F010885400108CD3D010838B50F4B2D
:104230009B6BBBB90D4CB4F94C000D4B9847E16B2F
:104240000C4B98470546B4F84E000B4B9847014677
:1042500028460A4B98470A490A4B98470A4B984701
:1042600000B238BD014B186CF8E700BF44330020A2
:1042700021710208B96F020819710208C971020898
:104280000000C842317302085575020838B505466A
:1042900000F5D8642046084B9847FF2807D02046F1
:1042A000054B9847283800EB800000B238BD2846FF
:1042B000024B9847FAE700BF214F01082D42010841
:1042C00038B5104BD3F89030C3B90E4CB4F9A400F4
:1042D0000D4B9847D4F894100C4B98470546B4F80A
:1042E000A6000B4B9847014628460A4B98470A49B7
:1042F0000A4B98470A4B984700B238BD014BD3F898
:104300009800F7E74433002021710208B96F0208D2
:1043100019710208C97102080000C842317302080D
:104320005575020838B5174BD3F8903083B1154B4B
:10433000D3F8984014492046144B9847F8B9002107
:104340002046134B9847134B9847193800B238BD95
:104350000C4CB4F9A400104B9847D4F894100C4BB3
:1043600098470546B4F8A6000C4B984701462846E6
:104370000B4B98470B490C4B98470446DAE70B4820
:10438000E5E700BF44330020000096C3F174020843
:10439000B96F0208557502082171020819710208E7
:1043A000C97102080000C84231730208D4FEFFFF41
:1043B00038B505460B4B9847044610F5967F01D05B
:1043C000204638BD05F5D8652846074B9847FF2895
:1043D000F6D02846044B98472D3800EB800004B2F5
:1043E000EEE700BF25430108FD4E01082DE9F84323
:1043F0000646404F102138463F4DA84780460F21C2
:104400003846A84781460E213846A847840044EA2A
:10441000490444EA080464B20D213846A84744EA36
:10442000C000C0B2354B1B7883420AD0334B1870A2
:10443000334B1B68002B08BF0123324A1360BDE8D1
:10444000F883304A10682E4A1268002A08BF0122F9
:104450002D4991F829404FF47A7101FB04F1121AA9
:1044600091421ADA082B15D0042B1CD00C2B1ED02D
:10447000022B20D00A2B22D0062B24D00E2B26D0A4
:10448000012B28D0092B2AD0052B2CD1FA2386F812
:10449000343802E0C82386F8343896F834181B48BC
:1044A0001B4B9847CBE7C82386F83438F5E7C82379
:1044B00086F83438F1E7C82386F83438EDE7C823A6
:1044C00086F83438E9E7D22386F83438E5E7DC2388
:1044D00086F83438E1E7E62386F83438DDE7F02360
:1044E00086F83438D9E7DC2186F834180948084BB7
:1044F0009847D2E7D4630020A1780108C63900208C
:10450000C4460020C83900202039002080E7020876
:10451000856701085CE70208F8B51C4D162128469E
:104520001B4CA047064617212846A04707461821DE
:104530002846A047800040EA47003043C0B2154BF0
:104540001B7883420CD0144B1B784BB9134B1B6860
:10455000002B08BF0123124A13600F4B01221A706F
:104560000F4B19680D4B1B68002B08BF01230D4A28
:1045700092F829404FF47A7202FB04F25B1A9A42D5
:10458000BCBF044B1870034B1878F8BDD4630020EF
:10459000A1780108CC390020CD390020C446002084
:1045A000D03900202039002070B582B0044690F840
:1045B00039115848584B984701465848584DA84714
:1045C0002046584B98472046574B9847014684F859
:1045D000EC065648A8475648564B9847014684F87B
:1045E000ED065548A84794F8EC36052B0FBF94F814
:1045F000ED36062384F8ED36002384F8303894F83D
:1046000030184E48464B98474D4B984700284AD1A2
:1046100020464C4B9847054620464B4B984706464C
:1046200020464A4B98470346324629462046484D85
:10463000A847B4F9BC36B4F9BE26B4F9BA16454851
:10464000374DA8472046444B984794F83428A4F89F
:10465000B82694F83038013BDBB2022BB4F9BE36F1
:10466000B4F9BC160191B4F9BA16009194BF0021B7
:10467000012104F5DE60394DA847D4F82838B4F894
:10468000BC16C91A09B2A4F832183548244B984709
:1046900094F83038013B072B0FD8DFE803F00B23E9
:1046A000272B2F330E372F481D4B984720462E4B74
:1046B000984715E020462D4B98472D4D697D2D4894
:1046C000174CA0472B68190641EA13611A0A02F435
:1046D0007F4211431B0203F47F0319432648A0477E
:1046E00002B070BD2046254B9847E6E72046244B94
:1046F0009847E2E720461C4B9847DEE72046214BCF
:104700009847DAE72046204B9847D6E72046164BD5
:104710009847D2E7D4630020A178010894E7020803
:1047200085670108453D010819450108ACE7020805
:1047300094400020714F0108C0E70208D0E702084A
:104740008D2A01088D420108B1430108C1420108C8
:10475000A54E0108FCE70208ED430108014E0108DF
:1047600028E80208E0E70208F13F0108153C0108CB
:104770005C1B002034E8020850E80208CD3D010827
:1047800085400108C9410108F13E0108224B002281
:10479000C3F84C22C3F85022012083F840021F497D
:1047A000C3F84812C3F86C23C3F8702383F860037E
:1047B000C3F86813C3F88C24C3F8902483F88004EA
:1047C000C3F89825C3F88814C3F8A825C3F8AC2506
:1047D00083F89C05C3F8B426C3F8A415C3F82428AD
:1047E000C3F828280E49C3F82C1883F8F62641F29E
:1047F0008831C3F80C17C3F814170521C3F8001744
:104800001421C3F80817C3F8FC263022C3F8042784
:104810009622C3F810277047D43900208C620020FC
:10482000E09304007047704743888B4203D9838824
:104830008B4298BF018000207047000070B50E4683
:104840000E4C014620460E4DA8473146A01DA847F4
:1048500020880C4B1B88834204D10B4B1A88E388B9
:104860009A4209D0074B1880044BD988064B19800F
:1048700000231A46054CA04770BD00BF204200200F
:10488000294801081C4200201E42002019C50108C9
:1048900070B5044609480A4B98470A4E012221790F
:1048A0003046094DA847002261793046A847074B9A
:1048B0001B68002B08BF0123236370BD50E9020869
:1048C00085670108EC63002015790108C4460020C3
:1048D00070B5044609480A4B98470A4E00222179D0
:1048E0003046094DA847012261793046A847074B59
:1048F0001B68002B08BF0123636370BD5CE90208DD
:1049000085670108EC63002015790108C446002082
:1049100010B504460548064B9847A08D41F2931305
:10492000984294BF0020012010BD00BF28E9020872
:104930008567010810B504460448054B9847A08DCB
:10494000B0F5FA7F8CBF0020012010BD3CE90208C1
:104950008567010810B50446C379062B3CD8DFE80B
:1049600003F00412373C9C719F004F4B984710B9DD
:104970000223E37130E020464C4B98470123E3715A
:104980004B4A136028E04B4B9847F0B9226B4A4BD7
:104990001B68002B08BF01239B1A49F63F42934234
:1049A0001ADD2046454B98472046424B984794F8DD
:1049B0003830002814BF1846581C84F838000623E5
:1049C000E3713F483F4B984706E00023E37103E063
:1049D0003A4B98470323E37110BD334B984790B18E
:1049E000334B1B682BB92046304B98470523E371A6
:1049F000F2E72046314B98470023A3710422E2716D
:104A000084F83830E8E7626B2B4B1B68002B08BF3B
:104A100001239B1A49F63F429342DDDD2046274B96
:104A200098472046204B984794F83830002814BF08
:104A30001846581C84F838000623E3712248214B9D
:104A40009847C9E71B4B9847F0B9226B1A4B1B6874
:104A5000002B08BF01239B1A49F63F429342BBDD5E
:104A60002046164B98472046124B984794F838300A
:104A7000002814BF1846581C84F838000623E37138
:104A80001248104B9847A7E720460C4B9847032342
:104A9000E371074B01221A609EE7012303729BE733
:104AA0000123037298E700BF3549010891480108C6
:104AB0002C42002011490108C4460020D1480108B9
:104AC000E8E8020885670108FCE8020810E9020826
:104AD000002303728371C37180F8393080F8383055
:104AE0008385704708B5012201780248024B984738
:104AF00008BD00BFEC6300201579010808B54178B6
:104B00000148024B984708BDD4630020A1780108F2
:104B100038B504460D46154B9847C0B155B9E26803
:104B2000134B1B68002B08BF01239B1A41F28732ED
:104B300093420CDD237D5BB1002221780D480E4BA2
:104B400098470B4B1B68002B08BF0123A36138BD9E
:104B50000022E26121780748074B9847044B1B6805
:104B6000002B08BF0123A361F1E700BFFD4A010844
:104B7000C4460020EC63002015790108007D7047D1
:104B800000897047018170478069704710B50446FD
:104B9000002201780748084B9847084B1A68002AFA
:104BA00008BF0122A260E36861685B1A1344E360F6
:104BB00010BD00BFEC63002015790108C446002039
:104BC0000020704708B541780148024B984708BD5E
:104BD000D4630020A178010810B5044601220178B1
:104BE0000448054B9847054B1B68002B08BF012361
:104BF000636010BDEC63002015790108C4460020F5
:104C0000C068704770B40A68C1F828218B699A425D
:104C1000C8BFC1F828315B42D1F828219A42B8BFF9
:104C2000C1F828318B79002B00F084804A6A002A71
:104C300040F09980CB694B624C69D1F81831A3429E
:104C4000A4BF0023C1F81831D1F8183101EB83005B
:104C5000002585620D791DB1D1F82861002E08DC90
:104C60004E791EB1D1F82861002E02DBD1F82861FF
:104C7000866201339C42D8BF0023C1F8183100235B
:104C8000C1F82C319C420BDD18460A3251F8222023
:104C900010440133DBB21A469C42F6DCC1F82C0109
:104CA000D1F82C3193FBF4F4C1F82C411DB1D1F8AB
:104CB0002831002B0ADC4B791BB1D1F82831002BAD
:104CC00004DBD1F81C311C44C1F81C410A6A0D698F
:104CD000642404FB02F494FBF5F4D1F81C31A342E4
:104CE000C8BFC1F81C416FF0630303FB02F393FBE1
:104CF000F5F3D1F81C219A42B8BFC1F81C31D1F8A4
:104D00002821CB6803FB02F3184C84FB0320DB173C
:104D1000C3EB6013C1F82431D1F81C0100FB05F08E
:104D200084FB0024C217C2EB6412C1F82021134493
:104D30008B6018E000228A60C1F81821C1F8202198
:104D4000C1F81C21C1F82421C1F82C2148699042E6
:104D500009DDD1F828410A3241F822400133DBB2A3
:104D60001A468342F7DB70BC704700BF1F85EB51CA
:104D700038B50446059DF1B108460121A171E2B99B
:104D80004FF49672E26003F11402A3F11201A942FA
:104D900032D20699691A11F10A0FACBF0021012124
:104DA0006171023295420DD2069AA81A0A28D4BF20
:104DB0000020012006E0002282714FF4FA72E260C6
:104DC000012060712071049A9B1A142B0DDD1423AD
:104DD000236021462046094B9847636AB3F5FA736E
:104DE00048BF41F28833636238BD13F1140FB8BF76
:104DF0006FF013032360ECE70146D1E7054C01088F
:104E0000F0B585B0054614460A9E0296D0F83821C2
:104E1000019200932346D0F83C21003118BF0121B4
:104E20001D4FB8471D49D1F87E3003EB830303EBD8
:104E300003131B4A82FB0302DB17C3EB6212D1F898
:104E40008600D1F88AC0D1F89230ACEB0307331A50
:104E500003FB07F3D1F88E60801B93FBF0F36344F0
:104E6000D1F882101439641A04EB440404EBD474AE
:104E70006410C5F834411C44AB681C441444C5F8A4
:104E80003841D5F83C31A3F5FA73002BD8BF002385
:104E9000C5F83C3105B0F0BD714D01082039002046
:104EA0001F85EB51A0F8BA16A0F8BE26A0F8BC36B4
:104EB0007047836913F0010F14BFC069406900F0A7
:104EC00001007047836913F4804F14BFC0694069C3
:104ED00000F480407047000038B503788B4209D059
:104EE0004B1EDBB2062B05D80C460546024B9847F5
:104EF00000B12C7038BD00BFC54E010810B5044686
:104F0000064B984740B1A36913F4007F14BFB4F96E
:104F10000800B4F9060010BDFF20FCE7B34E0108FD
:104F200010B50446064B984740B1A36913F4806F4F
:104F300014BFB4F90C00B4F90A0010BDFF20FCE75F
:104F4000B34E010821B9436923F00203436170475E
:104F5000436943F002034361704721B9436923F475
:104F6000804343617047436943F480434361704722
:104F7000836913F4805F14BF4078007870470000A5
:104F8000A9B110B44B1E9BB20133C1184FF6FF7389
:104F9000094C10F8012B82EA232234F8122082EA0D
:104FA00003239BB28842F4D1184610BC70474FF6D9
:104FB000FF731846704700BF78E90208324B1A6940
:104FC000324B1B68002B08BF01239B1AC72B52DDF5
:104FD0002D4BD3F82C212D4B1B68002B08BF012330
:104FE0009B1AC72B49DD2A4B1A69284B1B68002BDB
:104FF00008BF01239B1AC72B41DD254BD3F8302175
:10500000224B1B68002B08BF01239B1AC72B38DDDE
:105010001D4BDA681D4B1B68002B08BF01239B1A30
:10502000C72B22DD184BD3F82821184B1B68002B07
:1050300008BF01239B1AC72B19DD154BDA68134BE8
:105040001B68002B08BF01239B1AC72B11DD104BD7
:10505000D3F82C010D4B1B68002B08BF0123181A35
:10506000C728D4BF002001207047002070470020CF
:1050700070470020704700207047002070470020D4
:1050800070470020704700BF38420020C44600200F
:1050900070440020D0F81831064A1068002808BF74
:1050A0000120C01A47F230539842D4BF002001209B
:1050B000704700BFC446002038B505460C4603784B
:1050C0000B7003234B7000234B804FF440638B80A5
:1050D00006212046084B9847030AA371E071074B4D
:1050E0001B68002B08BF01232B61AB68DB6808211C
:1050F00020469847012038BD814F0108C446002052
:1051000038B505460C4603780B70062161704FF4E4
:105110009073638020460B4B9847030AA371E0719C
:1051200008212046084B9847AB68DB6808212046D9
:105130009847064B1B68002B08BF0123EB6001203A
:1051400038BD00BF814F0108655C0108C4460020DE
:1051500038B505460C4603780B70062161704FF494
:10516000907363802046094B9847030AA371E0714E
:10517000AB68DB68082120469847054B1B68002B6D
:1051800008BF0123EB60012038BD00BF814F01083B
:10519000C44600202DE9F04104460E4600F11605F4
:1051A00000F58B712B46002203F8012B8B42FBD1BB
:1051B0000023A382A3681B694FF480712846984797
:1051C000074683B2A3826BB3A17D227891422ED190
:1051D00094F81780B8F1030F2CD1023B99B22846FE
:1051E000174B9847BFB2E319C0F307221B7D9A42C1
:1051F00023D127447B7DC0B2834202D04FF0040804
:1052000012E0731E04F1340115F8012B03F8012F8D
:105210008D42F9D10B4B1B68002B08BF0123C4F84A
:10522000183101E04FF001084046BDE8F0814FF031
:105230000208F9E74FF00208F6E74FF00408F3E739
:10524000814F0108C44600208369064A106800287F
:1052500008BF0120C01A47F230539842D4BF002043
:1052600001207047C446002038B505460C46037837
:105270000B7003234B704FF4C8434B804FF48053A3
:105280008B8006212046094B9847030AA371E071E1
:10529000074B1B68002B08BF01232B61AB68DB6841
:1052A000082120469847012038BD00BF814F0108E2
:1052B000C446002038B505460C4603780B7006211D
:1052C00061700023A3702046084B9847030AA3711E
:1052D000E071074B1B68002B08BF01232B61AB68F3
:1052E000DB68082120469847012038BD814F01081E
:1052F000C44600202DE9F04104460E4600F11E058B
:1053000000F58F712B46002203F8012B8B42FBD155
:105310000023A383A3681B694FF480712846984734
:10532000074683B2A38363B3A17F227891422DD134
:1053300094F81F80B8F1030F2BD1023B99B2284695
:10534000174B9847BFB2E319C0F307221B7F9A425D
:1053500022D127447B7FC0B2834202D04FF00408A1
:1053600011E0731E04F1440115F8012B03F8012F1D
:105370008D42F9D10B4B1B68002B08BF0123A361A1
:1053800001E04FF001084046BDE8F0814FF002080F
:10539000F9E74FF00208F6E74FF00408F3E700BF23
:1053A000814F0108C4460020808A7047064B332293
:1053B0001A70342283F81C21044B35221A703622CD
:1053C00083F82021704700BF38420020704400203D
:1053D00008B5604B1B68062B08D8DFE803F0041AF9
:1053E000374E657B99005C4B984700B908BD5B4B15
:1053F0001B685B4A52F823105A4A4FF48E7000FB28
:105400000320594B98470128F0D1524B01221A60D2
:10541000ECE7514B98470028E8D0504B1B68504AA6
:1054200052F8231018314F4A4FF48E7000FB0320BE
:105430004E4B9847032805D00128D7D1454B002271
:105440001A60D3E7434B02221A60CFE7424B9847DA
:105450000028CBD0414B1B68414A52F82310083139
:10546000404A4FF48E7000FB0320414B98470128BF
:10547000BCD1384B03221A60B8E7374B9847002855
:10548000B4D0364B1B68364A52F823101031354AD7
:105490004FF48E7000FB0320364B98470128A5D1AE
:1054A0002C4B04221A60A1E72B4B984700289DD073
:1054B0002A4B1B6803EBC3002F4A52F823102F4BD3
:1054C00003EB40102E4B984701288FD1214B05222A
:1054D0001A608BE7204B9847002887D01F4B18682D
:1054E000254B53F8201000EBC0001031234B03EB89
:1054F0004010244B9847032806D001287FF476AF4C
:10550000144B04221A6071E7124B06221A606DE7F1
:10551000114B984700283FF469AF104B1868164BA1
:1055200053F8201000EBC0000831144B03EB40107F
:10553000154B984700283FF459AF064B00221A60DC
:10554000064A1368013303F0010348BF5B4213604E
:105550004CE700BF34420020BD4F0108304200201C
:1055600068E9020838420020B95001089551010845
:10557000515101080151010870E9020870440020EE
:1055800069520108F5520108B5520108104B00227A
:10559000DA601A61012018700E499960C3F82C2155
:1055A000C3F8302183F82001C3F828110A4BDA60D0
:1055B0001A611870C3F818219960C3F82821C3F83C
:1055C0002C2183F81C01C3F83422C3F8241170473E
:1055D000704400208C62002038420020F0B4002388
:1055E000012503260DE0C26806FA07F422EA040248
:1055F000C260C468CA79BA402243C2600133102B2A
:105600002CD005FA03F20C68A243F7D104685F00BE
:1056100006FA07F2D24314400460D0F800C00C79B7
:10562000BC4044EA0C0404600C79013CE4B2012C57
:10563000D9D884682240826084684A79BA4022437B
:105640008260426805FA03F422EA04024260446878
:105650008A799A4092B222434260C4E7F0BC704714
:10566000018370474183704710B401F007039B002A
:10567000C90800EB8100016A0F249C4021EA040163
:105680000162016A9A400A43026210BC704700003E
:1056900010B4284B9B6803F00C03042B22D0082B7A
:1056A00023D013B1244B036001E0234B0360214C52
:1056B000A368C3F303132149CB5CDAB20368D34078
:1056C0004360A268C2F382228A5CD2B223FA02F259
:1056D0008260A268C2F342328A5CD2B2D340C36015
:1056E00010BC7047164B0360E1E7124B59685A68CB
:1056F00002F03F0211F4800F11D05968C1F38811F4
:105700000F4BB3FBF2F303FB01F30A4A5268C2F3F7
:10571000014201325200B3FBF2F30360C7E7054BCD
:105720005968C1F38811044BB3FBF2F303FB01F397
:10573000EBE700BF003802400024F400C805001069
:1057400000127A0029B9054A136B23EA000010639E
:105750007047024A136B18431063704700380240C9
:1057600029B9054A936B23EA000090637047024A07
:10577000936B1843906370470038024029B9054A7B
:10578000136C23EA000010647047024A136C18433C
:10579000106470470038024029B9054A536C23EA67
:1057A000000050647047024A536C184350647047BD
:1057B0000038024029B9054A136A23EA0000106242
:1057C0007047024A136A184310627047003802405B
:1057D00029B9054A536A23EA000050627047024A19
:1057E000536A1843506270470038024010B586B0C3
:1057F0008DF814008DF815100D4B9847044628B10C
:10580000022C14BF2046002006B010BD094B98475B
:10581000012302930522019200930023022205A98D
:105820006F20054CA0470446044B9847E8E700BFAB
:10583000ED730108D974010805750108F1740108B8
:105840002DE9F04387B00746314B1A68314B1B688E
:10585000002B08BF01239B1AB3F5FA7F02DC0AB1C3
:10586000002944D006AE002306F8013D2A4B984794
:105870000624DFF8C480DFF8B09001E0013C14D0CA
:105880000122029201920023009331466F20C0470B
:1058900005460128F2D101230293019300930822C7
:1058A00049466F20C047051EE8DD1C4B9847082D70
:1058B00007D029461A481B4B9847002007B0BDE87F
:1058C000F083194CE17901F00101184B1A6811437A
:1058D00019601748134B984708212046154B9847E5
:1058E0000C4B1B68002B08BF0123094A13600E4BA9
:1058F0005A793A701A797A70DA78BA709A7802F02E
:105900003F02FA705A783A711B787B710120D5E713
:10591000B0460020C4460020D9740108F174010883
:1059200098EB020885670108B4460020C0460020B5
:10593000ACEB0208655C01080575010810B588B07C
:1059400000228DF8102003788DF8163043788DF8FA
:10595000153083788DF81430C37863F07F038DF8A9
:10596000133003798DF8123043798DF811308DF8AA
:105970001720102107201A4B9847011E0CDB194BEA
:105980009847044668B1082C1CD021461648174B8E
:105990009847002008B010BD1548144B98470020C8
:1059A000F8E7144B984701230293052201920093D4
:1059B0000023082204A96F200F4CA04704460F4B78
:1059C0009847E0E700210720054B9847011E01DBBF
:1059D0000120DFE70648054B98470020DAE700BFC3
:1059E000ED570108ED730108D4EB02088567010843
:1059F000C4EB0208D974010805750108F1740108A7
:105A000010B582B0044600216846134B984740B158
:105A10009DF801303BB124B100982060BDF80430FE
:105A2000A38002B010BD20238DF8003001238DF833
:105A300001308DF8023012238DF8033057238DF892
:105A4000043000238DF805306846044B984704481D
:105A5000044B9847DFE700BF415801083D59010852
:105A600078EB020885670108084B1B6813F4803F38
:105A70000BD0074A136801331360064B4AF6AA227B
:105A80001A60054B4FF080525A60704710E000E0FA
:105A9000C44600200030004000ED00E000B585B0B5
:105AA0006846144B9847019B134AA2FB03235B0AE9
:105AB000013B124A536000239360114BE02183F8AD
:105AC0002310072313606FF004000E4B984745F234
:105AD00055500D4B984703200C4B98474FF4FA60F4
