:020000040801F1
:10000000D07F00108D1001088901010889010108C5
:100010008901010889010108890101080000000027
:100020000017011003F8A25900000000890101081F
:100030008901010800000000D1160108C10F010864
:100040008901010889010108890101088901010864
:100050008901010889010108890101088901010854
:100060008901010889010108890101088901010844
:10007000BD8A010885210108218A0108ED200108B7
:10008000890101088901010889010108D5A4010835
:1000900001A80108EDA80108B9AB01088901010810
:1000A0008901010889010108890101088901010804
:1000B00065240108A1240108DD24010849950108EF
:1000C000CD940108519B0108D59A010889010108C6
:1000D00089010108890101088901010889010108D4
:1000E00089010108890101088901010889010108C4
:1000F00089010108890101088901010889010108B4
:1001000089010108890101081925010889010108EF
:1001100089010108890101085525010889010108A3
:1001200089010108890101088990010889010108F4
:100130008901010889010108890101084DA601080A
:10014000D9A90108C9AA0108C9AB01088901010898
:10015000F9190108ED8F01086519010889010108E5
:100160008901010889010108890101088901010843
:100170008901010889010108890101088901010833
:100180008901010889010108FEE7000010B5054C4E
:10019000237833B9044B13B10448AFF30080012333
:1001A000237010BD0000002000000000D4230208CE
:1001B00008B5034B1BB103490348AFF3008008BDEA
:1001C0000000000004000020D4230208704770479C
:1001D00008B5034BD868034B984780B208BD00BFF1
:1001E0001C0000207108020808B5034B9869034BF6
:1001F000984780B208BD00BF1C00002071080208AB
:1002000008B5034BD869034B984780B208BD00BFBF
:100210001C0000207108020870477047704743882F
:100220008B4203D983888B4298BF0180002070479E
:1002300070B50E460E4C014620460E4DA84731467D
:10024000A01DA84720880C4B1B88834204D10B4B70
:100250001A88E3889A4209D0074B1880044BD98842
:10026000064B198000231A46054CA04770BD00BFFD
:10027000580000201F0201085400002056000020F2
:10028000414B0108704770477047704738B5084BBD
:100290001C780CB9204638BD064D4FF0FF3128467A
:1002A000054B9847024B1C782846044B9847F1E7CA
:1002B000D4020020D0020020E11501085D160108DB
:1002C00038B56C4B1A686C4B1B68002B08BF0123B8
:1002D0009B1AC72B0FDD0446674B1B68002B08BF1A
:1002E0000123644A1360654B9847042806D0002018
:1002F000634B187001E0624B187838BD4FF0FF3146
:100300006048614B9847614B1B681A0642EA1362CA
:10031000190A01F47F410A431B0203F47F031343CC
:100320005B4A13605B4B1868002810DD5A4A584B33
:10033000184413F8011B02F8011B8342F9D15749F5
:10034000534A12F8010B01F8010B9A42F9D1544BB0
:100350001A68494B1B68002B08BF01239B1AB3F591
:10036000FA6F10DD012C10D04E4B1A68424B1B68FF
:10037000002B08BF01239B1AB3F5FA6F36DD022C60
:1003800036D0002511E0022CEED0474B186800282B
:1003900008DD464A464B184413F8011B02F8011BBE
:1003A0008342F9D10125364B1D70424B1A68324BFE
:1003B0001B68002B08BF01239B1AB3F5FA6F2BDDD6
:1003C000012C2BD03C4B1A682B4B1B68002B08BF11
:1003D00001239B1AB3F5FA6F38DD022C38D0294877
:1003E000364B9847264B00221A702CE0012C11D076
:1003F0002D4B1868002808DD2C4A314B184413F89F
:10040000011B02F8011B8342F9D11D4B02221A7015
:100410000125CAE70025C8E7022CD3D0294B18686C
:10042000002808DD284A294B184413F8011B02F85C
:10043000011B8342F9D1124B01221A7011481F4B44
:100440009847002DCED00E4B187856E7012CC6D019
:100450001C4B1868002808DD1B4A1D4B184413F874
:10046000011B02F8011B8342F9D1054B02221A70CD
:10047000E4E700BFD8020020A40A00208D02010892
:10048000D5020020D0020020E11501083C01002027
:10049000B803002008000010080200206C020020B1
:1004A0002C0100203001002000000010DC020020A0
:1004B0004001002034010020380100205D160108B1
:1004C000A40100200400001040030020640000206C
:1004D000C8000020002070470048704744040020F6
:1004E000064A0023136093801361054A13609380CA
:1004F0001361044A1360938013617047A4040020C1
:10050000780400204C0400209F2805D10B78002B94
:10051000024808BF002070470020704730000906DD
:100520000023136041F21703984245D011D9B0F56A
:10053000C05F4BD02BD8B0F5A05F43D0B0F5B05F13
:1005400042D041F2180398423AD0264B0B6000206B
:10055000704741F20503984226D00AD941F20703B9
:1005600098423DD024D341F216039842EDD10522A2
:1005700007E0B0F5805F31D041F201039842E4D149
:10058000012200230B60184800EBC2007047B0F551
:10059000005F1FD0B0F5085F1ED0B0F5D05FD4D19A
:1005A000124B13600B22ECE7114B13600222E8E7B9
:1005B000104B13600322E4E70F4B13600622E0E7C1
:1005C0000722DEE70822DCE70922DAE70B4B13609B
:1005D0000A22D6E70C22D4E70D22D2E70022D0E788
:1005E0000422CEE700000206B80F0208040500202E
:1005F000DC040020E0040020E4040020E8040020E3
:1006000008B50248024B984708BD00BF58100208C1
:10061000DD1C010870B51D4C20461D4DA84706463F
:10062000A01CA847014630461A4B98471A4B9847DA
:1006300024F8020C194B9847A080194B9847208149
:100640001848194B984788B9DA3CB4F898100B024F
:1006500043EA1123A4F8E0301448134B984758B1EB
:10066000134B4FF69C72A3F8E42070BD104B4FF66D
:100670009C72A3F8E020EFE70D4AB2F8CE100B020F
:1006800043EA1123A2F8E430EFE700BF1E06002082
:10069000E106010831020108D1010108E901010860
:1006A000010201086C080020C10901088809002026
:1006B0004405002008B50548054B9847054B1B68C5
:1006C000054B9847054B984708BD00BF44100208EA
:1006D000DD1C0108A40A0020150601087D0B010895
:1006E00000887047A9B110B44B1E9BB20133C118EA
:1006F0004FF6FF73094C10F8012B82EA232234F8DD
:10070000122082EA03239BB28842F4D1184610BC1F
:1007100070474FF6FF731846704700BFE410020899
:10072000324B1A69324B1B68002B08BF01239B1AFE
:10073000C72B52DD2D4BD3F82C212D4B1B68002BE2
:1007400008BF01239B1AC72B49DD2A4B1A69284B86
:100750001B68002B08BF01239B1AC72B41DD254BCB
:10076000D3F82C21224B1B68002B08BF01239B1AB6
:10077000C72B38DD1D4BDA681D4B1B68002B08BFEB
:1007800001239B1AC72B22DD184BD3F82821184BC5
:100790001B68002B08BF01239B1AC72B19DD154BC3
:1007A000DA68134B1B68002B08BF01239B1AC72B69
:1007B00011DD104BD3F828010D4B1B68002B08BF2F
:1007C0000123181AC728D4BF002001207047002039
:1007D00070470020704700207047002070470020BD
:1007E0007047002070470020704700BF340600208B
:1007F000A40A00206C08002038B505460C46017894
:100800000F48104B98472B78237003236370002305
:1008100063804FF44063A380062120460A4B98472B
:10082000030AA371E071094B1B68002B08BF012369
:100830002B61AB68DB68082120469847012038BD52
:10084000E4120208DD1C0108E5060108A40A0020E4
:1008500038B505460C461048104B98472B78237046
:10086000062161704FF49073638020460C4B9847CB
:10087000030AA371E071082120460A4B9847AB6830
:10088000DB68082120469847074B1B68002B08BFF0
:100890000123EB60012038BD08130208DD1C0108AC
:1008A000E5060108BD110108A40A002038B5054677
:1008B0000C460E480E4B98472B782370062161702A
:1008C0004FF49073638020460A4B9847030AA37144
:1008D000E071AB68DB68082120469847064B1B682F
:1008E000002B08BF0123EB60012038BD281302084C
:1008F000DD1C0108E5060108A40A00202DE9F041ED
:1009000004460E462A482B4B984704F1160504F579
:100910008B712B46002203F8012B8B42FBD1002365
:10092000A382A3681B694FF4807128469847074645
:1009300083B2A3826BB3A17D227891422ED194F829
:100940001780B8F1030F2CD1023B99B228461A4BFD
:100950009847BFB2E319C0F307221B7D9A4223D107
:1009600027447B7DC0B2834202D04FF0040812E0DE
:10097000731E04F1340115F8012B03F8012F8D4289
:10098000F9D10E4B1B68002B08BF0123C4F81831A6
:1009900001E04FF001084046BDE8F0814FF0020849
:1009A000F9E74FF00208F6E74FF00408F3E700BF5D
:1009B0004C130208DD1C0108E5060108A40A00200A
:1009C0004369064A1068002808BF0120C01A47F290
:1009D00030539842D4BF002001207047A40A002061
:1009E00038B505460C461048104B98472B782370B5
:1009F000032363704FF4C84363804FF48053A38094
:100A0000062120460A4B9847030AA371E071094B5F
:100A10001B68002B08BF01232B61AB68DB68082132
:100A200020469847012038BD64130208DD1C0108E8
:100A3000E5060108A40A002038B505460C460E4814
:100A40000E4B98472B782370062161700023A3700A
:100A500020460B4B9847030AA371E071094B1B68B2
:100A6000002B08BF01232B61AB68DB6808212046FF
:100A70009847012038BD00BF84130208DD1C01081F
:100A8000E5060108A40A00202DE9F04104460E46BF
:100A900029482A4B984704F11A0504F58D712B4615
:100AA000002203F8012B8B42FBD100232383A36890
:100AB0001B694FF4807128469847074683B2238309
:100AC00063B3A17E227891422DD194F81B80B8F1B6
:100AD000030F2BD1023B99B22846194B9847BFB25E
:100AE000E319C0F307221B7E9A4222D127447B7E62
:100AF000C0B2834202D04FF0040811E0731E04F12B
:100B0000400115F8012B03F8012F8D42F9D10D4B4F
:100B10001B68002B08BF0123636101E04FF001084F
:100B20004046BDE8F0814FF00208F9E74FF00208B7
:100B3000F6E74FF00408F3E7A8130208DD1C0108EC
:100B4000E5060108A40A002008B50848084B9847A4
:100B5000084B33221A70342283F81C21064B3522AD
:100B60001A70362283F81C2108BD00BFBC10020891
:100B7000DD1C0108340600206C08002010B5664C0E
:100B800021686648664B98472368062B08D8DFE83B
:100B900003F0041A3B52697FA200624B984700B9E8
:100BA00010BD614B1B68614A52F82310604A4FF434
:100BB0008E7000FB03205F4B98470128F0D1564B05
:100BC00001221A60ECE7574B98470028E8D0002133
:100BD0005948534B9847544B1B68544A52F82310BA
:100BE0001831534A4FF48E7000FB0320534B984743
:100BF000032805D00128D3D1474B00221A60CFE744
:100C0000454B02221A60CBE7464B98470028C7D0D5
:100C1000454B1B68454A52F823100831444A4FF4AB
:100C20008E7000FB0320464B98470128B8D13A4B01
:100C300003221A60B4E73B4B98470028B0D03A4BE8
:100C40001B683A4A52F823101031394A4FF48E701B
:100C500000FB03203B4B98470128A1D12E4B0422D7
:100C60001A609DE72F4B9847002899D02E4B1B68A0
:100C7000354A52F82310354A4FF48E7000FB03209A
:100C8000334B984701288BD1234B05221A6087E705
:100C9000244B9847002883D0234B1B682A4A52F8DC
:100CA00023101031294A4FF48E7000FB0320294B8A
:100CB0009847044601462848194B9847032C06D00C
:100CC000012C7FF46DAF144B04221A6068E7124BBD
:100CD00006221A6064E7134B984700283FF460AF80
:100CE000114B1B68184A52F823100831174A4FF469
:100CF0008E7000FB0320194B984700283FF450AF3B
:100D0000054B00221A60084A1368013303F00103FF
:100D100048BF5B42136043E7300600206C100208B6
:100D2000DD1C0108210701082C060020D410020850
:100D300034060020F90701088C100208FD0801089C
:100D4000AD08010851080108DC1002086C080020F9
:100D5000E1090108890A0108A4100208390A0108FA
:100D6000104B0022DA601A61012018700E49996058
:100D7000C3F82821C3F82C2183F81C01C3F82411DF
:100D80000A4BDA601A611870C3F818219960C3F829
:100D90002821C3F82C2183F81C01C3F83422C3F89E
:100DA000241170476C0800206C26002034060020B7
:100DB000F0B40023012503260DE0C26806FA07F40B
:100DC00022EA0402C260C468CA79BA402243C260FF
:100DD0000133102B2CD005FA03F20C68A243F7D193
:100DE00004685F0006FA07F2D24314400460D0F8AA
:100DF00000C00C79BC4044EA0C0404600C79013C4E
:100E0000E4B2012CD9D884682240826084684A798F
:100E1000BA4022438260426805FA03F422EA0402DF
:100E2000426044688A799A4092B222434260C4E7A1
:100E3000F0BC7047018370474183704710B401F0E4
:100E400007039B00C90800EB8100016A0F249C4046
:100E500021EA04010162016A9A400A43026210BC5D
:100E60007047000010B4284B9B6803F00C03042B60
:100E700022D0082B23D013B1244B036001E0234B75
:100E80000360214CA368C3F303132149CB5CDAB29E
:100E90000368D3404360A268C2F382228A5CD2B264
:100EA00023FA02F28260A268C2F342328A5CD2B2B2
:100EB000D340C36010BC7047164B0360E1E7124B90
:100EC00059685A6802F03F0211F4800F11D0596836
:100ED000C1F388110F4BB3FBF2F303FB01F30A4A92
:100EE0005268C2F3014201325200B3FBF2F30360D5
:100EF000C7E7054B5968C1F38811044BB3FBF2F304
:100F000003FB01F3EBE700BF003802400024F400CC
:100F10001805001000127A0029B9054A136B23EA5C
:100F2000000010637047024A136B18431063704748
:100F30000038024029B9054A936B23EA0000906308
:100F40007047024A936B1843906370470038024021
:100F500029B9054A136C23EA000010647047024A5D
:100F6000136C1843106470470038024029B9054AD1
:100F7000536C23EA000050647047024A536C1843D4
:100F8000506470470038024029B9054A136A23EAC1
:100F9000000010627047024A136A184310627047DB
:100FA0000038024029B9054A536A23EA000050621A
:100FB0007047024A536A1843506270470038024033
:100FC000084B1B6813F4803F0BD0074A13680133AA
:100FD0001360064B4AF6AA221A60054B4FF0805266
:100FE0005A60704710E000E0A40A00200030004082
:100FF00000ED00E000B585B06846144B9847019BB2
:10100000134AA2FB03235B0A013B124A53600023ED
:101010009360114BE02183F82310072313606FF0D6
:1010200004000E4B984745F255500D4B984703204E
:101030000C4B98474FF4FA600B4B98470B4B984773
:101040000B4B984705B05DF804FB00BF650E010827
:10105000D34D621010E000E000ED00E01D770108C4
:10106000B97E0108C57E0108D17E0108DD7E010838
:10107000ED7E0108044B1B681844034A13681B1AD1
:10108000002BFBDB704700BFA40A002008B51B4BF8
:1010900098471B4A1B4B9A420DD2194A111D1A4BF5
:1010A0005B1A23F003030B44184951F8040B42F870
:1010B000040B9A42F9D1164A164B9A420BD2144AA3
:1010C000111D154B5B1A23F003030B44002142F85A
:1010D000041B9A42FBD1114A114B9A60ADF5007383
:1010E00083F309884FF0020282F31488BFF36F8FF5
:1010F0000C4B98470C4B9847FEE700BF4D82010808
:1011000000000010EC090010EF090010D4230208C1
:1011100000000020D1330120D43301200000010859
:1011200000ED00E0B10B02086538010889B110B488
:1011300041180023084C10F8012B82EA132234F8DE
:10114000122082EA03239BB28842F4D1184610BCD5
:101150007047002318467047C413020870B4F1B1F9
:10116000411800240F4E10F8015B85EA142536F86B
:10117000155085EA0424A4B28842F4D163B1134423
:10118000084D12F8011B81EA142135F8110080EA9C
:101190000424A4B29A42F4D1204670BC70470024C3
:1011A000ECE700BFC4130208031103EB830300F054
:1011B0000F0000EB4300C0B2704700002DE9F84378
:1011C00005460E461348144B9847002E1CDD29781F
:1011D0001248114B98470024DFF840800E4FDFF88B
:1011E00040900134A6420FD015F8011F4046B84781
:1011F000624204F00F0302F00F0258BF53420F2B5C
:10120000EFD14846B847ECE70548034B9847BDE89F
:10121000F88300BFC4150208DD1C0108EC150208A4
:10122000001D020808B5C36800699847F02383F3DE
:101230001188054B1A6800239361044A4FF08051CE
:10124000516083F3118808BD080C002000ED00E018
:101250000C4A0D4B1360116801208861116800224F
:101260004A615A641A67C3F89C20C3F8C820C3F8BF
:10127000F420C3F82021C3F84C21044BF02283F85A
:1012800022207047080C0020A80A002000ED00E092
:101290002DE9F84380461C4C01251C4EDFF8789060
:1012A0001B4F06E029461B48B84701352C34082D52
:1012B00026D0636C002BF8D0236B1968B142F1D1B2
:1012C000616B80398908012916D95A68B2F1FF3F4C
:1012D00014D10833012201328A4204D053F8040B9E
:1012E000B0F1FF3FF7D0B8F1000FDED0013A920025
:1012F00029464846B847D8E70122F4E70122F2E739
:101300000020BDE8F88300BFA80A002001F65AA516
:10131000DD1C0108F4150208101602082DE9F84337
:1013200007468946154698460020574B984715F0C2
:10133000030F40F0A580B8F1FF0F40F2A380F02327
:1013400083F31188514B5B6C63B1504B02201A6FD1
:101350004AB101302C330828F9D1002383F31188D6
:101360004B488BE00120494C2C2101FB00F104EBA0
:10137000010C0828F1D0474B2B60A8F18003042B07
:101380000DD92B1DA8F1850222F0030205F1080EEC
:1013900072444FF0FF3643F8046B9342FBD1CCF814
:1013A0000450CCF8088045442B1F63504FF08073E5
:1013B00045F8043C63581A1F6250374A43F8042C1E
:1013C0006258131F6350002342F8043C6258151FF3
:1013D000655042F8043C6258151F655042F8043CC1
:1013E0006258151F655042F8043C6258151F65503D
:1013F00042F8043C6258151F655042F804CC62580C
:10140000151F65506FF0020542F8045C6258151F05
:10141000655042F8043C6258151F655042F8043C80
:101420006258151F655042F8043C6258151F6550FC
:1014300042F8043C6258151F655042F8043C62585B
:10144000151F655042F8043C6258151F655042F85C
:10145000043C6258151F655042F8043CCCF80C70EF
:10146000CCF810900122CCF81820089ACCF814205F
:10147000CCF82030CCF8243083F31188BDE8F88311
:101480000648FBE70648F9E749F70108A80A0020E3
:10149000F4ADFFFF01F65AA525120108F3ADFFFFD9
:1014A000F2ADFFFF08B5F02383F31188002815DBA8
:1014B0000F4B1A680F4B9A4214D00D4B1B68022237
:1014C0009A610D4B1B68002B08BF0123084A126864
:1014D00018445062094B4FF080525A60002383F346
:1014E000118808BD002383F31188054B9847F8E75E
:1014F000080C0020A80A0020A40A002000ED00E04B
:1015000075100108F0B51A4B0027BC460124194894
:1015100025464FF0030E19E012F0020F0FD00268BB
:10152000002A08BF01220E6D921B002A07DB4D64C2
:101530004D650A6CBA42C4BF1746A44602E04A6C25
:10154000012AF6D001342C33082C0CD019465A6CE1
:1015500012F0080FE0D09E6C3668002EDCD05D647F
:10156000C3F854E0E5E7024B2C2000FB0C30F0BD43
:10157000A80A0020A40A002003682BBB31B310B4D2
:10158000F02383F311880029CCBF0A240824104BD0
:101590001A6894611B68D8610E4B1B68002B08BF4A
:1015A00001230B4A1068194441620B4B4FF08051E4
:1015B0005960002383F3118813689B6A032B074843
:1015C00008BF002010BC70470020704703487047D8
:1015D000080C0020A40A002000ED00E0F8ADFFFF99
:1015E000F02383F311880368002B05DD013B0360C2
:1015F000002080F31188704719B310B4013B0360D9
:101600000029CCBF06240424104B1A6894611B687F
:1016100018620F4B1B68002B08BF01230B4A106890
:10162000194441620B4B4FF080515960002383F302
:10163000118813689B6A022B074808BF002010BC62
:101640007047002383F3118803487047080C00207B
:10165000A40A002000ED00E0F8ADFFFFF02383F3C3
:101660001188036801330360002B03DD002383F33B
:101670001188704770B4134B00263546012203E0F1
:1016800001322C33082A0CD0596811F0040FF7D01E
:10169000D9688142F4D11968B142C4BF0E461546DB
:1016A000EEE7094B2C2202FB053301229A6102224C
:1016B0009A62064B4FF080525A60002383F31188E0
:1016C00070BC7047E80A0020A80A002000ED00E086
:1016D00000B5FFF717FF5DF804EB084A1168884270
:1016E0000AD01060EFF3098323E9F04F0B60036821
:1016F000B3E8F04F83F3098870477047080C002067
:10170000502383F311887047002383F311887047B7
:101710002DE9F84307460E464FF0FF312C482D4B7C
:101720009847002E4FDD2C4CDFF8BC904FF000089E
:1017300007E088F31188002D41DD2F44761B002E31
:1017400041DD502383F31188A2886188551AB54280
:10175000A8BF354623880B449A42D8BF9B1A002D58
:101760000DDD7A1E02EB050C12F8010FA168C854BA
:101770000133A1888B42A8BF00236245F4D163885E
:101780002B449BB26380002BD3D0E388002BD0D1B5
:1017900041464846114B98472288A3681344C9F82C
:1017A0000C306388A18898188842C8BF8B1AC9F882
:1017B0000430E38001214846084B9847B9E70220EE
:1017C000074B9847BBE70248064B9847BDE8F883AC
:1017D0002C150020E11501081C0C00203D7D01089E
:1017E000A51401085D160108B8640240F0B4344B3A
:1017F0005968C1F180011B6813F4002F32D0314BBE
:101800001B681BB1304B1C688C4202DB0120F0BC12
:1018100070472E4A908855880B1B471B9F42A8BFD4
:101820001F4613882B449842D8BF1B1A002F12DD85
:10183000274804F17F0202447F3020443844234C7F
:1018400012F8016FA568EE540133A588AB42A8BF1A
:1018500000239042F4D11D4A53883B4453801A4BD5
:101860001960D3E7174B18680028CFD1164B1C68B6
:101870008C42CBDA154A958856880F1BAB1B9F42CA
:10188000A8BF1F46138833449D42D8BF5B1B002F5F
:101890000FDD0F4A224402EB070C0C4C12F8016BCF
:1018A000A568EE540133A588AB42A8BF0346624544
:1018B000F4D1064B5A8817445F80034B1960A5E7A3
:1018C000886402400C0C0020280D0020100C002021
:1018D000280C002070B506460C46502383F311886F
:1018E000104B9847104B5888A042A8BF20461B8831
:1018F00000280EDD721E0644013E0B4CA568ED5C0F
:1019000002F8015F0133A588AB42A8BF0023B242B1
:10191000F4D1054A138053881B1A5380002383F3A4
:10192000118870BDED170108100C00202DE9F04161
:101930000C1E11DD0546094E4FF00208084F03E06A
:101940004046B847002C07DD21462846B04700280E
:10195000F6DD0544241AF5E7BDE8F081D518010845
:10196000A514010810B5204AD3885288934211DB90
:101970001D4B00225A801A801C4B4FF07462DA60B3
:10198000194B5B88BBB90021174BD9801848194BFC
:10199000984710BD002BEFD013480188194489B235
:1019A00001808088814202D3091A0F480180D31A2E
:1019B0000D4A5380E0E70E4C002120460D4B98471E
:1019C000094B19889A680A44E2605A889B88501823
:1019D0009842C8BF5A1A06484260034BDA80012178
:1019E000044B9847D5E700BF1C0C00200064024060
:1019F000B86402403D7D0108F0B4384B4FF4746286
:101A0000DA6088331B6813F4002F32D0344B196826
:101A100019B9344B18687F2807DD314B01221A6051
:101A2000304B00221A60F0BC70472F4A94885588CA
:101A3000C0F18006631B9E42A8BF1E4613882B443C
:101A40009C42D8BF1B1B002E0EDD284A024497196A
:101A5000254812F8015B8468E55401338488A34269
:101A6000A8BF0B46BA42F4D11F4B5A8816445E8079
:101A7000D3E71B4B1B681BB11A4B18687F2805DD89
:101A80000023174A1360174A1360CCE7164A91885F
:101A90005488C0F180030E1B9E42A8BF1E461388C7
:101AA00023449942D8BF5B1A002E12DD0F4900F182
:101AB0007F020A447F31014431440B4812F8015F30
:101AC0008468E55401338488A342A8BF00238A4276
:101AD000F4D1054A538833445380D1E7006402406F
:101AE0000C0C0020280D0020100C0020280C0020D9
:101AF0002DE9F04F91B05B4B5B4A9A604FF4006167
:101B000099800024DC805C801C80584A584B93608C
:101B10009180D48054801480564B1C60564B1C60BE
:101B2000564B1A60564A5A60564A9A60564ADA60CC
:101B3000564A1A61564A5A61564A9A61564B0122D0
:101B40001A600190ADF80840ADF80A40ADF80C40BD
:101B5000ADF810400C23ADF80E3001A94F48504BA2
:101B6000984701214FF480004E4B98474FF0006B8F
:101B7000CDF804B0DFF84CA1CDF808A003944026BE
:101B800004968027059706944FF480630793089482
:101B900009940A944FF400330B930C9403230D9390
:101BA0000E940F94DFF8208140463F4DA84701A9CD
:101BB0004046DFF81891C847012210214046DFF85F
:101BC0001081C047CDF804B0CDF808A0DFF804A11B
:101BD000CDF80CA00494059706944FF48063079306
:101BE000089409940A944FF400330B930C94032344
:101BF0000D930E940F94DFF8E0B05846A8472246A4
:101C00000AEB07015846294B984701215846284BB3
:101C1000984701A95846C847012210215846C04795
:101C2000244B502283F825232021596083F8462332
:101C30009E6083F8442310229A6001223946174897
:101C40001D4CA047012231461448A04701215846A7
:101C50001A4B984701211148194B984711B0BDE81C
:101C6000F08F00BF1C0C002030150020100C00204D
:101C70002C0D00200C0C0020280D0020302100200D
:101C8000011701080917010811170108D5180108E3
:101C90002D190108ED1701082C1500200010014036
:101CA00059810108190F01088D7B0108537D010836
:101CB0006B7D010800E100E0378201083D7D0108ED
:101CC0001D82010804100140B8640240E57C01084F
:101CD000817D0108280C0020886402400FB42DE9A2
:101CE000F04383B00AAC54F8046B4FF0FF3138482E
:101CF000384B98470194384D234632464FF4806163
:101D00002846364CA0472B7873B115F8013F002BBD
:101D1000FBD1314BED1A002D52DD2F4F304CDFF847
:101D2000D0904FF0000809E02B4DF2E788F31188BE
:101D3000002E41DD3744AD1B002D41DD502383F3E0
:101D40001188A2886188561AAE42A8BF2E46238801
:101D50000B449A42D8BF9B1A002E0DDD7A1E02EB6F
:101D6000060C12F8010FA168C8540133A1888B42F8
:101D7000A8BF00239445F4D1638833449BB26380A9
:101D8000002BD3D0E388002BD0D141464846154BD9
:101D900098472288A3681344C9F80C306388A18847
:101DA00098188842C8BF8B1AC9F80430E380012113
:101DB00048460C4B9847B9E702200B4B9847BBE7C6
:101DC00003480A4B984703B0BDE8F04304B070479E
:101DD0002C150020E1150108301D0020CD6A0108F6
:101DE0001C0C00203D7D0108A51401085D160108AA
:101DF000B8640240084B5B8898420ADA064A1388A6
:101E0000184493889842A8BFC01A034B9B68185C7B
:101E100070470020704700BF100C002070B4104BBA
:101E20005B8884189C42C8BF1A1A0D4C238803444F
:101E3000A0888342A8BF1B1A002A0DDD01398E1825
:101E4000074CA568ED5C01F8015F0133A588AB4242
:101E5000A8BF0023B142F4D1104670BC704700BF48
:101E6000100C00200C4B5A88904211DA00280EDD2D
:101E700080B209490B8803449BB20B8089888B424E
:101E800002D35B1A04490B80101A034B5880704729
:101E900000225A801A807047100C0020502383F3D0
:101EA00011887047002383F3118870472DE9F843A8
:101EB0000E1E52DD0746DFF8B480294CDFF8B090E3
:101EC00008E0002383F311889D4242DD2F44761BF6
:101ED000002E42DDC047502383F31188A288618819
:101EE000551AB542A8BF354623880B449A42D8BF3D
:101EF0009B1A002D0DDD7A1E02EB050C12F8010F66
:101F0000A168C8540133A1888B42A8BF002394451F
:101F1000F4D163882B449BB26380002BD1D0E3883B
:101F2000002BCED1002148460E4B98472288A3684B
:101F30001344C9F80C306388A18898188842C8BF38
:101F40008B1AC9F80430E38001214846054B9847B5
:101F5000B7E70120044B9847BAE7BDE8F88300BF14
:101F60005C2100203D7D0108A51401085D340108B5
:101F700070600240F0B4344B5968C1F180011B68B5
:101F800013F4002F32D0314B1B681BB1304B1C684F
:101F90008C4202DB0120F0BC70472E4A90885588A5
:101FA0000B1B471B9F42A8BF1F4613882B44984218
:101FB000D8BF1B1A002F12DD274804F17F0202440C
:101FC0007F3020443844234C12F8016FA568EE544A
:101FD0000133A588AB42A8BF00239042F4D11D4A2B
:101FE00053883B4453801A4B1960D3E7174B18684A
:101FF0000028CFD1164B1C688C42CBDA154A958845
:1020000056880F1BAB1B9F42A8BF1F461388334443
:102010009D42D8BF5B1B002F0FDD0F4A224402EB0D
:10202000070C0C4C12F8016BA568EE540133A5881F
:10203000AB42A8BF03466245F4D1064B5A88174409
:102040005F80034B1960A5E7406002404C210020EF
:1020500068220020502100206821002070B506462B
:102060000C46502383F31188104B9847104B588827
:10207000A042A8BF20461B8800280EDD721E064421
:10208000013E0B4CA568ED5C02F8015F0133A588A9
:10209000AB42A8BF0023B242F4D1054A1380538853
:1020A0001B1A5380002383F3118870BD751F01082C
:1020B000502100202DE9F0410C1E11DD0546094E8E
:1020C0004FF00208084F03E04046B847002C07DDF8
:1020D00021462846B0470028F6DD0544241AF5E7D6
:1020E000BDE8F0815D200108A514010810B5204A63
:1020F000D3885288934212DB1D4B00225A801A80EB
:102100001C4B3D22DA601A4B5B88CBB90021184B7F
:10211000D9801948194B9847194B984710BD002B87
:10212000EED013480188194489B201808088814229
:1021300002D3091A0E480180D31A0D4A5380DFE7F3
:102140000D4C002120460D4B9847094B19889A6881
:102150000A44E2605A889B8850189842C8BF5A1AAD
:1021600005484260024BDA800121044B9847D5E7CD
:102170005C21002000600240706002403D7D01084B
:1021800035340108F0B4384B4FF474129A60403380
:102190001B6813F4002F32D0344B196819B9344B33
:1021A00018687F2807DD314B01221A60304B00226E
:1021B0001A60F0BC70472F4A94885588C0F1800699
:1021C000631B9E42A8BF1E4613882B449C42D8BF67
:1021D0001B1B002E0EDD284A02449719254812F8D1
:1021E000015B8468E55401338488A342A8BF0B4691
:1021F000BA42F4D11F4B5A8816445E80D3E71B4B7A
:102200001B681BB11A4B18687F2805DD0023174A8D
:102210001360174A1360CCE7164A91885488C0F1BE
:1022200080030E1B9E42A8BF1E461388234499427A
:10223000D8BF5B1A002E12DD0F4900F17F020A445D
:102240007F31014431440B4812F8015F8468E55442
:1022500001338488A342A8BF00238A42F4D1054AEF
:10226000538833445380D1E7006002404C21002062
:102270006822002050210020682100202DE9F04F25
:1022800091B00546594B5A4A9A604FF400719980B3
:102290000024DC805C801C80564A574B9360918000
:1022A000D48054801480554B1C60554B1C60554B9A
:1022B0001A60554A5A60554A9A60554ADA60554A3A
:1022C0001A61554A5A61554A9A6105210846544B8C
:1022D00098470195ADF80840ADF80A40ADF80C40BC
:1022E000ADF810400C23ADF80E3001A94D484E4B0F
:1022F000984701214FF400104C4B98474FF0006B6A
:10230000CDF804B0DFF84CA1CDF808A00394402329
:1023100004938025059506944FF4806307930894F1
:1023200009940A944FF400330B930C9403270D97F0
:102330000E940F943E4E3046DFF81C91C84701A919
:102340003046DFF81881C047012210213046394E4F
:10235000B047CDF804B0CDF808A0DFF804A1CDF85F
:102360000CA00494059506944FF480630793089499
:1023700009940A944FF400330B930C940D970E9428
:102380000F942D4F3846C84722460AEB05013846C0
:102390002A4B984701213846294B984701A93846CE
:1023A000C047012210213846B047264B502283F8FF
:1023B0000F234FF40041196083F80D234FF40052AE
:1023C0001A600122294617481F4CA04701224021CC
:1023D0001448A047012138461C4B98470121114859
:1023E0001B4B984711B0BDE8F08F00BF5C21002067
:1023F0006C240020502100206C2200204C21002061
:10240000682200206C2600209D1E0108A51E0108E0
:10241000AD1E01085D200108B5200108751F0108E7
:1024200091250108004C004059810108190F01084D
:1024300070600240817D010840600240537D0108C8
:102440006B7D010800E100E0378201083D7D010855
:102450001D820108044C00408D7B0108E57C0108C9
:102460006821002008B50D4B9A6A4FF6FE71118263
:102470001B6A6BB1094A506A984750B9074B002252
:102480001A629A6A138823F001031B041B0C138041
:1024900008BD024B9B6A00225A62F9E78826002099
:1024A00008B50D4B9A6B4FF6FE7111821B6B6BB129
:1024B000094A506B984750B9074B00221A639A6B30
:1024C000138823F001031B041B0C138008BD024B6F
:1024D0009B6B00225A62F9E78826002008B50D4B55
:1024E0009A6C4FF6FE7111821B6C6BB1094A506CED
:1024F000984750B9074B00221A649A6C138823F04E
:1025000001031B041B0C138008BD024B9B6C0022B3
:102510005A62F9E78826002008B50D4B9A6D4FF6F0
:10252000FE7111821B6D6BB1094A506D984750B90D
:10253000074B00221A659A6D138823F001031B04D0
:102540001B0C138008BD024B9B6D00225A62F9E7F9
:102550008826002008B50D4B9A6E4FF6FE71118249
:102560001B6E6BB1094A506E984750B9074B002259
:102570001A669A6E138823F001031B041B0C138048
:1025800008BD024B9B6E00225A62F9E788260020A4
:1025900070B584B005465F4A0301D0180024D450BA
:1025A0000173AB1E0C2B00F2B380DFE803F007448D
:1025B0004D565F68B1717C87929CA600554B4FF0D9
:1025C00080429A6201210846534B98471C24514E81
:1025D00006EB0516B5682846504B98474FF4FA634A
:1025E00002935323ADF804300023ADF80C30ADF85E
:1025F000063001A928464A4B984701212846494BF5
:10260000984701212846484B984701221146284601
:10261000464B9847337B1B01DBB2454A111981F8C1
:102620000033630904F01F04012000FA04F442F8A7
:10263000234004B070BD374B3E4A9A63012102200B
:10264000354B98471D24C2E7324B3B4A9A6401211F
:102650000420314B98471E24B9E72E4B374A9A6520
:10266000012108202C4B98473224B0E7294B344AEB
:102670009A6601211020284B98473624A7E7254B5E
:10268000304A9A6701212020234B984737249EE740
:10269000204B2D4AC3F8982001214FF480302B4B5A
:1026A0009847182493E71B4B294AC3F8A820012117
:1026B0004FF40030254B9847192488E7154B254ADD
:1026C000C3F8B82001214FF48020204B98471A24EA
:1026D0007DE7104B204AC3F8C820012140200E4B53
:1026E00098472B2473E70B4B1C4AC3F8D8200121D1
:1026F0008020094B98472C2469E7064B184AC3F8F9
:10270000E82001214FF48070034B98472D245EE7A9
:1027100000208EE788260020510F0108157F010850
:1027200099800108218101084F8101083B8101083E
:1027300000E100E00004004000080040000C004000
:102740000010004000140040004001406D0F0108DF
:10275000004401400048014000180040001C0040B7
:102760000020004008B54FF480610248024B9847B2
:10277000002008BD000C0240350E010808B54FF4DA
:1027800080710248024B9847002008BD00080240B3
:10279000350E010808B504210248034B9847002074
:1027A00008BD00BF00100240350E010870B582B0B0
:1027B00001210DF107000E4B9847012803D000249A
:1027C000204602B070BD04469DF807300D2B03D0A3
:1027D0000A2B01D00024F3E70648074B984701264F
:1027E000034D31460DF10700A8470128F9D0E7E76E
:1027F000D51801087C190208DD1C01082DE9F047F5
:1028000081463148314B9847314B9847314B984777
:102810004FF000084746304E06F1FF04DFF8D4A021
:10282000B94533D9721E3546AA2302F8013F013B50
:10283000DBB2A242F9D14FF4807231463846D0471C
:102840003346002106F5087203F8011B9342FBD1C1
:102850004FF4807231463846204B98473278AA2A86
:1028600019D1A923012115F8012F9A4214D1013160
:10287000013BDBB2B1F5807FF5D107F58077C7F377
:102880000E037BB1164B98470028C9D015480F4B53
:102890009847012004E0002113480C4B9847002082
:1028A000BDE8F087642101FB07F1B1FBF9F10F48A6
:1028B000064B984708F1010818F01F0FE2D10C48A9
:1028C000024B9847DEE700BF94190208DD1C01089F
:1028D0005D5101089D50010878270020A94D01088D
:1028E000AD270108D4190208B8190208D019020846
:1028F000001D0208F14E010838B5044602210846C1
:102900000B4B98474FF4F8034FF4FC0200210120D1
:10291000084DA847E1B20120074B9847074C2146D4
:102920000748084B98472046074B984738BD00BFDB
:10293000A9A20108F9A30108E1BE0108A829002005
:1029400038160208DD1C0108D5BE01080048704792
:102950009F6534010120704738B580B1104D4FF4A8
:10296000006128460F4CA0474FF480512846A047ED
:1029700008212846A04710212846A0470FE0084D0F
:102980004FF400612846084CA0474FF48051284678
:10299000A04708212846A04710212846A04738BD57
:1029A00000100240350E0108390E01082DE9F041F2
:1029B00082B0044600F23510244B9847034618B9FC
:1029C000184602B0BDE8F0814FF49660204B98475E
:1029D000002168461F4B984703460028F0D094F822
:1029E00038011D4EB047074694F83901B0474FF4FF
:1029F0006168C0EB0010850008FB075794F83A01A6
:102A00000130C0B2B04707449DF80300B047054607
:102A10009DF80400B047C0EB0010800008FB0505DE
:102A20009DF80500B0470544ED1B29460B480C4BAB
:102A300098470235042D07D894F83A319DF80520BF
:102A40009B1A18BF0123BBE70023B9E79D84010847
:102A5000A5140108A1830108A91101086C19020835
:102A6000DD1C01082DE9F04F8FB083460578C5F3D2
:102A700040050024A94FA046A94E06E04246214643
:102A80003846B0470134142C06D0002DF6D0012270
:102A900021463846B047F5E7A24B98479BF80030EF
:102AA00013F0010F24D113F0040F40F02D8113F027
:102AB000080F40F0678213F0100F40F06E8213F0A1
:102AC000200F40F0758213F0800F40F007839BF8D1
:102AD000013013F0010F40F0088313F0100F00F0E5
:102AE0000E839BF805306FF382038BF8053004E109
:102AF000022305938C4F8D488D4B984732208D4B88
:102B0000984701208C4B98470BF1050307931D460E
:102B100000242646324621468048814B9847FF23B1
:102B200005F8013F0134142CF4D17E4B9847C8209E
:102B3000804B9847814B98470BF1350306931D4610
:102B40004FF0010800247E4EDFF80C9202E00134C1
:102B5000262C10D0FF2305F8013F21463046B84708
:102B60000028F4D0611C4846714B984701232B7014
:102B70004FF00008EBE7C8206E4B98470123039302
:102B80004FF0000ADFF8B89135E05E1CBAF1090F8A
:102B900049D104962E464BE00123A3716DE30BEB64
:102BA0000503012283F8362067E30134262C15D073
:102BB000A542FAD0A642F8D021464846B847002898
:102BC000F3D0039A611C5F48594B98470BEB040301
:102BD000012283F836204FF00008E6E70022514634
:102BE0004E484F4B98470AF1010A039B0133039368
:102BF000BAF1140F55D00BEB0A04FF23A371012285
:102C000051464648464B9847464B9847C820494B43
:102C100098474A4B98474FEA4A031D46BAF1090FB5
:102C2000B3DD1E465D1EBAF1130F18BF0496B0D077
:102C3000252E00F3248329464846B84728B131465B
:102C40004846B847002840F0188329464846B84708
:102C5000804631464846B8470190731C009343466E
:102C6000049A03993848DFF8C880C047AE4200F0A4
:102C7000FB8229464846B84728B931464846B847F6
:102C80008046002888D029464846B8478046002814
:102C900085D00BEB0603012283F836204FF00008A5
:102CA000EBE2002425462A4621461C481C4B984747
:102CB0000134142CF7D11B4B98470024234E1C4D94
:102CC000DDF81890DDF81CA01AF8013F19F8012F63
:102CD00021463046A8470134142CF5D1B8F1000F35
:102CE00010D0059B013B05937FF405AF01229BF8B3
:102CF000043062F300038BF8043040F23B100FB055
:102D0000BDE8F08F0022F2E71148094B98474FF0D9
:102D1000010800250F4FDFF844A07AE0601F012072
:102D2000D9AD01082DB2010899AD01084816020875
:102D3000DD1C0108A51401085929010839B2010850
:102D4000481F0120B81602088C160208D81602087F
:102D5000F0160208A9B3010868160208F019020863
:102D6000BDF8223041F28E2202FB03F2C3F5FF438D
:102D70007F3392FBF3F344F8043B3220B54B984782
:102D8000B44210D00A220DF122012846B84700288B
:102D9000E6D0009040F2B9135246AF49AF48DFF891
:102DA000C492C847DCE709A800260136042E00F3C8
:102DB000CF82031D844653F8041B0268914284BFEE
:102DC000CCF8001043F8042CA342F4D10430042EB4
:102DD000EBD10B9A0BEB4503A3F8AA2042F27963DF
:102DE0009A4240F2588242F2A6739A420AD9691C6A
:102DF0009B489C4B984702230BEB050282F88230DC
:102E00004FF00008984B9847064628B90135062D23
:102E100003D00EAE09ACB5E700264FF08B4ADFF8C1
:102E2000709253E2BDF82200904B98475146904B68
:102E30009847904F4946B8478F49B8478F4B9847B6
:102E400045F8040B3220834B9847A54210D00A2244
:102E50000DF1220130468A4B98470028E2D00090BD
:102E60004FF4EF73874A7C497C487E4FB847D9E7D7
:102E700009A800270137042F00F36C82031D844644
:102E800053F8041B0268914284BFCCF8001043F849
:102E9000042C9D42F4D10430042FEBD10B9B374618
:102EA000B21D0BEB4601A1F8B6302C2B40F2F98194
:102EB000372B40F20182711C7348DFF8A881C047AC
:102EC0000223F4E10027DFF8F89109AC13E0BDF824
:102ED0002200664B98476D49654B98476C49654B96
:102EE0009847664B9847400044F8040B3220594BF2
:102EF0009847A54211D00A220DF122013846C84751
:102F000006460028E3D0009040F203235D4A524970
:102F10005248DFF850A1D047D9E709A8002401346E
:102F2000042C00F31982031D844653F8041B026825
:102F3000914284BFCCF8001043F8042C9D42F4D198
:102F40000430042CEBD10B9B3C4607F10C020BEB3D
:102F50004701A1F8C230B3F5965FC0F0B98141F2E4
:102F600050418B4240F2BF81791C4A48DFF8F4801F
:102F7000C0470223B2E100238BF8FA304648394BB0
:102F80009847CDE14FF40000444B98479BF804303C
:102F900060F382038BF80430AFE64FF400603F4BE0
:102FA00098479BF8043060F3C3038BF80430A4E621
:102FB0004FF0020A2B4F3A4D05F1FF043948B8474C
:102FC0003220244B98474FF000086A1E2E46AA2351
:102FD00002F8013F013BDBB2A242F9D14FEA0829D6
:102FE0001FFA89F94FF48072294648462E4B9847BC
:102FF0002E48B8472B46002105F5087203F8011B3F
:103000009342FBD14FF4807229464846284B98479B
:103010002848B8472A78AA2A54D1A923012116F8AA
:10302000012F9A424FD10131013BDBB2B1F5807FD4
:10303000F5D108F1010818F01F0F01D11E48B8475B
:10304000B8F1800FC1D11D48B847BAF1010AB5D116
:1030500001223CE0A51401080C1702081C17020805
:1030600010180208DD1C0108AD270108D50402086C
:1030700085050208ED060208000040412508020807
:1030800035B40108F0190208241802080010BF45E1
:1030900000FEFF464018020854170208FD270108E9
:1030A0007827002064170208B54801088417020831
:1030B000A547010888170208001D02088C1702089E
:1030C000C5B401080021A548A54B984700229BF8EC
:1030D000043062F304138BF804300EE69BF80430DE
:1030E00043F080038BF8043007E658469D4B984721
:1030F0009BF8053060F300038BF80530FDE513F015
:10310000020F34D113F0040F3FF4F7AD964B9847FC
:10311000042840F085800BF1FC02944B03F112016E
:1031200013F8010B02F8010F8B42F9D10BF58772EE
:103130008F4B03F1120113F8010B02F8010F8B42C0
:10314000F9D10BF590728B4B03F1140113F8010BBD
:1031500002F8010F8B42F9D100238BF80E318BF866
:1031600020318BF8343101238BF8FA30C5E58248E1
:103170007B4B984700238BF8FA30804A02F8013FD6
:103180000133B3F5807FF9D17D4C7E4BDB684FF482
:1031900080712046984740F2DC507B4B984723468D
:1031A000002104F2071203F8011B9342FBD1754B77
:1031B0001B6940F20711724898470446014673485C
:1031C000674B984740F207139C420DD07048644B00
:1031D000984701238BF8FA3000239BF8042063F30F
:1031E00045128BF8042088E5654BDB796BB901212A
:1031F000634B5A18D2798A4208D10131FF29F8DD90
:103200006448574B98470123E7E700215C4B5A5C21
:103210006148534B984702238BF8FA300023DCE7D0
:103220000BF1FD030BF20F11FF2203F8012B8B4270
:10323000FBD10BF20F130BF22111FF2203F8012B2C
:103240008B42FBD100238FE729464846B847064604
:1032500029464846B84701906B1C00933346049AB0
:1032600003994E483E4EB0470123A3710BEB050274
:1032700082F836302E464FF00008002498E42946A4
:103280004846B8470028DFD029464846B8470028B6
:103290004DD02E46F1E7691C4148314B9847032336
:1032A000AAE5711C3F48DFF8B880C04703235F449C
:1032B00087F888304FF000083B4B984707460028B6
:1032C0007FF400AE0136062E3FF4FDAD09ADBEE53C
:1032D000791C3648DFF88880C04703235C4484F8B3
:1032E0008E304FF00008304B984718B90137022F45
:1032F0007FF4EBAD0BF181050024DFF8B490184F9B
:1033000015F8012F21464846B84701341E2CF7D145
:10331000002E3FF430AE01238BF8FA304FF0000856
:103320009BF8043068F341038BF80430E5E4294648
:103330004846B847064629464846B84701906B1CA0
:1033400000933346049A03991448054EB0478BE71F
:1033500004302AE504308DE50430E0E5B8190208B0
:10336000DD1C0108AD2901088D0201081C040020A4
:1033700030040020A4030020A417020877270020AF
:10338000782700206C260020A5140108C417020825
:10339000D0170208F8170208E81702088C1602086E
:1033A0001018020824180208AD2701084018020866
:1033B00040170208074B084A1A6200225A629B6AA9
:1033C00040F65F11D9625A621A8842F001021A80EF
:1033D000704700BF882600206527010808B54FF414
:1033E00080610248024B984708BD00BF000C0240B4
:1033F000390E0108074B084A1A6300225A639B6B77
:1034000040F65F11D9625A621A8842F001021A80AE
:10341000704700BF882600207D27010808B54FF4BB
:1034200080710248024B984708BD00BF0008024067
:10343000390E0108074B084A1A6500225A659B6D30
:1034400040F2AF41D9625A621A8842F001021A80F2
:10345000704700BF882600209527010808B5042181
:103460000148024B984708BD00100240390E010880
:103470002DE9F04792B04FF480716448644CA04746
:10348000644D08212846A0474FF480616248A04758
:1034900004212846A0476420604EB04704212846F6
:1034A0005F4B9847312302931F230193112300930D
:1034B0001423052240F2E6715A485B4CA0470020D5
:1034C0005A4B98475A48A04710A85A4B98479DF81E
:1034D00042309DF841209DF840109DF84500029033
:1034E0009DF8440001909DF8430000905248A04789
:1034F00001214FF48020514B98470120504B9847B1
:103500000120504B98470220B0474F4B98474F4BF4
:10351000984706244E4F444E404D01E0013C1AD0DE
:103520003846B047C820A847012106A8494B98470C
:103530000128F3D19DF818300D2B01D00A2BEDD1C5
:103540004548394B98470026444D344C3046A847EF
:103550000220A047FAE708212E48314CA0474FF43B
:1035600080612D48A0473E4B98473E4B98473E4BC5
:1035700098473E4B98470EA82E4B98479DF83A30F7
:103580009DF839209DF838109DF83D0002909DF877
:103590003C0001909DF83B0000903548224CA0472C
:1035A000344B9847804601463348A047B8F1000F96
:1035B00007D00126294D194C3046A8470220A047C4
:1035C000FAE72E4B98472E4B98472E4B98472E4B99
:1035D000984700231A46194618462C4CA04700234A
:1035E0001A46194618462A4CA047204B9847294BA3
:1035F0009847294B1C68002C08BF0124274B012247
:103600001A70064E264D05F1100A63E000180240BC
:10361000350E0108000C024000140240A5140108F8
:10362000390E01085C180208DD1C0108F9280108A0
:103630008C180208618501089C180208190F0108FE
:10364000FD7E0108097F01085D510108214A01083A
:10365000DC180208D5180108E018020891C6010814
:103660004D380108C9B00108190201080106010816
:10367000041902083187010844190208CD01010824
:103680001B020108E158010887020108F94A0108F4
:10369000414B0108490B0108A40A0020B82D002065
:1036A00098290020C146431E002B40F3828005F17B
:1036B0000F0105F10E0E8644002311F801CF63447B
:1036C000DBB27145F9D12844C17B994273D0032004
:1036D0003D4B98470120B04704203C4B98473C4B5A
:1036E00098473C4B98473C4B98473C4B98473C4B42
:1036F0001B68002B08BF01231B1BB3F57A7F1EDB61
:10370000384A536983F480735361A2F58062536928
:1037100083F480635361A2F50062536983F0080368
:1037200053612F4B1C68002C08BF012400212E4838
:103730002E4B984701202E4B98472E4B9847002040
:103740002D4B98472D4B98470028C0D02C4B1B6819
:10375000002BBCD02A4B9F682A4B9847039005AB9F
:103760000293294B019306AB009300234FF4806230
:1037700051463846254FB847021EA8DD244906ABFE
:103780000DF1380E13F801CB01F801CF7345F9D1D3
:1037900095F810906B7CA87C40EA0320B0F5006F90
:1037A00080DCB9F1F50F14BF4FF000094FF00109AB
:1037B00079E7002387E7B9F1000F88D0514602204E
:1037C000144B984783E700BFC102010891C6010866
:1037D00035B10108CF010108150601088B02010867
:1037E000A40A0020001802405C190208DD1C010830
:1037F000911201081D020108B5060108D50401084F
:10380000A4040020D9040108280500107140010813
:10381000AF0400208502010880B5074E074D084F10
:1038200001242046B0472B78002BFAD0B847054B2F
:103830009847054B9847F3E7A5140108B82D0020D9
:10384000B15801088902010849590108044B03F5E0
:10385000487100221A6228338B42FBD1704700BFA7
:10386000BC2D002010B582B0144B98471449154860
:10387000154CA047154B596F1548A0476623009378
:103880004FF48053134A00211348144CA047011EE3
:103890000BDB642300934FF48053114A002111483D
:1038A0000E4CA047011E04DBFEE70F48064B98476D
:1038B000EFE70E48044B9847F6E700BF4D39010883
:1038C000FC1902080C1A0208DD1C0108003802402D
:1038D000181A0208DC300020713401081D13010899
:1038E000DC40002019380108281A0208441A02088E
:1038F00030B583B001214FF40010104B98470223DC
:103900008DF8043001228DF806208DF807208DF8FF
:10391000053002A94FF4407341F8083D084C204699
:10392000084B9847042208212046074DA847042247
:1039300009212046A84703B030BD00BF510F010840
:1039400000040240B10D01083D0E01082DE9F04FC1
:10395000A3B072B601217F20B34B984700248DF8A5
:10396000114001268DF810608DF813404FF48073DC
:1039700003938DF8124003A9AC48AD4FB8474FF4FC
:103980008071AA48DFF8C8A2D0478DF810608DF882
:10399000134003968DF8124003A9A648B847314654
:1039A000A448A54DA8478DF810608DF81340C0239A
:1039B00003938DF81240DFF89C8203A94046B84774
:1039C00040214046D0478DF810608DF81340042305
:1039D00003938DF8124003A99848B84704219748EB
:1039E000A8478DF810608DF813404FF4806303935F
:1039F0008DF8124003A94046B8474FF48061404615
:103A0000A8478DF810608DF81340082303938DF8B4
:103A1000124003A98948B84708218848A8478DF86B
:103A200010408DF813404FF40063039303A97F48BF
:103A3000B8478DF810608DF813404FF0020BCDF8A9
:103A40000CB08DF8124003A97D48B84759467C4810
:103A5000A847314630467B4B98470C222146774891
:103A6000794DA8470C2231467448A8470C220421FE
:103A70007248A8470C2205217048A8470C2207214C
:103A80006E48A8470C220E216C48A8470C220F2133
:103A90006A48A8470C2221466948A8470C220721FA
:103AA0006748A8470C2208216548A8470C2209212D
:103AB0006348A8470C220A216148A8470C222146E6
:103AC0004046A8470C2231464046A8470C2259469A
:103AD0004046A8470C2203214046A8470C22042157
:103AE0004046A8470C2205214046A8470C22114613
:103AF0004046A8470C220D214046A8470C220E2123
:103B00004046A8470C220F214046A8470C222146D8
:103B10004648A8470C2231464448A8470C2259463B
:103B20004248A8470C2203214048A8470C22042100
:103B30003E48A8470C2205213C48A8478DF850B0C4
:103B40008DF851B08DF852408DF8534022AA4CF2B6
:103B5000B30342F83C3D914611463848B84740F21D
:103B60008173139349463648B8474FF23F03139386
:103B700049464046B8474FF03F08CDF84C8049468B
:103B80002A48B8470F22059206964F2307930894B8
:103B900009940A944FF040530B930C920D96CDF874
:103BA00038800F9410941194129313941494082154
:103BB00015911694179418944FF4007319931A944E
:103BC0004FF400611B914FF480511C911D944FF4F0
:103BD00080411E911F940DF11408CDF880800CAB2C
:103BE0002193CDF804904846184A90473146204624
:103BF000DFF86490C8470421059106960791089460
:103C00000994CDF828B00B94062113911494042143
:103C10001591102116911794189419941A941B94C5
:103C20004FF480511AE000BF190F0108001802403C
:103C3000B10D010800000240390E0108000C0240DD
:103C400000100240350F01083D0E0108C97D010832
:103C5000350E010800140240917E01081C911D944C
:103C60001E941F94CDF88080CDF884800198B84AC6
:103C7000904731460620C84731461020DFF8F482CD
:103C8000C0478DF850B08DF852408DF853608DF8D4
:103C900051404FF4C06313930199AE48B8470722CF
:103CA0000921AC48A84707220A21AA48A84731465B
:103CB0004FF48020DFF8C092C8478DF850B08DF8DF
:103CC00052408DF853608DF851404FF44073139378
:103CD0000199A148B847072208219F48A847072211
:103CE00009219D48A8478DF850608DF853404FF446
:103CF000806213928DF8524001999748B8474FF46B
:103D000080619548D04731462020C0478DF850B09B
:103D10008DF852408DF853608DF85140C0221392B7
:103D2000DFF8588201994046B847082206214046EC
:103D3000A847082207214046A8478DF850608DF813
:103D400053404FF4807213928DF8524001994046CF
:103D5000B8474FF480714046D04731464FF40020B9
:103D6000C8478DF850B08DF852408DF853608DF8EB
:103D700051404FF44063139301994046B8470822DD
:103D80000A214046A84708220B214046A8478DF843
:103D900050608DF85340042213928DF852400199DF
:103DA0006E48B84704216D48D0476D4B984731465F
:103DB0004FF40040C8478DF850B08DF852408DF850
:103DC00053608DF851401823139301996548B84703
:103DD0004FF48052139201994046B84706220321BE
:103DE0006048A847062204215E48A84706220C2105
:103DF0004046A8478DF850608DF853404FF400427C
:103E000013928DF8524001995248B847019956488B
:103E1000B8474FF48042139201995348B8474FF482
:103E20000052139201994046B8474FF40041494867
:103E3000D0474FF400414C484C4B98478DF85060A8
:103E40008DF853404FF4405313938DF8524001992D
:103E50004548B8474FF480514348D0474FF400518C
:103E60004148424B984731464FF48040C8478DF84F
:103E700050B08DF852408DF853608DF851400C23AE
:103E8000139301994046B8474FF480631393019907
:103E90003448B847052259464046A8470522032121
:103EA0004046A84705220A212E48A8478DF85060B1
:103EB0008DF853404BF6780313938DF85240019DD3
:103EC00029462648B8474FF46053139329462248A1
:103ED000B847C023139329462348B84720211F48D9
:103EE000D04720211D48D04720211C48D0474021E1
:103EF0001A48D04740211948D0474FF4006116486E
:103F0000D0474FF480511448D0474FF40051124825
:103F1000D04731464FF00070C84731464FF08060BF
:103F2000C8478DF850B08DF852408DF853408DF849
:103F300051606023139329460A48B8470922062195
:103F400008480B4CA047092205210648A04717E066
:103F5000C97D010800000240000C02400010024030
:103F6000F13801080004024000180240390E01082F
:103F70003D0E01086D0F0108510F010800080240B5
:103F80000F4B98470F4B98474FF4E1300E4B984733
:103F90004FF496400D4B98474FF496400C4B984782
:103FA0004FF496400B4B98470B4C20460B4B9847D1
:103FB00020460B4B984762B6002023B0BDE8F08F37
:103FC00051120108F50F0108F11A0108B58B01081B
:103FD000819101087D220108801A06006D97010871
:103FE000859C010830B597B01390129211931C9CD8
:103FF0001E23159300231493B2F5803F08DD002C97
:1040000030D04FF4A67323604FF0FF3017B030BDAF
:104010007F230F930E9417230D9314AA0C920B93E6
:1040200015AB0A931A9B02330993012208921A9B3B
:1040300007930423069311AB05930523049312A859
:1040400003900291019213AA00921D9A0C21022062
:10405000064DA84720B104B120604FF0FF33149300
:104060001498D3E74FF0FF30D0E700BF8546010832
:1040700030B599B01390129211931E9C00231793A0
:10408000B2F5803F07DD002C39D04FF4A6732360D2
:104090004FF0FF3031E01C9B002B33D01E231593D3
:1040A0001C9B981C7F220F920E9417220D9217AD25
:1040B0000C950B9215AA0A92099014220892079364
:1040C0001623069311AB05930523049312A80390BE
:1040D0000291019213AA00921F9A0E2102200C4D08
:1040E000A84720B104B120604FF0FF3317931D9B08
:1040F00013B120231D9A1360179819B030BD4FF0EB
:10410000FF30FAE7002015900DF15A03CAE700BF0F
:10411000854601082DE9F04FADF5317D0546039048
:1041200002921E468DF817101046D74B9847019003
:10413000D64A43F6787303FB002393F8FC30012B37
:1041400040F05A8243F6787303FB0023D3F8603BB8
:1041500023B102469DF817102846984700258DF890
:10416000BC528DF8BD528DF8BE520DF11703249349
:1041700001240E942F460DF1900B0DF138090DF529
:10418000CC7807AB04931EE0631C152B00F23E8233
:1041900071684BF823100C36002977D092681168AB
:1041A00098F82421501C88F8240108EB820048F874
:1041B000221049F823104BF82400042349F8243036
:1041C0000234E4B201375FFA87FA324633687F2B54
:1041D00000F0D681013B292B00F2158201A151F894
:1041E00023F000BF89410108A14301082F430108C2
:1041F0004743010875430108A14201080746010829
:104200000746010807460108074601080746010856
:104210000746010807460108074601080746010846
:104220000746010807460108074601080746010836
:1042300003450108F34301080F4401082B4401081A
:104240000746010807460108074601080746010816
:104250000746010807460108074601080746010806
:1042600007460108074601080746010807460108F6
:1042700007460108074601080746010807460108E6
:104280004744010895440108D7440108002249F831
:1042900023204FF0FF33079307AB4BF824308CE714
:1042A00004F1010CBCF1150F00F2B38173680C36F8
:1042B0009068042249F8242063B949F82C304FF063
:1042C000FF33079304984BF82400042349F8243063
:1042D000023477E7016898F826215FFA81FA0AEB41
:1042E000020EBEF1270F00F3978102F1160E08EBC4
:1042F0008E0E524488F8262100290ADD043BAEF1D7
:10430000040203EB810A53F8041F42F8041F5345CB
:10431000F9D10268002A03DD002301339A42FCD15F
:104320004BF82CE003689B0049F82C30CBE7152CA8
:1043300000F27581083653684BF82430012349F8A0
:1043400024301C443EE7152C00F26C81083653687B
:104350001A8898F82531591C88F825117C3328F8DB
:10436000132008EB43034BF82430022349F8243090
:10437000013427E7152C00F25881083653681A6873
:1043800098F82431591C88F8241148F82320042275
:1043900049F8242008EB83034BF82430013411E75B
:1043A00004F1010ABAF1150F00F242810836506893
:1043B0004BF82A00A8B1364B9847013098F82431C1
:1043C0005A1C88F8242108EB830248F8230049F896
:1043D0002A004BF82420042349F824300234E4B2A4
:1043E000F0E6002349F82A304FF0FF330793049A90
:1043F000EFE7152D00F21F810836536850AA42F8E6
:10440000253001233AAA42F825301D44DAE6152D5D
:1044100000F214810836536850AA42F8253002236E
:104420003AAA42F825300135CCE6152D00F2098173
:104430000836536850AA42F825303AAA042342F8B5
:1044400025300135BEE6152C00F2FE80152D00F258
:10445000FE800836536850AA42F825303AA9042253
:1044600041F8252001351A6898F82431591C88F83C
:10447000241148F8232008EB83034BF8243004234D
:1044800049F8243001349DE6BB460108E050002085
:10449000C10D0208152C00F2DD80152D00F2DD8023
:1044A0000836536850AA42F8253002223AA941F84A
:1044B00025200135198898F82531581C88F82501E0
:1044C0007C3328F8131008EB43034BF8243049F8E9
:1044D0002420013476E6152C00F2C280152D00F25E
:1044E000C2800836526850AB43F8252001233AA910
:1044F00041F825301D444BF8242049F824301C4451
:1045000060E6152C00F2B2806B1C152B00F2B18016
:10451000716850A840F823100C36E1B1926850A998
:1045200041F82520116898F82421501C88F82401AE
:1045300008EB820048F822103AAA42F823103AAA5F
:10454000042342F825300235EDB24BF8240049F837
:104550002430013436E698F82421511C88F82411BF
:1045600008EB8200002148F8221050AA42F82500EA
:104570003AAA42F823104FF0FF3307930498DEE77E
:1045800024AB0C930EAB0D930B9450AB09933AAB49
:104590000A930895384A43F67873019903FB01237F
:1045A000D3F85C4B08AB0BAA029D29460398A047A1
:1045B000044620B128460DB3304B98471EE0029BBD
:1045C0001BB118462E4B984738B1BAF1000F04D0F2
:1045D00000230133DAB29245FBD8274A43F67873B9
:1045E000019903FB0123D3F8643B3BB10A469DF8D4
:1045F00017100398984701E04FF40D7420460DF50D
:10460000317DBDE8F08F4FF41174F7E740F2452497
:10461000F4E740F24524F1E740F24524EEE740F2AA
:104620004524EBE740F24524E8E740F24524E5E77E
:1046300040F24524E2E740F24524DFE740F245241A
:10464000DCE740F24524D9E740F24524D6E740F2C2
:104650004524D3E740F24524D0E740F24524CDE796
:1046600040F24524CAE740F24524C7E740F245241A
:10467000C4E740F24524C1E7E0500020B5460108F8
:10468000A54601080CB410B582B004AB53F8042B56
:104690000193034CA04702B0BDE8104002B0704740
:1046A0001541010820B10078B0FA80F04009704748
:1046B0000020704700230370704708B1807870476E
:1046C0000020704708B54FF480511048104B9847B0
:1046D000652210490B8903F08203022B01D0013AB5
:1046E000F8D10C4B06229A81652219460B8903F0FA
:1046F0008103012B01D0013AF8D1064B9B894FF47D
:1047000080510248044B984708BD00BF0018024082
:10471000390E0108003C0040350E010810B54FF479
:1047200080511C481C4B984765221C490B8903F09B
:104730008203022B01D0013AF8D1184B05229A814D
:10474000652219460B8903F08103012B01D0013A40
:10475000F8D1124B9B89652210490B8903F0820323
:10476000022B01D0013AF8D10C4B00229A8165222C
:1047700019460B8903F08103012B01D0013AF8D1CE
:10478000064B9C89A4B24FF480510248044B9847D1
:10479000E0B210BD00180240390E0108003C004094
:1047A000350E010870B506468318B3F5004F52DC8C
:1047B0000C4615464FF480513848394B98476522CE
:1047C00038490B8903F08203022B01D0013AF8D15A
:1047D000344B03229A81652219460B8903F0810329
:1047E000012B01D0013AF8D12E4B9B89300A65226A
:1047F0002C490B8903F08203022B01D0013AF8D136
:10480000284B9881652219460B8903F08103012BFF
:1048100001D0013AF8D1234B9B89652221490B89AC
:1048200003F08203022B01D0013AF8D1F6B21D4BFE
:104830009E81652219460B8903F08103012B01D06B
:10484000013AF8D1174B9B89002D20DD013C25440E
:104850001449002009E001461348144B98471BE017
:104860008B8904F8013FAC4211D065220B8903F01B
:104870008203022B01D0013AF8D1888165220B898D
:1048800003F08103012BEBD0013AF8D1E8E74FF4B4
:1048900080510248064B984770BD00BF0018024087
:1048A000390E0108003C0040801A0208DD1C010896
:1048B000350E010870B506468318B3F5004F53DC7A
:1048C0000C4615464E4B98474FF480514D484E4B81
:1048D000984765224D490B8903F08203022B01D0D2
:1048E000013AF8D1494B02229A81652219460B8977
:1048F00003F08103012B01D0013AF8D1434B9B898E
:10490000300A652241490B8903F08203022B01D052
:10491000013AF8D13D4B9881652219460B8903F085
:104920008103012B01D0013AF8D1384B9B896522D4
:1049300036490B8903F08203022B01D0013AF8D1EA
:10494000F6B2324B9E81652219460B8903F0810332
:10495000012B01D0013AF8D12C4B9B89002D20DD91
:10496000013C2544294907E001462948294B98473D
:1049700045E08B89AC4214D014F8010F65220B89F5
:1049800003F08203022B01D0013AF8D183B28B816C
:1049900065220B8903F08103012BEAD0013AF8D19B
:1049A000E7E74FF4805117481B4B984765241B4D90
:1049B000A84710F0010F01D0013CF9D14FF480510C
:1049C0001048114B9847652210490B8903F0820368
:1049D000022B01D0013AF8D10C4B04229A816522B6
:1049E00019460B8903F08103012B01D0013AF8D15C
:1049F000064B9B894FF480510248074B984770BD86
:104A0000C546010800180240390E0108003C00406C
:104A1000801A0208DD1C0108350E01081D47010837
:104A200010B52B482B4B984702202B4B98472B4B0C
:104A300098472B4C4FF4005120462A4B98474FF48F
:104A400080512046284B9847652221490B8903F065
:104A50008203022B01D0013AF8D11D4B01229A8129
:104A6000652219460B8903F08103012B01D0013A1D
:104A7000F8D1174B9B89652215490B8903F08203F6
:104A8000022B01D0013AF8D1114B80229A81652284
:104A900019460B8903F08103012B01D0013AF8D1AB
:104AA0000B4B9B890E4C4FF4805120460D4B984781
:104AB0004FF4005120460C4B98470C4B9847014649
:104AC0000B480C4B98470220034B984710BD00BF82
:104AD000003C0040A1B20108A5140108C546010828
:104AE00000180240350E0108390E01081D47010863
:104AF000681A0208DD1C010810B582B063F07F035C
:104B000043EA420343EA810343EAC00302AA02F8EC
:104B1000013D0123FF216020064CA047021E02DB5D
:104B2000012002B010BD60210348044B98470020CB
:104B3000F7E700BFB9C70108C41A0208DD1C010865
:104B4000F0B585B050248DF8044000EB800044009F
:104B5000404D85FB0404A40804EB840464033E4830
:104B600080FB04763719E617C6EB273605363B4C33
:104B700084FB06C7F617C6EBA706C6F303278DF816
:104B800005708DF8066001EB8101490085FB01612C
:104B9000890801EB8101490380FB01760E44C917A6
:104BA000C1EB2631053184FB0176C917C1EBA601A3
:104BB000C1F303268DF807608DF8081002EB82021E
:104BC000520085FB0212920802EB8202520380FB24
:104BD00002611144D217C2EB2132053284FB02611B
:104BE000D217C2EBA102C2F303218DF809108DF890
:104BF0000A2003EB8303590085FB0131890801EB8F
:104C000081035B0380FB03201844DB17C3EB2033D5
:104C1000053384FB0324DA17C2EBA402C2F3032397
:104C20008DF80B308DF80C2092B20D480D4B984743
:104C3000092301AAFF2160200B4CA047021E02DBC2
:104C4000012005B0F0BD60210848064B98470020C0
:104C5000F7E700BF310CC33001D5ECD1676666665B
:104C6000E41A0208DD1C0108B9C701089C1A0208F1
:104C700008B54FF400411048104B98476522104981
:104C80000B8903F08203022B01D0013AF8D10C4BBF
:104C900006229A81652219460B8903F08103012BB4
:104CA00001D0013AF8D1064B9B894FF400410248EC
:104CB000044B984708BD00BF00000240390E0108B0
:104CC000003C0040350E010810B54FF400411C486F
:104CD0001C4B984765221C490B8903F08203022B69
:104CE00001D0013AF8D1184B05229A816522194664
:104CF0000B8903F08103012B01D0013AF8D1124B4B
:104D00009B89652210490B8903F08203022B01D095
:104D1000013AF8D10C4BFF229A81652219460B8982
:104D200003F08103012B01D0013AF8D1064B9C8995
:104D3000A4B24FF400410248044B9847E0B210BDC2
:104D400000000240390E0108003C0040350E010809
:104D500008B54FF400411048104B984765221049A0
:104D60000B8903F08203022B01D0013AF8D10C4BDE
:104D700004229A81652219460B8903F08103012BD5
:104D800001D0013AF8D1064B9B894FF4004102480B
:104D9000044B984708BD00BF00000240390E0108CF
:104DA000003C0040350E010870B50646B0F5000F16
:104DB0006FD20C4615464FF400414748474B984781
:104DC000652247490B8903F08203022B01D0013A87
:104DD000F8D1434B03229A81652219460B8903F0CF
:104DE0008103012B01D0013AF8D13D4B9B89C6F3D9
:104DF00016010E0C65223A48038903F08203022B48
:104E000001D0013AF8D1B3B2354A938165223448D2
:104E1000038903F08103012B01D0013AF8D1304B13
:104E20009B89C1F3072665222D48038903F082037D
:104E3000022B01D0013AF8D1B3B2294A93816522FD
:104E40002748038903F08103012B01D0013AF8D1EF
:104E5000234B9B89C9B265222148038903F0820351
:104E6000022B01D0013AF8D18BB21D4A9381652201
:104E70001B490B8903F08103012B01D0013AF8D1C2
:104E8000174B9B89002D20DD013C25441449FF2050
:104E900009E001461348144B98471BE08B8904F83E
:104EA000013FAC4211D065220B8903F08203022B33
:104EB00001D0013AF8D1888165220B8903F0810382
:104EC000012BEBD0013AF8D1E8E74FF4004102485A
:104ED000064B984770BD00BF00000240390E010824
:104EE000003C0040141B0208DD1C0108350E0108BF
:104EF000F8B50646B0F5000F75D20C4615465B4B6B
:104F000098474FF400415A485A4B98474FF4004194
:104F100059485A4B9847652259490B8903F0820337
:104F2000022B01D0013AF8D1554B02229A81652219
:104F300019460B8903F08103012B01D0013AF8D106
:104F40004F4B9B89C6F316010E0C65224C48038912
:104F500003F08203022B01D0013AF8D1B3B2484AE0
:104F6000938165224648038903F08103012B01D018
:104F7000013AF8D1424B9B89C1F30726652240488C
:104F8000038903F08203022B01D0013AF8D1B3B2B6
:104F90003B4A938165223A48038903F08103012B40
:104FA00001D0013AF8D1364B9B89C9B26522344809
:104FB000038903F08203022B01D0013AF8D18BB2AE
:104FC0002F4A938165222E490B8903F08103012B1F
:104FD00001D0013AF8D12A4B9B89002D20DD013CFC
:104FE0002544274907E001462648274B984734E0E7
:104FF0008B89AC4214D014F8010F65220B8903F0A1
:105000008203022B01D0013AF8D183B28B81652251
:105010000B8903F08103012BEAD0013AF8D1E7E7CD
:105020004FF400411248154B98474FF40041124885
:10503000104B98476424154D0127154EA84710F0D2
:10504000010F06D0013CB4F1FF3F07D03846B0470E
:10505000F4E7002C04DD0F4B9847F8BD4FF0FF3408
:1050600021460D48084B9847F5E700BF714C0108F1
:1050700000180240350E010800000240390E0108F8
:10508000003C0040141B0208DD1C0108C94C01084B
:10509000A5140108514D0108301B0208F8B5244B36
:1050A00098474FF400412348234B98474FF4004161
:1050B0002248234B9847652222490B8903F082033B
:1050C000022B01D0013AF8D11E4BC7229A816522EA
:1050D00019460B8903F08103012B01D0013AF8D165
:1050E000184B9B894FF400411248154B98474FF4D9
:1050F00000411248104B98476424134D0127134E6A
:10510000A84710F0010F06D0013CB4F1FF3F07D0D3
:105110003846B047F4E7002C04DD0D4B9847F8BD46
:105120004FF0FF3421460B480B4B9847F5E700BF83
:10513000714C010800180240350E010800000240C1
:10514000390E0108003C0040C94C0108A5140108B3
:10515000514D0108301B0208DD1C0108F0B587B075
:105160007F48804B98478048804B98471E20804B53
:1051700098474FF400417F487F4B98477F4B9847B3
:105180004FF400417E487F4B9847652276490B8952
:1051900003F08203022B01D0013AF8D1724B98221E
:1051A0009A81652219460B8903F08103012B01D0F6
:1051B000013AF8D16C4B9B894FF4004170486E4B1B
:1051C00098476424704D0127694EA84710F0010FDD
:1051D00006D0013CB4F1FF3F64D03846B047F4E755
:1051E000002C61DD654B98474FF400416448654BE6
:1051F000984765225C490B8903F08203022B01D09A
:10520000013AF8D1584B01229A81652219460B893F
:1052100003F08103012B01D0013AF8D1524B9B8955
:10522000652251490B8903F08203022B01D0013A18
:10523000F8D14D4B00229A81652219460B8903F063
:105240008103012B01D0013AF8D1474B9B8965229C
:1052500045490B8903F08203022B01D0013AF8D1B2
:10526000414B88229A81652219460B8903F08103FC
:10527000012B01D0013AF8D13B4B9B894FF40041FF
:105280003F483D4B984764243F4D0127384EA8477F
:1052900010F0010F0DD0013CB4F1FF3F36D038467D
:1052A000B047F4E74FF0FF34214638482D4B98477C
:1052B00098E7002C2CDD882135482A4B98474FF47D
:1052C00000412C482F4CA0474FF400412C48A047E8
:1052D000652225490B8903F08203022B01D0013A94
:1052E000F8D1214B72229A81652219460B8903F06D
:1052F0008103012B01D0013AF8D11B4B9B890DF1A1
:1053000003000DF115051849FF240BE04FF0FF34A1
:1053100021461E48134B9847CDE78B8900F8013F83
:10532000A84211D065220B8903F08203022B01D021
:10533000013AF8D18C8165220B8903F08103012B9E
:10534000EBD0013AF8D1E8E74FF400410C480A4BA2
:105350009847122101A80F4B984707B0F0BD00BF36
:10536000F81A0208DD1C0108003C0040A1B2010847
:10537000A514010800180240350E0108714C0108FF
:1053800000000240390E0108C94C0108301B020818
:10539000081B0208BD110108D0F808321B786BB950
:1053A00090F8052252B10021D0F80C2242F82310C7
:1053B0000133DBB290F805229A42F5D800207047FD
:1053C00038B50446054B002241F20301044DA847BD
:1053D000D4F8083200221A7038BD00BF9953010872
:1053E000A55C01087047CB78082B0CD170B54E79BD
:1053F0000A790D78D0F838428B7942EA062205F016
:105400007F01A04770BD7047704738B5D0F89C3019
:1054100053F82130D0F8A0404FF6FF7524F8115012
:10542000C3F307414318012483F8B040D0F8AC30EF
:10543000984738BD10B584B00446D0F8A4301B8816
:105440003BB9B0F9A8000E4B9847A4F8A80004B0E7
:1054500010BD03681B7803F5E063ADF80430012349
:105460008DF8073000238DF8063090F878308DF8ED
:10547000083001A9D0F8E001024B9847E7E700BFE8
:1054800011CC0108095801082DE9F0478046D0F8F1
:1054900038311B885BB300F1B0050024DFF864905D
:1054A0004FF0010A10E039464046984786F800A0C0
:1054B00096F89030013B86F8903039464046C84710
:1054C00001340135802C18D0E7B22E462B780F2BF3
:1054D000F6D0D8F800301B78BB42F1D095F8903068
:1054E000002BE5D1D8F83431002BDCD1DEE7B0F960
:1054F0003001034B9847A8F83001BDE8F08700BFA2
:1055000011CC0108655A01082DE9F04F87B0054616
:105510000E7806F07F068B78012B2ED00C7904F0E4
:105520007F04D0F83C311A78831983F8402193F82E
:10553000B030A34207D0D0F8D83122463146984740
:10554000AB1983F8B040AB1993F8B03023B9D5F854
:10555000D431314628469847AB1993F8B0300F2B19
:105560000FD0D5F898301B785BB10024DFF8A0A0ED
:10557000DFF8A090DFF8A0802FE003681B78B3422B
:1055800002D007B0BDE8F08F03F5E063ADF80C3052
:1055900001238DF80F3000238DF80E3090F878300D
:1055A0008DF8103090F8DC2162B163F07F038DF844
:1055B0001030002380F8DC3103A9D5F8E001134B4B
:1055C0009847DEE7012380F8DC31F5E70134E4B2E7
:1055D000D5F898301B78A342D3D9D5F89C3053F82E
:1055E0002470C7F307439E42F0D1D5F8A03033F9B9
:1055F0001400D047D5F8A0B000230093BBB24A46B0
:1056000021462846C0472BF81400DFE70958010857
:1056100011CC01080B54010859CB01082DE9F043C6
:1056200083B005461C4B002241F217011B4CA047DA
:10563000002385F8DC31D5F898301B78E3B10024DD
:10564000DFF864802746164E06E00134E4B2D5F850
:1056500098301B78A3420FD9D5F89C3033F824300A
:10566000002BF2D0D5F8A09000974246214628465C
:10567000B04729F81400E8E7D5F8A4301B8813B91F
:1056800003B0BDE8F0830093064A00212846044C8D
:10569000A047A5F8A800F3E76D570108A55C01082D
:1056A00059CB0108355401080B54010870B582B07C
:1056B00004461A4E3346002241F20C01184DA84709
:1056C0003346002241F20D012046A847D4F8383174
:1056D0001B881BB1D4F83C2112780AB902B070BD06
:1056E0000093104A002120460F4DA847A4F830012E
:1056F00004F1AF02002303E00133DBB2802BEDD0D5
:10570000013211780F29F7D0216809789942F3D036
:10571000D4F83C11097882F89010EDE7A157010800
:10572000A55C01088954010859CB0108F8B5064663
:10573000D0F898301B787BB100240B4FD6F8A050DE
:1057400035F91400B84725F814000134E4B2D6F84E
:1057500098301B78A342F1D8B6F9A800024B9847BD
:10576000A6F8A800F8BD00BF11CC010810B504468A
:10577000034B98472046034B9847002010BD00BFBD
:105780002D5701081D56010810B50446B0F9300127
:10579000024B9847A4F8300110BD00BF11CC01089E
:1057A00010B50446034B98472046034B984700200A
:1057B00010BD00BF89570108AD56010810B5044659
:1057C000024B98472046024B984710BD1D560108D2
:1057D000AD56010810B50446024B98472046024BCF
:1057E000984710BD2D5701088957010808B5014B8E
:1057F000984708BDE959010808B5014B984708BD0D
:105800000D5A010870477047F0B587B005460B8800
:105810000193002302938A788DF80D208DF80C30C7
:10582000C8788DF80E0048B104310DF10F0308441B
:1058300011F8012B03F8012F8142F9D101A9284663
:10584000094B984707464FF6FF74084E39462846DD
:10585000B047012803D0013CA4B2002CF6D1201C93
:1058600018BF012007B0F0BD3D790108E5790108B6
:105870000023024A1360024A13607047DCCF002005
:10588000D8CF0020024A136818441060704700BF48
:10589000D8CF0020044B1B68044A1068984234BFDC
:1058A000181AC01A704700BFDCCF002004D10020B6
:1058B00008B5074A136801331360064A1268934219
:1058C00000D008BD044A1360044B9847F9E700BFB5
:1058D000DCCF0020D8CF002004D1002045CC010827
:1058E00070B5104B9847104C104B5C60104BC4F8CF
:1058F000E031092120460F4B9847052120460E4BE9
:10590000984723681E788122162120460B4DA84710
:10591000012216212046A84731460948094B9847DD
:1059200070BD00BF715801080C000010D0CF0020DE
:10593000006800402168010821670108355A010804
:10594000881B0208DD1C010810B584B004A90023DF
:1059500041F8043D08231D4A01201D4CA047041EA8
:1059600032DB1C4B1A681C4B1B68002B08BF012341
:105970009B1AB3F57A7F0ADB174B1B68002B08BF15
:105980000123144A136021461048144B9847002302
:1059900001930293039BADF800301B0C8DF802308D
:1059A0008DF8034014F0FF0209D00DF10301074BFD
:1059B0001A4413F8010B01F8010F9A42F9D1694614
:1059C000074B5868074B984704B010BDE0CF002044
:1059D000D9AB010800D10020A40A0020BD110108A4
:1059E000D0CF00204165010808B50448044B984712
:1059F000012216210348044B984708BDA81B020842
:105A0000DD1C01080C000010355A010810B50C46C9
:105A10000448054B9847012221460448044B984707
:105A200010BD00BF441B0208DD1C01080C00001063
:105A3000355A010800B585B00023ADF804308DF863
:105A4000063002238DF807308DF808208DF80910F4
:105A500001A9D0F8E001024B984705B05DF804FBBE
:105A60000958010800B585B041F4E061ADF80410B3
:105A700001238DF8063000238DF8073001A9D0F8F6
:105A8000E001024B984705B05DF804FB0958010896
:105A9000F0B583B00D4614461E469DF82870D0F828
:105AA000E4316A4601A928469847019D002D4DD151
:105AB0000379A34249D93FB1036804EB440213F8C8
:105AC000223013F0010F44D1002E44D004EB4404E3
:105AD000A400036823445A68089909688A4224D8B4
