:020000040801F1
:10000000D07F0010ED26010889010108890101084F
:100010008901010889010108890101080000000027
:100020000017011003F8A25900000000890101081F
:100030008901010800000000312D01082126010876
:100040008901010889010108890101088901010864
:100050008901010889010108890101088901010854
:100060008901010889010108890101088901010844
:1000700071C20108E5370108D5C101084D370108F3
:1000800089010108890101088901010889DC010849
:10009000B5DF0108A1E001086DE30108890101084D
:1000A0008901010889010108890101088901010804
:1000B000C53A0108013B01083D3B0108FDCC0108A0
:1000C00081CC010805D3010889D201088901010802
:1000D00089010108890101088901010889010108D4
:1000E00089010108890101088901010889010108C4
:1000F00089010108890101088901010889010108B4
:100100008901010889010108793B01088901010879
:100110008901010889010108B53B0108890101082D
:1001200089010108890101083DC801088901010808
:1001300089010108890101088901010801DE01081E
:100140008DE101087DE201087DE3010889010108D4
:1001500059300108A1C70108C52F0108890101080C
:100160008901010889010108890101088901010843
:100170008901010889010108890101088901010833
:100180008901010889010108FEE7000010B5054C4E
:10019000237833B9044B13B10448AFF30080012333
:1001A000237010BD000000200000000080680208DD
:1001B00008B5034B1BB103490348AFF3008008BDEA
:1001C00000000000040000208068020870B584B0C0
:1001D00005460E4604AB002443F8044D0092FF226E
:1001E000084CA047044638B1039A29460648074BF5
:1001F0009847204604B070BD324629460448034B58
:100200009847F6E745760108644E02083D33010839
:10021000544E020870B582B005460E4602AC00236B
:1002200044F8043D13462246094CA047044640B119
:10023000019B324629460748074DA847204602B091
:1002400070BD324629460548034B9847F6E700BF84
:10025000957601089C4E02083D3301088C4E020839
:10026000F8B507460D4616461C461A460B490C4B78
:100270009847034628B9094928460A4B9847034638
:1002800008B91846F8BD224629463846064B984715
:100290000346326801323260F3E700BFE014002009
:1002A000CD01010809440208150201082DE9F047B3
:1002B00084B081460E4690460023039301462748AA
:1002C000274B984727494846274B984700282DD069
:1002D00026494846244B984700282DD142462449B8
:1002E0002448254B984706EB860676000024DFF865
:1002F000B4A0224D224F0120D0470134CDF8008018
:1003000003ABFF2229464846B847D0B91D492846C5
:10031000154B9847E8B129461B48114B9847A64210
:10032000E9DA494619480E4B98470FE04246104912
:100330001748114B9847D6E749461648084B984747
:10034000D1E7154A49461548054B984704B0BDE822
:10035000F08749461248024B9847F7E7B84C020825
:100360003D330108E44C0208094402080C4D020820
:10037000F04C0208184D020815020108E014002094
:1003800045760108EC4C0208704D0208784D0208D1
:10039000F84C02082C4D02084C4D0208544E02083D
:1003A000584D0208052B01082DE9F04FD9B0002364
:1003B00057931C46DFF820B31F460CE1002D4FF089
:1003C000FF30C8BF0020002D40F3C980954D224664
:1003D00029469548954B9847954B294605F11200BB
:1003E00011F8012B03F8012F8142F9D18D4D2246DE
:1003F000294690488D4B984729468F488F4B984700
:100400008F4B294605F1120011F8012B03F8012F3B
:100410008142F9D1834D224629468A48834B984729
:1004200029468948854B9847884B294605F1140091
:1004300011F8012B03F8012F8142F9D12246052141
:100440008348844DA847224605218348A847DFF802
:100450008CA2234606AA51468048814DA847DFF862
:10046000809299F8003003EB4301234606AA7D48A9
:1004700050F821107C48A847DFF86882234606AA76
:1004800041467A48A8477A4E234606AA314679481B
:10049000A847234606AA51467748A84799F800304E
:1004A00003EB4301234606AA744850F82110744810
:1004B000A847234606AA41467248A847234606AAEB
:1004C00031467148A84705460699002972D16F4EFA
:1004D000002231466E486F4CA047002231466E48DC
:1004E000A04700223C215A485A4CA047002205212F
:1004F0005948A04729466948504B9847002D40F07D
:10050000388367484D4B98470A24664D664F4B4EDB
:10051000002157A8A847B0F1FF3F40F0E580013C1B
:1005200014F1020F00F02883579B40F20B229342F4
:1005300000F00183B3F5147F00F00683B3F5027F6A
:1005400000F00B83214658483C4CA0475799574828
:10055000A0476420564B98476FF0020524E00646FA
:100560001AE029465348B0475348B0476420504BDF
:10057000984734E029464F48B0475048B047642078
:100580004B4B98472BE029464A482C4CA0474C48F7
:10059000A0476420464B98474A48284CA04731461C
:1005A0003E48A0474FF0FF35284659B0BDE8F08FD0
:1005B0000646F1E74448214B9847224643494448C0
:1005C000344B9847054643F69820394B9847069B8D
:1005D000002B3FF47CAF069707976425174E214602
:1005E00007A8D847B0F1FF3F7FF4E8AE013DB5F171
:1005F000FF3FDDD0079B40F20B229342B1D0B3F511
:10060000147FB7D00646B3F5027FBCD029462948EF
:100610000A4CA04707992F48A0476420244B9847CD
:10062000BAE700BFE0150020D44A0208CD01010856
:100630002F1C0020E04A0208EC4A02083D33010862
:10064000431C0020004B02080C4B0208B71B002083
:10065000E44C0208AD0201080C4D02081C4B0208D4
:1006600061020108944D0208284B02083C4B020825
:100670004C4B0208544B0208644B0208F44D02082C
:10068000704B0208784B0208884B0208D84B0208CE
:10069000DC4B020815020108F44B0208B44A0208B8
:1006A0000C4C020879770108204C0208504C0208D3
:1006B000052B0108144A02081C4A0208404A020895
:1006C000544A0208984A0208984B02080463020838
:1006D000C84B0208784A0208DD7601084C5302082C
:1006E0000C000010304B0208002C40F3488257AE3B
:1006F000002400943346062211462046AB4DA847FD
:10070000224631462046AA4B984704940396029409
:10071000019401250095A74B2A4644F24831204612
:10072000A54FB84708230893A44F019400963B4671
:1007300008AA294640F2F230DFF8AC92C84701948B
:1007400000963B4608AA294640F21E50C8479C4FD7
:10075000019400963B4608AA294640F2FE30C8475D
:10076000019400963B4608AA294640F22A50C84701
:10077000DFF878A2934F3B7803EB4303924800EBFA
:100780008303986801940096534608AA2946C847EF
:10079000DFF85CB23B7803EB43030BEB8303986811
:1007A00001940096534608AA2946C8470494039624
:1007B0000294019400952B4640F2F23240F2E93166
:1007C0002046824FB84705940496DFF828A2BAF86D
:1007D0000030039302950195764B009323467C4AA3
:1007E00040F2E93120467B4FB8477B4A07CA0DF1FA
:1007F000F40C8CE807000DF12408784A92E8030015
:1008000088E803000194009663462A4640F2E931E5
:100810002046734FB8470194009643462A4640F25B
:10082000E93120466F4FB84704940396029401942F
:1008300000952B4640F2FE3240F21A412046634FAB
:10084000B84705940496BAF80030039302950195D1
:10085000584B009323465E4A40F21A4120465D4FB2
:10086000B847DFF894910DF1F40C99E80F00ACE86B
:1008700007008CF80030594A92E8030088E803002A
:10088000019400960DF1F40C63462A4640F21A4199
:100890002046534FB8470194009643462A4640F2FB
:1008A0001A4120464F4FB847464B197801FA05F3D5
:1008B0005A18454800EB820292680B4400EB830310
:1008C00059680494039602940194009523462046A7
:1008D0003E4FB8473B4B1B7803EB43033A4800EBD2
:1008E0008303596805940496BAF80030039302957F
:1008F0000195304B00932346354A2046354FB84783
:100900000DF1F40C99E80F00ACE807008CF800300A
:100910002C4B1B7803EB43032B4800EB83035968F4
:10092000019400963DA803462A4620462C4FB8471E
:10093000049403960294019400952B4640F21E52B3
:1009400040F2E9312846214FB84705940496BAF899
:100950000030039302950195164B009323461C4AE1
:1009600040F2E93128461B4FB8471B4907C90DF132
:10097000F40C8CE80700194A92E8030088E80300A9
:100980000194009663462A4640F2E9312846144F06
:10099000B8470194009643462A4640F2E93128467A
:1009A000104FB84704940396029427E06178010839
:1009B000B978010840420F00FD78010800000010DE
:1009C000040000100C000010944D02087179010819
:1009D00020A107003D7A0108744C02084C4B020824
:1009E000E1790108B57A0108117B010808000010BF
:1009F000F44D0208561C0020804C0208019400951A
:100A00002B4640F22A5240F21A4128465D4FB84721
:100A100005940496BAF800300393029501955A4B59
:100A200000932346594A40F21A412846584FB84786
:100A30000DF1F40C99E80F00ACE807008CF80030D9
:100A40000DF18C0CACE807008CF80030514A92E8AC
:100A5000030088E80300019400963DAA13462A4645
:100A600040F21A4128464C4FB8470194009643463D
:100A70002A4640F21A412846484FB847484B197851
:100A800001FA05F35A180BEB820292680B440BEB48
:100A900083035968049403960294019400952346B5
:100AA0002846384FB8473E4B1B7803EB43030BEB0C
:100AB0008303596805940496BAF8003003930295AD
:100AC0000195314B00932346304A2846304FB847B2
:100AD0000DF1F40C99E80F00ACE807008CF8003039
:100AE0002F4B1B7803EB43030BEB830359680194F3
:100AF00000963DAB2A462846274FB847C724DFF863
:100B0000C480284F284E21464046B847002157A8A8
:100B1000B04705466420254B9847002D3FF444AD6F
:100B2000013CB4F1FF3FEED1579921481D4B984746
:100B30006FF0040538E521463846B0471D48B047F8
:100B400064201A4B9847E3E421463846B0471A48D8
:100B5000B0476420154B9847DAE421461748114CFA
:100B6000A0471748A0476420104B98476FF0010535
:100B70001AE54FF0FF3517E56FF0030514E56FF048
:100B8000030511E57179010840420F0020A107001B
:100B90003D7A01084C4B0208E1790108B57A010859
:100BA0000C0000103D33010829780108052B0108CD
:100BB000AC4C0208304C0208404A0208204C0208A3
:100BC000544A0208904C02088AB110B44C1E1144D9
:100BD0000139084A14F8013F4340DBB252F8233090
:100BE00083EA10208C42F5D1C04310BC7047C0434B
:100BF000704700BFC84E020838B505460C1F224694
:100C000001464FF0FF30054B98472B19020E2A552D
:100C1000020C5A70020A9A70D87038BDC90B0108CC
:100C200038B50546054C4FF0FF312046044B984738
:100C3000044B1D702046044B984738BDE016002039
:100C4000412C0108E4160020BD2C010838B5084BE2
:100C50001C780CB9204638BD064D4FF0FF312846B0
:100C6000054B9847024B1C782846044B9847F1E700
:100C7000E4160020E0160020412C0108BD2C0108DC
:100C80002DE9F041044602200F4B98478CB12546D0
:100C90000024DFF848800D4F0D4E98F800202146C3
:100CA0003846B04701344FF47A700A4B9847AC424B
:100CB000F3D10320044B9847074B9847B0FA80F0D4
:100CC0004009BDE8F08100BF210C01085449020829
:100CD0003D330108052B0108A90301080C00001091
:100CE0002DE9F04F8FB04FF0000BDFF828A1DFF8AF
:100CF0002891CDF818B082E2374B1868002840F3ED
:100D00000381364A364B184413F8011B02F8011BC5
:100D10008342F9D1F8E0304B1868002840F30A818B
:100D2000304A2F4B184413F8011B02F8011B834271
:100D3000F9D1FFE02C4B1868002840F314812B4AAE
:100D4000274B184413F8011B02F8011B8342F9D109
:100D500009E1254B1868002840F31C81244A204BE8
:100D6000184413F8011B02F8011B8342F9D111E169
:100D7000204B1B68204A127802EB42021F4901EB0C
:100D8000820250680022019208AE00961C4A01219E
:100D90001C4CA0471C4C2060089A06991B481C4D0F
:100DA000A84700233246012140F2E930DFF86CB059
:100DB000D847216801432160089A1448A8470023B6
:100DC0003246012140F21A40D84721680143216090
:100DD000089A0E48A847BBE1000000101C10002034
:100DE000E81600208010002004000010E41000200D
:100DF00048110020080000100C000010944D02085B
:100E0000AC1100206D7B0108581C002068490208C5
:100E10003D3301080C2B002084120020E57B0108E3
:100E2000A648A74B9847DAF80000002808BF012021
:100E3000A0EB0800B0F5FA7F80F0C381C0F5FA702E
:100E4000A04B9847A04B9847042840F0C381DAF89C
:100E50000080B8F1000F08BF4FF00108D9F800304A
:100E60000133C9F80030994C4FF0FF312046984BC0
:100E70009847D9F80020130643EA1263110A01F4D7
:100E80007F410B43120202F47F021343914E336001
:100E9000914A13602046914B9847DFF864B2904D19
:100EA0002B7803EB43038F4A02EB8303586800243B
:100EB000009408ABDBF8002031468B4EB047DBF8DE
:100EC00000202B7803EB4303884901EB8303586828
:100ED000009408AB8049B04764207A4B98470EA92C
:100EE00041F8144D049408AB0393814B0293814B5A
:100EF00001930CAB00930BAB0AAA40F2E9307E4C95
:100F0000A04700283FF4F8AE00230EA941F8143D95
:100F1000049308AB0393764B0293764B01930CAB8F
:100F200000930BAB0AAA40F2E930734CA0470028AB
:100F30003FF4F1AE6420634B984700230EA941F8BB
:100F4000143D049308AB03936C4B0293694B0193DC
:100F50000CAB00930BAB0AAA40F21A40664CA047B8
:100F600000283FF4E7AE00230EA941F8143D049396
:100F700008AB0393614B02935E4B01930CAB009360
:100F80000BAB0AAA40F21A405B4CA047069000281F
:100F90003FF4DFAE64204B4B98474FF0FF314B4896
:100FA0004B4B9847564B1A68002A08DD4949554B68
:100FB0009C1813F8010B01F8010BA342F9D1524B15
:100FC0001968524B1B68994206D0DAF80030002BA2
:100FD00008BF01234E490B60454B1868002808DD07
:100FE00049494A4B1D1813F8014B01F8014BAB421C
:100FF000F9D1484B1968484B1B68994206D0DAF87A
:101000000030002B08BF012344490B603B4B19689B
:10101000002908DD3F4C404B5E1813F8015B04F8D3
:10102000015BB342F9D1002A08DD2B4C3C4B1A443A
:1010300013F8015B04F8015B9A42F9D1394B1A6845
:10104000394B1B689A4206D0DAF80030002B08BFF3
:101050000123364A1360002808DD324A324B184417
:1010600013F8014B02F8014B8342F9D1304B1A6857
:10107000304B1B689A4206D0DAF80030002B08BFCC
:1010800001232D4A1360002908DD294A294B194400
:1010900013F8010B02F8010B8B42F9D10B480F4BEF
:1010A0009847DAF80030002B08BF0123DB1B41F220
:1010B000873293427FF7B7AE40E000BFA0490208F5
:1010C0003D330108052B01084D0C0108E0160020F6
:1010D000412C0108AC11002010120020BD2C010889
:1010E0000C000010944D0208317C0108F44D0208F8
:1010F00000000010E8160020A17C01080400001088
:101100000800001018140020881200201C10002075
:101110007412002050130020E41000207C120020E4
:101120007C140020EC120020801000207812002097
:10113000B41300204811002080120020DAF800705B
:10114000002F08BF0127804B1B68002B7FF410AED7
:101150007E4B1B68002B3FF463AE7D4B1B687D4AC2
:10116000127802EB42027C4901EB820250680022B5
:10117000019208AE0096794A0121794CA0470146B8
:10118000724C2060089A7748774DA8470023324672
:10119000012140F2E930DFF81CB2D8472168014351
:1011A0002160089A6F48A84700233246012140F287
:1011B0001A40D847216801432160089A6948A84726
:1011C0002EE6009040F2E723684A69496948664C78
:1011D000A04737E60020684B98470520674B9847A3
:1011E0000924674F674E604D6420B847069B079AF5
:1011F00021463046A847013CB4F1FF3FF4D102211B
:101200006148624B9847C8205D4B984702215E4871
:101210005F4B984714205F4B984707905E4B1860D0
:101220000028DAD05D4C04212046594FB8473220BF
:10123000534DA84704212046544EB0476420A84788
:1012400004212046B8473220A84704212046B04751
:1012500004204A4B9847524B9847002409943C4F2E
:10126000504D39682846504EB04739683B48B04722
:10127000DFF8E0B09BF8003003EB43034B4A02EB8E
:1012800083035868019408AB00933B682A46012108
:10129000DFF8CC80C04701462B4E3060089A4448A6
:1012A000314DA8473B689BF8002002EB42022A49D7
:1012B00001EB82025068019408AA0092274A01219A
:1012C000C0470146214F3860DFF898B0089A584669
:1012D000A847234608AA012140F2E930DFF8D4806C
:1012E000C047316801433160089A3148A847234616
:1012F00008AA012140F2E930C0473968014339604A
:10130000089A5846A847234608AA012140F21A40E5
:10131000C047316801433160089A2548A8472346F1
:1013200008AA012140F21A40C047396801433960D8
:10133000089A5846A847DAF80080A04508BF4FF041
:101340000108069447467DE5581C00205C1C0020DF
:10135000080000100C000010F44D020810120020CC
:101360006D7B0108844902083D330108D852020808
:10137000B0490208CC490208DD590108210C0108D6
:10138000052B0108F04902080010024099240108C9
:1013900095240108810C0108601C0020000C02400B
:1013A0006D160108AC110020F90B0108944D0208DC
:1013B00068490208E57B010810B582B0184B01228C
:1013C0001A60431EDBB2072B1DD8164A1370642126
:1013D0001548164CA04764211548A04764211548BC
:1013E000A047154B01221A70662300934FF48053D7
:1013F000124A00211248134CA047011E0EDA12486F
:101400000A4B98470AE0009040F24F330F4A1049C8
:101410001048064CA047034B01221A7002B010BDC1
:10142000E01600200C000010F84802083D330108C7
:101430000C49020820490208E41600201C00002084
:10144000E10C01087D29010834490208C85202084C
:10145000B0490208CC49020838B56C4B1A686C4B8D
:101460001B68002B08BF01239B1AC72B0FDD044606
:10147000674B1B68002B08BF0123644A1360654B50
:101480009847042806D00020634B187001E0624B97
:10149000187838BD4FF0FF316048614B9847614B79
:1014A0001B681A0642EA1362190A01F47F410A43D3
:1014B0001B0203F47F0313435B4A13605B4B186802
:1014C000002810DD5A4A584B184413F8011B02F843
:1014D000011B8342F9D15749534A12F8010B01F815
:1014E000010B9A42F9D1544B1A68494B1B68002BE7
:1014F00008BF01239B1AB3F5FA6F10DD012C10D041
:101500004E4B1A68424B1B68002B08BF01239B1AE5
:10151000B3F5FA6F36DD022C36D0002511E0022C2F
:10152000EED0474B1868002808DD464A464B184461
:1015300013F8011B02F8011B8342F9D10125364B38
:101540001D70424B1A68324B1B68002B08BF0123E9
:101550009B1AB3F5FA6F2BDD012C2BD03C4B1A688C
:101560002B4B1B68002B08BF01239B1AB3F5FA6FA6
:1015700038DD022C38D02948364B9847264B0022BC
:101580001A702CE0012C11D02D4B1868002808DDB2
:101590002C4A314B184413F8011B02F8011B8342FB
:1015A000F9D11D4B02221A700125CAE70025C8E7B0
:1015B000022CD3D0294B1868002808DD284A294B73
:1015C000184413F8011B02F8011B8342F9D1124B96
:1015D00001221A7011481F4B9847002DCED00E4B98
:1015E000187856E7012CC6D01C4B1868002808DD77
:1015F0001B4A1D4B184413F8011B02F8011B8342C0
:10160000F9D1054B02221A70E4E700BFEC1A002062
:101610000C2B00204D0C0108E81A0020E0160020D9
:10162000412C010884120020CC1B0020080000106F
:10163000181400207C14002074120020781200205E
:1016400000000010F01A0020881200207C120020F8
:1016500080120020BD2C0108EC12002004000010B4
:10166000541B0020E4100020481100207047002087
:101670007047000000487047641C0020064A0023A1
:10168000136093801361054A136093801361044AC9
:101690001360938013617047C41C0020981C0020C5
:1016A0006C1C0020002909DD431E1944002013F89A
:1016B000012F1044C0B28B42F9D17047002070470F
:1016C00010B582B01446022802D1204602B010BDE7
:1016D0000B4611461846014B9847F6E7712D010855
:1016E000F8B504460D4616461848194B9847E0B21F
:1016F000EB78302B22D0322B05D0102B00D0F8BD48
:10170000144B9847FBE731462846134B9847134C38
:1017100004212046124FB8476420124DA8470421E7
:101720002046114EB047C820A84704212046B8479C
:101730006420A84704212046B047E0E72B79DB0965
:101740000A4A13700A4B9847D9E700BFA45302080E
:101750003D3301087D170108F1170108000C024014
:1017600095240108052B010899240108F024002084
:10177000E9170108704770477047000070B50646CA
:10178000164B1C68F5232370002262701325A57088
:101790001123E37001232371342161716521A1714B
:1017A0009F21E1711021217263721723A372E272EB
:1017B0002373082363731823A3730F22E273237424
:1017C0001923637412212046054B9847A0742A46BA
:1017D00021463046034B984770BD00BF10000010F3
:1017E000A5160108C116010800B55DF804FB00004C
:1017F000044B40F29A22A3F8E42040F22B22A3F8F3
:10180000EC207047842500209F2805D10B78002B01
:10181000024808BF002070470020704730000906CA
:101820000023136041F21703984245D011D9B0F557
:10183000C05F4BD02BD8B0F5A05F43D0B0F5B05F00
:1018400042D041F2180398423AD0264B0B60002058
:10185000704741F20503984226D00AD941F20703A6
:1018600098423DD024D341F216039842EDD105228F
:1018700007E0B0F5805F31D041F201039842E4D136
:10188000012200230B60184800EBC2007047B0F53E
:10189000005F1FD0B0F5085F1ED0B0F5D05FD4D187
:1018A000124B13600B22ECE7114B13600222E8E7A6
:1018B000104B13600322E4E70F4B13600622E0E7AE
:1018C0000722DEE70822DCE70922DAE70B4B136088
:1018D0000A22D6E70C22D4E70D22D2E70022D0E775
:1018E0000422CEE700000206B85302082825002093
:1018F0000025002004250020082500200C250020BC
:1019000038B50D46144641F28E2303FB00F3C0F5B3
:10191000FF407F3093FBF0F0024B98472860206037
:10192000012038BD753B02087047704708B5136841
:1019300043B1D368C3604360B2F912300382938A23
:10194000438208BD0148024B9847FAE76C540208ED
:101950003D33010808B50448044B9847044A05493B
:101960000548064B984708BD445402083D3301081A
:101970002005001058540208682500202D19010880
:10198000034B044ADA605A609A6000221A6070477A
:101990006825002000FF7F4708B50248024B9847A2
:1019A00008BD00BF84250020F91B010870B5244B39
:1019B0001B7813B3224B01221A70214B1878214B4C
:1019C0009847214B1B68002B08BF01231C4A127843
:1019D000012A0FD0042A0FD11B4A1268002A08BF1F
:1019E0000122D31A632B07DD174B1A6847F23053D5
:1019F0009A4201D9144B1B6870BD144E2321304606
:101A0000134DA847044624213046A847400040EA29
:101A1000840044B225213046A8472043C0B20428A0
:101A2000C8D0072808D0064B00221A70064B1B6846
:101A3000002BE1D10123C9E7014B04221A70BCE756
:101A40007C250020B91301080C2B0020E047002062
:101A5000C53D01082DE9F843464D2846DFF83081A1
:101A6000C04706462846C047A5F1EC04000240EAFC
:101A7000262025F8E00C28463F4EB047074628466A
:101A8000B047000240EA272025F8D80C05F11C07D2
:101A900038463A4DA84781463846A847000240EAF2
:101AA0002920A4F8780004F1FA073846C047814697
:101AB0003846C047000240EA2920A4F842003846D0
:101AC000B04780463846B047000240EA2820A4F8D4
:101AD0004A0004F585763046A84707463046A847B1
:101AE000000240EA2720A4F8AE002548254B98477D
:101AF000F8B9E18C0A0242EA1122A4F8F420618DBF
:101B00000A0242EA1122A4F8F620218D0A0242EAD2
:101B10001122A4F8F8201C481A4B984790B11B4B8F
:101B20000022A3F80221A3F80421A3F80621BDE8AE
:101B3000F883164B0022A3F8F420A3F8F620A3F8AC
:101B4000F820E8E7114BB3F85C100A0242EA1122D0
:101B5000A3F80221B3F860100A0242EA1122A3F8A6
:101B60000421B3F85E100A0242EA1122A3F806210A
:101B7000DDE700BF70260020F31B0108B91C010837
:101B80009C260020ED1E0108B82700208425002097
:101B9000EF1B010810B50E4C23680E4B98470E4BF7
:101BA00098470E4B98470E4B1A682368002B08BFC6
:101BB00001239B1AB3F5FA7F08DB2368002B08BFCB
:101BC0000123074A13600748074B984710BD00BF21
:101BD0000C2B002005220108551A0108AD19010837
:101BE0008025002084250020711C01087047008892
:101BF000704740887047000008B50748074B984772
:101C000007480A2380F8D8300B2380F8D930D83021
:101C1000044B984708BD00BF145502083D33010826
:101C200084250020BD1D010838B5044600F1DC05FF
:101C300028460B4B984701460A480B4B984704F13E
:101C4000D8000A4B984794F8DA30022B06D0284681
:101C5000034B98473C2802D9002000E0012038BD02
:101C6000D51D0108E05402083D330108611D01083B
:101C700038B50948094CA047094D2846094B9847F3
:101C8000C1B20948A047B5F8E4100848A047B5F824
:101C9000EC100748A04738BD785402083D330108CE
:101CA00084250020291C010898540208AC5402081D
:101CB000C4540208704770470088704770B50646E4
:101CC0000648074B9847074D012231782846064CB5
:101CD000A047002271782846A04770BD70550208C1
:101CE0003D330108F8470020053E010870B506465F
:101CF0000648074B9847074D002231782846064C86
:101D0000A047012271782846A04770BD905502086F
:101D10003D330108F8470020053E010810B5044690
:101D20000548064B9847A08941F29313984294BF07
:101D30000020012010BD00BFD05502083D3301082E
:101D400010B504460448054B9847A089B0F5FA7FC2
:101D50008CBF0020012010BDB05502083D330108A2
:101D600010B5044681780F480F4B9847A37813B1FC
:101D7000012B0BD010BD20460C4B984720460C4B36
:101D800098470028F6D00123A370F3E72046094BBB
:101D900098472046084B98470028EBD00223A370B1
:101DA000E8E700BF285502083D330108BD1C0108C3
:101DB0001D1D0108ED1C0108411D010810B5044658
:101DC0000248034B9847DE23A38110BD58550208F3
:101DD0003D33010840687047A9B110B44B1E9BB257
:101DE0000133C1184FF6FF73094C10F8012B82EA3A
:101DF000232234F8122082EA03239BB28842F4D1D2
:101E0000184610BC70474FF6FF731846704700BF66
:101E100000560208324B1A69324B1B68002B08BF70
:101E200001239B1AC72B52DD2D4BD3F82C212D4BB0
:101E30001B68002B08BF01239B1AC72B49DD2A4BC7
:101E40001A69284B1B68002B08BF01239B1AC72B5C
:101E500041DD254BD3F82C21224B1B68002B08BFFA
:101E600001239B1AC72B38DD1D4BDA681D4B1B68FD
:101E7000002B08BF01239B1AC72B22DD184BD3F878
:101E80002821184B1B68002B08BF01239B1AC72B66
:101E900019DD154BDA68134B1B68002B08BF0123B3
:101EA0009B1AC72B11DD104BD3F828010D4B1B6873
:101EB000002B08BF0123181AC728D4BF0020012017
:101EC00070470020704700207047002070470020B6
:101ED000704700207047002070470020704700BF07
:101EE0009C2600200C2B0020D4280020D0F818318C
:101EF000064A1068002808BF0120C01A47F2305374
:101F00009842D4BF00200120704700BF0C2B002056
:101F100038B505460C4603780B7003234B7000233D
:101F20004B804FF440638B8006212046084B984736
:101F3000030AA371E071074B1B68002B08BF012344
:101F40002B61AB68DB68082120469847012038BD2B
:101F5000D91D01080C2B002038B505460C46037826
:101F60000B70062161704FF49073638020460B4B19
:101F70009847030AA371E07108212046084B98474F
:101F8000AB68DB68082120469847064B1B68002B8E
:101F900008BF0123EB60012038BD00BFD91D010837
:101FA0001D2801080C2B002038B505460C46037887
:101FB0000B70062161704FF4907363802046094BCB
:101FC0009847030AA371E071AB68DB6808212046DB
:101FD0009847054B1B68002B08BF0123EB600120CD
:101FE00038BD00BFD91D01080C2B00202DE9F041A0
:101FF00004460E4600F1160500F58B712B460022B3
:1020000003F8012B8B42FBD10023A382A3681B6939
:102010004FF4807128469847074683B2A3826BB37A
:10202000A17D227891422ED194F81780B8F1030F48
:102030002CD1023B99B22846174B9847BFB2E319FF
:10204000C0F307221B7D9A4223D127447B7DC0B277
:10205000834202D04FF0040812E0731E04F13401F1
:1020600015F8012B03F8012F8D42F9D10B4B1B689A
:10207000002B08BF0123C4F8183101E04FF001081C
:102080004046BDE8F0814FF00208F9E74FF0020842
:10209000F6E74FF00408F3E7D91D01080C2B0020E8
:1020A00038B505460C4603780B7003234B704FF48C
:1020B000C8434B804FF480538B8006212046094B48
:1020C0009847030AA371E071074B1B68002B08BFF8
:1020D00001232B61AB68DB6808212046984701206B
:1020E00038BD00BFD91D01080C2B002038B50546AE
:1020F0000C4603780B70062161700023A370204604
:10210000084B9847030AA371E071074B1B68002B2B
:1021100008BF01232B61AB68DB6808212046984784
:10212000012038BDD91D01080C2B00202DE9F041FC
:1021300004460E4600F11A0500F58D712B4600226B
:1021400003F8012B8B42FBD100232383A3681B6977
:102150004FF4807128469847074683B2238363B3C0
:10216000A17E227891422DD194F81B80B8F1030F03
:102170002BD1023B99B22846174B9847BFB2E319BF
:10218000C0F307221B7E9A4222D127447B7EC0B235
:10219000834202D04FF0040811E0731E04F14001A5
:1021A00015F8012B03F8012F8D42F9D10B4B1B6859
:1021B000002B08BF0123636101E04FF00108404696
:1021C000BDE8F0814FF00208F9E74FF00208F6E7AA
:1021D0004FF00408F3E700BFD91D01080C2B0020C5
:1021E000064B33221A70342283F81C21044B35220B
:1021F0001A70362283F81C21704700BF9C260020ED
:10220000D428002008B5604B1B68062B08D8DFE8EF
:1022100003F0041A374E657B99005C4B984700B970
:1022200008BD5B4B1B685B4A52F823105A4A4FF4B7
:102230008E7000FB0320594B98470128F0D1524B78
:1022400001221A60ECE7514B98470028E8D0504B28
:102250001B68504A52F8231018314F4A4FF48E70C1
:1022600000FB03204E4B9847032805D00128D7D107
:10227000454B00221A60D3E7434B02221A60CFE796
:10228000424B98470028CBD0414B1B68414A52F83B
:1022900023100831404A4FF48E7000FB0320414B5D
:1022A00098470128BCD1384B03221A60B8E7374B56
:1022B00098470028B4D0364B1B68364A52F8231092
:1022C0001031354A4FF48E7000FB0320364B98478F
:1022D0000128A5D12C4B04221A60A1E72B4B98476B
:1022E00000289DD02A4B1B68304A52F82310304AF0
:1022F0004FF48E7000FB03202E4B984701288FD19E
:10230000214B05221A608BE7204B9847002887D085
:102310001F4B1B68254A52F823101031244A4FF4F2
:102320008E7000FB0320244B9847032806D0012819
:102330007FF476AF144B04221A6071E7124B062229
:102340001A606DE7114B984700283FF469AF104BB6
:102350001B68164A52F823100831154A4FF48E7044
:1023600000FB0320154B984700283FF459AF064B5C
:1023700000221A60064A1368013303F0010348BFC4
:102380005B4213604CE700BF98260020151E010831
:1023900094260020F05502089C260020111F0108F9
:1023A000ED1F0108A91F0108591F0108F85502086F
:1023B000D4280020A12001082D210108ED200108CA
:1023C000104B0022DA601A61012018700E499960E2
:1023D000C3F82821C3F82C2183F81C01C3F8241169
:1023E0000A4BDA601A611870C3F818219960C3F8B3
:1023F0002821C3F82C2183F81C01C3F83422C3F828
:1024000024117047D4280020D44600209C260020A8
:10241000F0B40023012503260DE0C26806FA07F494
:1024200022EA0402C260C468CA79BA402243C26088
:102430000133102B2CD005FA03F20C68A243F7D11C
:1024400004685F0006FA07F2D24314400460D0F833
:1024500000C00C79BC4044EA0C0404600C79013CD7
:10246000E4B2012CD9D884682240826084684A7919
:10247000BA4022438260426805FA03F422EA040269
:10248000426044688A799A4092B222434260C4E72B
:10249000F0BC7047018370474183704710B401F06E
:1024A00007039B00C90800EB8100016A0F249C40D0
:1024B00021EA04010162016A9A400A43026210BCE7
:1024C0007047000010B4284B9B6803F00C03042BEA
:1024D00022D0082B23D013B1244B036001E0234BFF
:1024E0000360214CA368C3F303132149CB5CDAB228
:1024F0000368D3404360A268C2F382228A5CD2B2EE
:1025000023FA02F28260A268C2F342328A5CD2B23B
:10251000D340C36010BC7047164B0360E1E7124B19
:1025200059685A6802F03F0211F4800F11D05968BF
:10253000C1F388110F4BB3FBF2F303FB01F30A4A1B
:102540005268C2F3014201325200B3FBF2F303605E
:10255000C7E7054B5968C1F38811044BB3FBF2F38D
:1025600003FB01F3EBE700BF003802400024F40056
:102570003805001000127A0029B9054A136B23EAC6
:10258000000010637047024A136B184310637047D2
:102590000038024029B9054A936B23EA0000906392
:1025A0007047024A936B18439063704700380240AB
:1025B00029B9054A136C23EA000010647047024AE7
:1025C000136C1843106470470038024029B9054A5B
:1025D000536C23EA000050647047024A536C18435E
:1025E000506470470038024029B9054A136A23EA4B
:1025F000000010627047024A136A18431062704765
:102600000038024029B9054A536A23EA00005062A3
:102610007047024A536A18435062704700380240BC
:10262000084B1B6813F4803F0BD0074A1368013333
:102630001360064B4AF6AA221A60054B4FF08052EF
:102640005A60704710E000E00C2B00200030004082
:1026500000ED00E000B585B06846144B9847019B3B
:10266000134AA2FB03235B0A013B124A5360002377
:102670009360114BE02183F82310072313606FF060
:1026800004000E4B984745F255500D4B98470320D8
:102690000C4B98474FF4FA600B4B98470B4B9847FD
:1026A0000B4B984705B05DF804FB00BFC52401083B
:1026B000D34D621010E000E000ED00E0D1AE010863
:1026C0006DB6010879B6010885B6010891B6010812
:1026D000A1B60108044B1B681844034A13681B1A6F
:1026E000002BFBDB704700BF0C2B002008B51B4BF9
:1026F00098471B4A1B4B9A420DD2194A111D1A4B7F
:102700005B1A23F003030B44184951F8040B42F8F9
:10271000040B9A42F9D1164A164B9A420BD2144A2C
:10272000111D154B5B1A23F003030B44002142F8E3
:10273000041B9A42FBD1114A114B9A60ADF500730C
:1027400083F309884FF0020282F31488BFF36F8F7E
:102750000C4B98470C4B9847FEE700BF01BA0108A5
:1027600000000010140A0010170A00108068020808
:1027700000000020415401204454012000000108C1
:1027800000ED00E011420208D94F010889B110B4F0
:1027900041180023084C10F8012B82EA132234F868
:1027A000122082EA03239BB28842F4D1184610BC5F
:1027B00070470023184670470058020870B4F1B102
:1027C000411800240F4E10F8015B85EA142536F8F5
:1027D000155085EA0424A4B28842F4D163B11344AD
:1027E000084D12F8011B81EA142135F8110080EA26
:1027F0000424A4B29A42F4D1204670BC704700244D
:10280000ECE700BF00580208031103EB830300F05C
:102810000F0000EB4300C0B2704700002DE9F84301
:1028200005460E461348144B9847002E1CDD2978A8
:102830001248114B98470024DFF840800E4FDFF814
:1028400040900134A6420FD015F8011F4046B8470A
:10285000624204F00F0302F00F0258BF53420F2BE5
:10286000EFD14846B847ECE70548034B9847BDE829
:10287000F88300BF005A02083D330108285A0208B5
:10288000BC61020808B5C36800699847F02383F368
:102890001188054B1A6800239361044A4FF0805158
:1028A000516083F3118808BD702C002000ED00E01A
:1028B0000C4A0D4B136011680120886111680022D9
:1028C0004A615A641A67C3F89C20C3F8C820C3F849
:1028D000F420C3F82021C3F84C21044BF02283F8E4
:1028E00022207047702C0020102B002000ED00E00B
:1028F0002DE9F84380461C4C01251C4EDFF87890EA
:102900001B4F06E029461B48B84701352C34082DDB
:1029100026D0636C002BF8D0236B1968B142F1D13B
:10292000616B80398908012916D95A68B2F1FF3FD5
:1029300014D10833012201328A4204D053F8040B27
:10294000B0F1FF3FF7D0B8F1000FDED0013A9200AE
:1029500029464846B847D8E70122F4E70122F2E7C2
:102960000020BDE8F88300BF102B002001F65AA517
:102970003D330108305A02084C5A02082DE9F84349
:1029800007468946154698460020574B984715F04C
:10299000030F40F0A580B8F1FF0F40F2A380F023B1
:1029A00083F31188514B5B6C63B1504B02201A6F5B
:1029B0004AB101302C330828F9D1002383F3118860
:1029C0004B488BE00120494C2C2101FB00F104EB2A
:1029D000010C0828F1D0474B2B60A8F18003042B91
:1029E0000DD92B1DA8F1850222F0030205F1080E76
:1029F00072444FF0FF3643F8046B9342FBD1CCF89E
:102A00000450CCF8088045442B1F63504FF080736E
:102A100045F8043C63581A1F6250374A43F8042CA7
:102A20006258131F6350002342F8043C6258151F7C
:102A3000655042F8043C6258151F655042F8043C4A
:102A40006258151F655042F8043C6258151F6550C6
:102A500042F8043C6258151F655042F804CC625895
:102A6000151F65506FF0020542F8045C6258151F8F
:102A7000655042F8043C6258151F655042F8043C0A
:102A80006258151F655042F8043C6258151F655086
:102A900042F8043C6258151F655042F8043C6258E5
:102AA000151F655042F8043C6258151F655042F8E6
:102AB000043C6258151F655042F8043CCCF80C7079
:102AC000CCF810900122CCF81820089ACCF81420E9
:102AD000CCF82030CCF8243083F31188BDE8F8839B
:102AE0000648FBE70648F9E7E92D0208102B00200D
:102AF000F4ADFFFF01F65AA585280108F3ADFFFFED
:102B0000F2ADFFFF08B5F02383F31188002815DB31
:102B10000F4B1A680F4B9A4214D00D4B1B680222C0
:102B20009A610D4B1B68002B08BF0123084A1268ED
:102B300018445062094B4FF080525A60002383F3CF
:102B4000118808BD002383F31188054B9847F8E7E7
:102B5000702C0020102B00200C2B002000ED00E03A
:102B6000D5260108F0B51A4B0027BC4601241948A8
:102B700025464FF0030E19E012F0020F0FD0026845
:102B8000002A08BF01220E6D921B002A07DB4D644C
:102B90004D650A6CBA42C4BF1746A44602E04A6CAF
:102BA000012AF6D001342C33082C0CD019465A6C6B
:102BB00012F0080FE0D09E6C3668002EDCD05D6409
:102BC000C3F854E0E5E7024B2C2000FB0C30F0BDCD
:102BD000102B00200C2B002003682BBB31B310B44A
:102BE000F02383F311880029CCBF0A240824104B5A
:102BF0001A6894611B68D8610E4B1B68002B08BFD4
:102C000001230B4A1068194441620B4B4FF080516D
:102C10005960002383F3118813689B6A032B0748CC
:102C200008BF002010BC7047002070470348704761
:102C3000702C00200C2B002000ED00E0F8ADFFFF11
:102C4000F02383F311880368002B05DD013B03604B
:102C5000002080F31188704719B310B4013B036062
:102C60000029CCBF06240424104B1A6894611B6809
:102C700018620F4B1B68002B08BF01230B4A10681A
:102C8000194441620B4B4FF080515960002383F38C
:102C9000118813689B6A022B074808BF002010BCEC
:102CA0007047002383F3118803487047702C00207D
:102CB0000C2B002000ED00E0F8ADFFFFF02383F3C4
:102CC0001188036801330360002B03DD002383F3C5
:102CD0001188704770B4134B00263546012203E07B
:102CE00001322C33082A0CD0596811F0040FF7D0A8
:102CF000D9688142F4D11968B142C4BF0E46154665
:102D0000EEE7094B2C2202FB053301229A610222D5
:102D10009A62064B4FF080525A60002383F3118869
:102D200070BC7047502B0020102B002000ED00E0FD
:102D300000B5FFF717FF5DF804EB084A11688842F9
:102D40000AD01060EFF3098323E9F04F0B600368AA
:102D5000B3E8F04F83F3098870477047702C002068
:102D6000502383F311887047002383F31188704741
:102D70002DE9F84307460E464FF0FF312C482D4B06
:102D80009847002E4FDD2C4CDFF8BC904FF0000828
:102D900007E088F31188002D41DD2F44761B002EBB
:102DA00041DD502383F31188A2886188551AB5420A
:102DB000A8BF354623880B449A42D8BF9B1A002DE2
:102DC0000DDD7A1E02EB050C12F8010FA168C85444
:102DD0000133A1888B42A8BF00236245F4D16388E8
:102DE0002B449BB26380002BD3D0E388002BD0D13F
:102DF00041464846114B98472288A3681344C9F8B6
:102E00000C306388A18898188842C8BF8B1AC9F80B
:102E10000430E38001214846084B9847B9E7022077
:102E2000074B9847BBE70248064B9847BDE8F88335
:102E300094350020412C0108842C0020F1B40108B5
:102E4000052B0108BD2C0108B8640240F0B4344BD6
:102E50005968C1F180011B6813F4002F32D0314B47
:102E60001B681BB1304B1C688C4202DB0120F0BC9C
:102E700070472E4A908855880B1B471B9F42A8BF5E
:102E80001F4613882B449842D8BF1B1A002F12DD0F
:102E9000274804F17F0202447F3020443844234C09
:102EA00012F8016FA568EE540133A588AB42A8BFA4
:102EB00000239042F4D11D4A53883B4453801A4B5F
:102EC0001960D3E7174B18680028CFD1164B1C6840
:102ED0008C42CBDA154A958856880F1BAB1B9F4254
:102EE000A8BF1F46138833449D42D8BF5B1B002FE9
:102EF0000FDD0F4A224402EB070C0C4C12F8016B59
:102F0000A568EE540133A588AB42A8BF03466245CD
:102F1000F4D1064B5A8817445F80034B1960A5E72C
:102F200088640240742C0020902D0020782C002012
:102F3000902C002070B506460C46502383F3118870
:102F4000104B9847104B5888A042A8BF20461B88BA
:102F500000280EDD721E0644013E0B4CA568ED5C98
:102F600002F8015F0133A588AB42A8BF0023B2423B
:102F7000F4D1054A138053881B1A5380002383F32E
:102F8000118870BD4D2E0108782C00202DE9F041EC
:102F90000C1E11DD0546094E4FF00208084F03E0F4
:102FA0004046B847002C07DD21462846B047002898
:102FB000F6DD0544241AF5E7BDE8F081352F010858
:102FC000052B010810B5204AD3885288934211DBA3
:102FD0001D4B00225A801A801C4B4FF07462DA603D
:102FE000194B5B88BBB90021174BD9801848194B86
:102FF000984710BD002BEFD013480188194489B2BF
:1030000001808088814202D3091A0F480180D31AB7
:103010000D4A5380E0E70E4C002120460D4B9847A7
:10302000094B19889A680A44E2605A889B885018AC
:103030009842C8BF5A1A06484260034BDA80012101
:10304000044B9847D5E700BF842C00200064024061
:10305000B8640240F1B40108F0B4384B4FF4746224
:10306000DA6088331B6813F4002F32D0344B1968B0
:1030700019B9344B18687F2807DD314B01221A60DB
:10308000304B00221A60F0BC70472F4A9488558854
:10309000C0F18006631B9E42A8BF1E4613882B44C6
:1030A0009C42D8BF1B1B002E0EDD284A02449719F4
:1030B000254812F8015B8468E55401338488A342F3
:1030C000A8BF0B46BA42F4D11F4B5A8816445E8003
:1030D000D3E71B4B1B681BB11A4B18687F2805DD13
:1030E0000023174A1360174A1360CCE7164A9188E9
:1030F0005488C0F180030E1B9E42A8BF1E46138851
:1031000023449942D8BF5B1A002E12DD0F4900F10B
:103110007F020A447F31014431440B4812F8015FB9
:103120008468E55401338488A342A8BF00238A42FF
:10313000F4D1054A538833445380D1E700640240F8
:10314000742C0020902D0020782C0020902C002042
:103150002DE9F04F91B05B4B5B4A9A604FF40061F0
:1031600099800024DC805C801C80584A584B936016
:103170009180D48054801480564B1C60564B1C6048
:10318000564B1A60564A5A60564A9A60564ADA6056
:10319000564A1A61564A5A61564A9A61564B01225A
:1031A0001A600190ADF80840ADF80A40ADF80C4047
:1031B000ADF810400C23ADF80E3001A94F48504B2C
:1031C000984701214FF480004E4B98474FF0006B19
:1031D000CDF804B0DFF84CA1CDF808A00394402648
:1031E00004968027059706944FF48063079308940C
:1031F00009940A944FF400330B930C9403230D931A
:103200000E940F94DFF8208140463F4DA84701A956
:103210004046DFF81891C847012210214046DFF8E8
:103220001081C047CDF804B0CDF808A0DFF804A1A4
:10323000CDF80CA00494059706944FF4806307938F
:10324000089409940A944FF400330B930C940323CD
:103250000D930E940F94DFF8E0B05846A84722462D
:103260000AEB07015846294B984701215846284B3D
:10327000984701A95846C847012210215846C0471F
:10328000244B502283F825232021596083F84623BC
:103290009E6083F8442310229A6001223946174821
:1032A0001D4CA047012231461448A0470121584631
:1032B0001A4B984701211148194B984711B0BDE8A6
:1032C000F08F00BF842C002098350020782C00203F
:1032D000942D0020742C0020902D00209841002077
:1032E000612D0108692D0108712D0108352F010894
:1032F0008D2F01084D2E010894350020001001404B
:103300000DB901087925010841B3010807B5010885
:103310001FB5010800E100E0EBB90108F1B40108B4
:10332000D1B9010804100140B864024099B4010801
:1033300035B50108902C0020886402400FB42DE9B7
:10334000F04383B00AAC54F8046B4FF0FF313848B7
:10335000384B98470194384D234632464FF48061EC
:103360002846364CA0472B7873B115F8013F002B47
:10337000FBD1314BED1A002D52DD2F4F304CDFF8D1
:10338000D0904FF0000809E02B4DF2E788F3118848
:10339000002E41DD3744AD1B002D41DD502383F36A
:1033A0001188A2886188561AAE42A8BF2E4623888B
:1033B0000B449A42D8BF9B1A002E0DDD7A1E02EBF9
:1033C000060C12F8010FA168C8540133A1888B4282
:1033D000A8BF00239445F4D1638833449BB2638033
:1033E000002BD3D0E388002BD0D141464846154B63
:1033F00098472288A3681344C9F80C306388A188D1
:1034000098188842C8BF8B1AC9F80430E38001219C
:1034100048460C4B9847B9E702200B4B9847BBE74F
:1034200003480A4B984703B0BDE8F04304B0704727
:1034300094350020412C0108983D002081A201080C
:10344000842C0020F1B40108052B0108BD2C0108D3
:10345000B8640240084B5B8898420ADA064A13882F
:10346000184493889842A8BFC01A034B9B68185C05
:1034700070470020704700BF782C002070B4104BBC
:103480005B8884189C42C8BF1A1A0D4C23880344D9
:10349000A0888342A8BF1B1A002A0DDD01398E18AF
:1034A000074CA568ED5C01F8015F0133A588AB42CC
:1034B000A8BF0023B142F4D1104670BC704700BFD2
:1034C000782C00200C4B5A88904211DA00280EDD2F
:1034D00080B209490B8803449BB20B8089888B42D8
:1034E00002D35B1A04490B80101A034B58807047B3
:1034F00000225A801A807047782C0020502383F3D2
:1035000011887047002383F3118870472DE9F84331
:103510000E1E52DD0746DFF8B480294CDFF8B0906C
:1035200008E0002383F311889D4242DD2F44761B7F
:10353000002E42DDC047502383F31188A2886188A2
:10354000551AB542A8BF354623880B449A42D8BFC6
:103550009B1A002D0DDD7A1E02EB050C12F8010FEF
:10356000A168C8540133A1888B42A8BF00239445A9
:10357000F4D163882B449BB26380002BD1D0E388C5
:10358000002BCED1002148460E4B98472288A368D5
:103590001344C9F80C306388A18898188842C8BFC2
:1035A0008B1AC9F80430E38001214846054B98473F
:1035B000B7E70120044B9847BAE7BDE8F88300BF9E
:1035C000C4410020F1B40108052B0108D14B0108CA
:1035D00070600240F0B4344B5968C1F180011B683F
:1035E00013F4002F32D0314B1B681BB1304B1C68D9
:1035F0008C4202DB0120F0BC70472E4A908855882F
:103600000B1B471B9F42A8BF1F4613882B449842A1
:10361000D8BF1B1A002F12DD274804F17F02024495
:103620007F3020443844234C12F8016FA568EE54D3
:103630000133A588AB42A8BF00239042F4D11D4AB4
:1036400053883B4453801A4B1960D3E7174B1868D3
:103650000028CFD1164B1C688C42CBDA154A9588CE
:1036600056880F1BAB1B9F42A8BF1F4613883344CD
:103670009D42D8BF5B1B002F0FDD0F4A224402EB97
:10368000070C0C4C12F8016BA568EE540133A588A9
:10369000AB42A8BF03466245F4D1064B5A88174493
:1036A0005F80034B1960A5E740600240B4410020F1
:1036B000D0420020B8410020D041002070B506461D
:1036C0000C46502383F31188104B9847104B5888B1
:1036D000A042A8BF20461B8800280EDD721E0644AB
:1036E000013E0B4CA568ED5C02F8015F0133A58833
:1036F000AB42A8BF0023B242F4D1054A13805388DD
:103700001B1A5380002383F3118870BDD53501083F
:10371000B84100202DE9F0410C1E11DD0546094E8F
:103720004FF00208084F03E04046B847002C07DD81
:1037300021462846B0470028F6DD0544241AF5E75F
:10374000BDE8F081BD360108052B010810B5204AFF
:10375000D3885288934212DB1D4B00225A801A8074
:103760001C4B3D22DA601A4B5B88CBB90021184B09
:10377000D9801948194B9847194B984710BD002B11
:10378000EED013480188194489B2018080888142B3
:1037900002D3091A0E480180D31A0D4A5380DFE77D
:1037A0000D4C002120460D4B9847094B19889A680B
:1037B0000A44E2605A889B8850189842C8BF5A1A37
:1037C00005484260024BDA800121044B9847D5E757
:1037D000C44100200060024070600240F1B4010862
:1037E000A94B0108F0B4384B4FF474129A6040337F
:1037F0001B6813F4002F32D0344B196819B9344BBD
:1038000018687F2807DD314B01221A60304B0022F7
:103810001A60F0BC70472F4A94885588C0F1800622
:10382000631B9E42A8BF1E4613882B449C42D8BFF0
:103830001B1B002E0EDD284A02449719254812F85A
:10384000015B8468E55401338488A342A8BF0B461A
:10385000BA42F4D11F4B5A8816445E80D3E71B4B03
:103860001B681BB11A4B18687F2805DD0023174A17
:103870001360174A1360CCE7164A91885488C0F148
:1038800080030E1B9E42A8BF1E4613882344994204
:10389000D8BF5B1A002E12DD0F4900F17F020A44E7
:1038A0007F31014431440B4812F8015F8468E554CC
:1038B00001338488A342A8BF00238A42F4D1054A79
:1038C000538833445380D1E700600240B441002064
:1038D000D0420020B8410020D04100202DE9F04F17
:1038E00091B00546594B5A4A9A604FF4007199803D
:1038F0000024DC805C801C80564A574B936091808A
:10390000D48054801480554B1C60554B1C60554B23
:103910001A60554A5A60554A9A60554ADA60554AC3
:103920001A61554A5A61554A9A6105210846544B15
:1039300098470195ADF80840ADF80A40ADF80C4045
:10394000ADF810400C23ADF80E3001A94D484E4B98
:10395000984701214FF400104C4B98474FF0006BF3
:10396000CDF804B0DFF84CA1CDF808A003944023B3
:1039700004938025059506944FF48063079308947B
:1039800009940A944FF400330B930C9403270D977A
:103990000E940F943E4E3046DFF81C91C84701A9A3
:1039A0003046DFF81881C047012210213046394ED9
:1039B000B047CDF804B0CDF808A0DFF804A1CDF8E9
:1039C0000CA00494059506944FF480630793089423
:1039D00009940A944FF400330B930C940D970E94B2
:1039E0000F942D4F3846C84722460AEB050138464A
:1039F0002A4B984701213846294B984701A9384658
:103A0000C047012210213846B047264B502283F888
:103A10000F234FF40041196083F80D234FF4005237
:103A20001A600122294617481F4CA0470122402155
:103A30001448A047012138461C4B984701211148E2
:103A40001B4B984711B0BDE8F08F00BFC441002068
:103A5000D4440020B8410020D4420020B4410020CA
:103A6000D0420020D4460020FD340108053501086D
:103A70000D350108BD36010815370108D535010897
:103A8000F13B0108004C00400DB9010879250108FF
:103A90007060024035B501084060024007B501087A
:103AA0001FB5010800E100E0EBB90108F1B401081D
:103AB000D1B90108044C004041B3010899B4010890
:103AC000D041002008B50D4B9A6A4FF6FE71118265
:103AD0001B6A6BB1094A506A984750B9074B0022DC
:103AE0001A629A6A138823F001031B041B0C1380CB
:103AF00008BD024B9B6A00225A62F9E7F04600209B
:103B000008B50D4B9A6B4FF6FE7111821B6B6BB1B2
:103B1000094A506B984750B9074B00221A639A6BB9
:103B2000138823F001031B041B0C138008BD024BF8
:103B30009B6B00225A62F9E7F046002008B50D4B56
:103B40009A6C4FF6FE7111821B6C6BB1094A506C76
:103B5000984750B9074B00221A649A6C138823F0D7
:103B600001031B041B0C138008BD024B9B6C00223D
:103B70005A62F9E7F046002008B50D4B9A6D4FF6F2
:103B8000FE7111821B6D6BB1094A506D984750B997
:103B9000074B00221A659A6D138823F001031B045A
:103BA0001B0C138008BD024B9B6D00225A62F9E783
:103BB000F046002008B50D4B9A6E4FF6FE7111824B
:103BC0001B6E6BB1094A506E984750B9074B0022E3
:103BD0001A669A6E138823F001031B041B0C1380D2
:103BE00008BD024B9B6E00225A62F9E7F0460020A6
:103BF00070B584B005465F4A0301D0180024D45044
:103C00000173AB1E0C2B00F2B380DFE803F0074416
:103C10004D565F68B1717C87929CA600554B4FF062
:103C200080429A6201210846534B98471C24514E0A
:103C300006EB0516B5682846504B98474FF4FA63D3
:103C400002935323ADF804300023ADF80C30ADF8E7
:103C5000063001A928464A4B984701212846494B7E
:103C6000984701212846484B98470122114628468B
:103C7000464B9847337B1B01DBB2454A111981F84B
:103C80000033630904F01F04012000FA04F442F831
:103C9000234004B070BD374B3E4A9A630121022095
:103CA000354B98471D24C2E7324B3B4A9A640121A9
:103CB0000420314B98471E24B9E72E4B374A9A65AA
:103CC000012108202C4B98473224B0E7294B344A75
:103CD0009A6601211020284B98473624A7E7254BE8
:103CE000304A9A6701212020234B984737249EE7CA
:103CF000204B2D4AC3F8982001214FF480302B4BE4
:103D00009847182493E71B4B294AC3F8A8200121A0
:103D10004FF40030254B9847192488E7154B254A66
:103D2000C3F8B82001214FF48020204B98471A2473
:103D30007DE7104B204AC3F8C820012140200E4BDC
:103D400098472B2473E70B4B1C4AC3F8D82001215A
:103D50008020094B98472C2469E7064B184AC3F882
:103D6000E82001214FF48070034B98472D245EE733
:103D700000208EE7F0460020B1250108C9B60108F1
:103D80004DB80108D5B8010803B90108EFB801081A
:103D900000E100E00004004000080040000C00408A
:103DA000001000400014004000400140CD250108F3
:103DB000004401400048014000180040001C004041
:103DC00000200040002918DB03688B4217DD01F05A
:103DD000070201239340DBB20A460029B8BFCA1D7F
:103DE000D2108118497A0B4214BF0E300430825C25
:103DF000134214BF012000207047002070470020AC
:103E00007047000010B582B0002912DB03688B42B6
:103E10000FDD043001F007040123A34092B90A46E4
:103E20000029B8BFCA1DD210815C21EA0303835464
:103E300006E000912C23084A08490948094CA0478C
:103E400002B010BD0A460029B8BFCA1DD210815C5D
:103E50000B438354F4E700BF845A0208745A0208E3
:103E6000CC4902083D3301082DE9F0410368DC1D0F
:103E7000B2EBE40F2BDB002B25DD0E4605460024BC
:103E8000DFF8508001270CE02246002CB8BFE21D6D
:103E9000D210B15C21EA0303B35401342B68A3426E
:103EA00011DD21462846C04704F0070307FA03F353
:103EB0000028E9D02246002CB8BFE21DD210B15C28
:103EC0000B43B354E9E7D81DC010BDE8F0816FF093
:103ED0000500FAE7C53D010808B54FF480610248C6
:103EE000024B9847002008BD000C024095240108B1
:103EF00008B54FF480710248024B9847002008BD76
:103F0000000802409524010808B504210248034B2B
:103F10009847002008BD00BF00100240952401080A
:103F200070B582B001210DF107000E4B98470128B2
:103F300003D00024204602B070BD04469DF807302F
:103F40000D2B03D00A2B01D00024F3E70648074BC2
:103F500098470126034D31460DF10700A847012877
:103F6000F9D0E7E7352F0108A85D02083D330108C5
:103F70002DE9F04781463148314B9847314B9847FE
:103F8000314B98474FF000084746304E06F1FF048A
:103F9000DFF8D4A0B94533D9721E3546AA2302F8FA
:103FA000013F013BDBB2A242F9D14FF480723146AE
:103FB0003846D0473346002106F5087203F8011B46
:103FC0009342FBD14FF4807231463846204B9847DC
:103FD0003278AA2A19D1A923012115F8012F9A4272
:103FE00014D10131013BDBB2B1F5807FF5D107F58A
:103FF0008077C7F30E037BB1164B98470028C9D0D2
:1040000015480F4B9847012004E0002113480C4B42
:1040100098470020BDE8F087642101FB07F1B1FB60
:10402000F9F10F48064B984708F1010818F01F0FE7
:10403000E2D10C48024B9847DEE700BFC05D0208A2
:104040003D330108118901085188010810480020FA
:104050005D850108213F0108005E0208E45D020859
:10406000FC5D0208BC610208A586010838B504465B
:10407000022108460B4B98474FF4F8034FF4FC021B
:1040800000210120084DA847E1B20120074B9847C5
:10409000074C21460748084B98472046074B98474E
:1040A00038BD00BF5DDA0108ADDB010881F501080C
:1040B000404A0020885A02083D33010875F501087E
:1040C000004870479F6534010120704738B580B1C2
:1040D000104D4FF4006128460F4CA0474FF480511B
:1040E0002846A04708212846A04710212846A04777
:1040F0000FE0084D4FF400612846084CA0474FF4EC
:1041000080512846A04708212846A047102128466C
:10411000A04738BD001002409524010899240108E9
:104120002DE9F04182B0044600F23510244B984747
:10413000034618B9184602B0BDE8F0814FF4966006
:10414000204B9847002168461F4B9847034600289C
:10415000F0D094F838011D4EB047074694F8390165
:10416000B0474FF46168C0EB0010850008FB0757AB
:1041700094F83A010130C0B2B04707449DF80300FB
:10418000B04705469DF80400B047C0EB0010800022
:1041900008FB05059DF80500B0470544ED1B2946C1
:1041A0000B480C4B98470235042D07D894F83A3148
:1041B0009DF805209B1A18BF0123BBE70023B9E730
:1041C00051BC0108052B010855BB0108092801084D
:1041D000985D02083D3301082DE9F04F8FB083460A
:1041E0000578C5F340050024A94FA046A94E06E076
:1041F000424621463846B0470134142C06D0002DE3
:10420000F6D0012221463846B047F5E7A24B984741
:104210009BF8003013F0010F24D113F0040F40F08D
:104220002D8113F0080F40F0678213F0100F40F05B
:104230006E8213F0200F40F0758213F0800F40F073
:1042400007839BF8013013F0010F40F0088313F04F
:10425000100F00F00E839BF805306FF382038BF88C
:10426000053004E1022305938C4F8D488D4B984710
:1042700032208D4B984701208C4B98470BF105035A
:1042800007931D4600242646324621468048814B2E
:104290009847FF2305F8013F0134142CF4D17E4BDD
:1042A0009847C820804B9847814B98470BF13503BE
:1042B00006931D464FF0010800247E4EDFF80C9255
:1042C00002E00134262C10D0FF2305F8013F2146DF
:1042D0003046B8470028F4D0611C4846714B9847D7
:1042E00001232B704FF00008EBE7C8206E4B984776
:1042F000012303934FF0000ADFF8B89135E05E1C0C
:10430000BAF1090F49D104962E464BE00123A3715F
:104310006DE30BEB0503012283F8362067E30134DC
:10432000262C15D0A542FAD0A642F8D02146484600
:10433000B8470028F3D0039A611C5F48594B98474F
:104340000BEB0403012283F836204FF00008E6E768
:10435000002251464E484F4B98470AF1010A039BF1
:1043600001330393BAF1140F55D00BEB0A04FF236A
:10437000A371012251464648464B9847464B984701
:10438000C820494B98474A4B98474FEA4A031D4675
:10439000BAF1090FB3DD1E465D1EBAF1130F18BF47
:1043A0000496B0D0252E00F3248329464846B8470A
:1043B00028B131464846B847002840F018832946BE
:1043C0004846B847804631464846B8470190731C76
:1043D00000934346049A03993848DFF8C880C047E1
:1043E000AE4200F0FB8229464846B84728B931461C
:1043F0004846B8478046002888D029464846B847EE
:104400008046002885D00BEB0603012283F8362076
:104410004FF00008EBE2002425462A4621461C48BE
:104420001C4B98470134142CF7D11B4B98470024A0
:10443000234E1C4DDDF81890DDF81CA01AF8013F42
:1044400019F8012F21463046A8470134142CF5D124
:10445000B8F1000F10D0059B013B05937FF405AF29
:1044600001229BF8043062F300038BF8043040F221
:104470003B100FB0BDE8F08F0022F2E71148094B66
:1044800098474FF0010800250F4FDFF844A07AE06D
:10449000F8470020053E0108CDE80108C53D0108A8
:1044A000985A02083D330108052B0108CD40010848
:1044B000D9E80108E0470020085B0208DC5A02083E
:1044C000285B0208405B020849EA0108B85A020862
:1044D0001C5E0208BDF8223041F28E2202FB03F27C
:1044E000C3F5FF437F3392FBF3F344F8043B3220E0
:1044F000B54B9847B44210D00A220DF1220128464C
:10450000B8470028E6D0009040F2B9135246AF49B0
:10451000AF48DFF8C492C847DCE709A80026013697
:10452000042E00F3CF82031D844653F8041B026857
:10453000914284BFCCF8001043F8042CA342F4D17C
:104540000430042EEBD10B9A0BEB4503A3F8AA2001
:1045500042F279639A4240F2588242F2A6739A423A
:104560000AD9691C9B489C4B984702230BEB050218
:1045700082F882304FF00008984B9847064628B9D9
:104580000135062D03D00EAE09ACB5E700264FF07D
:104590008B4ADFF8709253E2BDF82200904B9847A7
:1045A0005146904B9847904F4946B8478F49B84776
:1045B0008F4B984745F8040B3220834B9847A54210
:1045C00010D00A220DF1220130468A4B984700286C
:1045D000E2D000904FF4EF73874A7C497C487E4FCD
:1045E000B847D9E709A800270137042F00F36C82E8
:1045F000031D844653F8041B0268914284BFCCF823
:10460000001043F8042C9D42F4D10430042FEBD168
:104610000B9B3746B21D0BEB4601A1F8B6302C2B95
:1046200040F2F981372B40F20182711C7348DFF8A8
:10463000A881C0470223F4E10027DFF8F89109AC14
:1046400013E0BDF82200664B98476D49654B9847CB
:104650006C49654B9847664B9847400044F8040BFB
:104660003220594B9847A54211D00A220DF1220160
:104670003846C84706460028E3D0009040F203239E
:104680005D4A52495248DFF850A1D047D9E709A8FE
:1046900000240134042C00F31982031D844653F8CE
:1046A000041B0268914284BFCCF8001043F8042C2C
:1046B0009D42F4D10430042CEBD10B9B3C4607F116
:1046C0000C020BEB4701A1F8C230B3F5965FC0F0C6
:1046D000B98141F250418B4240F2BF81791C4A4876
:1046E000DFF8F480C0470223B2E100238BF8FA30F0
:1046F0004648394B9847CDE14FF40000444B98476A
:104700009BF8043060F382038BF80430AFE64FF47B
:1047100000603F4B98479BF8043060F3C3038BF86D
:104720000430A4E64FF0020A2B4F3A4D05F1FF0486
:104730003948B8473220244B98474FF000086A1E8A
:104740002E46AA2302F8013F013BDBB2A242F9D177
:104750004FEA08291FFA89F94FF480722946484622
:104760002E4B98472E48B8472B46002105F5087276
:1047700003F8011B9342FBD14FF48072294648464F
:10478000284B98472848B8472A78AA2A54D1A92301
:10479000012116F8012F9A424FD10131013BDBB2C2
:1047A000B1F5807FF5D108F1010818F01F0F01D194
:1047B0001E48B847B8F1800FC1D11D48B847BAF1BB
:1047C000010AB5D101223CE0052B01085C5B02081F
:1047D000CC4902083C5C02083D330108213F010836
:1047E000753B0208253C02088D3D0208000040414F
:1047F000C53E0208D5EA01081C5E0208505C0208AA
:104800000010BF4500FEFF466C5C0208805B02089A
:10481000713F010810480020905B02086980010880
:10482000B05B0208597F0108B45B0208BC61020852
:10483000B85B020865EB01080021A548A54B984725
:1048400000229BF8043062F304138BF804300EE668
:104850009BF8043043F080038BF8043007E6584699
:104860009D4B98479BF8053060F300038BF80530AB
:10487000FDE513F0020F34D113F0040F3FF4F7AD50
:10488000964B9847042840F085800BF1FC02944B2E
:1048900003F1120113F8010B02F8010F8B42F9D159
:1048A0000BF587728F4B03F1120113F8010B02F81D
:1048B000010F8B42F9D10BF590728B4B03F1140170
:1048C00013F8010B02F8010F8B42F9D100238BF88A
:1048D0000E318BF820318BF8343101238BF8FA300C
:1048E000C5E582487B4B984700238BF8FA30804A15
:1048F00002F8013F0133B3F5807FF9D17D4C7E4B47
:10490000DB684FF480712046984740F2DC507B4BC7
:1049100098472346002104F2071203F8011B934233
:10492000FBD1754B1B6940F207117248984704464A
:1049300001467348674B984740F207139C420DD0DD
:104940007048644B984701238BF8FA3000239BF89A
:10495000042063F345128BF8042088E5654BDB796E
:104960006BB90121634B5A18D2798A4208D10131BF
:10497000FF29F8DD6448574B98470123E7E70021FA
:104980005C4B5A5C6148534B984702238BF8FA30D2
:104990000023DCE70BF1FD030BF20F11FF2203F8FC
:1049A000012B8B42FBD10BF20F130BF22111FF22D3
:1049B00003F8012B8B42FBD100238FE729464846A1
:1049C000B847064629464846B84701906B1C0093F5
:1049D0003346049A03994E483E4EB0470123A371D3
:1049E0000BEB050282F836302E464FF0000800240B
:1049F00098E429464846B8470028DFD0294648466B
:104A0000B84700284DD02E46F1E7691C4148314B8C
:104A100098470323AAE5711C3F48DFF8B880C047D8
:104A200003235F4487F888304FF000083B4B9847DA
:104A3000074600287FF400AE0136062E3FF4FDAD98
:104A400009ADBEE5791C3648DFF88880C0470323EE
:104A50005C4484F88E304FF00008304B984718B90A
:104A60000137022F7FF4EBAD0BF181050024DFF855
:104A7000B490184F15F8012F21464846B847013425
:104A80001E2CF7D1002E3FF430AE01238BF8FA3004
:104A90004FF000089BF8043068F341038BF80430B2
:104AA000E5E429464846B847064629464846B847F9
:104AB00001906B1C00933346049A03991448054EE9
:104AC000B0478BE704302AE504308DE50430E0E59B
:104AD000E45D02083D330108214101084D0C010845
:104AE000301C0020441C0020B81B0020D05B0208B2
:104AF0000F48002010480020D4460020052B010854
:104B0000F05B0208FC5B0208245C0208145C0208EB
:104B1000DC5A02083C5C0208505C0208213F010894
:104B20006C5C02086C5B0208074B084A1A620022A0
:104B30005A629B6A40F65F11D9625A621A8842F043
:104B400001021A80704700BFF0460020D93E0108DC
:104B500008B54FF480610248024B984708BD00BF7A
:104B6000000C024099240108074B084A1A630022EE
:104B70005A639B6B40F65F11D9625A621A8842F001
:104B800001021A80704700BFF0460020F13E010884
:104B900008B54FF480710248024B984708BD00BF2A
:104BA0000008024099240108074B084A1A650022B0
:104BB0005A659B6D40F2AF41D9625A621A8842F041
:104BC00001021A80704700BFF0460020093F01082B
:104BD00008B504210148024B984708BD0010024067
:104BE000992401082DE9F04792B04FF48071644890
:104BF000644CA047644D08212846A0474FF48061CB
:104C00006248A04704212846A0476420604EB04770
:104C1000042128465F4B9847312302931F230193B9
:104C2000112300931423052240F2E6715A485B4C8D
:104C3000A04700205A4B98475A48A04710A85A4B03
:104C400098479DF842309DF841209DF840109DF80E
:104C5000450002909DF8440001909DF843000090AB
:104C60005248A04701214FF48020514B9847012022
:104C7000504B98470120504B98470220B0474F4B6C
:104C800098474F4B984706244E4F444E404D01E005
:104C9000013C1AD03846B047C820A847012106A8D1
:104CA000494B98470128F3D19DF818300D2B01D0BE
:104CB0000A2BEDD14548394B98470026444D344CDA
:104CC0003046A8470220A047FAE708212E48314C79
:104CD000A0474FF480612D48A0473E4B98473E4B7C
:104CE00098473E4B98473E4B98470EA82E4B984707
:104CF0009DF83A309DF839209DF838109DF83D0018
:104D000002909DF83C0001909DF83B0000903548D2
:104D1000224CA047344B9847804601463348A04771
:104D2000B8F1000F07D00126294D194C3046A8478D
:104D30000220A047FAE72E4B98472E4B98472E4B60
:104D400098472E4B984700231A46194618462C4C74
:104D5000A04700231A46194618462A4CA047204B64
:104D60009847294B9847294B1C68002C08BF012401
:104D7000274B01221A70064E264D05F1100A63E0FA
:104D80000018024095240108000C02400014024063
:104D9000052B010899240108885C02083D330108AD
:104DA0006D400108B85C020815BD0108C85C020826
:104DB00079250108B1B60108BDB6010811890108BD
:104DC000D5810108085D0208352F01080C5D020835
:104DD00031FD0108C14F010869E701082B190108DD
:104DE00099190108305D0208E5BE0108705D0208EE
:104DF00055190108B51C010895900108751701089F
:104E0000AD820108F5820108E12101080C2B002088
:104E1000504E0020304A0020C146431E002B40F374
:104E2000828005F10F0105F10E0E8644002311F872
:104E300001CF6344DBB27145F9D12844C17B99426B
:104E400073D003203D4B98470120B04704203C4BD2
:104E500098473C4B98473C4B98473C4B98473C4BBA
:104E600098473C4B1B68002B08BF01231B1BB3F565
:104E70007A7F1EDB384A536983F480735361A2F54D
:104E80008062536983F480635361A2F500625369C1
:104E900083F0080353612F4B1C68002C08BF0124CA
:104EA00000212E482E4B984701202E4B98472E4B21
:104EB000984700202D4B98472D4B98470028C0D08D
:104EC0002C4B1B68002BBCD02A4B9F682A4B984761
:104ED000039005AB0293294B019306AB009300238B
:104EE0004FF4806251463846254FB847021EA8DD70
:104EF000244906AB0DF1380E13F801CB01F801CFB0
:104F00007345F9D195F810906B7CA87C40EA03209A
:104F1000B0F5006F80DCB9F1F50F14BF4FF0000958
:104F20004FF0010979E7002387E7B9F1000F88D036
:104F300051460220144B984783E700BF59140108DB
:104F400031FD0108D5E7010829190108ED1B010809
:104F5000791701080C2B002000180240885D020818
:104F60003D330108F1280108B71C0108951B010811
:104F70006F160108C41C00207516010848050010B2
:104F8000596A0108CF1C0020E116010880B5074EC0
:104F9000074D084F01242046B0472B78002BFAD04C
:104FA000B847054B9847054B9847F3E7052B010891
:104FB000504E00206590010877170108FD90010808
:104FC000044B03F5487100221A6228338B42FBD14F
:104FD000704700BF544E002010B582B0144B984764
:104FE00014491548154CA047154B596F1548A04753
:104FF000662300934FF48053134A00211348144C46
:10500000A047011E0BDB642300934FF48053114A29
:10501000002111480E4CA047011E04DBFEE70F489B
:10502000064B9847EFE70E48044B9847F6E700BF5A
:10503000C1500108285E0208385E02083D330108AD
:1050400000380240445E020874510020E54B01081C
:105050007D290108746100208D4F0108545E02080B
:10506000705E020830B583B001214FF40010104B80
:10507000984702238DF8043001228DF806208DF820
:1050800007208DF8053002A94FF4407341F8083D20
:10509000084C2046084B9847042208212046074D1B
:1050A000A847042209212046A84703B030BD00BF0D
:1050B000B125010800040240112401089D240108C3
:1050C0002DE9F04FA3B072B601217F20B34B984772
:1050D00000248DF8114001268DF810608DF81340E2
:1050E0004FF4807303938DF8124003A9AC48AD4F81
:1050F000B8474FF48071AA48DFF8C8A2D0478DF8AE
:1051000010608DF8134003968DF8124003A9A6484D
:10511000B8473146A448A54DA8478DF810608DF8D2
:105120001340C02303938DF81240DFF89C8203A93B
:105130004046B84740214046D0478DF810608DF872
:105140001340042303938DF8124003A99848B847ED
:1051500004219748A8478DF810608DF813404FF44C
:10516000806303938DF8124003A94046B8474FF47B
:1051700080614046A8478DF810608DF813400823E1
:1051800003938DF8124003A98948B847082188483D
:10519000A8478DF810408DF813404FF40063039337
:1051A00003A97F48B8478DF810608DF813404FF081
:1051B000020BCDF80CB08DF8124003A97D48B8471A
:1051C00059467C48A847314630467B4B98470C22CD
:1051D00021467748794DA8470C2231467448A847A4
:1051E0000C2204217248A8470C2205217048A847C8
:1051F0000C2207216E48A8470C220E216C48A847B4
:105200000C220F216A48A8470C2221466948A8476A
:105210000C2207216748A8470C2208216548A847A7
:105220000C2209216348A8470C220A216148A8479B
:105230000C2221464046A8470C2231464046A8474A
:105240000C2259464046A8470C2203214046A84755
:105250000C2204214046A8470C2205214046A847BD
:105260000C2211464046A8470C220D214046A84773
:105270000C220E214046A8470C220F214046A84789
:105280000C2221464648A8470C2231464448A847EC
:105290000C2259464248A8470C2203214048A847FF
:1052A0000C2204213E48A8470C2205213C48A8476F
:1052B0008DF850B08DF851B08DF852408DF85340B4
:1052C00022AA4CF2B30342F83C3D914611463848BD
:1052D000B84740F28173139349463648B8474FF2B6
:1052E0003F03139349464046B8474FF03F08CDF877
:1052F0004C8049462A48B8470F22059206964F230C
:105300000793089409940A944FF040530B930C921E
:105310000D96CDF838800F94109411941293139435
:105320001494082115911694179418944FF400734F
:1053300019931A944FF400611B914FF480511C9102
:105340001D944FF480411E911F940DF11408CDF867
:1053500080800CAB2193CDF804904846184A9047C2
:1053600031462046DFF86490C8470421059106962F
:10537000079108940994CDF828B00B940621139155
:1053800014940421159110211691179418941994CE
:105390001A941B944FF480511AE000BF792501083C
:1053A000001802401124010800000240992401085D
:1053B000000C024000100240952501089D240108C0
:1053C0007DB50108952401080014024045B6010886
:1053D0001C911D941E941F94CDF88080CDF884807C
:1053E0000198B84A904731460620C84731461020F8
:1053F000DFF8F482C0478DF850B08DF852408DF838
:1054000053608DF851404FF4C06313930199AE4837
:10541000B84707220921AC48A84707220A21AA4811
:10542000A84731464FF48020DFF8C092C8478DF876
:1054300050B08DF852408DF853608DF851404FF4C4
:10544000407313930199A148B847072208219F4848
:10545000A847072209219D48A8478DF850608DF87C
:1054600053404FF4806213928DF85240019997484F
:10547000B8474FF480619548D04731462020C04757
:105480008DF850B08DF852408DF853608DF8514032
:10549000C0221392DFF8588201994046B84708228B
:1054A00006214046A847082207214046A8478DF814
:1054B00050608DF853404FF4807213928DF8524033
:1054C00001994046B8474FF480714046D047314675
:1054D0004FF40020C8478DF850B08DF852408DF839
:1054E00053608DF851404FF4406313930199404647
:1054F000B84708220A214046A84708220B21404607
:10550000A8478DF850608DF85340042213928DF80F
:10551000524001996E48B84704216D48D0476D4B01
:10552000984731464FF40040C8478DF850B08DF889
:1055300052408DF853608DF8514018231393019910
:105540006548B8474FF48052139201994046B847D6
:10555000062203216048A847062204215E48A84786
:1055600006220C214046A8478DF850608DF8534024
:105570004FF4004213928DF8524001995248B847B7
:1055800001995648B8474FF4804213920199534805
:10559000B8474FF40052139201994046B8474FF470
:1055A00000414948D0474FF400414C484C4B984784
:1055B0008DF850608DF853404FF4405313938DF89D
:1055C000524001994548B8474FF480514348D0476D
:1055D0004FF400514148424B984731464FF48040C8
:1055E000C8478DF850B08DF852408DF853608DF853
:1055F00051400C23139301994046B8474FF4806300
:10560000139301993448B847052259464046A847A4
:10561000052203214046A84705220A212E48A84713
:105620008DF850608DF853404BF6780313938DF846
:105630005240019D29462648B8474FF460531393C2
:1056400029462248B847C023139329462348B84720
:1056500020211F48D04720211D48D04720211C4829
:10566000D04740211A48D04740211948D0474FF42D
:1056700000611648D0474FF480511448D0474FF48A
:1056800000511248D04731464FF00070C8473146AC
:105690004FF08060C8478DF850B08DF852408DF8BB
:1056A00053408DF851606023139329460A48B84748
:1056B0000922062108480B4CA0470922052106486B
:1056C000A04717E07DB5010800000240000C024031
:1056D000001002406550010800040240001802401A
:1056E000992401089D240108CD250108B125010850
:1056F000000802400F4B98470F4B98474FF4E1309A
:105700000E4B98474FF496400D4B98474FF49640F8
:105710000C4B98474FF496400B4B98470B4C204648
:105720000B4B984720460B4B984762B6002023B09E
:10573000BDE8F08FB1280108552601085131010854
:1057400069C3010835C90108DD380108801A06005F
:1057500021CF010839D40108884219D210B400F1D0
:105760008044013C02EB8404043A02EB81010020F6
:1057700054F8043F13F003021DBF04339A1A00EBE0
:10578000920000EB930080B28C42F1D110BC7047C4
:1057900000207047023815280ED8DFE800F00F0D02
:1057A0000D0D0D0D0D0D0D0D0D0D0D0F0B0D0D0D29
:1057B0000D0D0B0F00207047FF2070470120704730
:1057C00030B4334D43F6787404FB00F42B190022F7
:1057D00083F8E422C3F8702BC3F8742BC3F86C2B46
:1057E000C3F8682B83F80821295583F8E92083F84A
:1057F000FC2083F8FD20274CC3F85C4BC3F8602BDA
:10580000C3F8642BC3F82C2BC3F8302BC3F8342B0C
:10581000C3F8382BC3F84C2BC3F8502BC3F8542BC8
:10582000C3F8582BC3F83C2BC3F8402BC3F8442BC8
:10583000C3F8482B032903D8DFE801F00517262613
:105840004FF4C87021E0124B43F6787202FB00332C
:10585000002083F8E8004FF0C042C3F8DC20083293
:10586000C3F8E020C3F8E4000FE0094B43F6787278
:1058700002FB0033002083F8E800C3F8DC00C3F823
:10588000E000C3F8E40000E0002030BC704700BF37
:1058900080710020A15E010838B543F6787303FBE0
:1058A00000F3234AD35C032B3DD8044640F6DE7553
:1058B00005FB00F543F6787303FB0023002083F813
:1058C000EC0021461B4B9847034670BB184A43F631
:1058D000787303FB0423012183F8E91005F13C00F0
:1058E00002EB8000144B98470346F0B9104A43F688
:1058F000787303FB0423002283F8ED202146012066
:105900000C4B9847034680B9094843F6787303FB6C
:105910000404012384F8E9303D3500EB8500064B93
:105920009847034601E04FF41673184638BD00BF90
:1059300080710020895F0108477E010838B5224A3E
:105940000023FF2103E001330332042B09D0DDB231
:1059500012F8014C002CF6D01478844208BF294676
:10596000F1E7FF292DD004460D4601EB4102174B0C
:1059700013449B78C3B105EB4505144B1D4401232B
:10598000AB70134A43F6787303FB042393F8FC309F
:1059900083B10F4843F6787303FB0400012380F8BA
:1059A000FC300023184638BD0A4B984703460028B0
:1059B000F8D1E0E72046084B984703460028F1D18C
:1059C000E7E74FF41673EDE74D0500104C050010A6
:1059D00080710020C15701089958010830B40F4A5E
:1059E0000023FF2103E001330332042B09D0DDB291
:1059F00012F8014C002CF6D01478844208BF2946D6
:105A0000F1E7FF2907D001EB4101054B19440020C4
:105A1000887030BC70474FF41670FAE74D050010DF
:105A20004C0500102DE9F04F8BB00C4698465B6892
:105A30001B681D781746F2B1D378F3B196780596B6
:105A4000A04A00EBC00143F6787303FB06F303EBB7
:105A5000C1031344DB6903933C3040F6DE7303FB60
:105A6000060002EB80030493974B1A78CAB1002317
:105A70001946954809E00026E1E70026DFE70133F3
:105A8000DBB2194610F833205AB19442F7D100EB3B
:105A9000C1025278AA42F2D18B4B03EBC1014B6891
:105AA00003930498894B9847029018B102980BB061
:105AB000BDE8F08F864B98478146824A43F678735B
:105AC000059903FB0123D3F8683B1BB132462946F5
:105AD0002046984747B3FB78002B00F0608197F889
