:020000040801F1
:10000000D07F00106D4601088901010889010108AF
:100010008901010889010108890101080000000027
:100020000017011003F8A25900000000890101081F
:100030008901010800000000B14C0108A145010838
:100040008901010889010108890101088901010864
:100050008901010889010108890101088901010854
:100060008901010889010108890101088901010844
:1000700089F0010865570108EDEF0108CD56010828
:100080008901010889010108890101080D0402089C
:100090003907020825080208F10A02088901010847
:1000A0008901010889010108890101088901010804
:1000B000D96001081561010851610108295C010836
:1000C000AD5B010889FA01080DFA010889010108F0
:1000D00089010108890101088901010889010108D4
:1000E00089010108890101088901010889010108C4
:1000F00089010108890101088901010889010108B4
:1001000089010108890101088D610108890101083F
:100110008901010889010108C961010889010108F3
:10012000890101088901010855F6010889010108C2
:100130008901010889010108890101088505020872
:1001400011090208010A0208010B020889010108CD
:10015000D94F0108B9F50108454F01088901010887
:100160008901010889010108890101088901010843
:100170008901010889010108890101088901010833
:100180008901010889010108FEE7000010B5054C4E
:10019000237833B9044B13B10448AFF30080012333
:1001A000237010BD0000002000000000F0E50208F0
:1001B00008B5034B1BB103490348AFF3008008BDEA
:1001C0000000000004000020F0E5020870B584B0D3
:1001D00005460E4604AB002443F8044D0092FF226E
:1001E000084CA047044638B1039A29460648074BF5
:1001F0009847204604B070BD324629460448034B58
:100200009847F6E7DDA1010878700208BD520108A1
:100210006870020830B585B0054604AB002243F88B
:10022000042D0091FF220C490C4CA04740B9044614
:100230000B4909480B4B984740B1204605B030BDEB
:1002400029460948094B98470024F6E729460848FB
:10025000064B98470124F0E7E0140020DDA10108D7
:10026000186F020809660208DC700208BD52010816
:10027000F470020870B582B005460E4602AC002349
:1002800044F8043D13462246094CA047044640B1B9
:10029000019B324629460748074DA847204602B031
:1002A00070BD324629460548034B9847F6E700BF24
:1002B0002DA20108B0700208BD520108A07002080A
:1002C000F8B507460D4616461C461A460B490C4B18
:1002D0009847034628B9094928460A4B98470346D8
:1002E00008B91846F8BD224629463846064B9847B5
:1002F0000346326801323260F3E700BFE0140020A9
:10030000CD01010809660208750201082DE9F047D0
:1003100084B081460E469046002303930146274849
:10032000274B984727494846274B984700282DD008
:1003300026494846244B984700282DD14246244957
:100340002448254B984706EB860676000024DFF804
:10035000B4A0224D224F0120D0470134CDF80080B7
:1003600003ABFF2229464846B847D0B91D49284665
:10037000154B9847E8B129461B48114B9847A642B0
:10038000E9DA494619480E4B98470FE042461049B2
:100390001748114B9847D6E749461648084B9847E7
:1003A000D1E7154A49461548054B984704B0BDE8C2
:1003B000F08749461248024B9847F7E7E46E020877
:1003C000BD520108106F020809660208386F020862
:1003D0001C6F0208446F020875020108E014002037
:1003E000DDA10108186F0208846F02088C6F0208F3
:1003F000246F0208586F0208786F020868700208BC
:10040000F4700208854A01088AB110B44C1E1144E8
:100410000139084A14F8013F4340DBB252F8233057
:1004200083EA10208C42F5D1C04310BC7047C04312
:10043000704700BF0C71020838B505460C1F2246F4
:1004400001464FF0FF30054B98472B19020E2A55F5
:10045000020C5A70020A9A70D87038BD090401085B
:1004600038B50546054C4FF0FF312046044B984700
:10047000044B1D702046044B984738BDE016002001
:10048000C14B0108E41600203D4C010838B5084B6B
:100490001C780CB9204638BD064D4FF0FF31284678
:1004A000054B9847024B1C782846044B9847F1E7C8
:1004B000E4160020E0160020C14B01083D4C010865
:1004C00010B5044601460C480C4B984758B10C4BEC
:1004D00001221A6021460B48084B984738B90A4B4D
:1004E00000221A6010BD064B00221A60F2E7064B8C
:1004F00001221A60F6E700BF106F0208150201081A
:10050000F01A0020386F0208F41A00202DE9F04F8D
:10051000BFB004460220AA4B98478CB12546002460
:10052000DFF85883A74FA84E98F800202146384698
:10053000B04701344FF47A70A44B9847AC42F3D1E2
:1005400003209F4B9847002308931C46DFF830B3E5
:100550009D4E0FE1002D4FF0FF30C8BF0020002D51
:1005600040F3C9809A4D224629469A489A4B9847AB
:100570009A4B294605F1120011F8012B03F8012FBF
:100580008142F9D1924D224629469548924B98478F
:1005900029469448B047944B294605F1120011F8BA
:1005A000012B03F8012F8142F9D1894D22462946BA
:1005B0008E48894B984729468D48B0478D4B294630
:1005C00005F1140011F8012B03F8012F8142F9D134
:1005D000224605218848894DA8472246052188489A
:1005E000A847DFF8A0A223460AAA51468548864DAF
:1005F000A847DFF8889299F8003003EB43012346BF
:100600000AAA824850F821108148A847DFF878826A
:1006100023460AAA41467F48A8477F4F23460AAA95
:1006200039467E48A84723460AAA51467C48A8472F
:1006300099F8003003EB430123460AAA794850F8A1
:1006400021107948A84723460AAA41467748A84777
:1006500023460AAA39467648A84705460A9900293A
:1006600078D1744E002231467348744CA047002262
:1006700031467348A04700223C215F485F4CA047A9
:10068000002205215E48A04729466E484E4B9847F8
:10069000002D40F03D836C484B4B98470A246B4E2D
:1006A000DFF8AC81484F002108A8B047B0F1FF3F08
:1006B00040F0EC80013C14F1020F00F02D83089B08
:1006C00040F20B22934200F00483B3F5147F00F054
:1006D0000983B3F5027F00F00E8321465C483A4C53
:1006E000A04708995B48A0476420384B98476FF0B3
:1006F0000203079325E007461AE029465648B0470B
:100700005648B0476420314B984736E02946524856
:10071000B0475348B04764202C4B98472DE02946FA
:100720004D48294CA0474F48A0476420274B984785
:100730004D48254CA04739464248A0474FF0FF336B
:100740000793079BB3FA83F040093FB0BDE8F08FF1
:100750000746EDE74548B047224645494548374BEF
:100760009847054643F69820184B98470A9B002B5C
:100770003FF477AF0A9424946425214624A8D847EF
:10078000B0F1FF3F7FF4E6AE013DB5F1FF3FDFD0B2
:10079000249B40F20B229342AFD0B3F5147FB5D027
:1007A0000746B3F5027FBAD029462B48064CA0472E
:1007B00024993148A0476420044B9847B8E700BF0C
:1007C00061040108546B0208BD520108854A010802
:1007D000E0150020286C0208CD010108371C00201C
:1007E000346C0208406C02084B1C0020546C020858
:1007F000606C0208BF1B0020106F02080D03010887
:10080000386F0208706C0208C1020108A86F020864
:100810007C6C0208906C0208A06C0208A86C0208AC
:10082000B86C020808700208C46C0208CC6C02089C
:10083000DC6C020864D102082C6D02087502010804
:10084000446D0208086C02085C6D020811A30108DF
:10085000706D0208A06D0208686B0208706B0208D8
:10086000946B0208A86B0208EC6B0208EC6C02089F
:1008700048E102081C6D0208CC6B02080C00001055
:1008800075A20108A0750208846C02080795002C67
:1008900040F3468208AF002400943B4606221146EE
:1008A0002046DFF814A3D047224639462046DFF819
:1008B0000C93C84704940397029401940126009670
:1008C000B34B324644F248312046DFF8F482C04749
:1008D00000943B46062211463046D0472246394610
:1008E0003046C84704940397029401940096A84B9D
:1008F000324644F248313046C0470DF1F80908232A
:1009000049F8D43DDFF8BC820194009743464A463B
:10091000314640F2F230DFF8B0A2D04701940097A0
:1009200043464A46314640F21E50D047DFF89C828B
:100930000194009743464A46314640F2FE30D04784
:100940000194009743464A46314640F22A50D04728
:10095000DFF87CB2DFF87C8298F8003003EB4303C9
:100960008C4800EB83039868019400975B464A46E5
:100970003146D04798F8003003EB4303864A02EB38
:1009800083039868019400975B464A463146D047F6
:1009900004940397029401940096334640F2F23295
:1009A00040F2E93120467D4DA84705940497DFF8D1
:1009B0002892B9F80030039302960196744B009385
:1009C0002346774A40F2E9312046DFF810B2D84793
:1009D000744A07CA0DF1280C8CE807000DF1900A43
:1009E000714A92E803008AE8030001940097634685
:1009F000324640F2E93120466C4DA84701940097F9
:100A00005346324640F2E9312046694DA8470494E6
:100A10000397029401940096334640F2FE3240F26E
:100A20001A4120465D4DA84705940497B9F8003057
:100A3000039302960196564B00932346584A40F280
:100A40001A412046D8470DF1280C5A490FC9ACE885
:100A500007008CF80030544A92E803008AE803004B
:100A6000019400970DF1280C6346324640F21A417A
:100A700020464E4DA847019400975346324640F217
:100A80001A4120464A4DA84798F8001001FA06F38B
:100A90005A18404800EB820292680B4400EB830333
:100AA00059680494039702940194009623462046C3
:100AB0003A4DA84798F8003003EB43033548054604
:100AC00000EB8303596805940497B9F80030039349
:100AD000029601962E4B00932346314A2046D84772
:100AE0000DF1280C33490FC9ACE807008CF8003031
:100AF00098F8003003EB430305EB83035968019436
:100B000000970DF1280C634632462046274DA84732
:100B100004940397029401940096334640F21E52C7
:100B200040F2E93130461D4DA84705940497B9F8C5
:100B30000030039302960196154B00932346184A02
:100B400040F2E9313046D847164A07CA0DF1280C61
:100B50008CE80700144A92E803008AE80300019435
:100B600000976346324640F2E93130460F4DA847C0
:100B7000019400975346324640F2E93130460C4D1D
:100B8000A84704940397029401940096334627E003
:100B900040420F00A86F02080870020809A501086A
:100BA00020A10700C46D0208A06C020879A5010805
:100BB0004DA60108D06D0208F9A3010851A401084F
:100BC00095A4010800000010A9A601080400001067
:100BD000080000100C0000105E1C0020D5A50108C4
:100BE00040F22A5240F21A4130464F4DA847059430
:100BF0000497B9F800300393029601964B4B00938B
:100C000023464B4A40F21A413046D8470DF1280C92
:100C100048490FC9ACE807008CF80030464A92E812
:100C200003008AE80300019400970AAA134632469B
:100C300040F21A413046414DA8470194009753466F
:100C4000324640F21A4130463D4DA84798F8001010
:100C500001FA06F35A183B4800EB820292680B44F3
:100C600000EB83035968049403970294019400965F
:100C7000234630462C4DA84798F8003003EB430339
:100C80003048054600EB8303596805940497B9F88A
:100C90000030039302960196244B00932346244A86
:100CA0003046D8470DF1280C22490FC9ACE807009F
:100CB0008CF8003098F8003003EB430305EB830316
:100CC0005968019400970AAB324630461B4DA8473D
:100CD00037E521464046B8471B48B84764201B4BC0
:100CE0009847E0E421464046B8471948B847642091
:100CF000164B9847D7E421461648174CA04717488B
:100D0000A0476420114B98476FF00103079318E543
:100D10004FF0FF33079314E56FF00303079310E5DB
:100D20006FF0030307930CE509A5010840420F008B
:100D300020A10700D06D0208A06C020879A5010867
:100D40004DA6010808700208806D0208854A010856
:100D5000946B0208706D0208BD520108A86B02086E
:100D60002DE9F04F93B04FF0000BDFF818A2CDF84B
:100D700018B000F01BBC6E4B9847009023236D4ABF
:100D80006D496E486E4CA047694B9847002844D087
:100D90006C4B9847009009AB0022022108466A4C30
:100DA000A0476A4B9860002874DB684C41F62C33EE
:100DB000A38001466648624B98474FF00203ADF8A6
:100DC000283000230B93A088624B9847ADF82A0087
:100DD000A4685C4B9847009009AB20220AA92046E2
:100DE0005D4CA04700285ADB584B01221A601DE0D9
:100DF00009995A48524B9847C6E712AC54F8241D3B
:100E000057484F4B9847574B9D684E4B9847024663
:100E100021462846544B9847B6E7454B98470090E3
:100E20002323444A44494548454CA047404B9847F2
:100E3000002844D0434B9847009009AB0022022180
:100E40000846414CA047494B9860002845DB474C79
:100E500044F24923A38001463D48394B98474FF05F
:100E60000203ADF8283000230B93A088394B984734
:100E7000ADF82A00A468334B9847009009AB2022B4
:100E80000AA92046344CA04700282BDB374B01220F
:100E90001A601DE009993148294B9847C6E712AC02
:100EA00054F8241D2E48264B9847284B9D68254B07
:100EB00098470246214628462B4B9847B6E71C4BDD
:100EC0009847009023231B4A1B491C481C4CA047F1
:100ED00000230A93264D274C1FE009991F48184B01
:100EE0009847F5E712AC54F8241D1D48144B984759
:100EF0001E4B9D68134B98470246214628461A4BC5
:100F00009847E5E7002109A81B4B98470690002861
:100F10003AD04FF47A70194B98470020A8472368BD
:100F2000002BEFD1164B1B68002BF2D0EAE700BF75
:100F3000691A010828750208E06D0208F86D0208B8
:100F4000BD520108751A010835940108A41C00203F
:100F5000346E020855960108899401081C6E020837
:100F6000446E0208D01C0020E1940108781C002087
:100F7000C1040108F01A0020C1A30108854A010834
:100F8000F41A00207C430020744F754C39682046C9
:100F9000744DA84739687448A847DFF8049299F857
:100FA000003003EB4303714A02EB830358684FF0B0
:100FB000000BCDF804B009AD00953B682246012135
:100FC000DFF8E081C0470146694E3060099A694800
:100FD000694CA0473B6899F8002002EB4202674940
:100FE00001EB82025068CDF804B000955E4A012101
:100FF000C0470146624F3860DFF8AC91099A484615
:10100000A0475B462A46012140F2E930DFF89C8187
:10101000C047316801433160099A5648A0475B4692
:101020002A46012140F2E930C0473968014339605E
:10103000099A4846A0475B462A46012140F21A40D9
:10104000C047316801433160099A4A48A0475B466E
:101050002A46012140F21A40C047396801433960ED
:10106000099A4846A047DAF80090D94508BF4FF0E2
:101070000109DFF83C814F46AEE0424B186800287A
:1010800040F30C81404A414B184413F8011B02F80D
:10109000011B8342F9D101E13A4B1868002840F363
:1010A00013813B4A394B184413F8011B02F8011B0A
:1010B0008342F9D108E1374B1868002840F31D81BD
:1010C000354A324B184413F8011B02F8011B8342C6
:1010D000F9D112E12F4B1868002840F325812F4ADF
:1010E0002A4B184413F8011B02F8011B8342F9D163
:1010F0001AE11A4B1B682A4A127802EB42021B497A
:1011000001EB820250680022019209AE0096144A57
:101110000121244CA047164C2060099A06991548D5
:10112000154DA84700233246012140F2E930DFF88F
:101130007CB0D847216801432160099A0D48A8472F
:1011400000233246012140F21A40D847216801436A
:101150002160099A0748A847C4E100BF08000010B1
:10116000AC1100203904010810120020A86F0208F9
:10117000601C00205C6E0208BD5201080870020865
:10118000641C0020000000101C100020E816002045
:101190008010002004000010E410002048110020FE
:1011A0000C00001005A70108786E02087DA7010851
:1011B00084120020A648A74B9847DAF800000028C0
:1011C00008BF0120A0EB0900B0F5FA7F80F0C381D1
:1011D000C0F5FA70A04B9847A04B9847042840F000
:1011E000C381DAF80090B9F1000F08BF4FF0010990
:1011F000D8F800300133C8F80030994C4FF0FF3177
:101200002046984B9847D8F80020130643EA12630B
:10121000110A01F47F410B43120202F47F021343CF
:10122000914E3360914A13602046914B9847DFF806
:1012300064B2904D2B7803EB43038F4A02EB830398
:1012400058680024009409ABDBF8002031468B4E2F
:10125000B047DBF800202B7803EB4303884901EB10
:1012600083035868009409AB8049B04764207A4BE7
:10127000984712A941F8204D049409AB0393814B80
:101280000293814B01930DAB00930CAB0BAA40F280
:10129000E9307E4CA04700283FF4EFAE002312A9AE
:1012A00041F8203D049309AB0393764B0293764BB0
:1012B00001930DAB00930CAB0BAA40F2E930734CD9
:1012C000A04700283FF4E8AE6420634B9847002312
:1012D00012A941F8203D049309AB03936C4B029390
:1012E000694B01930DAB00930CAB0BAA40F21A4073
:1012F000664CA04700283FF4DEAE002312A941F857
:10130000203D049309AB0393614B02935E4B019321
:101310000DAB00930CAB0BAA40F21A405B4CA047FC
:10132000069000283FF4D6AE64204B4B98474FF010
:10133000FF314B484B4B9847564B1A68002A08DD43
:101340004949554B9C1813F8010B01F8010B9C42BD
:10135000F9D1524B1968524B1B68994206D0DAF802
:101360000030002B08BF01234E490B60454B186825
:10137000002808DD49494A4B1D1813F8014B01F8B4
:10138000014BAB42F9D1484B1968484B1B68994255
:1013900006D0DAF80030002B08BF012344490B6067
:1013A0003B4B1968002908DD3F4C404B5E1813F891
:1013B000015B04F8015BB342F9D1002A08DD2B4C34
:1013C0003C4B1A4413F8015B04F8015B9A42F9D1D3
:1013D000394B1A68394B1B689A4206D0DAF800304C
:1013E000002B08BF0123364A1360002808DD324A6B
:1013F000324B184413F8014B02F8014B8342F9D1E8
:10140000304B1A68304B1B689A4206D0DAF800302D
:10141000002B08BF01232D4A1360002908DD294A4B
:10142000294B194413F8010B02F8010B8B42F9D137
:101430000B480F4B9847DAF80030002B08BF012308
:10144000DB1B41F2873293427FF7B7AE40E000BF2B
:10145000946E0208BD520108854A01088D040108F6
:10146000E0160020C14B0108AC1100201012002032
:101470003D4C01080C000010A86F0208C9A7010824
:101480000870020800000010E816002039A80108C2
:10149000040000100800001018140020881200201A
:1014A0001C1000207412002050130020E4100020B3
:1014B0007C1200207C140020EC1200208010002000
:1014C00078120020B4130020481100208012002060
:1014D000DAF80070002F08BF0127674B1B68002B4C
:1014E0007FF407AE654B1B68002B3FF463AE644B83
:1014F0001B68644A127802EB4202634901EB8202E4
:1015000050680022019209AE0096604A0121604CA9
:10151000A0470146594C2060099A5E485E4DA84795
:1015200000233246012140F2E930DFF8C4B1D84748
:10153000216801432160099A5648A8470023324692
:10154000012140F21A40D847216801432160099ADD
:101550005048A8472EE6009040F212334F4A5049B7
:1015600050484D4CA04737E600204F4B98474F4C12
:10157000042120464E4B98474FF4FA704D4B984744
:10158000042120464C4B984705204C4B9847092492
:10159000484F4B4E404D6420B847069B079A214662
:1015A0003046A847013CB4F1FF3FF4D10221454841
:1015B000414B9847C8203F4B9847022141483C4B3C
:1015C00098471420404B98470790404B18600028DC
:1015D000CDD0364C04212046354FB8473220354D0A
:1015E000A84704212046344EB0476420A847042170
:1015F0002046B8473220A84704212046B04704209F
:101600002E4B9847324B9847324B984700283FF46F
:10161000B2AB314B9847009009AB0022022108463B
:101620002E4CA0472E4B98600028FFF6E1AB2C4CC7
:1016300041F62D33A38001462A48174B98474FF0B7
:101640000203ADF8283000230B93A088264B98475F
:10165000ADF82A00A468204B9847009009AB2022DF
:101660000AA92046214CA0470028FFF6C6AB1C4B18
:1016700001221A60FFF788BB601C0020641C002058
:10168000080000100C000010087002081012002062
:1016900005A70108786E0208BD5201081C750208F2
:1016A000A46E0208F86D0208A1830108000C024034
:1016B00099410108854A01089D410108610401081A
:1016C000C06E0208001002400D050108681C0020D1
:1016D000451A0108691A0108751A010835940108AC
:1016E000D01C0020346E0208559601088994010828
:1016F0007DA7010810B582B0184B01221A60431E65
:10170000DBB2072B1DD8164A137064211548164CFE
:10171000A04764211548A04764211548A047154BF0
:1017200001221A70662300934FF48053124A00215D
:101730001248134CA047011E0EDA12480A4B984774
:101740000AE000904FF45F730F4A10491048064CAE
:10175000A047034B01221A7002B010BDE016002012
:101760000C000010F86A0208BD5201080C6B020858
:10177000206B0208E41600201C000020610D010807
:10178000FD480108346B02080C750208A46E0208BB
:10179000F86D020838B56C4B1A686C4B1B68002B4F
:1017A00008BF01239B1AC72B0FDD0446674B1B683C
:1017B000002B08BF0123644A1360654B9847042837
:1017C00006D00020634B187001E0624B187838BDDA
:1017D0004FF0FF316048614B9847614B1B681A0618
:1017E00042EA1362190A01F47F410A431B0203F41F
:1017F0007F0313435B4A13605B4B1868002810DDBE
:101800005A4A584B184413F8011B02F8011B834233
:10181000F9D15749534A12F8010B01F8010B9A42CA
:10182000F9D1544B1A68494B1B68002B08BF0123A0
:101830009B1AB3F5FA6F10DD012C10D04E4B1A68CD
:10184000424B1B68002B08BF01239B1AB3F5FA6FAC
:1018500036DD022C36D0002511E0022CEED0474BAD
:101860001868002808DD464A464B184413F8011B47
:1018700002F8011B8342F9D10125364B1D70424B02
:101880001A68324B1B68002B08BF01239B1AB3F563
:10189000FA6F2BDD012C2BD03C4B1A682B4B1B68AD
:1018A000002B08BF01239B1AB3F5FA6F38DD022C19
:1018B00038D02948364B9847264B00221A702CE026
:1018C000012C11D02D4B1868002808DD2C4A314B13
:1018D000184413F8011B02F8011B8342F9D11D4B78
:1018E00002221A700125CAE70025C8E7022CD3D0CE
:1018F000294B1868002808DD284A294B184413F89A
:10190000011B02F8011B8342F9D1124B01221A700C
:1019100011481F4B9847002DCED00E4B187856E734
:10192000012CC6D01C4B1868002808DD1B4A1D4B33
:10193000184413F8011B02F8011B8342F9D1054B2F
:1019400002221A70E4E700BFEC1A00207C4300205A
:101950008D040108E81A0020E0160020C14B0108A0
:1019600084120020D41B002008000010181400204E
:101970007C14002074120020781200200000001057
:10198000F81A0020881200207C120020801200200B
:101990003D4C0108EC120020040000105C1B0020EC
:1019A000E41000204811002070B582B000211A48D0
:1019B0001A4B98471A4900201A4B9847184D1A4C51
:1019C0001A4E294601A8A047B0F1FF3F1FD1019947
:1019D00040F20B2399420AD0B1F5147F0BD0B1F538
:1019E000027F0CD012480D4B984700200DE0304686
:1019F0000A4B9847E5E70F48084B9847E1E70E4840
:101A0000064CA0470D48A047002002B070BD0C480E
:101A1000024B98470120F8E70C760208BD520108F6
:101A2000701C0020ADA10108919301081C760208EA
:101A30005C760208946B0208A86B020834760208F0
:101A40007C76020808B5044B98470146034B1860A2
:101A50000348044B984708BDA91901086C1C0020D5
:101A6000F8750208BD520108014B1868704700BFA5
:101A70006C1C002000487047701C0020064A0023A0
:101A8000136093801361054A136093801361044AC5
:101A90001360938013617047D01C0020A41C0020A9
:101AA000781C0020002909DD431E1944002013F88A
:101AB000012F1044C0B28B42F9D17047002070470B
:101AC00070B58EB00D461446022806D01146284641
:101AD0001A4B984720460EB070BD194B9847002806
:101AE000F8D0184B1B68002BF4D00DF11702164BE1
:101AF00003F1200013F8011B02F8011F8342F9D102
:101B0000079B002BE6D00F4B9E68104B9847039025
:101B100005AB02932023019306AB009300232246DA
:101B2000294630460A4DA8470028D3DA00904923B9
:101B3000084A094909480A4DA847CBE7F14C010872
:101B4000691A0108D01C0020DC1C0020751A01084D
:101B500025950108FC760208A0760208F86D0208B7
:101B6000BD5201082DE9F84304460D461646544877
:101B7000544B9847EB78322B4BD0E4B218D9422B18
:101B800058D0502B6BD0402B41D14F484D4B9847EC
:101B900020464E4B98474E4C042120464D4B9847CB
:101BA00032204D4B9847042120464C4B98472EE05D
:101BB000102B29D0302B2AD1454E04213046DFF896
:101BC0001491C8473220444FB84704213046DFF80B
:101BD0000C81C0476420B84704213046C8473220F2
:101BE000B84704213046C0472B79DB093C4A1370C3
:101BF00020463C4B984704213046C8473220B8471E
:101C000004213046C04702E02046374B9847BDE8E4
:101C1000F88331462846354B98472D4C0421204601
:101C20002C4B984764202C4B9847042120462B4B83
:101C30009847ECE72E48234B9847314628462D4BD2
:101C40009847234C04212046224B98474FF4FA70C2
:101C5000214B984704212046204B9847D7E71C4E3C
:101C6000042130461B4B984732201B4B98470421D8
:101C700030461A4B98472B7913F0010F10D06B792F
:101C8000AA7942EA0322EB7943EA02231A4A12684C
:101C90002A7A42EA032229462046184B9847B6E79B
:101CA0006B79AA7942EA0322EB7943EA02232A7A82
:101CB00042EA032229462046114B9847A7E700BF76
:101CC000BC760208BD520108D076020891240108B2
:101CD000000C024099410108854A01089D41010814
:101CE000C832002019240108AD230108352301085A
:101CF000E87602088D2401087C4300204D2001086D
:101D00001D1E01087047704710B582B004460021BF
:101D10006846154B98479DF8003084F8B0329DF81E
:101D2000013084F8B1329DF8023084F8B2329DF867
:101D3000033084F8B3329DF8043084F8B4329DF84F
:101D4000053084F8B53240F2BA212046074B984757
:101D5000A4F8BA024FF42F7221464FF40070044BDE
:101D60009847012002B010BD794301080D470108D2
:101D7000C5AD0108002814DD0D4B5B68834213DB01
:101D800010B50B4B9B68A3EB002000F582234FF4AA
:101D90008072084CA34298BF1846074B9847002012
:101DA00010BD4FF0FF3070474FF0FF30704700BF5D
:101DB00008300020FF0F040001B3010800281DDDDA
:101DC00008B5114BDB6883421BDB0F4B1B69A3EB90
:101DD000002303F5C0000D4A904288BF18464FF417
:101DE000807200F580100A4B98470A4B1B68002B45
:101DF00008BF0123084A1360002008BD4FF0FF30E0
:101E000070474FF0FF30F8E708300020FFFF5F0019
:101E100001B301087C430020002D002070B5064668
:101E2000294B1D6805F140042B46002103F8011BD6
:101E30009C42FBD1F5232B7000236B704023AB70C9
:101E40005123EB7021494B68180E6871180CA8716A
:101E5000180AE8712B7248689042A8BF1046030E1A
:101E60006B72030CAB72030AEB722873184B1B687E
:101E7000002B08BF0123174A13601749174B9847D7
:101E8000A8B905F10D0305F11300154A12F8011B5D
:101E900003F8011B9842F9D105F1150305F11C0067
:101EA000104A12F8011B03F8011B9842F9D13F2197
:101EB00028460D4B984785F83F004022294630467A
:101EC0000A4B984770BD00BF10000010083000207A
:101ED0007C43002004300020042E0020751D0108E2
:101EE000062E00200E2E0020A51A0108C11A010896
:101EF00070B586B004466FF0720303706FF055033F
:101F00004370002104A8294B98479DF81030A37016
:101F10009DF81130E3709DF8123023719DF8133055
:101F200063719DF81430A3719DF81530E371FE21A3
:101F300020461F4B9847A4F8FE001E4D2A69E96809
:101F40001D481E4EB0472379E278A178E0790290CF
:101F5000A0790190607900901948B0472D6905F586
:101F60008015C5F30B03EBB14FF480722146284670
:101F7000144B98470F4B1B6903F58073124A934229
:101F800088BF00230B4AD26845F6EF718A4202D817
:101F900001320849CA60074803610C4B984700208A
:101FA00006B070BD28460A4B9847DDE77943010823
:101FB0000D4701080830002010770208BD520108C3
:101FC0003477020849B40108FFFF5F00091D0108CA
:101FD000F5B5010808B5154B1A68154B1B68002BA1
:101FE00008BF01239B1A41F2873293421DDD104B3B
:101FF0001B68002B08BF01230C4A13604FF40061DB
:102000000C480D4B984700280FDD0C4A0C4B03F190
:10201000F50013F8011B02F8011F8342F9D10948AA
:10202000002380F8FD30084B984708BD002D0020A4
:102030007C430020FC2400202D2201080B2D0020D1
:1020400001250020042D0020F11E010870B5054671
:1020500016462F4B1C6804F586712346002203F8B0
:10206000012B9942FBD140212A482B4B9847F5235D
:102070002370012363700C23A3705123E370274B5B
:102080001B68002B08BF0123254A1360254AD3682B
:10209000190E6171190CA171190AE1712372D068CE
:1020A000B042A8BF3046030E6372030CA372030A4A
:1020B000E37220731C491D4B9847D0B904F10D03FE
:1020C00004F113001A4A12F8011B03F8011B8342A2
:1020D000F9D104F11402174B03F1F50013F8011BB9
:1020E00002F8011F8342F9D10F4B93F8FD3084F8B9
:1020F0000A3140F20B1120460F4B984784F80B0130
:102100004FF48672214628460C4B984770BD00BF9D
:102110001000001000140240994101087C43002087
:102120000430002008300020042F0020BD1D0108CD
:10213000062F00200C2F0020A51A0108C11A010843
:102140002F4B1A682F4B1B68002B08BF01239B1ACB
:1021500042F20F72934252DD70B586B00446294BAD
:102160001B68002B08BF0123254A1360002104A827
:10217000254B98479DF81030A3709DF81130E370FF
:102180009DF8123023719DF8133063719DF814305F
:10219000A3719DF81530E3711C4DAA6869681C484D
:1021A0001C4EB0472379E278A178E0790290A079BB
:1021B0000190607900901848B047AD68C5F30B03F3
:1021C000CBB14FF4807221462846144B984705F551
:1021D0008075134A954288BF00250C4A5268B2F5B3
:1021E000806F02D2013209494A60084885600D4B70
:1021F000984706B070BD28460B4B9847E1E77047FB
:10220000FC2C00207C43002079430108083000208A
:1022100014770208BD5201083477020849B4010856
:10222000FF0F0400091D0108F5B501082DE9F0476D
:10223000074600F561710346002203F8012B8B422B
:10224000FBD1F5233B7003237B708423BB703123C8
:10225000FB702D4BD3F840319BB12B4BD3F8480189
:102260002A4B984700B2C0F3072387F8443087F819
:1022700045000024DFF8B4A0DFF8B4904FF0010867
:102280001DE0214CB4F95401214B9847D4F8441176
:10229000204B98470546B4F856011F4B9847014616
:1022A00028461E4B98471E491E4B9847D8E708FA08
:1022B00006F67B5D1E437E550134142C19D025464D
:1022C000002CB8BFE51DED101535634204F007067C
:1022D00003F0070358BF5E4221465046C847C0B2CC
:1022E0000028E4D108FA06F67B5D23EA06067E554F
:1022F000E2E740F2833138460B4B984787F8830377
:102300004FF46170BDE8F087443300208D6002080F
:10231000595C0208F15A0208515C0208015D02088A
:102320000000C842695E0208A51A0108A4600020E6
:1023300017640108F8B505460024184F184E2146C9
:10234000002CB8BFE11D634204F0070203F007034D
:1023500058BF5A4205EBE1014B791341497D41FADF
:1023600002F203F0010302F0010221463846B047B1
:102370000134262CE3D195F8440095F8453043EA22
:102380000020084B9847084A95F88230C3F3C003F1
:10239000C2F84031C2F84801F8BD00BF8C6000208F
:1023A000B1640108515C02084433002070B5064650
:1023B000164B1C68F5232370002262701325A5704C
:1023C0001123E37001232371342161716521A1710F
:1023D0009F21E1711021217263721723A372E272AF
:1023E0002373082363731823A3730F22E2732374E8
:1023F0001923637412212046054B9847A0742A467E
:1024000021463046034B984770BD00BF10000010B6
:10241000A51A0108C11A010838B50546064B1C6803
:102420004FF400612046054B9847021E03DD21460C
:102430002846034B984738BD100000102D22010894
:10244000C11A010808B50D4B1B68002B08BF0123FA
:102450000B4A12689B1AB3F5FA7F09D3074B1B6826
:10246000002B08BF0123064A1360064B1B7803B9F3
:1024700008BD0020044B9847FAE700BF7C430020CA
:10248000C4320020C832002019240108704700001F
:1024900038B505460F4B1C6804F5827123460022AF
:1024A00003F8012B9942FBD1F523237001236370BC
:1024B0000423A3704123E37040F203112046064B2E
:1024C000984784F803014FF4827221462846034B53
:1024D000984738BD10000010A51A0108C11A01085C
:1024E0009F2805D10B78002B024808BF00207047B9
:1024F00000207047300009060023136041F21703E3
:10250000984245D011D9B0F5C05F4BD02BD8B0F56B
:10251000A05F43D0B0F5B05F42D041F218039842BB
:102520003AD0264B0B600020704741F205039842D9
:1025300026D00AD941F2070398423DD024D341F274
:1025400016039842EDD1052207E0B0F5805F31D047
:1025500041F201039842E4D1012200230B601848A4
:1025600000EBC2007047B0F5005F1FD0B0F5085F08
:102570001ED0B0F5D05FD4D1124B13600B22ECE724
:10258000114B13600222E8E7104B13600322E4E7CB
:102590000F4B13600622E0E70722DEE70822DCE7A4
:1025A0000922DAE70B4B13600A22D6E70C22D4E7A4
:1025B0000D22D2E70022D0E70422CEE70000020677
:1025C0006877020800330020D8320020DC32002077
:1025D000E0320020E432002038B50D46144641F2C6
:1025E0008E2303FB00F3C0F5FF407F3093FBF0F038
:1025F000024B984728602060012038BD515C0208DA
:1026000070B50D461646074B98474FF08B41064B69
:102610009847064C0649A0470649A0473060286005
:10262000012070BD595C0208015D0208695E020864
:1026300000FEFF460000F042F8B50F461646104C6B
:10264000A0474FF08B410F4B98470F4D0F49A847BC
:102650000F49A84738604FF081410E4B98470E4B09
:10266000984705A3D3E900230C4DA8470C4B984786
:10267000A04730600120F8BD2D431CEBE2365A3FE5
:10268000595C0208015D0208695E020800FEFF460F
:102690000000F042ED5A0208B1540208B557020892
:1026A000955A0208F8B50E46154641F28E2404FBF1
:1026B00000F4C0F5FF407F3094FBF0F420461E4B41
:1026C000984730601D4B9C4231D8B4F5EC7F30D335
:1026D00040F277514FF42F730022194E06EBC300DE
:1026E0004068844238BF1A46844228BF19465318AE
:1026F00003EBD3735B109A4201DA9942EEDC104B84
:1027000053F8326003EBC202526853F83100871B62
:10271000101B00FB07F003EBC1014B68D21AB0FBA2
:10272000F2F03044074B984728600120F8BD064876
:10273000F8E740F2E730F5E7515C02086BC90100A9
:1027400018A40208595C020870FEFFFFF8B50E4697
:10275000154641F28E2404FB00F4C0F5FF407F30A3
:1027600094FBF0F420461E4B984730601D4B9C4272
:1027700031D8B4F5EC7F30D340F277514FF42F735A
:102780000022194E06EBC3004068844238BF1A4647
:10279000844228BF1946531803EBD3735B109A4247
:1027A00001DA9942EEDC104B53F8326003EBC202BF
:1027B000526853F83100871B101B00FB07F003EB36
:1027C000C1014B68D21AB0FBF2F03044074B984776
:1027D00028600120F8BD0648F8E740F2E730F5E749
:1027E000515C02086BC9010058780208595C020864
:1027F00070FEFFFF70B50D461646094B9847094914
:10280000094B9847094C0A49A0470A49A047014685
:10281000094B98470949A04730602860012070BDE6
:10282000595C02080000C045015D0208695E0208AB
:1028300000FEFF460000C842F15A02080000204195
:10284000F8B50F461646124CA0474FF08B41114B7E
:102850009847114D1149A8471149A84738604FF0D2
:102860008141104B9847104B984707A3D3E90023A9
:102870000E4DA84700220E4B0E4DA8470E4B984711
:10288000A04730600120F8BD75931804560EE13F53
:10289000595C0208015D0208695E020800FEFF46FD
:1028A0000000F042ED5A0208B1540208B557020880
:1028B0000000244061550208955A02082DE9F84F9E
:1028C0001C481D4B98471D4F1D4E06F59A69DFF8B1
:1028D00078B0DFF864A019E01A48D04712E084F815
:1028E000252084F824800023A3622B68A364EB686E
:1028F0006364E3632364B5F91230A4F84C30AB8A07
:10290000A4F84E300C3758364E4511D03A68BD68A1
:102910002B68002BE0D0344632602A7C95F8118079
:10292000531EDBB20F2BDAD95846D0471022D6E718
:10293000BDE8F88FF4770208BD520108E0CF020825
:102940004433002008780208147802089E4B1A6865
:102950009E4B1B68002B08BF01239B1A282B40F3BA
:1029600081832DE9F0438DB0984B1B68002B08BF85
:102970000123954A1360964B1878052817D9831FB1
:10298000DBB2052B40F23881A0F10C03DBB2012B46
:1029900040F256828E4B1B780133DBB20D2B40F296
:1029A0005E838B4B00221A700DB0BDE8F0830A22C3
:1029B0000DF12E01874B9847854B1C78BDF82E00F2
:1029C000854A582303FB04239D6C002D54D000B28C
:1029D000814A582303FB042393F825C0BCF1010F5F
:1029E0001DD0582303FB04239F6A002F4ED0BCF157
:1029F000000F0DD0582303FB042302332C2101FBCD
:102A000004CC023202EB4C0C23F8020F6345FBD1DD
:102A1000714A582303FB042301229A62DA6286B2C8
:102A20006D4B582101FB043103AA5431A8470028FB
:102A300000F0AD80039D684A582303FB0423294618
:102A4000186B664B984750B9634A582303FB04231D
:102A5000596B2846614B9847002800F092805E4AE7
:102A6000582303FB04235A6CDA635B4B582202FBA6
:102A70000434A4F850608DE700905E23584A594909
:102A800059485A4CA0475A48A04783E7524A58230E
:102A900003FB0423DB6A2C2101FB043102EB41021E
:102AA00090800133E046634526DA4B49582202FB09
:102AB0000412D362484A582303FB042393F82430BA
:102AC0000BBB582303FB0423B3F90400BCF1010F33
:102AD0000EDD582303FB042304332C2101FB04C126
:102AE000023202EB410133F9022F10449942FAD12C
:102AF000B0FBFCF000B292E7374A582303FB0423F3
:102B00000022DA62D6E7BCF1000F0DD0324B58221A
:102B100002FB0432023203AB03EB4C0032F8021F1B
:102B200023F8021B8342F9D103A800EB4C0608F1FD
:102B3000FF3900E00230B94511DD0137B845F9DD54
:102B4000831C864633F9021BB0F900209142C4BFB2
:102B5000AEF8001023F8022CB342F3D1EAE74FEAB3
:102B60005C0C0CAB03EB4C0333F9260C0CAB03EB06
:102B70004C0C3CF9243C184400EBD07040F34F005F
:102B80004DE7154A582303FB0423DD636DE7124A22
:102B9000582303FB04235A6CDA63DFF84490DFF810
:102BA0004480114F009677234A46414638460F4DE0
:102BB000A84703980F4B9847CDE9000178234A4670
:102BC00041463846A84750E7403300207C43002068
:102BD0003F330020A56501084433002051600208FE
:102BE000D8CF020828780208F86D0208BD52010803
:102BF00038780208B15402080A220DF12E01063875
:102C0000854B9847854B1C78BDF82E00844A582385
:102C100003FB04239D6C002D54D000B2804A58233E
:102C200003FB042393F825C0BCF1010F1DD05823EA
:102C300003FB04239F6A002F4ED0BCF1000F0DD080
:102C4000582303FB042302332C2101FB04CC023262
:102C500002EB4C0C23F8020F6345FBD1704A58235A
:102C600003FB042301229A62DA6286B26C4B58217C
:102C700001FB043103AA5431A847002800F0AE80BC
:102C8000039D674A582303FB04232946186B654BB1
:102C9000984750B9624A582303FB0423596B2846CE
:102CA000604B9847002800F093805D4A582303FB4F
:102CB00004235A6CDA635A4B582202FB0434A4F8FA
:102CC000506067E600905E23574A58495848594C6F
:102CD000A0475948A0475DE6514A582303FB042307
:102CE000DB6A2C2101FB043102EB410290800133AD
:102CF000E046634527DA4A49582202FB0412D362B0
:102D0000474A582303FB042393F8243013BB58236A
:102D100003FB0423B3F90420BCF1010F0FDD40498C
:102D2000582303FB041304332C2000FB04C002319E
:102D300001EB400033F9021F0A448342FAD1B2FB8F
:102D4000FCF210B291E7364A582303FB0423002219
:102D5000DA62D5E7BCF1000F0DD0314B582202FBEF
:102D60000432023203AB03EB4C0032F8021F23F8AB
:102D7000021B8342F9D103A800EB4C0608F1FF398E
:102D80000CE033F9021BB0F900209142C4BFAEF849
:102D9000001023F8022CB342F3D10230B94505DD0F
:102DA0000137B845F9DD831C8646EAE74FEA5C0C3B
:102DB0000CAB03EB4C0333F9260C0CAB03EB4C0CC4
:102DC0003CF9243C184400EBD07040F34F004CE732
:102DD000134A582303FB0423DD636CE7104A58238E
:102DE00003FB04235A6CDA63DFF83C90DFF83C8085
:102DF0000F4F009677234A46414638460D4DA84767
:102E000003980E4B9847CDE9000178234A46414686
:102E10003846A8474FE700BF316601083F3300201E
:102E20004433002051600208D8CF020828780208F5
:102E3000F86D0208BD52010838780208B154020842
:102E40000A220DF12E010C38874B9847874B1C78CE
:102E5000BDF82E00864A582303FB04239D6C002DE9
:102E600054D000B2824A582303FB042393F825C0B0
:102E7000BCF1010F1DD0582303FB04239F6A002FD0
:102E80004ED0BCF1000F0DD0582303FB04230233B6
:102E90002C2101FB04CC023202EB4C0223F8020F7E
:102EA0009342FBD1724A582303FB042301229A6206
:102EB000DA6286B26E4B582101FB043103AA543109
:102EC000A847002800F0AE80039D694A582303FB01
:102ED00004232946186B674B984750B9644A582316
:102EE00003FB0423596B2846624B9847002800F0E7
:102EF00093805F4A582303FB04235A6CDA635C4BCC
:102F0000582202FB0434A4F8506043E500905E238D
:102F1000594A5A495A485B4CA0475B48A04739E593
:102F2000534A582303FB0423DB6A2C2101FB0431A1
:102F300002EB410290800133E046634527DA4C49B9
:102F4000582202FB0412D362494A582303FB04238C
:102F500093F8243013BB582303FB0423B3F9042054
:102F6000BCF1010F0FDD4249582303FB0413043366
:102F70002C2000FB04C0023101EB400033F9021F9A
:102F80000A448342FAD1B2FBFCF210B291E7384A0C
:102F9000582303FB04230022DA62D5E7BCF1000FBB
:102FA0000DD0334B582202FB0432023203AB03EB49
:102FB0004C0032F8021F23F8021B8342F9D103A808
:102FC00000EB4C0608F1FF390CE033F9021BB0F9B5
:102FD00000209142C4BFAEF8001023F8022CB34287
:102FE000F3D10230B94505DD0137B845F9DD831C61
:102FF0008646EAE74FEA5C0C0CAB03EB4C0333F973
:10300000260C0CAB03EB4C0C3CF9243C184400EBB5
:10301000D07040F34F004CE7154A582303FB0423BC
:10302000DD636CE7124A582303FB04235A6CDA630E
:10303000DFF84490DFF84480114F009677234A462A
:10304000414638460F4DA8470398104B9847CDE9A5
:10305000000178234A4641463846A8474FE7034ACD
:103060001370A1E4704700BFC16601083F33002020
:103070004433002051600208D8CF020828780208A3
:10308000F86D0208BD52010838780208B1540208F0
:103090007047000038B5104BD3F84031C3B90E4C1F
:1030A000B4F954010D4B9847D4F844110C4B984790
:1030B0000546B4F856010B4B9847014628460A4B83
:1030C00098470A490A4B98470A4B984780B238BD3F
:1030D000014BD3F84801F7E744330020595C02085C
:1030E000F15A0208515C0208015D02080000C84262
:1030F000695E0208D960020838B5104BD3F848322F
:10310000C3B90E4CB4F95C020D4B9847D4F84C127D
:103110000C4B98470546B4F85E020B4B98470146A6
:1031200028460A4B98470A490A4B98470A4B984742
:1031300000B238BD014BD3F85002F7E7443300200A
:10314000595C0208F15A0208515C0208015D02084C
:103150000000C842695E02088D60020838B5104B55
:10316000D3F8A032C3B90E4CB4F9B4020D4B984752
:10317000D4F8A4120C4B98470546B4F8B6020B4B92
:103180009847014628460A4B98470A490A4B9847F0
:103190000A4B984700B238BD014BD3F8A802F7E7B5
:1031A00044330020595C0208F15A0208515C0208BD
:1031B000015D02080000C842695E02088D600208D5
:1031C000F0B40F4B03F59A67012000220D490E4E13
:1031D0000025642483F8250083F824009A621A608D
:1031E0005964D96319649A649A631E635D63A3F892
:1031F0004C20A3F84E405833BB42EBD1F0BC704793
:103200004433002000FF7F4700FE7F4738B51A4C4B
:103210000A2221460020194B984708212046184BC6
:10322000984705460A212046164B984729461648D6
:10323000164B98472268164B9A4219D01548134BE3
:1032400098470D4C124B2360052323715E23637155
:103250000123A37108212046094B984720810A22A7
:10326000214600200C4B98470C480D4B984738BD21
:103270002389AB42E2D1F7E720390020B5AC010841
:103280000D4701089D47010890D10208BD52010871
:103290002E33E18F9CD10208C5AD010830390020E2
:1032A000E135010870B52C4B1B7833B12A4B1978E6
:1032B000012945D0042933D070BD284E2321304642
:1032C000274DA847044624213046A847400040EA3D
:1032D000840044B225213046A8472043C0B20428C8
:1032E00005D0072818D01C4B00221A700CE01A4B8E
:1032F00001221A7001211B4BD9711B481B4B9847A7
:10330000154B18781A4B98471A4B1B68002B08BFAF
:103310000123194A1360C9E70F4B07221A70E9E726
:10332000154B1A68134B1B68002B08BF01239B1A0F
:10333000632BC1DD0F4B1A6847F230539A42BBD959
:103340000C4B1B68002B08BF01230B4A13600B4872
:10335000064B9847B0E700BF1C3800208C60002067
:10336000D9630108203900207CD10208BD52010830
:10337000F51601087C4300201438002070D10208A3
:103380002DE9F843464D2846DFF83081C047064610
:103390002846C047A5F58274000240EA262025F899
:1033A000F80C28463F4EB04707462846B047000273
:1033B00040EA272025F8F00C05F11C0738463A4D65
:1033C000A84781463846A847000240EA2920A4F8C9
:1033D000780004F589773846C04781463846C047AB
:1033E000000240EA2920A4F842003846B04780464F
:1033F0003846B047000240EA2820A4F84A0004F505
:1034000010763046A84707463046A847000240EAF3
:103410002720A4F8AE002548254B9847F8B9E18C41
:103420000A0242EA1122A4F80C21618D0A0242EA42
:103430001122A4F80E21218D0A0242EA1122A4F8D9
:1034400010211C481A4B984790B11B4B0022A3F83F
:103450001A21A3F81C21A3F81E21BDE8F883164BFE
:103460000022A3F80C21A3F80E21A3F81021E8E70D
:10347000114BB3F85C100A0242EA1122A3F81A2198
:10348000B3F860100A0242EA1122A3F81C21B3F833
:103490005E100A0242EA1122A3F81E21DDE700BFF6
:1034A000343A0020DD350108E13E0108F03E0020FD
:1034B000CD3B01080C40002030390020D9350108EF
:1034C00070B51F4C20461F4DA8470646A01CA847B4
:1034D000014630461C4B98471C4B984724F8140C67
:1034E0001B4B984720811B4B9847E08204F120003A
:1034F000194B9847012816D0A4F58074B4F8981099
:103500000B0243EA1123A4F80A311448124B9847DE
:1035100001280ED0124AB2F8CE100B0243EA112352
:10352000A2F8183170BD0E4B4FF69C72A3F80A2119
:10353000EBE70B4B4FF69C72A3F81821F2E700BFA4
:10354000303A0020B13A0108BD3701089530010832
:10355000F93001085D310108813D0108703B002010
:103560003039002010B5114C2368114B9847114B8E
:103570009847114B9847114B9847114B1A6823688D
:10358000002B08BF01239B1AB3F5FA7F0DDB2368DC
:10359000002B08BF01230A4A13600A480A4B9847C8
:1035A0000A4B98470A480B4B984710BD7C430020B4
:1035B000C1340108093F010881330108A53201081F
:1035C000183800203039002011370108D51F0108B4
:1035D000203800204121010800887047408870474A
:1035E00010B504460C480D4B984720460C4B40F84C
:1035F000D83F0C4B98470C4BB3F8053003EB8303D3
:1036000003EB83039B0084F8FC300A2384F8DC304E
:103610000B2384F8DD3010BD44D20208BD520108EE
:1036200058D202089D3A01082039002010B50446FE
:10363000E4300D4B984701460C480D4B984704F178
:10364000D8000C4B984794F8E030012B03D194F844
:10365000DF30042B03D00848054B984710BD0748BE
:10366000034B9847FAE700BFB53A0108E8D10208D2
:10367000BD520108D538010834D202081CD2020814
:10368000F8B51C4D162128461B4CA04706461721AD
:103690002846A047074618212846A047800040EA50
:1036A00047003043C0B2154B1B7883420CD0144BFB
:1036B0001B784BB9134B1B68002B08BF0123124A20
:1036C00013600F4B01221A700F4B19680D4B1B68CA
:1036D000002B08BF01230D4A14794FF47A7202FBC4
:1036E00004F25B1A9A42BCBF044B1870034B187863
:1036F000F8BD00BF8C600020D96301082A39002082
:103700002B3900207C4300202C3900202039002058
:1037100038B504460748084DA8472046074B984748
:103720002046074B9847014684F899050548A84765
:1037300038BD00BFB8D10208BD5201082D360108BE
:1037400081360108D8D10208144B0022C3F82C217D
:10375000C3F83021012083F820011149C3F8281152
:10376000C3F84C22C3F8502283F84002C3F8481231
:10377000C3F86C23C3F8702383F86003C3F878247C
:10378000C3F86813C3F88824C3F88C2483F87C0436
:10379000C3F89425C3F88414704700BF3039002063
:1037A000445F00207047704743888B4203D9838869
:1037B0008B4298BF018000207047000070B50E4614
:1037C0000E4C014620460E4DA8473146A01DA84785
:1037D00020880C4B1B88834204D10B4B1A88E3884A
:1037E0009A4209D0074B1880044BD988064B1980A0
:1037F00000231A46054CA04770BD00BFD83E0020EC
:10380000A9370108D43E0020D63E002051B001085F
:1038100070B5044609480A4B98470A4E012221799F
:103820003046094DA847002261793046A847074B2A
:103830001B68002B08BF0123A36170BD44D302089D
:10384000BD520108A46000204D6401087C430020A3
:1038500070B5044609480A4B98470A4E0022217960
:103860003046094DA847012261793046A847074BE9
:103870001B68002B08BF0123E36170BD50D3020811
:10388000BD520108A46000204D6401087C43002063
:1038900010B504460548064B9847A08A41F2931399
:1038A000984294BF0020012010BD00BF1CD3020825
:1038B000BD52010810B504460448054B9847A08A3C
:1038C000B0F5FA7F8CBF0020012010BD30D3020874
:1038D000BD52010870B582B00446C179828A8569FB
:1038E000614B1B68002B08BF0123C6695E48006856
:1038F000002808BF0120801B00905B1B5B485C4DCB
:10390000A847E379062B3FD8DFE803F004133940DA
:10391000A276A8002046574B984710B90223E371BE
:1039200032E02046544B98470123E371534A136019
:103930002AE02046524B9847F0B9A2694A4B1B68CF
:10394000002B08BF01239B1A49F63F4293421BDD1F
:1039500020464C4B98472046494B984794F82030D6
:10396000002814BF1846581C84F820000623E37171
:1039700045483F4B984707E00023E37104E02046A9
:10398000404B98470323E37102B070BD2046394B8A
:10399000984790B1394B1B682BB92046364B984756
:1039A0000523E371F0E72046364B98470023A371C7
:1039B0000422E27184F82030E6E7E2692A4B1B68B2
:1039C000002B08BF01239B1A49F63F429342DBDDDF
:1039D00020462C4B98472046264B984794F8203099
:1039E000002814BF1846581C84F820000623E371F1
:1039F00026481F4B9847C7E72046214B9847F0B908
:103A0000A269194B1B68002B08BF01239B1A49F6BA
:103A10003F429342B8DD20461A4B98472046184B48
:103A2000984794F82030002814BF1846581C84F892
:103A300020000623E37116480D4B9847A4E7204663
:103A4000104B98470323E3710C4B01221A609BE74C
:103A5000012323720F48064B984795E701232372F1
:103A60000D48034B98478FE77C43002060D2020843
:103A7000BD520108B538010811380108E43E0020A4
:103A80009138010851380108B0D20208C4D20208A6
:103A9000D8D20208F0D2020808D302080023037229
:103AA0008371C37180F8213080F8203083827047A1
:103AB0000088704740687047A9B110B44B1E9BB294
:103AC0000133C1184FF6FF73094C10F8012B82EA3D
:103AD000232234F8122082EA03239BB28842F4D1D5
:103AE000184610BC70474FF6FF731846704700BF6A
:103AF0006CD30208324B1A69324B1B68002B08BF8B
:103B000001239B1AC72B52DD2D4BD3F82C212D4BB3
:103B10001B68002B08BF01239B1AC72B49DD2A4BCA
:103B20001A69284B1B68002B08BF01239B1AC72B5F
:103B300041DD254BD3F83021224B1B68002B08BFF9
:103B400001239B1AC72B38DD1D4BDA681D4B1B6800
:103B5000002B08BF01239B1AC72B22DD184BD3F87B
:103B60002821184B1B68002B08BF01239B1AC72B69
:103B700019DD154BDA68134B1B68002B08BF0123B6
:103B80009B1AC72B11DD104BD3F82C010D4B1B6872
:103B9000002B08BF0123181AC728D4BF002001201A
:103BA00070470020704700207047002070470020B9
:103BB000704700207047002070470020704700BF0A
:103BC000F03E00207C43002028410020D0F818312E
:103BD000064A1068002808BF0120C01A47F2305377
:103BE0009842D4BF00200120704700BF7C430020D2
:103BF00038B505460C4603780B7003234B70002341
:103C00004B804FF440638B8006212046084B984739
:103C1000030AA371E071074B1B68002B08BF012347
:103C20002B61AB68DB68082120469847012038BD2E
:103C3000B93A01087C43002038B505460C460378A4
:103C40000B70062161704FF49073638020460B4B1C
:103C50009847030AA371E07108212046084B984752
:103C6000AB68DB68082120469847064B1B68002B91
:103C700008BF0123EB60012038BD00BFB93A01083D
:103C80009D4701087C43002038B505460C46037863
:103C90000B70062161704FF4907363802046094BCE
:103CA0009847030AA371E071AB68DB6808212046DE
:103CB0009847054B1B68002B08BF0123EB600120D0
:103CC00038BD00BFB93A01087C4300202DE9F0411E
:103CD00004460E4600F1160500F58B712B460022B6
:103CE00003F8012B8B42FBD10023A382A3681B693D
:103CF0004FF4807128469847074683B2A3826BB37E
:103D0000A17D227891422ED194F81780B8F1030F4B
:103D10002CD1023B99B22846174B9847BFB2E31902
:103D2000C0F307221B7D9A4223D127447B7DC0B27A
:103D3000834202D04FF0040812E0731E04F13401F4
:103D400015F8012B03F8012F8D42F9D10B4B1B689D
:103D5000002B08BF0123C4F8183101E04FF001081F
:103D60004046BDE8F0814FF00208F9E74FF0020845
:103D7000F6E74FF00408F3E7B93A01087C43002066
:103D80008369064A1068002808BF0120C01A47F25C
:103D900030539842D4BF0020012070477C4300205C
:103DA00038B505460C4603780B7003234B704FF46F
:103DB000C8434B804FF480538B8006212046094B2B
:103DC0009847030AA371E071074B1B68002B08BFDB
:103DD00001232B61AB68DB6808212046984701204E
:103DE00038BD00BFB93A01087C43002038B505460C
:103DF0000C4603780B70062161700023A3702046E7
:103E0000084B9847030AA371E071074B1B68002B0E
:103E100008BF01232B61AB68DB6808212046984767
:103E2000012038BDB93A01087C4300202DE9F0415A
:103E300004460E4600F11E0500F58F712B46002248
:103E400003F8012B8B42FBD10023A383A3681B69DA
:103E50004FF4807128469847074683B2A38363B323
:103E6000A17F227891422DD194F81F80B8F1030FE1
:103E70002BD1023B99B22846174B9847BFB2E319A2
:103E8000C0F307221B7F9A4222D127447B7FC0B216
:103E9000834202D04FF0040811E0731E04F1440184
:103EA00015F8012B03F8012F8D42F9D10B4B1B683C
:103EB000002B08BF0123A36101E04FF00108404639
:103EC000BDE8F0814FF00208F9E74FF00208F6E78D
:103ED0004FF00408F3E700BFB93A01087C43002023
:103EE000808A7047064B33221A70342283F81C21D3
:103EF000044B35221A70362283F82021704700BF08
:103F0000F03E00202841002008B5604B1B68062BBE
:103F100008D8DFE803F0041A374E657B99005C4B44
:103F2000984700B908BD5B4B1B685B4A52F82310E9
:103F30005A4A4FF48E7000FB0320594B98470128D2
:103F4000F0D1524B01221A60ECE7514B9847002800
:103F5000E8D0504B1B68504A52F8231018314F4A92
:103F60004FF48E7000FB03204E4B9847032805D07A
:103F70000128D7D1454B00221A60D3E7434B0222D8
:103F80001A60CFE7424B98470028CBD0414B1B68C3
:103F9000414A52F823100831404A4FF48E7000FB1A
:103FA0000320414B98470128BCD1384B03221A60AB
:103FB000B8E7374B98470028B4D0364B1B68364AD1
:103FC00052F823101031354A4FF48E7000FB032055
:103FD000364B98470128A5D12C4B04221A60A1E743
:103FE0002B4B984700289DD02A4B1B6803EBC3003E
:103FF0002F4A52F823102F4B03EB40102E4B9847BB
:1040000001288FD1214B05221A608BE7204B98475E
:10401000002887D01F4B1868254B53F8201000EB61
:10402000C0001031234B03EB4010244B984703286A
:1040300006D001287FF476AF144B04221A6071E792
:10404000124B06221A606DE7114B984700283FF487
:1040500069AF104B1868164B53F8201000EBC000E6
:104060000831144B03EB4010154B984700283FF4E0
:1040700059AF064B00221A60064A1368013303F059
:10408000010348BF5B4213604CE700BFEC3E0020D9
:10409000F53A0108E83E00205CD30208F03E00201B
:1040A000F13B0108CD3C0108893C0108393C01087D
:1040B00064D3020828410020A13D01082D3E0108DB
:1040C000ED3D0108104B0022DA601A6101201870E2
:1040D0000E499960C3F82C21C3F8302183F82001E0
:1040E000C3F828110A4BDA601A611870C3F8182156
:1040F0009960C3F82821C3F82C2183F81C01C3F868
:104100003422C3F82411704728410020445F002066
:10411000F03E0020F0B40023012503260DE0C26824
:1041200006FA07F422EA0402C260C468CA79BA40F7
:104130002243C2600133102B2CD005FA03F20C6825
:10414000A243F7D104685F0006FA07F2D243144095
:104150000460D0F800C00C79BC4044EA0C04046050
:104160000C79013CE4B2012CD9D8846822408260E9
:1041700084684A79BA4022438260426805FA03F4AF
:1041800022EA0402426044688A799A4092B2224349
:104190004260C4E7F0BC70470183704741837047B9
:1041A00010B401F007039B00C90800EB8100016A0D
:1041B0000F249C4021EA04010162016A9A400A43EB
:1041C000026210BC7047000010B4284B9B6803F0DB
:1041D0000C03042B22D0082B23D013B1244B0360F3
:1041E00001E0234B0360214CA368C3F3031321496F
:1041F000CB5CDAB20368D3404360A268C2F3822288
:104200008A5CD2B223FA02F28260A268C2F342321E
:104210008A5CD2B2D340C36010BC7047164B0360B7
:10422000E1E7124B59685A6802F03F0211F4800F1F
:1042300011D05968C1F388110F4BB3FBF2F303FBA4
:1042400001F30A4A5268C2F3014201325200B3FB41
:10425000F2F30360C7E7054B5968C1F38811044BBB
:10426000B3FBF2F303FB01F3EBE700BF00380240BE
:104270000024F400C805001000127A0029B9054A8C
:10428000136B23EA000010637047024A136B184354
:10429000106370470038024029B9054A936B23EA3E
:1042A000000090637047024A936B18439063704715
:1042B0000038024029B9054A136C23EA0000106453
:1042C0007047024A136C184310647047003802406C
:1042D00029B9054A536C23EA000050647047024A2A
:1042E000536C1843506470470038024029B9054A9E
:1042F000136A23EA000010627047024A136A1843E7
:10430000106270470038024029B9054A536A23EA0F
:10431000000050627047024A536A18435062704767
:104320000038024010B586B08DF814008DF81510D5
:104330000D4B9847044628B1022C14BF204600209C
:1043400006B010BD094B9847012302930522019244
:1043500000930023022205A96F20054CA0470446C4
:10436000044B9847E8E700BF255F0108116001088A
:104370003D600108296001082DE9F04387B0074638
:10438000314B1A68314B1B68002B08BF01239B1A65
:10439000B3F5FA7F02DC0AB1002944D006AE00234F
:1043A00006F8013D2A4B98470624DFF8C480DFF861
:1043B000B09001E0013C14D001220292019200234E
:1043C000009331466F20C04705460128F2D10123F2
:1043D000029301930093082249466F20C047051EAF
:1043E000E8DD1C4B9847082D07D029461A481B4B7F
:1043F0009847002007B0BDE8F083194CE17901F03F
:104400000101184B1A68114319601748134B98475C
:1044100008212046154B98470C4B1B68002B08BF02
:104420000123094A13600E4B5A793A701A797A704F
:10443000DA78BA709A7802F03F02FA705A783A71D4
:104440001B787B710120D5E7684300207C43002066
:1044500011600108296001088CD50208BD520108CD
:104460006C43002078430020A0D502089D47010836
:104470003D60010810B588B000228DF81020037847
:104480008DF8163043788DF8153083788DF8143018
:10449000C37863F07F038DF8133003798DF8123001
:1044A00043798DF811308DF81720102107201A4B11
:1044B0009847011E0CDB194B9847044668B1082C3D
:1044C0001CD021461648174B9847002008B010BD55
:1044D0001548144B98470020F8E7144B98470123E0
:1044E00002930522019200930023082204A96F2061
:1044F0000F4CA04704460F4B9847E0E700210720E8
:10450000054B9847011E01DB0120DFE70648054BFC
:1045100098470020DAE700BF25430108255F01081E
:10452000C8D50208BD520108B8D5020811600108BB
:104530003D6001082960010810B582B004460021E1
:104540006846134B984740B19DF801303BB124B108
:1045500000982060BDF80430A38002B010BD202375
:104560008DF8003001238DF801308DF802301223D0
:104570008DF8033057238DF8043000238DF8053073
:104580006846044B98470448044B9847DFE700BF50
:1045900079430108754401086CD50208BD52010831
:1045A000084B1B6813F4803F0BD0074A1368013394
:1045B0001360064B4AF6AA221A60054B4FF0805250
:1045C0005A60704710E000E07C430020003000405B
:1045D00000ED00E000B585B06846144B9847019B9C
:1045E000134AA2FB03235B0A013B124A53600023D8
:1045F0009360114BE02183F82310072313606FF0C1
:1046000004000E4B984745F255500D4B9847032038
:104610000C4B98474FF4FA600B4B98470B4B98475D
:104620000B4B984705B05DF804FB00BFC94101087A
:10463000D34D621010E000E000ED00E0E1DD010884
:1046400001E701080DE7010819E7010825E701085E
:1046500035E70108044B1B681844034A13681B1A0A
:10466000002BFBDB704700BF7C43002008B51B4BD1
:1046700098471B4A1B4B9A420DD2194A111D1A4BDF
:104680005B1A23F003030B44184951F8040B42F85A
:10469000040B9A42F9D1164A164B9A420BD2144A8D
:1046A000111D154B5B1A23F003030B44002142F844
:1046B000041B9A42FBD1114A114B9A60ADF500736D
:1046C00083F309884FF0020282F31488BFF36F8FDF
:1046D0000C4B98470C4B9847FEE700BF95EA010842
:1046E00000000010A40A0010A70A0010F0E502085C
:1046F000000000209D6C0120A06C0120000001083A
:1047000000ED00E0196402089D79010889B110B438
:1047100041180023084C10F8012B82EA132234F8C8
:10472000122082EA03239BB28842F4D1184610BCBF
:104730007047002318467047D8D5020870B4F1B10D
:10474000411800240F4E10F8015B85EA142536F855
:10475000155085EA0424A4B28842F4D163B113440D
:10476000084D12F8011B81EA142135F8110080EA86
:104770000424A4B29A42F4D1204670BC70470024AD
:10478000ECE700BFD8D50208031103EB830300F068
:104790000F0000EB4300C0B2704700002DE9F84362
:1047A00005460E461348144B9847002E1CDD297809
:1047B0001248114B98470024DFF840800E4FDFF875
:1047C00040900134A6420FD015F8011F4046B8476B
:1047D000624204F00F0302F00F0258BF53420F2B46
:1047E000EFD14846B847ECE70548034B9847BDE88A
:1047F000F88300BFD8D70208BD52010800D80208CC
:104800003CE0020808B5C36800699847F02383F3C9
:104810001188054B1A6800239361044A4FF08051B8
:10482000516083F3118808BDE044002000ED00E0F2
:104830000C4A0D4B13601168012088611168002239
:104840004A615A641A67C3F89C20C3F8C820C3F8A9
:10485000F420C3F82021C3F84C21044BF02283F844
:1048600022207047E04400208043002000ED00E05B
:104870002DE9F84380461C4C01251C4EDFF878904A
:104880001B4F06E029461B48B84701352C34082D3C
:1048900026D0636C002BF8D0236B1968B142F1D19C
:1048A000616B80398908012916D95A68B2F1FF3F36
:1048B00014D10833012201328A4204D053F8040B88
:1048C000B0F1FF3FF7D0B8F1000FDED0013A92000F
:1048D00029464846B847D8E70122F4E70122F2E723
:1048E0000020BDE8F88300BF8043002001F65AA5F0
:1048F000BD52010808D8020824D802082DE9F8435F
:1049000007468946154698460020574B984715F0AC
:10491000030F40F0A580B8F1FF0F40F2A380F02311
:1049200083F31188514B5B6C63B1504B02201A6FBB
:104930004AB101302C330828F9D1002383F31188C0
:104940004B488BE00120494C2C2101FB00F104EB8A
:10495000010C0828F1D0474B2B60A8F18003042BF1
:104960000DD92B1DA8F1850222F0030205F1080ED6
:1049700072444FF0FF3643F8046B9342FBD1CCF8FE
:104980000450CCF8088045442B1F63504FF08073CF
:1049900045F8043C63581A1F6250374A43F8042C08
:1049A0006258131F6350002342F8043C6258151FDD
:1049B000655042F8043C6258151F655042F8043CAB
:1049C0006258151F655042F8043C6258151F655027
:1049D00042F8043C6258151F655042F804CC6258F6
:1049E000151F65506FF0020542F8045C6258151FF0
:1049F000655042F8043C6258151F655042F8043C6B
:104A00006258151F655042F8043C6258151F6550E6
:104A100042F8043C6258151F655042F8043C625845
:104A2000151F655042F8043C6258151F655042F846
:104A3000043C6258151F655042F8043CCCF80C70D9
:104A4000CCF810900122CCF81820089ACCF8142049
:104A5000CCF82030CCF8243083F31188BDE8F883FB
:104A60000648FBE70648F9E7C54E020880430020E8
:104A7000F4ADFFFF01F65AA505480108F3ADFFFFAD
:104A8000F2ADFFFF08B5F02383F31188002815DB92
:104A90000F4B1A680F4B9A4214D00D4B1B68022221
:104AA0009A610D4B1B68002B08BF0123084A12684E
:104AB00018445062094B4FF080525A60002383F330
:104AC000118808BD002383F31188054B9847F8E748
:104AD000E0440020804300207C43002000ED00E003
:104AE00055460108F0B51A4B0027BC460124194869
:104AF00025464FF0030E19E012F0020F0FD00268A6
:104B0000002A08BF01220E6D921B002A07DB4D64AC
:104B10004D650A6CBA42C4BF1746A44602E04A6C0F
:104B2000012AF6D001342C33082C0CD019465A6CCB
:104B300012F0080FE0D09E6C3668002EDCD05D6469
:104B4000C3F854E0E5E7024B2C2000FB0C30F0BD2D
:104B5000804300207C43002003682BBB31B310B49A
:104B6000F02383F311880029CCBF0A240824104BBA
:104B70001A6894611B68D8610E4B1B68002B08BF34
:104B800001230B4A1068194441620B4B4FF08051CE
:104B90005960002383F3118813689B6A032B07482D
:104BA00008BF002010BC70470020704703487047C2
:104BB000E04400207C43002000ED00E0F8ADFFFF62
:104BC000F02383F311880368002B05DD013B0360AC
:104BD000002080F31188704719B310B4013B0360C3
:104BE0000029CCBF06240424104B1A6894611B686A
:104BF00018620F4B1B68002B08BF01230B4A10687B
:104C0000194441620B4B4FF080515960002383F3EC
:104C1000118813689B6A022B074808BF002010BC4C
:104C20007047002383F3118803487047E044002055
:104C30007C43002000ED00E0F8ADFFFFF02383F39C
:104C40001188036801330360002B03DD002383F325
:104C50001188704770B4134B00263546012203E0DB
:104C600001322C33082A0CD0596811F0040FF7D008
:104C7000D9688142F4D11968B142C4BF0E461546C5
:104C8000EEE7094B2C2202FB053301229A61022236
:104C90009A62064B4FF080525A60002383F31188CA
:104CA00070BC7047C04300208043002000ED00E04E
:104CB00000B5FFF717FF5DF804EB084A116888425A
:104CC0000AD01060EFF3098323E9F04F0B6003680B
:104CD000B3E8F04F83F3098870477047E044002041
:104CE000502383F311887047002383F311887047A2
:104CF0002DE9F84307460E464FF0FF312C482D4B67
:104D00009847002E4FDD2C4CDFF8BC904FF0000888
:104D100007E088F31188002D41DD2F44761B002E1B
:104D200041DD502383F31188A2886188551AB5426A
:104D3000A8BF354623880B449A42D8BF9B1A002D42
:104D40000DDD7A1E02EB050C12F8010FA168C854A4
:104D50000133A1888B42A8BF00236245F4D1638848
:104D60002B449BB26380002BD3D0E388002BD0D19F
:104D700041464846114B98472288A3681344C9F816
:104D80000C306388A18898188842C8BF8B1AC9F86C
:104D90000430E38001214846084B9847B9E70220D8
:104DA000074B9847BBE70248064B9847BDE8F88396
:104DB000044E0020C14B0108F444002001E4010826
:104DC000854A01083D4C0108B8640240F0B4344BF8
:104DD0005968C1F180011B6813F4002F32D0314BA8
:104DE0001B681BB1304B1C688C4202DB0120F0BCFD
:104DF00070472E4A908855880B1B471B9F42A8BFBF
:104E00001F4613882B449842D8BF1B1A002F12DD6F
:104E1000274804F17F0202447F3020443844234C69
:104E200012F8016FA568EE540133A588AB42A8BF04
:104E300000239042F4D11D4A53883B4453801A4BBF
:104E40001960D3E7174B18680028CFD1164B1C68A0
:104E50008C42CBDA154A958856880F1BAB1B9F42B4
:104E6000A8BF1F46138833449D42D8BF5B1B002F49
:104E70000FDD0F4A224402EB070C0C4C12F8016BB9
:104E8000A568EE540133A588AB42A8BF034662452E
:104E9000F4D1064B5A8817445F80034B1960A5E78D
:104EA00088640240E444002000460020E8440020DA
:104EB0000045002070B506460C46502383F3118848
:104EC000104B9847104B5888A042A8BF20461B881B
:104ED00000280EDD721E0644013E0B4CA568ED5CF9
:104EE00002F8015F0133A588AB42A8BF0023B2429C
:104EF000F4D1054A138053881B1A5380002383F38F
:104F0000118870BDCD4D0108E84400202DE9F04125
:104F10000C1E11DD0546094E4FF00208084F03E054
:104F20004046B847002C07DD21462846B0470028F8
:104F3000F6DD0544241AF5E7BDE8F081B54E010819
:104F4000854A010810B5204AD3885288934211DB64
:104F50001D4B00225A801A801C4B4FF07462DA609D
:104F6000194B5B88BBB90021174BD9801848194BE6
:104F7000984710BD002BEFD013480188194489B21F
:104F800001808088814202D3091A0F480180D31A18
:104F90000D4A5380E0E70E4C002120460D4B984708
:104FA000094B19889A680A44E2605A889B8850180D
:104FB0009842C8BF5A1A06484260034BDA80012162
:104FC000044B9847D5E700BFF4440020006402403A
:104FD000B864024001E40108F0B4384B4FF4746245
:104FE000DA6088331B6813F4002F32D0344B196811
:104FF00019B9344B18687F2807DD314B01221A603C
:10500000304B00221A60F0BC70472F4A94885588B4
:10501000C0F18006631B9E42A8BF1E4613882B4426
:105020009C42D8BF1B1B002E0EDD284A0244971954
:10503000254812F8015B8468E55401338488A34253
:10504000A8BF0B46BA42F4D11F4B5A8816445E8063
:10505000D3E71B4B1B681BB11A4B18687F2805DD73
:105060000023174A1360174A1360CCE7164A918849
:105070005488C0F180030E1B9E42A8BF1E461388B1
:1050800023449942D8BF5B1A002E12DD0F4900F16C
:105090007F020A447F31014431440B4812F8015F1A
:1050A0008468E55401338488A342A8BF00238A4260
:1050B000F4D1054A538833445380D1E70064024059
:1050C000E444002000460020E84400200045002081
:1050D0002DE9F04F91B05B4B5B4A9A604FF4006151
:1050E00099800024DC805C801C80584A584B936077
:1050F0009180D48054801480564B1C60564B1C60A9
:10510000564B1A60564A5A60564A9A60564ADA60B6
:10511000564A1A61564A5A61564A9A61564B0122BA
:105120001A600190ADF80840ADF80A40ADF80C40A7
:10513000ADF810400C23ADF80E3001A94F48504B8C
:10514000984701214FF480004E4B98474FF0006B79
:10515000CDF804B0DFF84CA1CDF808A003944026A8
:1051600004968027059706944FF48063079308946C
:1051700009940A944FF400330B930C9403230D937A
:105180000E940F94DFF8208140463F4DA84701A9B7
:105190004046DFF81891C847012210214046DFF849
:1051A0001081C047CDF804B0CDF808A0DFF804A105
:1051B000CDF80CA00494059706944FF480630793F0
:1051C000089409940A944FF400330B930C9403232E
:1051D0000D930E940F94DFF8E0B05846A84722468E
:1051E0000AEB07015846294B984701215846284B9E
:1051F000984701A95846C847012210215846C04780
:10520000244B502283F825232021596083F846231C
:105210009E6083F8442310229A6001223946174881
:105220001D4CA047012231461448A0470121584691
:105230001A4B984701211148194B984711B0BDE806
:10524000F08F00BFF4440020084E0020E844002006
:1052500004460020E444002000460020085A0020B4
:10526000E14C0108E94C0108F14C0108B54E010878
:105270000D4F0108CD4D0108044E002000100140E3
:10528000A1E901087D42010851E2010817E4010883
:105290002FE4010800E100E07FEA010801E40108D1
:1052A00065EA010804100140B8640240A9E301085E
:1052B00045E4010800450020886402400FB42DE950
:1052C000F04383B00AAC54F8046B4FF0FF31384818
:1052D000384B98470194384D234632464FF480614D
:1052E0002846364CA0472B7873B115F8013F002BA8
:1052F000FBD1314BED1A002D52DD2F4F304CDFF832
:10530000D0904FF0000809E02B4DF2E788F31188A8
:10531000002E41DD3744AD1B002D41DD502383F3CA
:105320001188A2886188561AAE42A8BF2E462388EB
:105330000B449A42D8BF9B1A002E0DDD7A1E02EB59
:10534000060C12F8010FA168C8540133A1888B42E2
:10535000A8BF00239445F4D1638833449BB2638093
:10536000002BD3D0E388002BD0D141464846154BC3
:1053700098472288A3681344C9F80C306388A18831
:1053800098188842C8BF8B1AC9F80430E3800121FD
:1053900048460C4B9847B9E702200B4B9847BBE7B0
:1053A00003480A4B984703B0BDE8F04304B0704788
:1053B000044E0020C14B01080856002091D101087D
:1053C000F444002001E40108854A01083D4C01082D
:1053D000B8640240084B5B8898420ADA064A138890
:1053E000184493889842A8BFC01A034B9B68185C66
:1053F00070470020704700BFE844002070B4104B95
:105400005B8884189C42C8BF1A1A0D4C2388034439
:10541000A0888342A8BF1B1A002A0DDD01398E180F
:10542000074CA568ED5C01F8015F0133A588AB422C
:10543000A8BF0023B142F4D1104670BC704700BF32
:10544000E84400200C4B5A88904211DA00280EDD07
:1054500080B209490B8803449BB20B8089888B4238
:1054600002D35B1A04490B80101A034B5880704713
:1054700000225A801A807047E8440020502383F3AA
:1054800011887047002383F3118870472DE9F84392
:105490000E1E52DD0746DFF8B480294CDFF8B090CD
:1054A00008E0002383F311889D4242DD2F44761BE0
:1054B000002E42DDC047502383F31188A288618803
:1054C000551AB542A8BF354623880B449A42D8BF27
:1054D0009B1A002D0DDD7A1E02EB050C12F8010F50
:1054E000A168C8540133A1888B42A8BF002394450A
:1054F000F4D163882B449BB26380002BD1D0E38826
:10550000002BCED1002148460E4B98472288A36835
:105510001344C9F80C306388A18898188842C8BF22
:105520008B1AC9F80430E38001214846054B98479F
:10553000B7E70120044B9847BAE7BDE8F88300BFFE
:10554000345A002001E40108854A010895750108D4
:1055500070600240F0B4344B5968C1F180011B689F
:1055600013F4002F32D0314B1B681BB1304B1C6839
:105570008C4202DB0120F0BC70472E4A908855888F
:105580000B1B471B9F42A8BF1F4613882B44984202
:10559000D8BF1B1A002F12DD274804F17F020244F6
:1055A0007F3020443844234C12F8016FA568EE5434
:1055B0000133A588AB42A8BF00239042F4D11D4A15
:1055C00053883B4453801A4B1960D3E7174B186834
:1055D0000028CFD1164B1C688C42CBDA154A95882F
:1055E00056880F1BAB1B9F42A8BF1F46138833442E
:1055F0009D42D8BF5B1B002F0FDD0F4A224402EBF8
:10560000070C0C4C12F8016BA568EE540133A58809
:10561000AB42A8BF03466245F4D1064B5A881744F3
:105620005F80034B1960A5E740600240245A0020C8
:10563000405B0020285A0020405A002070B50646E2
:105640000C46502383F31188104B9847104B588811
:10565000A042A8BF20461B8800280EDD721E06440B
:10566000013E0B4CA568ED5C02F8015F0133A58893
:10567000AB42A8BF0023B242F4D1054A138053883D
:105680001B1A5380002383F3118870BD5555010800
:10569000285A00202DE9F0410C1E11DD0546094E67
:1056A0004FF00208084F03E04046B847002C07DDE2
:1056B00021462846B0470028F6DD0544241AF5E7C0
:1056C000BDE8F0813D560108854A010810B5204A21
:1056D000D3885288934212DB1D4B00225A801A80D5
:1056E0001C4B3D22DA601A4B5B88CBB90021184B6A
:1056F000D9801948194B9847194B984710BD002B72
:10570000EED013480188194489B201808088814213
:1057100002D3091A0E480180D31A0D4A5380DFE7DD
:105720000D4C002120460D4B9847094B19889A686B
:105730000A44E2605A889B8850189842C8BF5A1A97
:1057400005484260024BDA800121044B9847D5E7B7
:10575000345A0020006002407060024001E40108F9
:105760006D750108F0B4384B4FF474129A604033F1
:105770001B6813F4002F32D0344B196819B9344B1D
:1057800018687F2807DD314B01221A60304B002258
:105790001A60F0BC70472F4A94885588C0F1800683
:1057A000631B9E42A8BF1E4613882B449C42D8BF51
:1057B0001B1B002E0EDD284A02449719254812F8BB
:1057C000015B8468E55401338488A342A8BF0B467B
:1057D000BA42F4D11F4B5A8816445E80D3E71B4B64
:1057E0001B681BB11A4B18687F2805DD0023174A78
:1057F0001360174A1360CCE7164A91885488C0F1A9
:1058000080030E1B9E42A8BF1E4613882344994264
:10581000D8BF5B1A002E12DD0F4900F17F020A4447
:105820007F31014431440B4812F8015F8468E5542C
:1058300001338488A342A8BF00238A42F4D1054AD9
:10584000538833445380D1E700600240245A00203B
:10585000405B0020285A0020405A00202DE9F04FDC
:1058600091B00546594B5A4A9A604FF4007199809D
:105870000024DC805C801C80564A574B93609180EA
:10588000D48054801480554B1C60554B1C60554B84
:105890001A60554A5A60554A9A60554ADA60554A24
:1058A0001A61554A5A61554A9A6105210846544B76
:1058B00098470195ADF80840ADF80A40ADF80C40A6
:1058C000ADF810400C23ADF80E3001A94D484E4BF9
:1058D000984701214FF400104C4B98474FF0006B54
:1058E000CDF804B0DFF84CA1CDF808A00394402314
:1058F00004938025059506944FF4806307930894DC
:1059000009940A944FF400330B930C9403270D97DA
:105910000E940F943E4E3046DFF81C91C84701A903
:105920003046DFF81881C047012210213046394E39
:10593000B047CDF804B0CDF808A0DFF804A1CDF849
:105940000CA00494059506944FF480630793089483
:1059500009940A944FF400330B930C940D970E9412
:105960000F942D4F3846C84722460AEB05013846AA
:105970002A4B984701213846294B984701A93846B8
:10598000C047012210213846B047264B502283F8E9
:105990000F234FF40041196083F80D234FF4005298
:1059A0001A600122294617481F4CA04701224021B6
:1059B0001448A047012138461C4B98470121114843
:1059C0001B4B984711B0BDE8F08F00BF345A002040
:1059D000445D0020285A0020445B0020245A002007
:1059E000405B0020445F00207D540108855401087D
:1059F0008D5401083D56010895560108555501087A
:105A000005620108004C0040A1E901087D4201083F
:105A10007060024045E401084060024017E401085C
:105A20002FE4010800E100E07FEA010801E4010839
:105A300065EA0108044C004051E20108A9E30108AD
:105A4000405A00200A4B00221A615A610949896CA8
:105A50004A6202221A60084A138843F48073138052
:105A6000064B4FF000421A6001225A60704700BF97
:105A7000605F00209C5F00200054004000E100E0D7
:105A800008B50D4B1A8842F400721A809B8A13F0F5
:105A9000100F0ED0094A4FF00043C2F880300123A6
:105AA000C2F88430064A926C00215162054A1360A4
:105AB00008BD054B9847FBE70054004000E100E0BB
:105AC0009C5F0020605F0020455A01080122104BB6
:105AD0001A60104B0021196058610F4B1964996CC2
