:020000040801F1
:10000000D07F0010BD37010889010108890101086E
:100010008901010889010108890101080000000027
:100020000017011003F8A25900000000890101081F
:100030008901010800000000013E0108F1360108B5
:100040008901010889010108890101088901010864
:100050008901010889010108890101088901010854
:100060008901010889010108890101088901010844
:1000700065D80108B5480108C9D701081D4801081D
:100080008901010889010108890101087DF201083F
:10009000A9F5010895F6010861F90108890101082F
:1000A0008901010889010108890101088901010804
:1000B000954B0108D14B01080D4C0108F1E20108F4
:1000C00075E20108F9E801087DE8010889010108E5
:1000D00089010108890101088901010889010108D4
:1000E00089010108890101088901010889010108C4
:1000F00089010108890101088901010889010108B4
:100100008901010889010108494C01088901010898
:100110008901010889010108854C0108890101084C
:10012000890101088901010831DE010889010108FE
:10013000890101088901010889010108F5F3010815
:1001400081F7010871F8010871F9010889010108B6
:100150002941010895DD0108954001088901010840
:100160008901010889010108890101088901010843
:100170008901010889010108890101088901010833
:100180008901010889010108FEE7000010B5054C4E
:10019000237833B9044B13B10448AFF30080012333
:1001A000237010BD00000020000000001CD40208D5
:1001B00008B5034B1BB103490348AFF3008008BDEA
:1001C00000000000040000201CD4020870B584B0B8
:1001D00005460E4604AB002443F8044D0092FF226E
:1001E000084CA047044638B1039A29460648074BF5
:1001F0009847204604B070BD324629460448034B58
:100200009847F6E72D8A0108606002080D4401084E
:100210005060020870B582B005460E4602AC00235D
:1002200044F8043D13462246094CA047044640B119
:10023000019B324629460748074DA847204602B091
:1002400070BD324629460548034B9847F6E700BF84
:100250007D8A0108986002080D4401088860020840
:10026000F8B507460D4616461C461A460B490C4B78
:100270009847034628B9094928460A4B9847034638
:1002800008B91846F8BD224629463846064B984715
:100290000346326801323260F3E700BFE014002009
:1002A000CD01010809560208150201082DE9F047A1
:1002B00084B081460E4690460023039301462748AA
:1002C000274B984727494846274B984700282DD069
:1002D00026494846244B984700282DD142462449B8
:1002E0002448254B984706EB860676000024DFF865
:1002F000B4A0224D224F0120D0470134CDF8008018
:1003000003ABFF2229464846B847D0B91D492846C5
:10031000154B9847E8B129461B48114B9847A64210
:10032000E9DA494619480E4B98470FE04246104912
:100330001748114B9847D6E749461648084B984747
:10034000D1E7154A49461548054B984704B0BDE822
:10035000F08749461248024B9847F7E7B45E020817
:100360000D440108E05E020809560208085F020811
:10037000EC5E0208145F020815020108E014002078
:100380002D8A0108E85E02086C5F0208745F0208AB
:10039000F45E0208285F0208485F02085060020805
:1003A000545F0208D53B01082DE9F04FD9B0002376
:1003B00057931C46DFF820B31F460CE1002D4FF089
:1003C000FF30C8BF0020002D40F3C980954D224664
:1003D00029469548954B9847954B294605F11200BB
:1003E00011F8012B03F8012F8142F9D18D4D2246DE
:1003F000294690488D4B984729468F488F4B984700
:100400008F4B294605F1120011F8012B03F8012F3B
:100410008142F9D1834D224629468A48834B984729
:1004200029468948854B9847884B294605F1140091
:1004300011F8012B03F8012F8142F9D12246052141
:100440008348844DA847224605218348A847DFF802
:100450008CA2234606AA51468048814DA847DFF862
:10046000809299F8003003EB4301234606AA7D48A9
:1004700050F821107C48A847DFF86882234606AA76
:1004800041467A48A8477A4E234606AA314679481B
:10049000A847234606AA51467748A84799F800304E
:1004A00003EB4301234606AA744850F82110744810
:1004B000A847234606AA41467248A847234606AAEB
:1004C00031467148A84705460699002972D16F4EFA
:1004D000002231466E486F4CA047002231466E48DC
:1004E000A04700223C215A485A4CA047002205212F
:1004F0005948A04729466948504B9847002D40F07D
:10050000388367484D4B98470A24664D664F4B4EDB
:10051000002157A8A847B0F1FF3F40F0E580013C1B
:1005200014F1020F00F02883579B40F20B229342F4
:1005300000F00183B3F5147F00F00683B3F5027F6A
:1005400000F00B83214658483C4CA0475799574828
:10055000A0476420564B98476FF0020524E00646FA
:100560001AE029465348B0475348B0476420504BDF
:10057000984734E029464F48B0475048B047642078
:100580004B4B98472BE029464A482C4CA0474C48F7
:10059000A0476420464B98474A48284CA04731461C
:1005A0003E48A0474FF0FF35284659B0BDE8F08FD0
:1005B0000646F1E74448214B9847224643494448C0
:1005C000344B9847054643F69820394B9847069B8D
:1005D000002B3FF47CAF069707976425174E214602
:1005E00007A8D847B0F1FF3F7FF4E8AE013DB5F171
:1005F000FF3FDDD0079B40F20B229342B1D0B3F511
:10060000147FB7D00646B3F5027FBCD029462948EF
:100610000A4CA04707992F48A0476420244B9847CD
:10062000BAE700BFE0150020D45C0208CD01010844
:100630002F1C0020E05C0208EC5C02080D4401085D
:10064000431C0020005D02080C5D0208B71B00205F
:10065000E05E0208AD020108085F02081C5D0208A6
:1006600061020108905F0208285D02083C5D0208F3
:100670004C5D0208545D0208645D0208F05F0208E8
:10068000705D0208785D0208885D0208B0BF02084C
:10069000D85D020815020108F05D0208B45C02088A
:1006A000085E0208618B01081C5E02084C5E0208AD
:1006B000D53B0108145C02081C5C0208405C02087F
:1006C000545C0208985C0208985D020874CF020826
:1006D000C85D0208785C0208C58A010848650208FE
:1006E0000C000010305D0208002C40F3488257AE29
:1006F000002400943346062211462046AB4DA847FD
:10070000224631462046AA4B984704940396029409
:10071000019401250095A74B2A4644F24831204612
:10072000A54FB84708230893A44F019400963B4671
:1007300008AA294640F2F230DFF8AC92C84701948B
:1007400000963B4608AA294640F21E50C8479C4FD7
:10075000019400963B4608AA294640F2FE30C8475D
:10076000019400963B4608AA294640F22A50C84701
:10077000DFF878A2934F3B7803EB4303924800EBFA
:100780008303986801940096534608AA2946C847EF
:10079000DFF85CB23B7803EB43030BEB8303986811
:1007A00001940096534608AA2946C8470494039624
:1007B0000294019400952B4640F2F23240F2E93166
:1007C0002046824FB84705940496DFF828A2BAF86D
:1007D0000030039302950195764B009323467C4AA3
:1007E00040F2E93120467B4FB8477B4A07CA0DF1FA
:1007F000F40C8CE807000DF12408784A92E8030015
:1008000088E803000194009663462A4640F2E931E5
:100810002046734FB8470194009643462A4640F25B
:10082000E93120466F4FB84704940396029401942F
:1008300000952B4640F2FE3240F21A412046634FAB
:10084000B84705940496BAF80030039302950195D1
:10085000584B009323465E4A40F21A4120465D4FB2
:10086000B847DFF894910DF1F40C99E80F00ACE86B
:1008700007008CF80030594A92E8030088E803002A
:10088000019400960DF1F40C63462A4640F21A4199
:100890002046534FB8470194009643462A4640F2FB
:1008A0001A4120464F4FB847464B197801FA05F3D5
:1008B0005A18454800EB820292680B4400EB830310
:1008C00059680494039602940194009523462046A7
:1008D0003E4FB8473B4B1B7803EB43033A4800EBD2
:1008E0008303596805940496BAF80030039302957F
:1008F0000195304B00932346354A2046354FB84783
:100900000DF1F40C99E80F00ACE807008CF800300A
:100910002C4B1B7803EB43032B4800EB83035968F4
:10092000019400963DA803462A4620462C4FB8471E
:10093000049403960294019400952B4640F21E52B3
:1009400040F2E9312846214FB84705940496BAF899
:100950000030039302950195164B009323461C4AE1
:1009600040F2E93128461B4FB8471B4907C90DF132
:10097000F40C8CE80700194A92E8030088E80300A9
:100980000194009663462A4640F2E9312846144F06
:10099000B8470194009643462A4640F2E93128467A
:1009A000104FB84704940396029427E0498C01083D
:1009B000A18C010840420F00E58C010800000010E6
:1009C000040000100C000010905F0208598D01080F
:1009D00020A10700258E0108705E02084C5D020808
:1009E000C98D01089D8E0108F98E010808000010CC
:1009F000F05F0208561C00207C5E020801940095FE
:100A00002B4640F22A5240F21A4128465D4FB84721
:100A100005940496BAF800300393029501955A4B59
:100A200000932346594A40F21A412846584FB84786
:100A30000DF1F40C99E80F00ACE807008CF80030D9
:100A40000DF18C0CACE807008CF80030514A92E8AC
:100A5000030088E80300019400963DAA13462A4645
:100A600040F21A4128464C4FB8470194009643463D
:100A70002A4640F21A412846484FB847484B197851
:100A800001FA05F35A180BEB820292680B440BEB48
:100A900083035968049403960294019400952346B5
:100AA0002846384FB8473E4B1B7803EB43030BEB0C
:100AB0008303596805940496BAF8003003930295AD
:100AC0000195314B00932346304A2846304FB847B2
:100AD0000DF1F40C99E80F00ACE807008CF8003039
:100AE0002F4B1B7803EB43030BEB830359680194F3
:100AF00000963DAB2A462846274FB847C724DFF863
:100B0000C480284F284E21464046B847002157A8A8
:100B1000B04705466420254B9847002D3FF444AD6F
:100B2000013CB4F1FF3FEED1579921481D4B984746
:100B30006FF0040538E521463846B0471D48B047F8
:100B400064201A4B9847E3E421463846B0471A48D8
:100B5000B0476420154B9847DAE421461748114CFA
:100B6000A0471748A0476420104B98476FF0010535
:100B70001AE54FF0FF3517E56FF0030514E56FF048
:100B8000030511E5598D010840420F0020A107001F
:100B9000258E01084C5D0208C98D01089D8E010853
:100BA0000C0000100D440108118C0108D53B010810
:100BB000A85E02082C5E0208405C02081C5E020867
:100BC000545C02088C5E02088AB110B44C1E1144B9
:100BD0000139084A14F8013F4340DBB252F8233090
:100BE00083EA10208C42F5D1C04310BC7047C0434B
:100BF000704700BFC460020838B505460C1F224686
:100C000001464FF0FF30054B98472B19020E2A552D
:100C1000020C5A70020A9A70D87038BDC90B0108CC
:100C200038B50546054C4FF0FF312046044B984738
:100C3000044B1D702046044B984738BDE016002039
:100C4000113D0108E41600208D3D010838B5084B20
:100C50001C780CB9204638BD064D4FF0FF312846B0
:100C6000054B9847024B1C782846044B9847F1E700
:100C7000E4160020E0160020113D01088D3D01081A
:100C80002DE9F041044602200F4B98478CB12546D0
:100C90000024DFF848800D4F0D4E98F800202146C3
:100CA0003846B04701344FF47A700A4B9847AC424B
:100CB000F3D10320044B9847074B9847B0FA80F0D4
:100CC0004009BDE8F08100BF210C0108545B020817
:100CD0000D440108D53B0108A90301080C000010D0
:100CE0002DE9F04F8FB04FF0000BDFF828A1DFF8AF
:100CF0002891CDF818B082E2374B1868002840F3ED
:100D00000381364A364B184413F8011B02F8011BC5
:100D10008342F9D1F8E0304B1868002840F30A818B
:100D2000304A2F4B184413F8011B02F8011B834271
:100D3000F9D1FFE02C4B1868002840F314812B4AAE
:100D4000274B184413F8011B02F8011B8342F9D109
:100D500009E1254B1868002840F31C81244A204BE8
:100D6000184413F8011B02F8011B8342F9D111E169
:100D7000204B1B68204A127802EB42021F4901EB0C
:100D8000820250680022019208AE00961C4A01219E
:100D90001C4CA0471C4C2060089A06991B481C4D0F
:100DA000A84700233246012140F2E930DFF86CB059
:100DB000D847216801432160089A1448A8470023B6
:100DC0003246012140F21A40D84721680143216090
:100DD000089A0E48A847BBE1000000101C10002034
:100DE000E81600208010002004000010E41000200D
:100DF00048110020080000100C000010905F02084D
:100E0000AC110020558F0108581C0020685B0208B7
:100E10000D4401088C34002084120020CD8F01087D
:100E2000A648A74B9847DAF80000002808BF012021
:100E3000A0EB0800B0F5FA7F80F0C381C0F5FA702E
:100E4000A04B9847A04B9847042840F0C381DAF89C
:100E50000080B8F1000F08BF4FF00108D9F800304A
:100E60000133C9F80030994C4FF0FF312046984BC0
:100E70009847D9F80020130643EA1263110A01F4D7
:100E80007F410B43120202F47F021343914E336001
:100E9000914A13602046914B9847DFF864B2904D19
:100EA0002B7803EB43038F4A02EB8303586800243B
:100EB000009408ABDBF8002031468B4EB047DBF8DE
:100EC00000202B7803EB4303884901EB8303586828
:100ED000009408AB8049B04764207A4B98470EA92C
:100EE00041F8144D049408AB0393814B0293814B5A
:100EF00001930CAB00930BAB0AAA40F2E9307E4C95
:100F0000A04700283FF4F8AE00230EA941F8143D95
:100F1000049308AB0393764B0293764B01930CAB8F
:100F200000930BAB0AAA40F2E930734CA0470028AB
:100F30003FF4F1AE6420634B984700230EA941F8BB
:100F4000143D049308AB03936C4B0293694B0193DC
:100F50000CAB00930BAB0AAA40F21A40664CA047B8
:100F600000283FF4E7AE00230EA941F8143D049396
:100F700008AB0393614B02935E4B01930CAB009360
:100F80000BAB0AAA40F21A405B4CA047069000281F
:100F90003FF4DFAE64204B4B98474FF0FF314B4896
:100FA0004B4B9847564B1A68002A08DD4949554B68
:100FB0009C1813F8010B01F8010BA342F9D1524B15
:100FC0001968524B1B68994206D0DAF80030002BA2
:100FD00008BF01234E490B60454B1868002808DD07
:100FE00049494A4B1D1813F8014B01F8014BAB421C
:100FF000F9D1484B1968484B1B68994206D0DAF87A
:101000000030002B08BF012344490B603B4B19689B
:10101000002908DD3F4C404B5E1813F8015B04F8D3
:10102000015BB342F9D1002A08DD2B4C3C4B1A443A
:1010300013F8015B04F8015B9A42F9D1394B1A6845
:10104000394B1B689A4206D0DAF80030002B08BFF3
:101050000123364A1360002808DD324A324B184417
:1010600013F8014B02F8014B8342F9D1304B1A6857
:10107000304B1B689A4206D0DAF80030002B08BFCC
:1010800001232D4A1360002908DD294A294B194400
:1010900013F8010B02F8010B8B42F9D10B480F4BEF
:1010A0009847DAF80030002B08BF0123DB1B41F220
:1010B000873293427FF7B7AE40E000BFA05B0208E3
:1010C0000D440108D53B01084D0C0108E016002035
:1010D000113D0108AC110020101200208D3D0108C7
:1010E0000C000010905F020819900108F05F0208E0
:1010F00000000010E816002089900108040000108C
:101100000800001018140020881200201C10002075
:101110007412002050130020E41000207C120020E4
:101120007C140020EC120020801000207812002097
:10113000B41300204811002080120020DAF800705B
:10114000002F08BF0127804B1B68002B7FF410AED7
:101150007E4B1B68002B3FF463AE7D4B1B687D4AC2
:10116000127802EB42027C4901EB820250680022B5
:10117000019208AE0096794A0121794CA0470146B8
:10118000724C2060089A7748774DA8470023324672
:10119000012140F2E930DFF81CB2D8472168014351
:1011A0002160089A6F48A84700233246012140F287
:1011B0001A40D847216801432160089A6948A84726
:1011C0002EE6009040F20E33684A69496948664C41
:1011D000A04737E60020684B98470520674B9847A3
:1011E0000924674F674E604D6420B847069B079AF5
:1011F00021463046A847013CB4F1FF3FF4D102211B
:101200006148624B9847C8205D4B984702215E4871
:101210005F4B984714205F4B984707905E4B1860D0
:101220000028DAD05D4C04212046594FB8473220BF
:10123000534DA84704212046544EB0476420A84788
:1012400004212046B8473220A84704212046B04751
:1012500004204A4B9847524B9847002409943C4F2E
:10126000504D39682846504EB04739683B48B04722
:10127000DFF8E0B09BF8003003EB43034B4A02EB8E
:1012800083035868019408AB00933B682A46012108
:10129000DFF8CC80C04701462B4E3060089A4448A6
:1012A000314DA8473B689BF8002002EB42022A49D7
:1012B00001EB82025068019408AA0092274A01219A
:1012C000C0470146214F3860DFF898B0089A584669
:1012D000A847234608AA012140F2E930DFF8D4806C
:1012E000C047316801433160089A3148A847234616
:1012F00008AA012140F2E930C0473968014339604A
:10130000089A5846A847234608AA012140F21A40E5
:10131000C047316801433160089A2548A8472346F1
:1013200008AA012140F21A40C047396801433960D8
:10133000089A5846A847DAF80080A04508BF4FF041
:101340000108069447467DE5581C00205C1C0020DF
:10135000080000100C000010F05F020810120020BE
:10136000558F0108845B02080D440108D46402080B
:10137000B05B0208CC5B0208C56D0108210C0108B6
:10138000D53B0108F05B02080010024069350108F6
:1013900065350108810C0108601C0020000C02402A
:1013A0006D160108AC110020F90B0108905F0208CE
:1013B000685B0208CD8F010810B582B0184B01227E
:1013C0001A60431EDBB2072B1DD8164A1370642126
:1013D0001548164CA04764211548A04764211548BC
:1013E000A047154B01221A70662300934FF48053D7
:1013F000124A00211248134CA047011E0EDA12486F
:101400000A4B98470AE0009040F276330F4A1049A1
:101410001048064CA047034B01221A7002B010BDC1
:10142000E01600200C000010F85A02080D440108D4
:101430000C5B0208205B0208E41600201C00002060
:10144000E10C01084D3A0108345B0208C46402084B
:10145000B05B0208CC5B020838B56C4B1A686C4B69
:101460001B68002B08BF01239B1AC72B0FDD044606
:10147000674B1B68002B08BF0123644A1360654B50
:101480009847042806D00020634B187001E0624B97
:10149000187838BD4FF0FF316048614B9847614B79
:1014A0001B681A0642EA1362190A01F47F410A43D3
:1014B0001B0203F47F0313435B4A13605B4B186802
:1014C000002810DD5A4A584B184413F8011B02F843
:1014D000011B8342F9D15749534A12F8010B01F815
:1014E000010B9A42F9D1544B1A68494B1B68002BE7
:1014F00008BF01239B1AB3F5FA6F10DD012C10D041
:101500004E4B1A68424B1B68002B08BF01239B1AE5
:10151000B3F5FA6F36DD022C36D0002511E0022C2F
:10152000EED0474B1868002808DD464A464B184461
:1015300013F8011B02F8011B8342F9D10125364B38
:101540001D70424B1A68324B1B68002B08BF0123E9
:101550009B1AB3F5FA6F2BDD012C2BD03C4B1A688C
:101560002B4B1B68002B08BF01239B1AB3F5FA6FA6
:1015700038DD022C38D02948364B9847264B0022BC
:101580001A702CE0012C11D02D4B1868002808DDB2
:101590002C4A314B184413F8011B02F8011B8342FB
:1015A000F9D11D4B02221A700125CAE70025C8E7B0
:1015B000022CD3D0294B1868002808DD284A294B73
:1015C000184413F8011B02F8011B8342F9D1124B96
:1015D00001221A7011481F4B9847002DCED00E4B98
:1015E000187856E7012CC6D01C4B1868002808DD77
:1015F0001B4A1D4B184413F8011B02F8011B8342C0
:10160000F9D1054B02221A70E4E700BFEC1A002062
:101610008C3400204D0C0108E81A0020E016002050
:10162000113D010884120020CC1B0020080000108E
:10163000181400207C14002074120020781200205E
:1016400000000010F01A0020881200207C120020F8
:10165000801200208D3D0108EC12002004000010D3
:10166000541B0020E4100020481100207047002087
:101670007047000000487047641C0020064A0023A1
:10168000136093801361054A136093801361044AC9
:101690001360938013617047C41C0020981C0020C5
:1016A0006C1C0020002909DD431E1944002013F89A
:1016B000012F1044C0B28B42F9D17047002070470F
:1016C00010B582B01446022802D1204602B010BDE7
:1016D0000B4611461846014B9847F6E7413E010874
:1016E000F8B504460D4616461848194B9847E0B21F
:1016F000EB78302B22D0322B05D0102B00D0F8BD48
:10170000144B9847FBE731462846134B9847134C38
:1017100004212046124FB8476420124DA8470421E7
:101720002046114EB047C820A84704212046B8479C
:101730006420A84704212046B047E0E72B79DB0965
:101740000A4A13700A4B9847D9E700BFA065020800
:101750000D4401085518010821180108000C024029
:1017600065350108D53B010869350108F0240020E2
:10177000C11801087047704770B5044600F56171E3
:101780000346002203F8012B9942FBD1F523237075
:10179000032363708423A3703123E370174BD3F8C2
:1017A00040313BBB154DB5F95401154B9847D5F861
:1017B0004411144B98470646B5F85601124B98470A
:1017C00001463046114B98471149124B9847124B2E
:1017D000984700B2C0F3072384F8443084F84500EA
:1017E00040F2833120460D4B984784F883034FF431
:1017F000617070BD014BD3F84801E8E76C2500200B
:101800004D4C0208E54A0208454C0208F54C020816
:101810000000C8425D4E020881500208A51601086A
:1018200010B5044690F8440094F8453043EA00208F
:10183000054B9847054A94F88230C3F3C003C2F8B9
:101840004031C2F8480110BD454C02086C2500200B
:101850007047000070B50646164B1C68F5232370D0
:10186000002262701325A5701123E37001232371F8
:10187000342161716521A1719F21E17110212172D3
:1018800063721723A372E27223730823637318230E
:10189000A3730F22E2732374192363741221204669
:1018A000054B9847A0742A4621463046034B98477B
:1018B00070BD00BF10000010A5160108C116010878
:1018C00038B50546064B1C684FF400612046054BB1
:1018D0009847021E03DD21462846034B984738BD32
:1018E0001000001079170108C11601089F2805D1C2
:1018F0000B78002B024808BF00207047002070477B
:10190000300009060023136041F21703984245D0C6
:1019100011D9B0F5C05F4BD02BD8B0F5A05F43D044
:10192000B0F5B05F42D041F2180398423AD0264B4E
:101930000B600020704741F20503984226D00AD977
:1019400041F2070398423DD024D341F21603984256
:10195000EDD1052207E0B0F5805F31D041F20103FF
:101960009842E4D1012200230B60184800EBC2002A
:101970007047B0F5005F1FD0B0F5085F1ED0B0F51E
:10198000D05FD4D1124B13600B22ECE7114B1360E4
:101990000222E8E7104B13600322E4E70F4B1360C9
:1019A0000622E0E70722DEE70822DCE70922DAE781
:1019B0000B4B13600A22D6E70C22D4E70D22D2E7A4
:1019C0000022D0E70422CEE700000206B465020838
:1019D00028250020002500200425002008250020BF
:1019E0000C25002038B50D46144641F28E2303FB2A
:1019F00000F3C0F5FF407F3093FBF0F0024B9847B7
:101A000028602060012038BD454C020870B50D46A5
:101A10001646074B98474FF08B41064B9847064CAC
:101A20000649A0470649A04730602860012070BDE4
:101A30004D4C0208F54C02085D4E020800FEFF46C0
:101A40000000F04200000000F8B50F461646104CAA
:101A5000A0474FF08B410F4B98470F4D0F49A847B8
:101A60000F49A84738604FF081410E4B98470E4B05
:101A7000984705A3D3E900230C4DA8470C4B984782
:101A8000A04730600120F8BD2D431CEBE2365A3FE1
:101A90004D4C0208F54C02085D4E020800FEFF4660
:101AA0000000F042E14A0208A5440208A9470208E2
:101AB000894A0208F8B50E46154641F28E2404FB09
:101AC00000F4C0F5FF407F3094FBF0F420461E4B3D
:101AD000984730601D4B9C4231D8B4F5EC7F30D331
:101AE00040F277514FF42F730022194E06EBC300DA
:101AF0004068844238BF1A46844228BF19465318AA
:101B000003EBD3735B109A4201DA9942EEDC104B7F
:101B100053F8326003EBC202526853F83100871B5E
:101B2000101B00FB07F003EBC1014B68D21AB0FB9E
:101B3000F2F03044074B984728600120F8BD064872
:101B4000F8E740F2E730F5E7454C02086BC90100C1
:101B5000649202084D4C020870FEFFFFF8B50E4675
:101B6000154641F28E2404FB00F4C0F5FF407F309F
:101B700094FBF0F420461E4B984730601D4B9C426E
:101B800031D8B4F5EC7F30D340F277514FF42F7356
:101B90000022194E06EBC3004068844238BF1A4643
:101BA000844228BF1946531803EBD3735B109A4243
:101BB00001DA9942EEDC104B53F8326003EBC202BB
:101BC000526853F83100871B101B00FB07F003EB32
:101BD000C1014B68D21AB0FBF2F03044074B984772
:101BE00028600120F8BD0648F8E740F2E730F5E745
:101BF000454C02086BC90100A46602084D4C02085E
:101C000070FEFFFF70B50D461646094B984709490F
:101C1000094B9847094C0A49A0470A49A047014681
:101C2000094B98470949A04730602860012070BDE2
:101C30004D4C02080000C045F54C02085D4E0208FC
:101C400000FEFF460000C842E54A020800002041AD
:101C5000F8B50F461646124CA0474FF08B41114B7A
:101C60009847114D1149A8471149A84738604FF0CE
:101C70008141104B9847104B984707A3D3E90023A5
:101C80000E4DA84700220E4B0E4DA8470E4B98470D
:101C9000A04730600120F8BD75931804560EE13F4F
:101CA0004D4C0208F54C02085D4E020800FEFF464E
:101CB0000000F042E14A0208A5440208A9470208D0
:101CC0000000244055450208894A02082DE9F84FD2
:101CD0001C481D4B98471D4F1D4E06F59A69DFF8AD
:101CE00078B0DFF864A019E01A48D04712E084F811
:101CF000252084F824800023A3622B68A364EB686A
:101D00006364E3632364B5F91230A4F84C30AB8A02
:101D1000A4F84E300C3758364E4511D03A68BD689D
:101D20002B68002BE0D0344632602A7C95F8118075
:101D3000531EDBB20F2BDAD95846D0471022D6E714
:101D4000BDE8F88F406602080D4401082CBE020869
:101D50006C25002054660208606602089E4B1A68D3
:101D60009E4B1B68002B08BF01239B1A282B40F3B6
:101D700081832DE9F0438DB0984B1B68002B08BF81
:101D80000123954A1360964B1878052817D9831FAD
:101D9000DBB2052B40F23881A0F10C03DBB2012B42
:101DA00040F256828E4B1B780133DBB20D2B40F292
:101DB0005E838B4B00221A700DB0BDE8F0830A22BF
:101DC0000DF12E01874B9847854B1C78BDF82E00EE
:101DD000854A582303FB04239D6C002D54D000B288
:101DE000814A582303FB042393F825C0BCF1010F5B
:101DF0001DD0582303FB04239F6A002F4ED0BCF153
:101E0000000F0DD0582303FB042302332C2101FBC8
:101E100004CC023202EB4C0C23F8020F6345FBD1D9
:101E2000714A582303FB042301229A62DA6286B2C4
:101E30006D4B582101FB043103AA5431A8470028F7
:101E400000F0AD80039D684A582303FB0423294614
:101E5000186B664B984750B9634A582303FB042319
:101E6000596B2846614B9847002800F092805E4AE3
:101E7000582303FB04235A6CDA635B4B582202FBA2
:101E80000434A4F850608DE700905E23584A594905
:101E900059485A4CA0475A48A04783E7524A58230A
:101EA00003FB0423DB6A2C2101FB043102EB41021A
:101EB00090800133E046634526DA4B49582202FB05
:101EC0000412D362484A582303FB042393F82430B6
:101ED0000BBB582303FB0423B3F90400BCF1010F2F
:101EE0000EDD582303FB042304332C2101FB04C122
:101EF000023202EB410133F9022F10449942FAD128
:101F0000B0FBFCF000B292E7374A582303FB0423EE
:101F10000022DA62D6E7BCF1000F0DD0324B582216
:101F200002FB0432023203AB03EB4C0032F8021F17
:101F300023F8021B8342F9D103A800EB4C0608F1F9
:101F4000FF3900E00230B94511DD0137B845F9DD50
:101F5000831C864633F9021BB0F900209142C4BFAE
:101F6000AEF8001023F8022CB342F3D1EAE74FEAAF
:101F70005C0C0CAB03EB4C0333F9260C0CAB03EB02
:101F80004C0C3CF9243C184400EBD07040F34F005B
:101F90004DE7154A582303FB0423DD636DE7124A1E
:101FA000582303FB04235A6CDA63DFF84490DFF80C
:101FB0004480114F009677234A46414638460F4DDC
:101FC000A84703980F4B9847CDE9000178234A466C
:101FD00041463846A84750E7682500208C34002049
:101FE00067250020C94F01086C25002045500208D4
:101FF00024BE020874660208CC5B02080D44010886
:1020000084660208A54402080A220DF12E01063852
:10201000854B9847854B1C78BDF82E00844A582381
:1020200003FB04239D6C002D54D000B2804A58233A
:1020300003FB042393F825C0BCF1010F1DD05823E6
:1020400003FB04239F6A002F4ED0BCF1000F0DD07C
:10205000582303FB042302332C2101FB04CC02325E
:1020600002EB4C0C23F8020F6345FBD1704A582356
:1020700003FB042301229A62DA6286B26C4B582178
:1020800001FB043103AA5431A847002800F0AE80B8
:10209000039D674A582303FB04232946186B654BAD
:1020A000984750B9624A582303FB0423596B2846CA
:1020B000604B9847002800F093805D4A582303FB4B
:1020C00004235A6CDA635A4B582202FB0434A4F8F6
:1020D000506067E600905E23574A58495848594C6B
:1020E000A0475948A0475DE6514A582303FB042303
:1020F000DB6A2C2101FB043102EB410290800133A9
:10210000E046634527DA4A49582202FB0412D362AB
:10211000474A582303FB042393F8243013BB582366
:1021200003FB0423B3F90420BCF1010F0FDD404988
:10213000582303FB041304332C2000FB04C002319A
:1021400001EB400033F9021F0A448342FAD1B2FB8B
:10215000FCF210B291E7364A582303FB0423002215
:10216000DA62D5E7BCF1000F0DD0314B582202FBEB
:102170000432023203AB03EB4C0032F8021F23F8A7
:10218000021B8342F9D103A800EB4C0608F1FF398A
:102190000CE033F9021BB0F900209142C4BFAEF845
:1021A000001023F8022CB342F3D10230B94505DD0B
:1021B0000137B845F9DD831C8646EAE74FEA5C0C37
:1021C0000CAB03EB4C0333F9260C0CAB03EB4C0CC0
:1021D0003CF9243C184400EBD07040F34F004CE72E
:1021E000134A582303FB0423DD636CE7104A58238A
:1021F00003FB04235A6CDA63DFF83C90DFF83C8081
:102200000F4F009677234A46414638460D4DA84762
:1022100003980E4B9847CDE9000178234A46414682
:102220003846A8474FE700BF5550010867250020F2
:102230006C2500204550020824BE0208746602087E
:10224000CC5B02080D44010884660208A54402081C
:102250000A220DF12E010C38874B9847874B1C78CA
:10226000BDF82E00864A582303FB04239D6C002DE5
:1022700054D000B2824A582303FB042393F825C0AC
:10228000BCF1010F1DD0582303FB04239F6A002FCC
:102290004ED0BCF1000F0DD0582303FB04230233B2
:1022A0002C2101FB04CC023202EB4C0223F8020F7A
:1022B0009342FBD1724A582303FB042301229A6202
:1022C000DA6286B26E4B582101FB043103AA543105
:1022D000A847002800F0AE80039D694A582303FBFD
:1022E00004232946186B674B984750B9644A582312
:1022F00003FB0423596B2846624B9847002800F0E3
:1023000093805F4A582303FB04235A6CDA635C4BC7
:10231000582202FB0434A4F8506043E500905E2389
:10232000594A5A495A485B4CA0475B48A04739E58F
:10233000534A582303FB0423DB6A2C2101FB04319D
:1023400002EB410290800133E046634527DA4C49B5
:10235000582202FB0412D362494A582303FB042388
:1023600093F8243013BB582303FB0423B3F9042050
:10237000BCF1010F0FDD4249582303FB0413043362
:102380002C2000FB04C0023101EB400033F9021F96
:102390000A448342FAD1B2FBFCF210B291E7384A08
:1023A000582303FB04230022DA62D5E7BCF1000FB7
:1023B0000DD0334B582202FB0432023203AB03EB45
:1023C0004C0032F8021F23F8021B8342F9D103A804
:1023D00000EB4C0608F1FF390CE033F9021BB0F9B1
:1023E00000209142C4BFAEF8001023F8022CB34283
:1023F000F3D10230B94505DD0137B845F9DD831C5D
:102400008646EAE74FEA5C0C0CAB03EB4C0333F96E
:10241000260C0CAB03EB4C0C3CF9243C184400EBB1
:10242000D07040F34F004CE7154A582303FB0423B8
:10243000DD636CE7124A582303FB04235A6CDA630A
:10244000DFF84490DFF84480114F009677234A4626
:10245000414638460F4DA8470398104B9847CDE9A1
:10246000000178234A4641463846A8474FE7034AC9
:102470001370A1E4704700BFE550010867250020F4
:102480006C2500204550020824BE0208746602082C
:10249000CC5B02080D44010884660208A5440208CA
:1024A0007047000038B5104BD3F84031C3B90E4C1B
:1024B000B4F954010D4B9847D4F844110C4B98478C
:1024C0000546B4F856010B4B9847014628460A4B7F
:1024D00098470A490A4B98470A4B984780B238BD3B
:1024E000014BD3F84801F7E76C2500204D4C02085A
:1024F000E54A0208454C0208F54C02080000C842B3
:102500005D4E0208CD50020838B5104BD3F8483262
:10251000C3B90E4CB4F95C020D4B9847D4F84C1279
:102520000C4B98470546B4F85E020B4B98470146A2
:1025300028460A4B98470A490A4B98470A4B98473E
:1025400000B238BD014BD3F85002F7E76C250020EC
:102550004D4C0208E54A0208454C0208F54C0208B9
:102560000000C8425D4E02088150020838B5104B89
:10257000D3F8A032C3B90E4CB4F9B4020D4B98474E
:10258000D4F8A4120C4B98470546B4F8B6020B4B8E
:102590009847014628460A4B98470A490A4B9847EC
:1025A0000A4B984700B238BD014BD3F8A802F7E7B1
:1025B0006C2500204D4C0208E54A0208454C0208F3
:1025C000F54C02080000C8425D4E02088150020826
:1025D000F0B40F4B03F59A67012000220D490E4E0F
:1025E0000025642483F8250083F824009A621A6089
:1025F0005964D96319649A649A631E635D63A3F88E
:102600004C20A3F84E405833BB42EBD1F0BC70478E
:102610006C25002000FF7F4700FE7F4738B51B4C2C
:102620000922214600201A4B984707212046194BC2
:102630009847054609212046174B984729461748D1
:10264000174B98472268174B9A421AD01648144BDA
:1026500098470E4C134B2360052323715E2363714F
:102660000123A371072120460A4B9847A4F80700CD
:102670000922214600200D4B98470D480D4B9847E5
:1026800038BDB4F80730AB42E0D1F6E7442A002069
:10269000059501085D380108ED380108BCBF020846
:1026A0000D4401082E33E18FC8BF020815960108BA
:1026B000542A0020AD29010870B5244B1B7813B3B0
:1026C000224B01221A70214B1878214B9847214B3D
:1026D0001B68002B08BF01231C4A1278012A0FD067
:1026E000042A0FD11B4A1268002A08BF0122D31AFC
:1026F000632B07DD174B1A6847F230539A4201D912
:10270000144B1B6870BD144E23213046134DA8474F
:10271000044624213046A847400040EA840044B2E1
:1027200025213046A8472043C0B20428C8D0072836
:1027300008D0064B00221A70064B1B68002BE1D113
:102740000123C9E7014B04221A70BCE73C2A002090
:10275000B91301088C34002060510020954E010807
:102760002DE9F843464D2846DFF83081C04706463C
:102770002846C047A5F58274000240EA262025F8C5
:10278000F80C28463F4EB04707462846B04700029F
:1027900040EA272025F8F00C05F11C0738463A4D91
:1027A000A84781463846A847000240EA2920A4F8F5
:1027B000780004F589773846C04781463846C047D7
:1027C000000240EA2920A4F842003846B04780467B
:1027D0003846B047000240EA2820A4F84A0004F531
:1027E00010763046A84707463046A847000240EA20
:1027F0002720A4F8AE002548254B9847F8B9E18C6E
:102800000A0242EA1122A4F80C21618D0A0242EA6E
:102810001122A4F80E21218D0A0242EA1122A4F805
:1028200010211C481A4B984790B11B4B0022A3F86B
:102830001A21A3F81C21A3F81E21BDE8F883164B2A
:102840000022A3F80C21A3F80E21A3F81021E8E739
:10285000114BB3F85C100A0242EA1122A3F81A21C4
:10286000B3F860100A0242EA1122A3F81C21B3F85F
:102870005E100A0242EA1122A3F81E21DDE700BF22
:10288000582B0020A9290108AD320108143000207E
:10289000992F010830310020542A0020A529010871
:1028A00070B51F4C20461F4DA8470646A01CA847E0
:1028B000014630461C4B98471C4B984724F8140C93
:1028C0001B4B984720811B4B9847E08204F1200066
:1028D000194B9847012816D0A4F58074B4F89810C5
:1028E0000B0243EA1123A4F80A311448124B98470B
:1028F00001280ED0124AB2F8CE100B0243EA11237F
:10290000A2F8183170BD0E4B4FF69C72A3F80A2145
:10291000EBE70B4B4FF69C72A3F81821F2E700BFD0
:10292000542B00207D2E0108892B0108A5240108C5
:10293000092501086D2501084D310108942C00205E
:10294000542A002010B50F4C23680F4B98470F4BAB
:1029500098470F4B98470F4B98470F4B1A682368BF
:10296000002B08BF01239B1AB3F5FA7F08DB23680D
:10297000002B08BF0123084A13600848084B9847FA
:1029800010BD00BF8C340020A1280108D5320108F9
:1029900061270108B9260108402A0020542A002096
:1029A000DD2A0108008870474088704710B504464A
:1029B0000C480D4B984720460C4B40F8D83F0C4B29
:1029C00098470C4BB3F8053003EB830303EB830309
:1029D0009B0084F8FC300A2384F8DC300B2384F855
:1029E000DD3010BD70C002080D44010884C002082B
:1029F000692E0108442A002010B50446E4300D4B2E
:102A0000984701460C480D4B984704F1D8000C4BF1
:102A1000984794F8E030012B03D194F8DF30042B71
:102A200003D00848054B984710BD0748034B98470B
:102A3000FAE700BF812E010814C002080D44010806
:102A4000A12C010860C0020848C00208F8B51C4D5E
:102A5000162128461B4CA047064617212846A047AA
:102A6000074618212846A047800040EA4700304327
:102A7000C0B2154B1B7883420CD0144B1B784BB95A
:102A8000134B1B68002B08BF0123124A13600F4B26
:102A900001221A700F4B19680D4B1B68002B08BFE1
:102AA00001230D4A14794FF47A7202FB04F25B1A87
:102AB0009A42BCBF044B1870034B1878F8BD00BF96
:102AC00060510020954E01084D2A00204E2A00201A
:102AD0008C340020502A0020442A002038B50446B7
:102AE0000748084DA8472046074B98472046074B04
:102AF0009847014684F899050548A84738BD00BFA6
:102B0000E4BF02080D440108F92901084D2A010813
:102B100004C00208144B0022C3F82C21C3F8302152
:102B2000012083F820011149C3F82811C3F84C2271
:102B3000C3F8502283F84002C3F84812C3F86C234C
:102B4000C3F8702383F86003C3F87824C3F86813CC
:102B5000C3F88824C3F88C2483F87C04C3F8942534
:102B6000C3F88414704700BF542A0020545000203A
:102B70007047704743888B4203D983888B4298BF44
:102B8000018000207047000070B50E460E4C0146D3
:102B900020460E4DA8473146A01DA84720880C4B63
:102BA0001B88834204D10B4B1A88E3889A4209D0D0
:102BB000074B1880044BD988064B198000231A460E
:102BC000054CA04770BD00BFFC2F0020752B0108ED
:102BD000F82F0020FA2F0020A198010870B50446B4
:102BE00009480A4B98470A4E012221793046094D7F
:102BF000A847002261793046A847074B1B68002B85
:102C000008BF0123A36170BD70C102080D44010813
:102C100078510020D54E01088C34002070B5044650
:102C200009480A4B98470A4E002221793046094D3F
:102C3000A847012261793046A847074B1B68002B43
:102C400008BF0123E36170BD7CC102080D44010887
:102C500078510020D54E01088C34002010B5044670
:102C60000548064B9847A08A41F29313984294BFB7
:102C70000020012010BD00BF48C102080D4401081A
:102C800010B504460448054B9847A08AB0F5FA7F72
:102C90008CBF0020012010BD5CC102080D4401085A
:102CA00070B582B00446C179828A8569614B1B6820
:102CB000002B08BF0123C6695E480068002808BFD2
:102CC0000120801B00905B1B5B485C4DA847E379AB
:102CD000062B3FD8DFE803F004133940A276A800A2
:102CE0002046574B984710B90223E37132E0204643
:102CF000544B98470123E371534A13602AE020465E
:102D0000524B9847F0B9A2694A4B1B68002B08BF89
:102D100001239B1A49F63F4293421BDD20464C4B50
:102D200098472046494B984794F82030002814BF14
:102D30001846581C84F820000623E37145483F4B91
:102D4000984707E00023E37104E02046404B984792
:102D50000323E37102B070BD2046394B984790B110
:102D6000394B1B682BB92046364B98470523E37136
:102D7000F0E72046364B98470023A3710422E27106
:102D800084F82030E6E7E2692A4B1B68002B08BF75
:102D900001239B1A49F63F429342DBDD20462C4B30
:102DA00098472046264B984794F82030002814BFB7
:102DB0001846581C84F820000623E37126481F4B50
:102DC0009847C7E72046214B9847F0B9A269194BAD
:102DD0001B68002B08BF01239B1A49F63F42934210
:102DE000B8DD20461A4B98472046184B984794F870
:102DF0002030002814BF1846581C84F820000623F1
:102E0000E37116480D4B9847A4E72046104B9847AE
:102E10000323E3710C4B01221A609BE70123237209
:102E20000F48064B984795E7012323720D48034B43
:102E300098478FE78C3400208CC002080D440108AD
:102E4000812C0108DD2B0108083000205D2C0108D1
:102E50001D2C0108DCC00208F0C0020804C10208F1
:102E60001CC1020834C10208002303728371C371BC
:102E700080F8213080F820308382704700887047C6
:102E800040687047A9B110B44B1E9BB20133C11802
:102E90004FF6FF73094C10F8012B82EA232234F815
:102EA000122082EA03239BB28842F4D1184610BC58
:102EB00070474FF6FF731846704700BF98C102086D
:102EC000324B1A69324B1B68002B08BF01239B1A37
:102ED000C72B52DD2D4BD3F82C212D4B1B68002B1B
:102EE00008BF01239B1AC72B49DD2A4B1A69284BBF
:102EF0001B68002B08BF01239B1AC72B41DD254B04
:102F0000D3F83021224B1B68002B08BF01239B1AEA
:102F1000C72B38DD1D4BDA681D4B1B68002B08BF23
:102F200001239B1AC72B22DD184BD3F82821184BFD
:102F30001B68002B08BF01239B1AC72B19DD154BFB
:102F4000DA68134B1B68002B08BF01239B1AC72BA1
:102F500011DD104BD3F82C010D4B1B68002B08BF63
:102F60000123181AC728D4BF002001207047002071
:102F700070470020704700207047002070470020F5
:102F80007047002070470020704700BF14300020B9
:102F90008C3400204C320020D0F81831064A1068DA
:102FA000002808BF0120C01A47F230539842D4BF0E
:102FB00000200120704700BF8C34002038B5054642
:102FC0000C4603780B7003234B7000234B804FF4A7
:102FD00040638B8006212046084B9847030AA37163
:102FE000E071074B1B68002B08BF01232B61AB6806
:102FF000DB68082120469847012038BD852E01084E
:103000008C34002038B505460C4603780B70062139
:1030100061704FF49073638020460B4B9847030A0E
:10302000A371E07108212046084B9847AB68DB6824
:10303000082120469847064B1B68002B08BF012338
:10304000EB60012038BD00BF852E0108ED38010876
:103050008C34002038B505460C4603780B700621E9
:1030600061704FF4907363802046094B9847030AC0
:10307000A371E071AB68DB68082120469847054BD7
:103080001B68002B08BF0123EB60012038BD00BF87
:10309000852E01088C3400202DE9F04104460E46AF
:1030A00000F1160500F58B712B46002203F8012B69
:1030B0008B42FBD10023A382A3681B694FF480716C
:1030C00028469847074683B2A3826BB3A17D227836
:1030D00091422ED194F81780B8F1030F2CD1023B06
:1030E00099B22846174B9847BFB2E319C0F307229D
:1030F0001B7D9A4223D127447B7DC0B2834202D0FC
:103100004FF0040812E0731E04F1340115F8012B8E
:1031100003F8012F8D42F9D10B4B1B68002B08BF20
:103120000123C4F8183101E04FF001084046BDE822
:10313000F0814FF00208F9E74FF00208F6E74FF090
:103140000408F3E7852E01088C3400208369064AC1
:103150001068002808BF0120C01A47F23053984277
:10316000D4BF0020012070478C34002038B50546BC
:103170000C4603780B7003234B704FF4C8434B800D
:103180004FF480538B8006212046094B9847030A51
:10319000A371E071074B1B68002B08BF01232B6153
:1031A000AB68DB68082120469847012038BD00BF86
:1031B000852E01088C34002038B505460C4603786E
:1031C0000B70062161700023A3702046084B9847BE
:1031D000030AA371E071074B1B68002B08BF012392
:1031E0002B61AB68DB68082120469847012038BD79
:1031F000852E01088C3400202DE9F04104460E464E
:1032000000F11E0500F58F712B46002203F8012BFB
:103210008B42FBD10023A383A3681B694FF4807109
:1032200028469847074683B2A38363B3A17F2278D9
:1032300091422DD194F81F80B8F1030F2BD1023B9E
:1032400099B22846174B9847BFB2E319C0F307223B
:103250001B7F9A4222D127447B7FC0B2834202D097
:103260004FF0040811E0731E04F1440115F8012B1E
:1032700003F8012F8D42F9D10B4B1B68002B08BFBF
:103280000123A36101E04FF001084046BDE8F08151
:103290004FF00208F9E74FF00208F6E74FF0040894
:1032A000F3E700BF852E01088C340020808A704728
:1032B000064B33221A70342283F81C21044B35222A
:1032C0001A70362283F82021704700BF1430002086
:1032D0004C32002008B5604B1B68062B08D8DFE88D
:1032E00003F0041A374E657B99005C4B984700B990
:1032F00008BD5B4B1B685B4A52F823105A4A4FF4D7
:103300008E7000FB0320594B98470128F0D1524B97
:1033100001221A60ECE7514B98470028E8D0504B47
:103320001B68504A52F8231018314F4A4FF48E70E0
:1033300000FB03204E4B9847032805D00128D7D126
:10334000454B00221A60D3E7434B02221A60CFE7B5
:10335000424B98470028CBD0414B1B68414A52F85A
:1033600023100831404A4FF48E7000FB0320414B7C
:1033700098470128BCD1384B03221A60B8E7374B75
:1033800098470028B4D0364B1B68364A52F82310B1
:103390001031354A4FF48E7000FB0320364B9847AE
:1033A0000128A5D12C4B04221A60A1E72B4B98478A
:1033B00000289DD02A4B1B6803EBC3002F4A52F80C
:1033C00023102F4B03EB40102E4B984701288FD131
:1033D000214B05221A608BE7204B9847002887D0A5
:1033E0001F4B1868254B53F8201000EBC00010311C
:1033F000234B03EB4010244B9847032806D00128A9
:103400007FF476AF144B04221A6071E7124B062248
:103410001A606DE7114B984700283FF469AF104BD5
:103420001868164B53F8201000EBC0000831144BFD
:1034300003EB4010154B984700283FF459AF064B5B
:1034400000221A60064A1368013303F0010348BFE3
:103450005B4213604CE700BF10300020C12E010812
:103460000C30002088C1020814300020BD2F010854
:1034700099300108553001080530010890C1020853
:103480004C3200206D310108F9310108B9310108D1
:10349000104B0022DA601A61012018700E49996001
:1034A000C3F82C21C3F8302183F82001C3F8281178
:1034B0000A4BDA601A611870C3F818219960C3F8D2
:1034C0002821C3F82C2183F81C01C3F83422C3F847
:1034D000241170474C32002054500020143000203A
:1034E000F0B40023012503260DE0C26806FA07F4B4
:1034F00022EA0402C260C468CA79BA402243C260A8
:103500000133102B2CD005FA03F20C68A243F7D13B
:1035100004685F0006FA07F2D24314400460D0F852
:1035200000C00C79BC4044EA0C0404600C79013CF6
:10353000E4B2012CD9D884682240826084684A7938
:10354000BA4022438260426805FA03F422EA040288
:10355000426044688A799A4092B222434260C4E74A
:10356000F0BC7047018370474183704710B401F08D
:1035700007039B00C90800EB8100016A0F249C40EF
:1035800021EA04010162016A9A400A43026210BC06
:103590007047000010B4284B9B6803F00C03042B09
:1035A00022D0082B23D013B1244B036001E0234B1E
:1035B0000360214CA368C3F303132149CB5CDAB247
:1035C0000368D3404360A268C2F382228A5CD2B20D
:1035D00023FA02F28260A268C2F342328A5CD2B25B
:1035E000D340C36010BC7047164B0360E1E7124B39
:1035F00059685A6802F03F0211F4800F11D05968DF
:10360000C1F388110F4BB3FBF2F303FB01F30A4A3A
:103610005268C2F3014201325200B3FBF2F303607D
:10362000C7E7054B5968C1F38811044BB3FBF2F3AC
:1036300003FB01F3EBE700BF003802400024F40075
:10364000C805001000127A0029B9054A136B23EA55
:10365000000010637047024A136B184310637047F1
:103660000038024029B9054A936B23EA00009063B1
:103670007047024A936B18439063704700380240CA
:1036800029B9054A136C23EA000010647047024A06
:10369000136C1843106470470038024029B9054A7A
:1036A000536C23EA000050647047024A536C18437D
:1036B000506470470038024029B9054A136A23EA6A
:1036C000000010627047024A136A18431062704784
:1036D0000038024029B9054A536A23EA00005062C3
:1036E0007047024A536A18435062704700380240DC
:1036F000084B1B6813F4803F0BD0074A1368013353
:103700001360064B4AF6AA221A60054B4FF080520E
:103710005A60704710E000E08C3400200030004018
:1037200000ED00E000B585B06846144B9847019B5A
:10373000134AA2FB03235B0A013B124A5360002396
:103740009360114BE02183F82310072313606FF07F
:1037500004000E4B984745F255500D4B98470320F7
:103760000C4B98474FF4FA600B4B98470B4B98471C
:103770000B4B984705B05DF804FB00BF9535010879
:10378000D34D621010E000E000ED00E0C5C4010878
:1037900061CC01086DCC010879CC010885CC010809
:1037A00095CC0108044B1B681844034A13681B1A84
:1037B000002BFBDB704700BF8C34002008B51B4B8F
:1037C00098471B4A1B4B9A420DD2194A111D1A4B9E
:1037D0005B1A23F003030B44184951F8040B42F819
:1037E000040B9A42F9D1164A164B9A420BD2144A4C
:1037F000111D154B5B1A23F003030B44002142F803
:10380000041B9A42FBD1114A114B9A60ADF500732B
:1038100083F309884FF0020282F31488BFF36F8F9D
:103820000C4B98470C4B9847FEE700BFF5CF0108BB
:1038300000000010A40A0010A70A00101CD40208FF
:1038400000000020BD5D0120C05D012000000108D6
:1038500000ED00E00D540208C163010889B110B405
:1038600041180023084C10F8012B82EA132234F887
:10387000122082EA03239BB28842F4D1184610BC7E
:10388000704700231846704798C3020870B4F1B11E
:10389000411800240F4E10F8015B85EA142536F814
:1038A000155085EA0424A4B28842F4D163B11344CC
:1038B000084D12F8011B81EA142135F8110080EA45
:1038C0000424A4B29A42F4D1204670BC704700246C
:1038D000ECE700BF98C30208031103EB830300F079
:1038E0000F0000EB4300C0B2704700002DE9F84321
:1038F00005460E461348144B9847002E1CDD2978C8
:103900001248114B98470024DFF840800E4FDFF833
:1039100040900134A6420FD015F8011F4046B84729
:10392000624204F00F0302F00F0258BF53420F2B04
:10393000EFD14846B847ECE70548034B9847BDE848
:10394000F88300BF98C502080D440108C0C50208ED
:103950002CCE020808B5C36800699847F02383F3AA
:103960001188054B1A6800239361044A4FF0805177
:10397000516083F3118808BDF035002000ED00E0B0
:103980000C4A0D4B136011680120886111680022F8
:103990004A615A641A67C3F89C20C3F8C820C3F868
:1039A000F420C3F82021C3F84C21044BF02283F803
:1039B00022207047F03500209034002000ED00E018
:1039C0002DE9F84380461C4C01251C4EDFF8789009
:1039D0001B4F06E029461B48B84701352C34082DFB
:1039E00026D0636C002BF8D0236B1968B142F1D15B
:1039F000616B80398908012916D95A68B2F1FF3FF5
:103A000014D10833012201328A4204D053F8040B46
:103A1000B0F1FF3FF7D0B8F1000FDED0013A9200CD
:103A200029464846B847D8E70122F4E70122F2E7E1
:103A30000020BDE8F88300BF9034002001F65AA5AD
:103A40000D440108C8C50208E4C502082DE9F84381
:103A500007468946154698460020574B984715F06B
:103A6000030F40F0A580B8F1FF0F40F2A380F023D0
:103A700083F31188514B5B6C63B1504B02201A6F7A
:103A80004AB101302C330828F9D1002383F311887F
:103A90004B488BE00120494C2C2101FB00F104EB49
:103AA000010C0828F1D0474B2B60A8F18003042BB0
:103AB0000DD92B1DA8F1850222F0030205F1080E95
:103AC00072444FF0FF3643F8046B9342FBD1CCF8BD
:103AD0000450CCF8088045442B1F63504FF080738E
:103AE00045F8043C63581A1F6250374A43F8042CC7
:103AF0006258131F6350002342F8043C6258151F9C
:103B0000655042F8043C6258151F655042F8043C69
:103B10006258151F655042F8043C6258151F6550E5
:103B200042F8043C6258151F655042F804CC6258B4
:103B3000151F65506FF0020542F8045C6258151FAE
:103B4000655042F8043C6258151F655042F8043C29
:103B50006258151F655042F8043C6258151F6550A5
:103B600042F8043C6258151F655042F8043C625804
:103B7000151F655042F8043C6258151F655042F805
:103B8000043C6258151F655042F8043CCCF80C7098
:103B9000CCF810900122CCF81820089ACCF8142008
:103BA000CCF82030CCF8243083F31188BDE8F883BA
:103BB0000648FBE70648F9E7B93E020890340020C2
:103BC000F4ADFFFF01F65AA555390108F3ADFFFF2B
:103BD000F2ADFFFF08B5F02383F31188002815DB51
:103BE0000F4B1A680F4B9A4214D00D4B1B680222E0
:103BF0009A610D4B1B68002B08BF0123084A12680D
:103C000018445062094B4FF080525A60002383F3EE
:103C1000118808BD002383F31188054B9847F8E706
:103C2000F0350020903400208C34002000ED00E0BE
:103C3000A5370108F0B51A4B0027BC4601241948E6
:103C400025464FF0030E19E012F0020F0FD0026864
:103C5000002A08BF01220E6D921B002A07DB4D646B
:103C60004D650A6CBA42C4BF1746A44602E04A6CCE
:103C7000012AF6D001342C33082C0CD019465A6C8A
:103C800012F0080FE0D09E6C3668002EDCD05D6428
:103C9000C3F854E0E5E7024B2C2000FB0C30F0BDEC
:103CA000903400208C34002003682BBB31B310B457
:103CB000F02383F311880029CCBF0A240824104B79
:103CC0001A6894611B68D8610E4B1B68002B08BFF3
:103CD00001230B4A1068194441620B4B4FF080518D
:103CE0005960002383F3118813689B6A032B0748EC
:103CF00008BF002010BC7047002070470348704781
:103D0000F03500208C34002000ED00E0F8ADFFFF1E
:103D1000F02383F311880368002B05DD013B03606A
:103D2000002080F31188704719B310B4013B036081
:103D30000029CCBF06240424104B1A6894611B6828
:103D400018620F4B1B68002B08BF01230B4A106839
:103D5000194441620B4B4FF080515960002383F3AB
:103D6000118813689B6A022B074808BF002010BC0B
:103D70007047002383F3118803487047F035002013
:103D80008C34002000ED00E0F8ADFFFFF02383F35A
:103D90001188036801330360002B03DD002383F3E4
:103DA0001188704770B4134B00263546012203E09A
:103DB00001322C33082A0CD0596811F0040FF7D0C7
:103DC000D9688142F4D11968B142C4BF0E46154684
:103DD000EEE7094B2C2202FB053301229A610222F5
:103DE0009A62064B4FF080525A60002383F3118889
:103DF00070BC7047D03400209034002000ED00E00B
:103E000000B5FFF717FF5DF804EB084A1168884218
:103E10000AD01060EFF3098323E9F04F0B600368C9
:103E2000B3E8F04F83F3098870477047F0350020FE
:103E3000502383F311887047002383F31188704760
:103E40002DE9F84307460E464FF0FF312C482D4B25
:103E50009847002E4FDD2C4CDFF8BC904FF0000847
:103E600007E088F31188002D41DD2F44761B002EDA
:103E700041DD502383F31188A2886188551AB54229
:103E8000A8BF354623880B449A42D8BF9B1A002D01
:103E90000DDD7A1E02EB050C12F8010FA168C85463
:103EA0000133A1888B42A8BF00236245F4D1638807
:103EB0002B449BB26380002BD3D0E388002BD0D15E
:103EC00041464846114B98472288A3681344C9F8D5
:103ED0000C306388A18898188842C8BF8B1AC9F82B
:103EE0000430E38001214846084B9847B9E7022097
:103EF000074B9847BBE70248064B9847BDE8F88355
:103F0000143F0020113D010804360020E5CA0108D5
:103F1000D53B01088D3D0108B8640240F0B4344B34
:103F20005968C1F180011B6813F4002F32D0314B66
:103F30001B681BB1304B1C688C4202DB0120F0BCBB
:103F400070472E4A908855880B1B471B9F42A8BF7D
:103F50001F4613882B449842D8BF1B1A002F12DD2E
:103F6000274804F17F0202447F3020443844234C28
:103F700012F8016FA568EE540133A588AB42A8BFC3
:103F800000239042F4D11D4A53883B4453801A4B7E
:103F90001960D3E7174B18680028CFD1164B1C685F
:103FA0008C42CBDA154A958856880F1BAB1B9F4273
:103FB000A8BF1F46138833449D42D8BF5B1B002F08
:103FC0000FDD0F4A224402EB070C0C4C12F8016B78
:103FD000A568EE540133A588AB42A8BF03466245ED
:103FE000F4D1064B5A8817445F80034B1960A5E74C
:103FF00088640240F435002010370020F835002096
:104000001036002070B506460C46502383F3118805
:10401000104B9847104B5888A042A8BF20461B88D9
:1040200000280EDD721E0644013E0B4CA568ED5CB7
:1040300002F8015F0133A588AB42A8BF0023B2425A
:10404000F4D1054A138053881B1A5380002383F34D
:10405000118870BD1D3F0108F83500202DE9F041A1
:104060000C1E11DD0546094E4FF00208084F03E013
:104070004046B847002C07DD21462846B0470028B7
:10408000F6DD0544241AF5E7BDE8F0810540010896
:10409000D53B010810B5204AD3885288934211DBE2
:1040A0001D4B00225A801A801C4B4FF07462DA605C
:1040B000194B5B88BBB90021174BD9801848194BA5
:1040C000984710BD002BEFD013480188194489B2DE
:1040D00001808088814202D3091A0F480180D31AD7
:1040E0000D4A5380E0E70E4C002120460D4B9847C7
:1040F000094B19889A680A44E2605A889B885018CC
:104100009842C8BF5A1A06484260034BDA80012120
:10411000044B9847D5E700BF0436002000640240F6
:10412000B8640240E5CA0108F0B4384B4FF4746239
:10413000DA6088331B6813F4002F32D0344B1968CF
:1041400019B9344B18687F2807DD314B01221A60FA
:10415000304B00221A60F0BC70472F4A9488558873
:10416000C0F18006631B9E42A8BF1E4613882B44E5
:104170009C42D8BF1B1B002E0EDD284A0244971913
:10418000254812F8015B8468E55401338488A34212
:10419000A8BF0B46BA42F4D11F4B5A8816445E8022
:1041A000D3E71B4B1B681BB11A4B18687F2805DD32
:1041B0000023174A1360174A1360CCE7164A918808
:1041C0005488C0F180030E1B9E42A8BF1E46138870
:1041D00023449942D8BF5B1A002E12DD0F4900F12B
:1041E0007F020A447F31014431440B4812F8015FD9
:1041F0008468E55401338488A342A8BF00238A421F
:10420000F4D1054A538833445380D1E70064024017
:10421000F435002010370020F8350020103600203B
:104220002DE9F04F91B05B4B5B4A9A604FF400610F
:1042300099800024DC805C801C80584A584B936035
:104240009180D48054801480564B1C60564B1C6067
:10425000564B1A60564A5A60564A9A60564ADA6075
:10426000564A1A61564A5A61564A9A61564B012279
:104270001A600190ADF80840ADF80A40ADF80C4066
:10428000ADF810400C23ADF80E3001A94F48504B4B
:10429000984701214FF480004E4B98474FF0006B38
:1042A000CDF804B0DFF84CA1CDF808A00394402667
:1042B00004968027059706944FF48063079308942B
:1042C00009940A944FF400330B930C9403230D9339
:1042D0000E940F94DFF8208140463F4DA84701A976
:1042E0004046DFF81891C847012210214046DFF808
:1042F0001081C047CDF804B0CDF808A0DFF804A1C4
:10430000CDF80CA00494059706944FF480630793AE
:10431000089409940A944FF400330B930C940323EC
:104320000D930E940F94DFF8E0B05846A84722464C
:104330000AEB07015846294B984701215846284B5C
:10434000984701A95846C847012210215846C0473E
:10435000244B502283F825232021596083F84623DB
:104360009E6083F8442310229A6001223946174840
:104370001D4CA047012231461448A0470121584650
:104380001A4B984701211148194B984711B0BDE8C5
:10439000F08F00BF04360020183F0020F8350020C1
:1043A00014370020F435002010370020184B00206F
:1043B000313E0108393E0108413E0108054001082F
:1043C0005D4001081D3F0108143F0020001001401E
:1043D00001CF01084936010835C90108FBCA0108A7
:1043E00013CB010800E100E0DFCF0108E5CA0108B6
:1043F000C5CF010804100140B86402408DCA01080D
:1044000029CB010810360020886402400FB42DE942
:10441000F04383B00AAC54F8046B4FF0FF313848D6
:10442000384B98470194384D234632464FF480610B
:104430002846364CA0472B7873B115F8013F002B66
:10444000FBD1314BED1A002D52DD2F4F304CDFF8F0
:10445000D0904FF0000809E02B4DF2E788F3118867
:10446000002E41DD3744AD1B002D41DD502383F389
:104470001188A2886188561AAE42A8BF2E462388AA
:104480000B449A42D8BF9B1A002E0DDD7A1E02EB18
:10449000060C12F8010FA168C8540133A1888B42A1
:1044A000A8BF00239445F4D1638833449BB2638052
:1044B000002BD3D0E388002BD0D141464846154B82
:1044C00098472288A3681344C9F80C306388A188F0
:1044D00098188842C8BF8B1AC9F80430E3800121BC
:1044E00048460C4B9847B9E702200B4B9847BBE76F
:1044F00003480A4B984703B0BDE8F04304B0704747
:10450000143F0020113D01081847002075B801082C
:1045100004360020E5CA0108D53B01088D3D01089D
:10452000B8640240084B5B8898420ADA064A13884E
:10453000184493889842A8BFC01A034B9B68185C24
:1045400070470020704700BFF835002070B4104B52
:104550005B8884189C42C8BF1A1A0D4C23880344F8
:10456000A0888342A8BF1B1A002A0DDD01398E18CE
:10457000074CA568ED5C01F8015F0133A588AB42EB
:10458000A8BF0023B142F4D1104670BC704700BFF1
:10459000F83500200C4B5A88904211DA00280EDDC5
:1045A00080B209490B8803449BB20B8089888B42F7
:1045B00002D35B1A04490B80101A034B58807047D2
:1045C00000225A801A807047F8350020502383F368
:1045D00011887047002383F3118870472DE9F84351
:1045E0000E1E52DD0746DFF8B480294CDFF8B0908C
:1045F00008E0002383F311889D4242DD2F44761B9F
:10460000002E42DDC047502383F31188A2886188C1
:10461000551AB542A8BF354623880B449A42D8BFE5
:104620009B1A002D0DDD7A1E02EB050C12F8010F0E
:10463000A168C8540133A1888B42A8BF00239445C8
:10464000F4D163882B449BB26380002BD1D0E388E4
:10465000002BCED1002148460E4B98472288A368F4
:104660001344C9F80C306388A18898188842C8BFE1
:104670008B1AC9F80430E38001214846054B98475E
:10468000B7E70120044B9847BAE7BDE8F88300BFBD
:10469000444B0020E5CA0108D53B0108B95F010879
:1046A00070600240F0B4344B5968C1F180011B685E
:1046B00013F4002F32D0314B1B681BB1304B1C68F8
:1046C0008C4202DB0120F0BC70472E4A908855884E
:1046D0000B1B471B9F42A8BF1F4613882B449842C1
:1046E000D8BF1B1A002F12DD274804F17F020244B5
:1046F0007F3020443844234C12F8016FA568EE54F3
:104700000133A588AB42A8BF00239042F4D11D4AD3
:1047100053883B4453801A4B1960D3E7174B1868F2
:104720000028CFD1164B1C688C42CBDA154A9588ED
:1047300056880F1BAB1B9F42A8BF1F4613883344EC
:104740009D42D8BF5B1B002F0FDD0F4A224402EBB6
:10475000070C0C4C12F8016BA568EE540133A588C8
:10476000AB42A8BF03466245F4D1064B5A881744B2
:104770005F80034B1960A5E740600240344B002086
:10478000504C0020384B0020504B002070B506469E
:104790000C46502383F31188104B9847104B5888D0
:1047A000A042A8BF20461B8800280EDD721E0644CA
:1047B000013E0B4CA568ED5C02F8015F0133A58852
:1047C000AB42A8BF0023B242F4D1054A13805388FC
:1047D0001B1A5380002383F3118870BDA54601087E
:1047E000384B00202DE9F0410C1E11DD0546094E25
:1047F0004FF00208084F03E04046B847002C07DDA1
:1048000021462846B0470028F6DD0544241AF5E77E
:10481000BDE8F0818D470108D53B010810B5204A5D
:10482000D3885288934212DB1D4B00225A801A8093
:104830001C4B3D22DA601A4B5B88CBB90021184B28
:10484000D9801948194B9847194B984710BD002B30
:10485000EED013480188194489B2018080888142D2
:1048600002D3091A0E480180D31A0D4A5380DFE79C
:104870000D4C002120460D4B9847094B19889A682A
:104880000A44E2605A889B8850189842C8BF5A1A56
:1048900005484260024BDA800121044B9847D5E776
:1048A000444B00200060024070600240E5CA0108ED
:1048B000915F0108F0B4384B4FF474129A604033A2
:1048C0001B6813F4002F32D0344B196819B9344BDC
:1048D00018687F2807DD314B01221A60304B002217
:1048E0001A60F0BC70472F4A94885588C0F1800642
:1048F000631B9E42A8BF1E4613882B449C42D8BF10
:104900001B1B002E0EDD284A02449719254812F879
:10491000015B8468E55401338488A342A8BF0B4639
:10492000BA42F4D11F4B5A8816445E80D3E71B4B22
:104930001B681BB11A4B18687F2805DD0023174A36
:104940001360174A1360CCE7164A91885488C0F167
:1049500080030E1B9E42A8BF1E4613882344994223
:10496000D8BF5B1A002E12DD0F4900F17F020A4406
:104970007F31014431440B4812F8015F8468E554EB
:1049800001338488A342A8BF00238A42F4D1054A98
:10499000538833445380D1E700600240344B0020F9
:1049A000504C0020384B0020504B00202DE9F04F98
:1049B00091B00546594B5A4A9A604FF4007199805C
:1049C0000024DC805C801C80564A574B93609180A9
:1049D000D48054801480554B1C60554B1C60554B43
:1049E0001A60554A5A60554A9A60554ADA60554AE3
:1049F0001A61554A5A61554A9A6105210846544B35
:104A000098470195ADF80840ADF80A40ADF80C4064
:104A1000ADF810400C23ADF80E3001A94D484E4BB7
:104A2000984701214FF400104C4B98474FF0006B12
:104A3000CDF804B0DFF84CA1CDF808A003944023D2
:104A400004938025059506944FF48063079308949A
:104A500009940A944FF400330B930C9403270D9799
:104A60000E940F943E4E3046DFF81C91C84701A9C2
:104A70003046DFF81881C047012210213046394EF8
:104A8000B047CDF804B0CDF808A0DFF804A1CDF808
:104A90000CA00494059506944FF480630793089442
:104AA00009940A944FF400330B930C940D970E94D1
:104AB0000F942D4F3846C84722460AEB0501384669
:104AC0002A4B984701213846294B984701A9384677
:104AD000C047012210213846B047264B502283F8A8
:104AE0000F234FF40041196083F80D234FF4005257
:104AF0001A600122294617481F4CA0470122402175
:104B00001448A047012138461C4B98470121114801
:104B10001B4B984711B0BDE8F08F00BF444B0020FD
:104B2000544E0020384B0020544C0020344B0020C1
:104B3000504C002054500020CD450108D5450108B7
:104B4000DD4501088D470108E5470108A546010834
:104B5000C14C0108004C004001CF01084936010852
:104B60007060024029CB010840600240FBCA010886
:104B700013CB010800E100E0DFCF0108E5CA01081E
:104B8000C5CF0108044C004035C901088DCA010891
:104B9000504B002008B50D4B9A6A4FF6FE711182FA
:104BA0001B6A6BB1094A506A984750B9074B0022FB
:104BB0001A629A6A138823F001031B041B0C1380EA
:104BC00008BD024B9B6A00225A62F9E77050002030
:104BD00008B50D4B9A6B4FF6FE7111821B6B6BB1D2
:104BE000094A506B984750B9074B00221A639A6BD9
:104BF000138823F001031B041B0C138008BD024B18
:104C00009B6B00225A62F9E77050002008B50D4BEB
:104C10009A6C4FF6FE7111821B6C6BB1094A506C95
:104C2000984750B9074B00221A649A6C138823F0F6
:104C300001031B041B0C138008BD024B9B6C00225C
:104C40005A62F9E77050002008B50D4B9A6D4FF687
:104C5000FE7111821B6D6BB1094A506D984750B9B6
:104C6000074B00221A659A6D138823F001031B0479
:104C70001B0C138008BD024B9B6D00225A62F9E7A2
:104C80007050002008B50D4B9A6E4FF6FE711182E0
:104C90001B6E6BB1094A506E984750B9074B002202
:104CA0001A669A6E138823F001031B041B0C1380F1
:104CB00008BD024B9B6E00225A62F9E7705000203B
:104CC00070B584B005465F4A0301D0180024D45063
:104CD0000173AB1E0C2B00F2B380DFE803F0074436
:104CE0004D565F68B1717C87929CA600554B4FF082
:104CF00080429A6201210846534B98471C24514E2A
:104D000006EB0516B5682846504B98474FF4FA63F2
:104D100002935323ADF804300023ADF80C30ADF806
:104D2000063001A928464A4B984701212846494B9D
:104D3000984701212846484B9847012211462846AA
:104D4000464B9847337B1B01DBB2454A111981F86A
:104D50000033630904F01F04012000FA04F442F850
:104D6000234004B070BD374B3E4A9A6301210220B4
:104D7000354B98471D24C2E7324B3B4A9A640121C8
:104D80000420314B98471E24B9E72E4B374A9A65C9
:104D9000012108202C4B98473224B0E7294B344A94
:104DA0009A6601211020284B98473624A7E7254B07
:104DB000304A9A6701212020234B984737249EE7E9
:104DC000204B2D4AC3F8982001214FF480302B4B03
:104DD0009847182493E71B4B294AC3F8A8200121C0
:104DE0004FF40030254B9847192488E7154B254A86
:104DF000C3F8B82001214FF48020204B98471A2493
:104E00007DE7104B204AC3F8C820012140200E4BFB
:104E100098472B2473E70B4B1C4AC3F8D820012179
:104E20008020094B98472C2469E7064B184AC3F8A1
:104E3000E82001214FF48070034B98472D245EE752
:104E400000208EE77050002081360108BDCC01089B
:104E500041CE0108C9CE0108F7CE0108E3CE010812
:104E600000E100E00004004000080040000C0040A9
:104E70000010004000140040004001409D36010831
:104E8000004401400048014000180040001C004060
:104E900000200040002918DB03688B4217DD01F079
:104EA000070201239340DBB20A460029B8BFCA1D9E
:104EB000D2108118497A0B4214BF0E300430825C44
:104EC000134214BF012000207047002070470020CB
:104ED0007047000010B582B0002912DB03688B42D6
:104EE0000FDD043001F007040123A34092B90A4604
:104EF0000029B8BFCA1DD210815C21EA0303835484
:104F000006E000912C23084A08490948094CA047AB
:104F100002B010BD0A460029B8BFCA1DD210815C7C
:104F20000B438354F4E700BF1CC602080CC60208FA
:104F3000CC5B02080D4401082DE9F0410368DC1D3B
:104F4000B2EBE40F2BDB002B25DD0E4605460024DB
:104F5000DFF8508001270CE02246002CB8BFE21D8C
:104F6000D210B15C21EA0303B35401342B68A3428D
:104F700011DD21462846C04704F0070307FA03F372
:104F80000028E9D02246002CB8BFE21DD210B15C47
:104F90000B43B354E9E7D81DC010BDE8F0816FF0B2
:104FA0000500FAE7954E010800280ADD70B5441E99
:104FB0000126044D3046A847013CB4F1FF3FF9D12A
:104FC00070BD7047D53B010870B582B004460D46F0
:104FD0001646072814DD0F281ADC00F0070003210D
:104FE00040F0B000144B98473046144B98472A467F
:104FF00001210220124B9847A0B1002002B070BDE1
:1050000000F00700032140F0E0000B4B9847EBE76E
:10501000009019230B4A0C490C480D4CA0476FF027
:105020000900EBE700941F23064A07490748084C8C
:10503000A0474FF0FF30E1E7D1990108D53B0108C7
:10504000955201082CC6020820C60208CC5B020853
:105050000D44010870B582B004460D461646072877
:1050600015DD09281BDC043800F00700032140F09F
:105070007000154B98473046144B98472A4601213B
:105080000220134B9847A0B1002002B070BD00F081
:105090000700032140F0D0000B4B9847EBE700904E
:1050A00043230C4A0C490D480D4CA0476FF00900F2
:1050B000EBE700944923074A07490848084CA047F2
:1050C0004FF0FF30E1E700BFD1990108D53B01085F
:1050D0009552010848C6020820C60208CC5B0208A7
:1050E0000D44010870B582B00446032815DC0D4656
:1050F0001646063000F00700032140F0D000114BA7
:1051000098473046104B98472A46002102200F4B03
:10511000984760B1002002B070BD009068230C4A2F
:105120000C490D480D4CA0476FF00900F3E70094BF
:105130006E23074A07490848084CA0474FF0FF3044
:10514000E9E700BFD1990108D53B01089552010854
:1051500038C6020820C60208CC5B02080D440108CC
:10516000F0B583B0032807D8DFE800F0021F242938
:10517000490061F03E01CAB201238DF804308DF878
:105180000520E3238DF80630032301AAFF211F48E1
:1051900000781F4CA047021E16DB01201D4B9847CC
:1051A00031241A4D1C4E1B4F1DE0490061F02E01A9
:1051B000CAB2E1E7490061F01E01CAB2DCE749006A
:1051C00061F00E01CAB2D7E7104B19781348144B9F
:1051D0009847002018E029781248114B9847022080
:1051E000B847013C0DD0022301AA01212878B0471D
:1051F000021EF0DB9DF90430002B04DB0220B847CF
:10520000EFE7002000E0012003B0F0BD9051002046
:1052100061920108A94F01085993010860C602086C
:105220000D44010884C6020830B583B0054601204C
:10523000134B9847022301AA002112480078124C10
:10524000A047002812DC01200D4B9847022301AA39
:1052500000210C480078A047021E07DC094B197892
:105260000A480B4B9847002003B030BD9DF804203E
:105270009DF8053003EB02232B800120F4E700BFEB
:10528000A94F01089051002059930108A0C60208B7
:105290000D44010810B51446064B48221A70064BFF
:1052A0009847034608B9184610BD2046034B984757
:1052B0000346F8E790510020615101082952010886
:1052C00008B54FF480610248024B9847002008BDA2
:1052D000000C02406535010808B54FF480710248A2
:1052E000024B9847002008BD0008024065350108C0
:1052F00008B504210248034B9847002008BD00BFB1
:10530000001002406535010870B582B001210DF131
:1053100007000E4B9847012803D00024204602B016
:1053200070BD04469DF807300D2B03D00A2B01D029
:105330000024F3E70648074B98470126034D314602
:105340000DF10700A8470128F9D0E7E7054001085B
:10535000E4C902080D4401082DE9F04781463148AF
:10536000314B9847314B9847314B98474FF00008E5
:105370004746304E06F1FF04DFF8D4A0B94533D9D3
:10538000721E3546AA2302F8013F013BDBB2A2425E
:10539000F9D14FF4807231463846D0473346002168
:1053A00006F5087203F8011B9342FBD14FF480729B
:1053B00031463846204B98473278AA2A19D1A9237A
:1053C000012115F8012F9A4214D10131013BDBB2C2
:1053D000B1F5807FF5D107F58077C7F30E037BB178
:1053E000164B98470028C9D015480F4B9847012005
:1053F00004E0002113480C4B98470020BDE8F087DB
:10540000642101FB07F1B1FBF9F10F48064B984706
:1054100008F1010818F01F0FE2D10C48024B984721
:10542000DEE700BFFCC902080D440108059F010822
:10543000459E010894510020519B01080953010821
:105440003CCA020820CA020838CA02082CCE020848
:10545000999C010838B50446022108460B4B984731
:105460004FF4F8034FF4FC0200210120084DA84737
:10547000E1B20120074B9847074C21460748084BEB
:1054800098472046074B984738BD00BF51F00108A8
:10549000A1F101085D080208C4530020C4C6020837
:1054A0000D44010851080208004870479F65340107
:1054B0000120704738B580B1104D4FF40061284687
:1054C0000F4CA0474FF480512846A047082128469A
:1054D000A04710212846A0470FE0084D4FF4006177
:1054E0002846084CA0474FF480512846A047082181
:1054F0002846A04710212846A04738BD001002408A
:1055000065350108693501082DE9F04182B004468E
:1055100000F23510244B9847034618B9184602B0DC
:10552000BDE8F0814FF49660204B98470021684613
:105530001F4B984703460028F0D094F838011D4EC1
:10554000B047074694F83901B0474FF46168C0EBA3
:105550000010850008FB075794F83A010130C0B2EB
:10556000B04707449DF80300B04705469DF8040086
:10557000B047C0EB0010800008FB05059DF8050052
:10558000B0470544ED1B29460B480C4B98470235A4
:10559000042D07D894F83A319DF805209B1A18BFBE
:1055A0000123BBE70023B9E745D20108D53B010839
:1055B00049D10108D9380108D4C902080D440108AD
:1055C0002DE9F04F8FB083460578C5F340050024E0
:1055D000A94FA046A94E06E0424621463846B047AC
:1055E0000134142C06D0002DF6D001222146384675
:1055F000B047F5E7A24B98479BF8003013F0010F36
:1056000024D113F0040F40F02D8113F0080F40F067
:10561000678213F0100F40F06E8213F0200F40F0FD
:10562000758213F0800F40F007839BF8013013F070
:10563000010F40F0088313F0100F00F00E839BF869
:1056400005306FF382038BF8053004E102230593E4
:105650008C4F8D488D4B984732208D4B98470120B9
:105660008C4B98470BF1050307931D4600242646F3
:10567000324621468048814B9847FF2305F8013F79
:105680000134142CF4D17E4B9847C820804B9847A6
:10569000814B98470BF1350306931D464FF00108E7
:1056A00000247E4EDFF80C9202E00134262C10D04C
:1056B000FF2305F8013F21463046B8470028F4D0C3
:1056C000611C4846714B984701232B704FF000082E
:1056D000EBE7C8206E4B9847012303934FF0000A75
:1056E000DFF8B89135E05E1CBAF1090F49D1049694
:1056F0002E464BE00123A3716DE30BEB0503012262
:1057000083F8362067E30134262C15D0A542FAD061
:10571000A642F8D021464846B8470028F3D0039A5D
:10572000611C5F48594B98470BEB0403012283F837
:1057300036204FF00008E6E7002251464E484F4B16
:1057400098470AF1010A039B01330393BAF1140F3E
:1057500055D00BEB0A04FF23A371012251464648A2
:10576000464B9847464B9847C820494B98474A4B69
:1057700098474FEA4A031D46BAF1090FB3DD1E46AA
:105780005D1EBAF1130F18BF0496B0D0252E00F39A
:10579000248329464846B84728B131464846B84789
:1057A000002840F0188329464846B84780463146CD
:1057B0004846B8470190731C00934346049A0399E6
:1057C0003848DFF8C880C047AE4200F0FB82294667
:1057D0004846B84728B931464846B8478046002869
:1057E00088D029464846B8478046002885D00BEB2C
:1057F0000603012283F836204FF00008EBE2002474
:1058000025462A4621461C481C4B98470134142C37
:10581000F7D11B4B98470024234E1C4DDDF8189000
:10582000DDF81CA01AF8013F19F8012F2146304677
:10583000A8470134142CF5D1B8F1000F10D0059B06
:10584000013B05937FF405AF01229BF8043062F31E
:1058500000038BF8043040F23B100FB0BDE8F08F2E
:105860000022F2E71148094B98474FF00108002544
:105870000F4FDFF844A07AE078510020D54E0108A0
:10588000C1FE0108954E0108D4C602080D44010866
:10589000D53B0108B5540108CDFE01086051002038
:1058A00044C7020818C7020864C702087CC7020878
:1058B000C94F0108F4C6020858CA0208BDF82230D0
:1058C00041F28E2202FB03F2C3F5FF437F3392FBCA
:1058D000F3F344F8043B3220B54B9847B44210D060
:1058E0000A220DF122012846B8470028E6D0009090
:1058F00040F2B9135246AF49AF48DFF8C492C847E7
:10590000DCE709A800260136042E00F3CF82031D30
:10591000844653F8041B0268914284BFCCF80010FF
:1059200043F8042CA342F4D10430042EEBD10B9A9B
:105930000BEB4503A3F8AA2042F279639A4240F2A6
:10594000588242F2A6739A420AD9691C9B489C4B22
:10595000984702230BEB050282F882304FF00008D3
:10596000984B9847064628B90135062D03D00EAE50
:1059700009ACB5E700264FF08B4ADFF8709253E28E
:10598000BDF82200904B98475146904B9847904F56
:105990004946B8478F49B8478F4B984745F8040B9D
:1059A0003220834B9847A54210D00A220DF12201E4
:1059B00030468A4B98470028E2D000904FF4EF73AE
:1059C000874A7C497C487E4FB847D9E709A8002719
:1059D0000137042F00F36C82031D844653F8041B27
:1059E0000268914284BFCCF8001043F8042C9D4219
:1059F000F4D10430042FEBD10B9B3746B21D0BEBD7
:105A00004601A1F8B6302C2B40F2F981372B40F239
:105A10000182711C7348DFF8A881C0470223F4E1BA
:105A20000027DFF8F89109AC13E0BDF82200664BBF
:105A300098476D49654B98476C49654B9847664B4D
:105A40009847400044F8040B3220594B9847A54230
:105A500011D00A220DF122013846C8470646002817
:105A6000E3D0009040F203235D4A52495248DFF8E8
:105A700050A1D047D9E709A800240134042C00F331
:105A80001982031D844653F8041B0268914284BFA7
:105A9000CCF8001043F8042C9D42F4D10430042CBF
:105AA000EBD10B9B3C4607F10C020BEB4701A1F835
:105AB000C230B3F5965FC0F0B98141F250418B42DC
:105AC00040F2BF81791C4A48DFF8F480C0470223C6
:105AD000B2E100238BF8FA304648394B9847CDE1C4
